:1000000000800020BD01000001790000B9780000E7
:10001000B9780000B9780000B9780000B97800001C
:10002000B9780000B9780000B978000001790000C3
:1000300001790000B9780000F1890000F58900001D
:1000400001790000017900000179000001790000C8
:1000500001790000017900000179000001790000B8
:1000600001790000017900000179000001790000A8
:100070000179000001790000017900000179000098
:100080000179000001790000017900000179000088
:100090000179000001790000017900000179000078
:1000A0000179000001790000017900000179000068
:1000B0000179000001790000017900000179000058
:1000C0000179000001790000017900000179000048
:1000D0000179000001790000017900000179000038
:1000E0000179000001790000017900000179000028
:1000F0000179000001790000017900000179000018
:100100000179000001790000017900000179000007
:1001100001790000017900000179000001790000F7
:1001200001790000017900000179000001790000E7
:1001300001790000017900000179000001790000D7
:1001400001790000017900000179000001790000C7
:1001500001790000017900000179000001790000B7
:1001600001790000CD7C00000179000001790000D8
:100170000179000001790000017900000179000097
:100180000179000001790000017900000179000087
:100190000179000001790000017900000179000077
:1001A0000179000001790000017900000179000067
:1001B000017900000179000001790000564B4CF2F2
:1001C000205210B51A804DF628121A8000BF00BFC9
:1001D00007F09AFB514B4FF010621A60504A9A6038
:1001E000504ADA60504A136813F4807304D14F49BF
:1001F0000B604FF4A85313604D4B1A78110703D5C9
:100200001A7842F008021A704A4B4B492A221A7097
:100210004A4A4B4B8B4204D252F8040F43F8040B6A
:10022000F8E7484B484900228B4202D243F8042B9E
:10023000FAE74649464A002352F8230041F82300D2
:1002400001336F2BF8D1434B434A802103F8011B44
:100250009342FBD1414B3D4A1A60414B8A221A70AE
:10026000A3F5805324225A70A0221A709A7992071B
:10027000FCD59A79D406FCD43A4A937903F00C035E
:10028000082B384BF9D103221A7140225A719A79FE
:100290009006FCD5334A9179324B4906FBD5324A58
:1002A000324911600221516020221A709A7902F0BD
:1002B0000C020C2AFAD12E4B2E4A1A602E4B2F4AD2
:1002C0001A6000225A60072243F8042C2C4AC3F813
:1002D0000C2D62B607F0D0FB144B1B68DA0705D56E
:1002E000284807F045FB284B284A1A60284B1B7802
:1002F0005B0609D5244C254B22689A4204D121483B
:1003000007F036FB0023236007F004FB12F080FFA8
:1003100008F038FCFEE700BF0E20054030800440A6
:10032000823F04000100002B10D0034014D0034092
:1003300002D0074000E007405898FF1F6CE501001D
:10034000308CFF1F5898FF1FB8E2FF1F0082FF1F6D
:100350000000000000E400E05FE400E008ED00E0E1
:100360000050064000400640448004400000030165
:1003700004800440C010050014E000E0FF76010096
:1003800000002020BF12FD621CE00340A5C3945A68
:1003900000F00740FFFFFFFFFFFFFFFFFFFFFFFF32
:1003A000FFFFFFFFFFFFFFFFFFFFFFFFFFFFFFFF5D
:1003B000FFFFFFFFFFFFFFFFFFFFFFFFFFFFFFFF4D
:1003C000FFFFFFFFFFFFFFFFFFFFFFFFFFFFFFFF3D
:1003D000FFFFFFFFFFFFFFFFFFFFFFFFFFFFFFFF2D
:1003E000FFFFFFFFFFFFFFFFFFFFFFFFFFFFFFFF1D
:1003F000FFFFFFFFFFFFFFFFFFFFFFFFFFFFFFFF0D
:10040000FFFFFFFFFFFFFFFFFFFFFFFFDEF9FFFF23
:1004100010B5054C237833B9044B13B10448AFF33E
:1004200000800123237010BD5898FF1F00000000BA
:10043000ACE10100084B10B51BB108490848AFF307
:1004400000800848036803B910BD074B002BFBD0A0
:10045000BDE81040184700BF000000005C98FF1F77
:10046000ACE101005898FF1F00000000704700BF7A
:10047000002070470020704744F210230022C2542D
:10048000704700BF08B507F087FA002108BD00BF1C
:1004900010B584B00222684608F05AFB054C009B58
:1004A0006846002B18BF1C4608F0C8FA204604B066
:1004B00010BD00BF0EC0010010B584B011466846E3
:1004C0000A2208F031FB054C009B6846002B18BF40
:1004D0001C4608F0B3FA204604B010BD0EC001005F
:1004E00010B584B00A22684608F00AFB054C009B50
:1004F0006846002B18BF1C4608F0A0FA204604B03E
:1005000010BD00BF0EC0010010B584B00A226846BD
:1005100008F0E2FA054C009B6846002B18BF1C4609
:1005200008F08CFA204604B010BD00BF0EC00100D8
:1005300010B5044605E008F0CFF8C1B2204604F03B
:1005400009FC08F005F90028F5D110BD10B5044BE1
:10055000044640F8D03B03F061F9204610BD00BFCF
:10056000D4B3010010B5064B044640F8D03B03F06D
:1005700055F9204644F2182108F010FB204610BD22
:10058000D4B30100F8B542F2E40242F2E00382582B
:10059000C3589342054613D000F503573C463E46E8
:1005A00020341C3724363A681A402A44013392F822
:1005B000D800236008F07AF9236832689342F2D1B8
:1005C00044F2FC03EA5C32B144F210210120002223
:1005D0006854EA54F8BDF8BD10B503680C4A1B6AAC
:1005E000934284B00ED10A22684608F089FA094C79
:1005F000009B6846002B18BF1C4608F01FFA2046D7
:1006000004B010BD98470446204604B010BD00BF9A
:10061000E10400000EC0010010B503680C4ADB695C
:10062000934284B00ED10A22684608F055FA094C6C
:10063000009B6846002B18BF1C4608F0FFF92046B7
:1006400004B010BD98470446204604B010BD00BF5A
:10065000090500000EC001002DE9F8430446884654
:100660000221174604F0ACFB2046722104F0A8FBDF
:10067000DFF87C915525002608E00136B6B2294600
:10068000204604F09DFB19F806504DB1022D4FF0A5
:100690001001204601D08D42EFD104F091FBECE730
:1006A0001921204604F08CFB0321204604F088FB2E
:1006B0000221204604F084FB0221204604F080FB46
:1006C0007221204604F07CFB98F800604EB912E0DD
:1006D0000135ADB23146204604F072FB18F80560D2
:1006E0004EB1022E4FF01001204601D08E42EFD1C4
:1006F00004F066FBECE71921204604F061FB0321BE
:10070000204604F05DFB0221204604F059FB022143
:10071000204604F055FB7221204604F051FB3D7841
:100720009DB1002607E00136B6B22946204604F006
:1007300047FBBD5D4DB1022D4FF01001204601D0A9
:100740008D42F0D104F03CFBEDE71921204604F086
:1007500037FB0321204604F033FB0221204604F03E
:100760002FFB0221204604F02BFB7221204604F0CF
:1007700027FB0D21204604F023FB1921204604F01D
:100780001FFB0321204604F01BFB0221204604F03E
:1007900017FB0221204604F013FB7221204604F0CF
:1007A0000FFB55260025114F07E00135ADB231464C
:1007B000204604F005FB7E5D4EB1022E4FF0100185
:1007C000204601D08E42F0D104F0FAFAEDE720463F
:1007D000192104F0F5FA2046032104F0F1FA20462D
:1007E0000221BDE8F84304F0EBBA00BFACB401004D
:1007F00098B401002DE9F04F0E4687B004469449A5
:100800003046174613F000FD002800F0F88030460F
:10081000904913F0F9FC054618B1002007B0BDE877
:10082000F08F06AE394646F8140D2046324603F0E6
:100830004BFC324639468146204603F0CDFE8246C7
:100840008B462046022104F0BBFA7221204604F0B8
:10085000B7FA814F742607E00135ADB23146204624
:1008600004F0AEFA7E5D4EB1022E4FF0100120462C
:1008700001D08E42F0D104F0A3FAEDE71921204611
:1008800004F09EFA0321204604F09AFA0221204641
:1008900004F096FA2368714ADB69934240F0CE80F7
:1008A00002AD49460A22284608F016F9029B6C4A16
:1008B0002846002B14BF9946914608F0BFF8022144
:1008C000204604F07DFA7221204604F079FA99F866
:1008D00000504FF000085DB914E008F101081FFA5C
:1008E00088F82946204604F06BFA19F808504DB1F3
:1008F000022D4FF01001204601D08D42EDD104F0C1
:100900005FFAEAE71921204604F05AFA032120464B
:1009100004F056FA0221204604F052FA0221204641
:1009200004F04EFA7221204604F04AFA3B260025D4
:10093000DFF8389108E00135ADB23146204604F0C9
:100940003FFA19F805604EB1022E4FF01001204613
:1009500001D08E42EFD104F033FAECE719212046A2
:1009600004F02EFA0321204604F02AFA0221204640
:1009700004F026FA5046594610F0B8FD2368394A6B
:100980001B6B93425FD102AD01460222284608F05C
:10099000DFF8029F324B2846002F08BF1F4608F0A1
:1009A0004DF80221204604F00BFA7221204604F093
:1009B00007FA3D78002645B911E00136B6B229465E
:1009C000204604F0FDF9BD5D4DB1022D4FF0100140
:1009D000204601D08D42F0D104F0F2F9EDE7204637
:1009E000192104F0EDF92046032104F0E9F920462D
:1009F000022104F0E5F9012007B0BDE8F08F0221E3
:100A00000546204604F0DCF97221204604F0D8F9AE
:100A1000154F542608E00135ADB23146204604F0AA
:100A2000CFF97E5D002EDAD0022E4FF01001204665
:100A300001D08E42EFD104F0C3F9ECE749462046DD
:100A4000984781463BE70146204698470746A8E776
:100A5000E4B40100FCB4010004B501000905000084
:100A60000EC0010091040000ECB401001CB50100AF
:100A70002DE9F0438BB00DF12808152548F8285DC5
:100A8000894600224146044606AF04A8049708F0B0
:100A9000A9FB009B774906932A46049006F038FE8E
:100AA000009B049A05930026D6544846724913F0D9
:100AB000ABFB80B14846714913F0A6FB0546002800
:100AC00000F09D800498B84201D008F065F83046E7
:100AD0000BB0BDE8F08302210546204604F070F912
:100AE0007221204604F06CF9DFF8A091532608E04B
:100AF0000135ADB23146204604F062F919F80560BF
:100B00004EB1022E4FF01001204601D08E42EFD19F
:100B100004F056F9ECE71921204604F051F90321BD
:100B2000204604F04DF90221204604F049F92368DB
:100B3000534A5B68934240F0938006F02DFF226891
:100B4000504B516A994240F08F8001460A2240463C
:100B500007F0EAFF009B4C4A4046002B14BF984622
:100B6000904607F06BFF0221204604F029F972211C
:100B7000204604F025F998F8005000264DB912E0FF
:100B80000136B6B22946204604F01AF918F8065084
:100B90004DB1022D4FF01001204601D08D42EFD112
:100BA00004F00EF9ECE71921204604F009F90321BD
:100BB000204604F005F90221204604F001F9022143
:100BC000204604F0FDF87221204604F0F9F82026B2
:100BD0000025DFF8BC8008E00135ADB23146204683
:100BE00004F0EEF818F80560B6B1022E4FF01001CF
:100BF000204601D08E42EFD104F0E2F8ECE7DDF8B8
:100C000010800221204604F0DBF87221204604F017
:100C1000D7F898F80060CEB91921204604F0D0F832
:100C20000321204604F0CCF82046022104F0C8F845
:100C3000012647E704F0C4F80135ADB2314620463D
:100C400004F0BEF818F80560002EE5D0022E4FF033
:100C500010012046EED08E42EED104F0B1F8EBE761
:100C6000204698470E466AE70246334620468847A4
:100C7000804678E728B5010040B5010064B5010061
:100C800085040000B90400000EC001004CB501004D
:100C90005CB50100024A034944F20413D150704785
:100CA0007898FF1F6CB501002DE9F843B14CB24BA9
:100CB000236000254FF4005604F1D000C4F8CC5056
:100CC00002F0AAFD3246294604F1D800C4F8D450F7
:100CD00012F07CFF42F2D80242F2DC0142F2E00064
:100CE00042F2E40341F6FF78A65044F80180324610
:100CF00029462550A148E55012F068FF44F2E80368
:100D000044F2EC00E65044F2F00344F8008044F270
:100D1000F400E55044F2F80644F2FC03255044F296
:100D20000410E554A551964B235004F5824644F235
:100D30000810336044F20C13924E26504FF47A7030
:100D4000E05244F2141644F2181344F21C10A55158
:100D5000E55044F2241644F22813255044F22C1096
:100D6000A551E55044F22E1644F23013864F255219
:100D700044F2FA10A553E552844A3968255244F2E8
:100D8000FC1644F2101301204CF250384FF00009C9
:100D9000A553E054C2E90089002900F0D28044F252
:100DA000102201217A4B7B48A154236007F02AFED0
:100DB000794B7A48236002F0C9FE794802F0C6FEFA
:100DC000784802F0C3FE784802F0C0FE774802F08F
:100DD000BDFE774802F0BAFE764802F0B7FE7648CC
:100DE00002F0B4FE754802F0B1FE754802F0AEFEA6
:100DF000744802F0ABFE744802F0A8FE734802F09B
:100E0000A5FE734802F00CFD724802F009FD72481D
:100E100002F006FD714802F003FD714802F0D8FEB1
:100E2000704802F093FE704802F090FE6F4802F0A6
:100E30008DFE6F4802F08AFE6E4802F087FE6E4813
:100E400002F084FE6D4802F081FE6D4802F07EFEE5
:100E50006C4802F07BFE6C4802F078FE6B4802F0B2
:100E600075FE6B4802F076FD6A4802F073FD6A4831
:100E700002F070FD694802F06DFD694802F06AFDFC
:100E8000684802F0A5FE684802F0A2FE674802F03A
:100E90009FFE674802F09CFE664802F07BFF6648B2
:100EA00002F078FF654802F075FF654802F0DEFF4A
:100EB000644802F0DBFF644802F0D8FF634802F0A8
:100EC000D5FF634802F0D2FF624802F0CFFF6248CC
:100ED00002F03CFE614802F039FE614802F036FE45
:100EE000604802F033FE604802F030FE5F4802F0D6
:100EF00031FD5F4802F02EFD5E4802F02BFD5E489A
:100F000002F028FD5D4802F025FD5D4802F088FCF6
:100F10005C4802F085FC5C4802F082FC5B4802F011
:100F200057FE5B4802F07CFC5A4802F079FC5A48B4
:100F300002F076FC594A5A490E48BDE8F84308F0D9
:100F40004BB95848CBB2082213F0800F02F1FF32A0
:100F50004FEA430318BF83F0D50312F0FF02DBB260
:100F6000F2D10131B1F5807F00F8013FEAD10123D0
:100F70003B6014E77898FF1FD4B3010060B9FF1FEE
:100F800080B5010094B5010038DFFF1F80DAFF1F34
:100F900018B40100408CFF1F5CB401008CDAFF1F05
:100FA00098DAFF1FA4DAFF1FB0DAFF1FBCDAFF1FB9
:100FB000C8DAFF1FD4DAFF1FE0DAFF1FECDAFF1FE9
:100FC000F8DAFF1F04DBFF1F10DBFF1F1CDBFF1F16
:100FD00028DBFF1F40DBFF1F58DBFF1F70DBFF1FFD
:100FE00090DBFF1FB0DBFF1FBCDBFF1FCCDBFF1F55
:100FF000D8DBFF1FE4DBFF1FF0DBFF1FFCDBFF1F65
:1010000008DCFF1F14DCFF1F20DCFF1F2CDCFF1F90
:1010100038DCFF1F54DCFF1F70DCFF1F8CDCFF1F60
:10102000A8DCFF1FC4DCFF1FE0DCFF1FFCDCFF1F90
:1010300018DDFF1F38DDFF1F44DDFF1F50DDFF1FE0
:101040005CDDFF1F68DDFF1F74DDFF1F80DDFF1FFC
:101050008CDDFF1F98DDFF1FA4DDFF1FB0DDFF1F2C
:10106000BCDDFF1FC8DDFF1FD4DDFF1FE0DDFF1F5C
:10107000FCDDFF1F18DEFF1F34DEFF1F50DEFF1FE9
:101080006CDEFF1F84DEFF1F9CDEFF1FB4DEFF1F30
:10109000D8DEFF1FF0DEFF1F08DFFF1F308CFF1FB1
:1010A000FD2B00003BDFFF1F2DE9F04F524D8DB0AF
:1010B000284604F043F942F2E00342F2E402EB581E
:1010C000AA589A420FD04D4F3C1D261D3A681A402F
:1010D0002A44013392F8D800236007F0E7FB236825
:1010E00032689342F2D144F2FC03434AE95C29B1ED
:1010F00044F21020012400211454D15444F20E1360
:10110000DFF8F4B0EE5C012E44F2241305D0002287
:101110004BF803200DB0BDE8F08F5BF80340002CC6
:1011200000F08A803649374A0B680A930A9B106898
:101130001B1A102BEED90B680B930B9B32481360D4
:101140002D4C02F0CFFB002841F0E6802F4F07F135
:1011500018062E48284C02F0C5FB002841F0C78035
:101160002B48254E02F0BEFB002841F0AA8044F235
:10117000A863F458022C01F02D81032C00F079862D
:10118000012C00F0308744F25033EB58002B40F034
:10119000318744F2BC43EB5803B31E4802F08EFA89
:1011A00001461D4802F0E0FD1C4802F087FA0146A6
:1011B0001B4802F0D9FD1B4802F08CFA0146044698
:1011C000194802F081FC2146184802F07DFC1848BD
:1011D00002F074FA0146174802F0C6FD44F25C635F
:1011E000054EEB58002B40F09787034804F0C0FAF7
:1011F0000DB0BDE8F08F00BF7898FF1F54B9FF1FF6
:101200003CE0FF1F7498FF1FD8DEFF1FF0DEFF1FBA
:1012100008DFFF1F38DCFF1FC4DCFF1F54DCFF1F8B
:10122000E0DCFF1F70DCFF1F8CDCFF1FA8DCFF1F52
:10123000FCDCFF1F18DDFF1F44F2281E02274FF0C1
:10124000050A4BF80E404BF803603D222121584619
:1012500004F03AFA32468DE890041823BA49BB48A4
:1012600002F02CFB07230197009322461823B8496C
:10127000B848CDF808A002F021FB0E230197009397
:1012800022461823B449B548CDF808A002F016FB51
:101290004FF4F8730493B24B039344F25C6E002353
:1012A00002930A220F238DE80C00AE494BF80E6022
:1012B00016232246AC4802F07BFD4621AA4802F0E4
:1012C000AFFDA949A94B0093192201F12400019215
:1012D000A74BA84A4FF0FF0802F0D6FD4B22434629
:1012E0001146CDF80080A44802F000FE9E49A34BB1
:1012F0000093192201F1300001929D4BA04A02F0A7
:10130000C3FD4146CDF80080234622469D4802F0A9
:10131000EDFD95499C4B0093192201F13C0001928F
:10132000934B9A4A02F0B0FD42462346CDF8008026
:101330002146974802F0DAFD9249A1F1300002F00F
:1013400077FD9349A1F13C0002F072FD8A49A1F1B9
:10135000240002F06DFD884802F00CFA894802F082
:1013600009FA8B4802F006FA1123324600960193DF
:10137000884989480294262302F0F6FB11233A4655
:1013800001930096262385498548029402F0ECFBE0
:101390000A234FF00C090393212300970596069327
:1013A000CDF80490282303227E497F4804940294B8
:1013B00002F06AFB4B231A46CDF80480CDF800807A
:1013C0000621794802F0ACFB212306930A238DE81D
:1013D0008002039305965246282374497448049466
:1013E000029402F051FB42468DE81001234606218B
:1013F0006F4802F095FB212306930A238DE88002B3
:1014000003930596072228236A496B4804940294A3
:1014100002F03AFB4346CDF8048022460621664896
:10142000009402F07DFB4FF4C473002202920A2163
:101430000F220493614B03938DE8060016230B22C1
:101440005F49604802F0B4FC14215E4802F0E8FCF9
:101450005D4B5C49CDF804901A4601F13C000093C5
:101460005A4B02F011FD5A49A1F13C0002F0E0FC98
:10147000574802F07FF916234A46009601935549D2
:1014800055480294262302F06FFB042202922F2279
:1014900001960F230092514951484FF0FF3202F05C
:1014A0000DFA042302932F238DE848004FF0FF32FA
:1014B00011234C494C4802F001FA0723019303968B
:1014C000009634231022494949480494029402F0BA
:1014D00015FC282003228DE805000F2322464549EC
:1014E0004548CDF808A002F0E9F9152300970193CB
:1014F0001322262341494248029402F035FB2F4B28
:10150000039300234FF00F0E02930A238DE8084047
:1015100040F2C71116231A4604913A483A4902F09C
:1015200047FC0F4A3748002102F06AFC4621354843
:1015300002F076FC3349244B0093112301F13C0067
:101540000193324A64E000BFA0B50100D8DEFF1F5E
:10155000B4B50100F0DEFF1FC8B5010008DFFF1FB2
:1015600000002041D0B5010038DDFF1FF4B50100B7
:10157000DCB50100E4B501005CDDFF1F14B601001D
:1015800004B6010068DDFF1F34B6010024B6010077
:1015900074DDFF1F44B60100A4DDFF1F6CB601001F
:1015A000B0DDFF1F98B60100E0DDFF1FA4B601000B
:1015B000FCDDFF1FB0B6010018DEFF1F0000C842AF
:1015C000BCB6010044DDFF1FE0B60100CCB601004F
:1015D00080DDFF1FE8B60100BCDDFF1F20B7010062
:1015E0006CDEFF1F24B7010084DEFF1F30B701004F
:1015F000B4DEFF1F38B701009CDEFF1F4CB70100AF
:10160000C8DDFF1F50DDFF1F80B7010098B7010044
:10161000AF4B02F039FCAF49AF4A03230193AF4B04
:10162000009301F14800AA4B02F02EFCAC4802F0F6
:10163000A1F8AC4802F09EF81623019300962623E9
:101640001722A949A948029402F08EFA64214FF0AA
:10165000290803911021009705962823192201914A
:10166000A348A44904940294CDF8188002F00CFA1F
:101670000A2304930393202210239849019300978F
:101680002823059606929C4802941B2202F0FCF93E
:1016900044F25C6399484BF8034002F053F89848D1
:1016A00002F050F88B4802F04DF8964802F04AF8E4
:1016B000954802F047F8954802F044F8944802F043
:1016C00041F8944802F03EF8934802F03BF8934802
:1016D00002F038F8924802F035F8924802F032F8F9
:1016E000914802F02FF8914802F02CF87F4802F060
:1016F00029F87F4802F026F87F4802F023F844F2E8
:10170000BC4E8DE880023246029414234BF80E60E2
:101710008749884802F028FA0E2332460193009741
:10172000434685498548029402F01EFA0D2300972E
:1017300007220193824983480294142302F014FA89
:10174000102301930097434607227F497F48029464
:1017500002F00AFA8DE880020D2214237C497D48AC
:10176000029402F001FA8DE8800243460D227A4984
:101770007A48029402F0F8F9102301930097434647
:10178000112277497748029402F0EEF98DE8800241
:101790001423172274497548029402F0E5F98DE884
:1017A00080024346172272497248029402F0DCF923
:1017B000642303931523019300970696059603224D
:1017C00014236D496D480494029402F05DF91623C8
:1017D0000193032306936423039300970596142330
:1017E0000922674967480494029402F04DF9642382
:1017F000039311230193009705960F221423624946
:101800006248CDF818800494029402F03DF9202338
:1018100012210693642303930097059643460F22F3
:1018200001915B485B490494029402F02DF9202356
:10183000132206936423039300970596434601926F
:10184000554956480494029402F01EF95146234625
:10185000224652480194009402F062F9234622463F
:1018600009214E480194009402F05AF94FF441794D
:101870004B4B03968DE880040322CDF8149004931B
:101880004849494802942A2302F054FA444BCDF8BF
:10189000149004938DE8800403962A230922414979
:1018A0004248029402F046FA072305933C4B049306
:1018B0000D230193009703961922142332493C48C3
:1018C000029402F037FA04230593354B049371E038
:1018D000DCB5010050DDFF1F90B70100A8B7010083
:1018E0008CDDFF1F98DDFF1FBCB70100D4DDFF1F9B
:1018F00034DEFF1FF4B7010050DEFF1F38DDFF1F8D
:1019000044DDFF1FA4DDFF1FB0DDFF1FE0DDFF1F73
:10191000FCDDFF1F18DEFF1FBCDDFF1F6CDEFF1F9D
:1019200084DEFF1FB4DEFF1F9CDEFF1FC8DDFF1F2C
:1019300008B80100CCDBFF1F3CB80100E4DBFF1F4F
:1019400074B80100D8DBFF1FACB80100F0DBFF1F4B
:10195000E8B80100FCDBFF1F1CB9010008DCFF1F19
:101960004CB9010014DCFF1F88B9010020DCFF1F07
:10197000BCB901002CDCFF1FE8B9010038DCFF1FF7
:1019800010BA010054DCFF1F3CBA010070DCFF1FDD
:101990008CDCFF1F50BA010068BA0100A8DCFF1FF1
:1019A00084BA010034BD0100C4DCFF1FE0DCFF1F6E
:1019B000FCDCFF1F10231922B04901930097039606
:1019C0004346AF48029402F0B5F944F2BC43AD4837
:1019D000EC5001F0B7FEAC4801F0B4FEAB4801F0AA
:1019E000B1FEAB4801F0AEFEAA4801F0ABFEAA483A
:1019F00001F0A8FEA94801F0A5FEA94801F0A2FE49
:101A0000A84801F09FFEA84801F09CFEA74801F0FD
:101A100099FEA74801F096FEA64801F093FEA6485D
:101A200001F090FEA54801F08DFEA54801F08AFE68
:101A3000A44801F087FE924801F084FE44F2503E33
:101A40008DE8800432460294192345F80E609E49C1
:101A50009E4802F089F84FF0060932468DE880046E
:101A600043469B499B48029402F07EF8032200966D
:101A70004346994999480294CDF8049002F074F8CD
:101A800007230193009643460E22954995480294F8
:101A900002F06AF8082119234A46009701919248FA
:101AA0009249029402F060F88F4801F04BFE0B213E
:101AB000009719234A4601918D488E49029402F0FD
:101AC00053F80D230193009719230A228A498B4862
:101AD000029402F049F80B231122894901930097DF
:101AE00019238848029402F03FF8864801F02AFE44
:101AF0000B230193009719231122834983480294F1
:101B000002F032F810230193009643465246804972
:101B100002940BF5854002F027F8112301930096FB
:101B2000434609227B497C48029402F01DF80E23AB
:101B3000019310220096434678497948029402F0B6
:101B400013F80F23019300964346142275497648F3
:101B5000029402F009F801974B464FF0FF327349A7
:101B60007348CDF80080CDF808A001F0A7FE714BB6
:101B7000039604220721059201914A460097049397
:101B80006D496E4802942E2302F0D4F801970A237F
:101B90004FF0FF326A496B48CDF80080CDF808A0BD
:101BA00001F08CFE01971123224667496748CDF862
:101BB0000080CDF808A001F081FE042311226449C1
:101BC000019300972F236348029401F0CDFF6148F1
:101BD00001F0B8FD0423019311222F2300975E49E1
:101BE0005E48029401F0C0FF1523019722465C492C
:101BF0005C48CDF80080CDF808A001F05FFE44F20B
:101C0000103644F2343244F2143339465846AC515B
:101C1000AC50EC5403F0D4F8584672210D2603F072
:101C2000CFF8514F07E00134A4B231464F4803F0DA
:101C3000C7F83E5D4EB1022E4FF010014B4801D067
:101C40008E42F0D103F0BCF8EDE719214748484F28
:101C500003F0B6F80321454803F0B2F802214348E7
:101C600003F0AEF80221414803F0AAF872213F4880
:101C700003F0A6F8B346502487E000BF8CBA0100F9
:101C800018DDFF1FCCDBFF1FE4DBFF1FD8DBFF1FCE
:101C9000F0DBFF1FFCDBFF1F08DCFF1F20DCFF1F4A
:101CA0002CDCFF1F14DCFF1F38DCFF1F54DCFF1F80
:101CB00070DCFF1F8CDCFF1FA8DCFF1FC4DCFF1FD4
:101CC000E0DCFF1FFCDCFF1FA8BA01008CDAFF1F5D
:101CD000D0BA010098DAFF1FF8BA0100A4DAFF1F9A
:101CE00024BB0100B0DAFF1FC8DAFF1F54BB01009C
:101CF000BCDAFF1F68BB01009CBB0100D4DAFF1FE8
:101D0000D8BB0100ECDAFF1F0CBC0100E0DAFF1FBA
:101D100048BC010070BC010004DBFF1F9CBC01003B
:101D200010DBFF1FB4BC01001CDBFF1FD8BC01008F
:101D300028DBFF1FE0BC010034BD010090DBFF1F6A
:101D400044B7010040DBFF1FE8BC010058DBFF1F68
:101D5000F0BC0100B0DBFF1FF8BC0100BCDBFF1FC3
:101D600000BD010070DBFF1F08BD01007898FF1F58
:101D700038BD01000BF1010B1FFA8BFB2146AD486A
:101D800003F01EF817F80B404CB1022C4FF0100175
:101D9000A84801D08C42EDD103F012F8EAE71921EE
:101DA000A448A54F03F00CF80321A24803F008F85B
:101DB0000221A04803F004F802219E4803F000F835
:101DC00072219C48264602F0FBFF4F2407E00136B3
:101DD000B6B22146974802F0F3FFBC5D4CB1022C2D
:101DE0004FF01001934801D08C42F0D102F0E8FF8F
:101DF000EDE719218F48DFF81C8302F0E1FF032192
:101E00008C4802F0DDFF02218A4802F0D9FF02214E
:101E1000884802F0D5FF7221864802F0D1FF2D26B6
:101E200008E00134A4B23146384602F0C9FF18F880
:101E3000046056B17F4F022E38464FF0100101D09A
:101E40008E42EED102F0BCFFEBE71921384602F0DA
:101E5000B7FF0321384602F0B3FF0221384602F0F3
:101E6000AFFF44F20E13FB5C012B3FF45BA9FFF7BD
:101E700051B944F25C676F4CEE59002E7FF483A990
:101E800044F2BC436D48E65001F05CFC6C4801F044
:101E900059FC6C4801F056FC6B4801F053FC6B4850
:101EA00001F050FC6A4801F04DFC6A4801F04AFC20
:101EB000694801F047FC694801F044FC684801F0BA
:101EC00041FC684801F03EFC674801F03BFC674874
:101ED00001F038FC664801F035FC664801F032FC40
:101EE000654801F02FFC44F25038644801F02AFCA8
:101EF000634801F027FC634844F8086001F022FCC5
:101F0000614801F01FFC614801F01CFC604801F0D1
:101F100019FC604801F016FC5F4801F013FC5F48B3
:101F200001F010FC5E4801F00DFC5E4801F00AFC77
:101F300004F5854001F006FC5B4801F003FC5B48BA
:101F400001F000FC5A4801F0FDFB5A4801F0FAFB91
:101F5000594801F0F7FB594801F0F4FB584801F0EB
:101F6000F1FB584801F0EEFB574801F0EBFB5748F6
:101F700001F0E8FB0123E351554801F0EBFB554824
:101F800001F0E8FB544801F0E5FB544801F0E2FBA6
:101F9000534801F0DFFB534801F0DCFB524801F0ED
:101FA000D9FB524801F0D6FB514801F0D3FB514810
:101FB00001F0D0FB504801F0CDFB504801F0CAFBC6
:101FC0004F4801F0C7FB4F4801F0C4FB4E4801F0F9
:101FD000C1FB4E4801F0BEFB4D4801F0BBFB54F87D
:101FE0000830FFF7D3B844F25036124FAB59002BEC
:101FF00000F0AA8232480F4C01F006FC002840F0A5
:10200000EC8430480B4C01F0FFFB002800F0F78017
:1020100044F23432A358591CA150062B00F2EF8031
:10202000DFE813F0B004A00491046604CB0044047C
:102030001E0400BF7898FF1F98BD0100CCDBFF1F76
:10204000E4DBFF1FD8DBFF1FF0DBFF1FFCDBFF1F04
:1020500008DCFF1F20DCFF1F2CDCFF1F14DCFF1F30
:1020600038DCFF1F54DCFF1F70DCFF1F8CDCFF1F00
:10207000A8DCFF1FC4DCFF1FE0DCFF1FFCDCFF1F30
:1020800018DDFF1F8CDAFF1F98DAFF1FA4DAFF1F8D
:10209000B0DAFF1FBCDAFF1FC8DAFF1FD4DAFF1F58
:1020A000E0DAFF1FECDAFF1F90DBFF1F04DBFF1FEE
:1020B00010DBFF1FB0DBFF1FBCDBFF1F1CDBFF1FA4
:1020C00028DBFF1F40DBFF1F58DBFF1F70DBFF1FFC
:1020D00038DDFF1F44DDFF1F50DDFF1FA4DDFF1FA4
:1020E000B0DDFF1FE0DDFF1FFCDDFF1F18DEFF1F5F
:1020F000BCDDFF1F6CDEFF1F84DEFF1FB4DEFF1F91
:102100009CDEFF1FC8DDFF1FD4DDFF1F34DEFF1F75
:1021100050DEFF1FECBD010005F03EFC0FF0ECFAB5
:102120000446894801F0D6FA21460246874801F064
:10213000CBFE874801F0CEFA21460246854801F0E1
:10214000C3FE854801F0C6FA21460246834801F0E5
:10215000BBFE834801F058FB002840F0AD84814865
:10216000814D01F051FB002840F086847F487E4D70
:1021700001F0B8FB002840F063847D4801F0AAFA22
:1021800001467C480FF006FA7B490FF0C1FB01467F
:102190007A4801F099FC764801F09CFA2146024603
:1021A000774801F091FE754801F094FA2146024605
:1021B000744801F089FEFFF718B80024FF268DE867
:1021C00050002246C82301216F4801F0EBFC224653
:1021D000C82301216D488DE8500001F0A5FB22467F
:1021E000C8230A2169488DE8500001F09DFB8DE865
:1021F00050002246C8230D21644801F095FB644835
:10220000594C01F06FFB002840F003846148564CA4
:1022100001F068FB00283EF4BCAF04F58646A6F149
:10222000080001F0EBFA3368002B40F0B98244F269
:1022300050330122A6F10800E25001F0DFFA3768BE
:10224000002F40F08B84544801F084FA534801F089
:1022500081FA534801F07EFA524801F07BFA524865
:1022600001F078FA44F214334748E75401F072FA67
:102270004E4801F06FFA3946454801F047FB04F536
:10228000854001F067FA4A4801F064FA494801F0D4
:1022900061FA494801F05EFA484801F05BFA4848A3
:1022A00001F058FA474801F055FA384801F052FA5F
:1022B000374801F04FFAA6F1080001F04BFAFEF79B
:1022C00068BF414801F09AFA44F29863F358002B32
:1022D00040F0278444F2A867F459032C7EF44AAFF7
:1022E0000121394801F012FBF459FEF743BF37488A
:1022F00001F084FA04F58D400368002B40F0F2836E
:1023000044F2A863E358022B7EF42AAF0838012177
:1023100001F0FCFAFEF724BF2D4801F06FFA44F2F9
:102320006863E358002B40F0EB8344F2A863E15864
:1023300001297EF40BAF264800F1180700F13006A2
:1023400001F0E4FAFEF705BFE0DDFF1F5CDDFF1FD3
:10235000FCDDFF1F68DDFF1F18DEFF1F74DDFF1FA0
:102360006CDEFF1F84DEFF1F7898FF1F9CDEFF1FBF
:1023700034DEFF1F0000C8420000204150DEFF1F76
:102380008CDDFF1F98DDFF1FD4DAFF1F40DBFF1F2E
:1023900058DBFF1F70DBFF1F8CDAFF1F98DAFF1F6F
:1023A000A4DAFF1FB0DAFF1FBCDAFF1FE0DAFF1F5D
:1023B00090DBFF1F04DBFF1F10DBFF1FBCDBFF1FD9
:1023C0001CDBFF1F28DBFF1F08DFFF1FF0DEFF1FE6
:1023D000D8DEFF1F44F2BC47BA4EEC59002C7EF405
:1023E000D2AE44F25C63B848F45001F0ABF9B748A0
:1023F00001F0A8F9B64801F0A5F9B64801F0A2F934
:10240000B54801F09FF9B54801F09CF9B44801F0D6
:1024100099F9B44801F096F9B34801F093F9B3483B
:1024200001F090F9B24801F08DF9B24801F08AF953
:10243000B14801F087F9B14801F084F9B04801F0E2
:1024400081F944F25038AF4801F07CF9AE4801F010
:1024500079F9AE4846F8084001F074F9AC4801F04B
:1024600071F9AC4801F06EF9AB4801F06BF9AB487B
:1024700001F068F9AA4801F065F9AA4801F062F98B
:10248000A94801F05FF9A94801F05CF906F585401B
:1024900001F058F9A64801F055F9A64801F052F9A3
:1024A000A54801F04FF9A54801F04CF9A44801F006
:1024B00049F9A44801F046F9A34801F043F9A348BB
:1024C00001F040F9A24801F03DF9A24801F03AF9C3
:1024D0000123F351A04801F03DF9A04801F03AF979
:1024E0009F4801F037F99F4801F034F99E4801F008
:1024F00031F99E4801F02EF99D4801F02BF99D48D5
:1025000001F028F99C4801F025F99C4801F022F9D6
:102510009B4801F01FF99B4801F01CF99A4801F013
:1025200019F99A4801F016F9994801F013F99948F8
:1025300001F010F9984801F00DF9984801F00AF9F6
:1025400056F80830FEF722BE44F25C625E48BB508B
:10255000099301F0F7F85D4801F0F4F85C4801F0E8
:10256000F1F85C4801F0EEF85B4801F0EBF85B48ED
:1025700001F0E8F85A4801F0E5F85A4801F0E2F8AD
:10258000594801F0DFF8594801F0DCF8584801F0EB
:10259000D9F8584801F0D6F8574801F0D3F8574811
:1025A00001F0D0F8564801F0CDF8564801F0CAF8CD
:1025B000554801F0C7F844F2BC42099BBB5066483D
:1025C00001F0C0F8654801F0BDF8654801F0BAF8BF
:1025D000644801F0B7F8644801F0B4F8634801F0CA
:1025E000B1F8634801F0AEF8624801F0ABF8624818
:1025F00001F0A8F8614801F0A5F8614801F0A2F8DF
:10260000604801F09FF8604801F09CF85F4801F0D5
:1026100099F85F4801F096F85E4801F093F807F5E5
:1026200086485D4801F08EF808F5D07001F08AF810
:10263000BC51A8F1080001F0E1F8D8F80040002CE6
:1026400040F0BA82314801F085F8314801F082F853
:10265000304801F07FF8304801F07CF82F4801F055
:1026600079F844F214332F48FC5401F073F82E48E3
:1026700001F070F82146364801F048F907F5854029
:1026800001F068F82A4801F065F82A4801F062F87C
:10269000294801F05FF82A4801F05CF8294801F068
:1026A00059F8294801F056F8284801F053F828480D
:1026B00001F050F8A8F1080001F04CF8BB59FEF702
:1026C00065BD00BF7898FF1F38DDFF1F44DDFF1F89
:1026D00050DDFF1FA4DDFF1FB0DDFF1FE0DDFF1F8A
:1026E000FCDDFF1F18DEFF1FBCDDFF1F6CDEFF1FC0
:1026F00084DEFF1FB4DEFF1F9CDEFF1FC8DDFF1F4F
:10270000D4DDFF1F34DEFF1F50DEFF1F8CDAFF1FFA
:1027100098DAFF1FA4DAFF1FB0DAFF1FBCDAFF1F31
:10272000C8DAFF1FD4DAFF1FE0DAFF1FECDAFF1F61
:1027300090DBFF1F04DBFF1F10DBFF1FB0DBFF1F61
:10274000BCDBFF1F1CDBFF1F28DBFF1F40DBFF1F65
:1027500058DBFF1F70DBFF1FCCDBFF1FE4DBFF1F1D
:10276000D8DBFF1FF0DBFF1FFCDBFF1F08DCFF1FB8
:1027700020DCFF1F2CDCFF1F14DCFF1F38DCFF1FD9
:1027800054DCFF1F70DCFF1F8CDCFF1FA8DCFF1F69
:10279000C4DCFF1FE0DCFF1FFCDCFF1F18DDFF1F98
:1027A00044F250370023E351A6F1EC0000F0CAFFD9
:1027B000A6F1E00000F0C6FFA6F1D40000F0C2FFD1
:1027C000A6F1C80000F0BEFFA6F1BC0000F0BAFF01
:1027D000A6F1B00000F0B6FFA6F1A40000F0B2FF31
:1027E000A6F1980000F0AEFFA6F18C0000F0AAFF61
:1027F00004F5854000F0A6FF06F1180000F0A2FFE6
:10280000A6F1740000F09EFFA6F1680000F09AFFA8
:1028100006F1380000F096FF06F1440000F092FF48
:10282000A6F15C0000F08EFFA6F1500000F08AFFD8
:10283000A6F1380000F086FFA6F1200000F082FF2C
:10284000A6F1080000F07EFFA6F15C0000F082FF18
:10285000A6F1080000F07EFF0123E351FEF799BCCA
:1028600044F23437FF2400260096019422467D234B
:102870000121C248EE5101F095F9224601940096DB
:102880007D230121BE4801F04FF8224601940096B5
:102890007D230A21BA4801F047F8019400962246A8
:1028A0007D230D21B64801F03FF8A8E4FF244B2317
:1028B000019400941A460121B04801F073F94B23AA
:1028C0001A46019400940121AD4801F02DF84B23E4
:1028D0001A46019400940A21A94801F025F84B23D7
:1028E000019400941A460D21A54801F01DF886E4D4
:1028F0000024FF26324623460196009401219F487A
:1029000001F050F9234622460194009402219B488D
:1029100001F048F9234632468DE8500001219848DD
:1029200001F002F8234632468DE850000A2194480F
:1029300000F0FAFF8DE85000234632460D21904802
:1029400000F0F2FF5BE4FF242346224601210194BC
:1029500000948A4801F026F90023019400941A4655
:102960000221A9E7FF2633463246012100240196C1
:102970000096824801F016F98DE850002246C823DF
:10298000022121E4FF2400262346224601940094DC
:1029900001217A4801F006F9224633460194009657
:1029A0000221764801F0FEF8334622460194009653
:1029B0000121734800F0B8FF334622460194009687
:1029C0000A216F4800F0B0FF01940096334622467A
:1029D0000D216B4800F0A8FF11E444F2103669485D
:1029E000A35901331946A35101F0BEF9A359032B92
:1029F0007FF407AB44F21436A35D002B00F0E780B0
:102A0000012B00F0ED8044F210330022EA50FFF772
:102A1000F8BA5D4800F0F2FE44F2E823E358002BD8
:102A200000F08E80594800F08DFE594800F092FE6B
:102A3000584800F087FE584800F08CFEFFF7E6BBD0
:102A4000564800F0DBFE44F22C63E958012900F0FF
:102A50008E80FF220025019200957D2301215048A0
:102A600001F0EEF9019500952B462A4603214C48CA
:102A700001F0E6F9FFF781BB4A4800F01FFE411F55
:102A8000484801F071F944F258634648EE5801365F
:102A9000EE5000F013FE31460246434801F008FABA
:102AA000404800F00BFE0028BFF660AB00213D4817
:102AB00001F05AF9FFF75ABB3A4800F0FFFD411DFB
:102AC000384801F051F944F258633648F558013559
:102AD000F55000F0F3FD29460246334801F0E8F9CD
:102AE000FFF73DBB44F2A863022200212038E250E8
:102AF00000F00CFF3046002100F008FFFEF730BB6D
:102B00002A4F44F2A8633846012207F11806002133
:102B1000E25000F0FBFE3046002100F0F7FEFEF729
:102B200018BB44F2A864032300212148335100F06C
:102B3000EDFE3846002100F0E9FE3459FEF71ABBDD
:102B4000134800F0FFFD114800F004FE124800F0A9
:102B5000F9FD104800F0FEFDFFF758BB154800F0E6
:102B6000F9FDA6F1080000F0F5FDFEF712BBFF2508
:102B7000019500952B462A4671E700BFD4DAFF1F66
:102B800040DBFF1F90DBFF1F58DBFF1FBCDBFF1F7D
:102B9000B0DBFF1FE0DAFF1FECDAFF1F9CDEFF1F38
:102BA00044DDFF1FB4DEFF1F80DDFF1FF0DEFF1FCF
:102BB000D8DEFF1F1CDBFF1FA8F15C0000F0CAFD80
:102BC000A8F1080000F0C6FDBB59FEF7DFBA0948BE
:102BD00000F0B8FD084800F0BDFD0123A35512E741
:102BE000054800F0AFFD034800F0B4FD0023A355F5
:102BF00009E700BFBCDAFF1FC8DAFF1F8A4B70B5B8
:102C00000360064600F58D40103001F0CDF906F561
:102C10008C40783001F0C8F906F5894406F58C40FF
:102C20004034603001F0C0F904F5BE7001F0ECF9F9
:102C300004F5B27001F0B8F904F5A67001F0B4F92A
:102C400004F59A7001F0B0F904F58C7001F0C4F944
:102C500004F1FC0001F0C0F904F1E00001F0BCF95E
:102C600004F1C40001F0B8F904F1A80001F0B4F9CE
:102C700004F19C0000F040FD04F1900000F03CFDE8
:102C800004F1840000F038FD04F1780000F034FD18
:102C900004F16C0000F030FD04F1600000F030FD44
:102CA00004F1540000F02CFD04F1480000F028FD70
:102CB00004F13C0000F024FD04F1300000F020FDA0
:102CC00004F1240000F01CFD04F1180000F016FDD2
:102CD00006F5864504F10C00543500F00FFD204642
:102CE00000F00CFD05F5A67001F08EF905F5987061
:102CF00001F08AF905F58A7001F086F905F1F8000E
:102D000001F082F905F1DC0001F066F905F1C0007F
:102D100001F062F905F1A40001F05EF905F1880007
:102D200001F05AF905F16C0001F056F905F1600067
:102D300000F0E2FC05F1540000F0DEFC05F1480073
:102D400000F0DAFC05F13C0000F0D6FC05F13000A3
:102D500000F0D2FC05F1240000F0CEFC05F11800D3
:102D600000F0CAFC06F5844405F10C00143400F0B0
:102D7000C3FC284600F0C0FC04F5987000F0BCFCD1
:102D800004F5927000F0B8FC04F5827001F03CF993
:102D900004F1E40001F008F904F1CC0001F004F9B9
:102DA00004F1B40001F000F904F19C0001F0FCF81A
:102DB00004F1900000F0A0FC04F1840000F09CFC01
:102DC00004F1780000F098FC06F5854000F094FCD2
:102DD00004F1600000F090FC04F1540000F08CFC61
:102DE00004F1480000F088FC04F13C0000F084FC91
:102DF00004F1300000F080FC04F1240000F07CFCC1
:102E000004F1180000F078FC04F10C0000F074FCF0
:102E1000204600F071FC3046044B40F8D03B00F0F7
:102E2000FDFC304670BD00BF5CB40100D4B30100AE
:102E30008C4B70B50360064600F58D40103001F0F4
:102E4000B3F806F58C40783001F0AEF806F5894409
:102E500006F58C404034603001F0A6F804F5BE70F1
:102E600001F0D2F804F5B27001F09EF804F5A670F6
:102E700001F09AF804F59A7001F096F804F58C7058
:102E800001F0AAF804F1FC0001F0A6F804F1E0005A
:102E900001F0A2F804F1C40001F09EF804F1A800CA
:102EA00001F09AF804F19C0000F026FC04F1900077
:102EB00000F022FC04F1840000F01EFC04F1780014
:102EC00000F01AFC04F16C0000F016FC04F1600044
:102ED00000F016FC04F1540000F012FC04F148006C
:102EE00000F00EFC04F13C0000F00AFC04F130009C
:102EF00000F006FC04F1240000F002FC04F11800CC
:102F000000F0FCFB06F5864504F10C00543500F09A
:102F1000F5FB204600F0F2FB05F5A67001F074F811
:102F200005F5987001F070F805F58A7001F06CF8FD
:102F300005F1F80001F068F805F1DC0001F04CF84B
:102F400005F1C00001F048F805F1A40001F044F8D3
:102F500005F1880001F040F805F16C0001F03CF843
:102F600005F1600000F0C8FB05F1540000F0C4FB5F
:102F700005F1480000F0C0FB05F13C0000F0BCFB8F
:102F800005F1300000F0B8FB05F1240000F0B4FBBF
:102F900005F1180000F0B0FB06F5844405F10C00C3
:102FA000143400F0A9FB284600F0A6FB04F5987045
:102FB00000F0A2FB04F5927000F09EFB04F5827015
:102FC00001F022F804F1E40000F0EEFF04F1CC007F
:102FD00000F0EAFF04F1B40000F0E6FF04F19C0009
:102FE00000F0E2FF04F1900000F086FB04F18400A1
:102FF00000F082FB04F1780000F07EFB06F58540CE
:1030000000F07AFB04F1600000F076FB04F154005C
:1030100000F072FB04F1480000F06EFB04F13C008C
:1030200000F06AFB04F1300000F066FB04F12400BC
:1030300000F062FB04F1180000F05EFB04F10C00EC
:1030400000F05AFB204600F057FB3046064B40F894
:10305000D03B00F0E3FB304644F2B06105F09EFD4A
:10306000304670BD5CB40100D4B301002DE9F04FCF
:1030700099B000258846044602AE0846C749009626
:1030800001958DF8085011F0BFF800BB02210746EA
:10309000204601F095FE7221204601F091FEDFF8F6
:1030A0000483742509E00137BFB22946204601F0A8
:1030B00087FE18F80750002D7CD0022D4FF010012C
:1030C000204601D08D42EED101F07AFEEBE7B44B01
:1030D0008DF8275093E803000DF1380902230F0CF7
:1030E0000890ADF824101A468DF83A500D93072534
:1030F00040F60D2306A849460DF1200A8DF82670EA
:103100000795ADF83830CDF83090CDF818A006F01E
:10311000E7F80DF1500B0746CDF848B057F8083BDB
:10312000BB42054600F0A3821293836814936B6838
:10313000139300232B722F606B60139A12996846C9
:1031400006F0CEF89649404611F05EF80746129810
:10315000584501D005F020FD0C98484501D005F0F8
:103160001BFD0698504501D005F016FD002F40F0DC
:1031700084810221204601F023FE7221204601F0C5
:103180001FFEDFF824820D250AE00137BFB2294671
:10319000204601F015FE18F80750002D00F0BF8101
:1031A000022D4FF01001204601D08D42EDD101F0EB
:1031B00007FEEAE71921204601F002FE032120461E
:1031C00001F0FEFD0221204601F0FAFD44F2141246
:1031D0002368A1581B6A2046984702218046204652
:1031E00001F0EEFD7221204601F0EAFD98F8007032
:1031F000002F4FD11921204601F0E2FD0321204686
:1032000001F0DEFD0221204601F0DAFD0221204618
:1032100001F0D6FD7221204601F0D2FD0D2120469D
:1032200001F0CEFD1921204601F0CAFD0321204600
:1032300001F0C6FD0221204601F0C2FD0221204618
:1032400001F0BEFD7221204601F0BAFD7225002773
:10325000DFF8588108E00137BFB22946204601F067
:10326000AFFD18F80750FDB1022D4FF010012046B8
:1032700001D08D42EFD101F0A3FDECE701F0A0FDFC
:103280000135ADB23946204601F09AFD18F80570B7
:10329000002FAFD0022F4FF010012046EED08F420A
:1032A000EED101F08DFDEBE71921204601F088FDFC
:1032B0000321204601F084FD0221204601F080FD1B
:1032C00044F218122368A1581B6A2046984702212D
:1032D0008046204601F074FD7221204601F070FD09
:1032E00098F80070002F4FD11921204601F068FD99
:1032F0000321204601F064FD0221204601F060FD1B
:103300000221204601F05CFD7221204601F058FDAB
:103310000D21204601F054FD1921204601F050FDF9
:103320000321204601F04CFD0221204601F048FD1A
:103330000221204601F044FD7221204601F040FDAB
:1033400064250027DFF8688008E00137BFB229460E
:10335000204601F035FD18F807505DB3022D4FF0FF
:103360001001204601D08D42EFD101F029FDECE79C
:1033700001F026FD0135ADB23946204601F020FDB1
:1033800018F80570002FAFD0022F4FF01001204623
:10339000EED08F42EED101F013FDEBE71CBE010031
:1033A00070BE010028BE010078BE010040BE0100D1
:1033B00058BE01001921204601F002FD03212046DC
:1033C00001F0FEFC0221204601F0FAFC44F21C123E
:1033D0002368A1581B6A2046984702218046204650
:1033E00001F0EEFC7221204601F0EAFC98F8007032
:1033F000CFBB2046192101F0E3FC2046032101F058
:10340000DFFC2046022101F0DBFC2046022101F016
:10341000D7FC2046722101F0D3FC20460D2101F09B
:10342000CFFC2046192101F0CBFC2046032101F0FE
:10343000C7FC2046022101F0C3FC01240098B042E1
:1034400001D005F0A9FB204619B0BDE8F08F01F0CE
:10345000B7FC0135ADB23946204601F0B1FC18F891
:103460000570002FC5D0022F4FF010012046EED07E
:103470008F42EED101F0A4FCEBE7834BCDF818A00E
:1034800093E80700534603C302211A800A2700234A
:103490000A4640F60D250D9106A8494607978DF876
:1034A0002A308DF83A30ADF83850CDF8309005F02C
:1034B00017FF0746CDF848B057F8083BBB42054612
:1034C00000F0DB801293836814936B6813930023DE
:1034D0002B726B602F60139A1299684605F000FFFB
:1034E0006949404610F090FE05461298584501D0B3
:1034F00005F052FB0C98484501D005F04DFB0698AD
:10350000504501D005F048FB002D49D040465F49A9
:1035100010F07AFE0446002847D000248EE71921D7
:10352000204601F04DFC0321204601F049FC022118
:10353000204601F045FC44F20813022154F80380B0
:10354000204601F03DFC7221204601F039FC98F83C
:1035500000704FB912E00135ADB23946204601F096
:103560002FFC18F805704FB1022F4FF010012046C4
:1035700001D08F42EFD101F023FCECE72046192166
:1035800001F01EFC2046032101F01AFC2046022116
:1035900001F016FC20460D2101F012FC01244DE73C
:1035A000204602F077F8012448E7DFF8E4A0DFF8CE
:1035B000E490DAF800800221404601F001FC404628
:1035C000722101F0FDFB0D25274608E00137BFB24F
:1035D0002946404601F0F4FB19F807504DB1022D81
:1035E0004FF01001404601D08D42EFD101F0E8FBD1
:1035F000ECE74046192101F0E3FB4046032101F0CE
:10360000DFFB4046022101F0DBFBDAF80080DDF849
:1036100000904046022101F0D3FB4046722101F0A8
:10362000CFFB99F80070C7B94046192101F0C8FBDB
:103630004046032101F0C4FB4046022101F0C0FBDB
:10364000FCE601F0BDFB0135ADB23946404601F064
:10365000B7FB19F80570002FE6D0022F4FF01001CC
:103660004046EED08F42EED101F0AAFBEBE71022EC
:103670003946584604F04CF859E510223946584668
:1036800004F046F821E700BF90BE010064B50100D8
:10369000348CFF1F9CBE0100027D034622F0010214
:1036A00080681A75704700BF08B5027D034622F096
:1036B000010280681A750EF023F808BD037D826947
:1036C00023F00103012A03750EBF8068836893FB12
:1036D000F2F0704738B5037D044623F0010380689B
:1036E00023750EF00DF80546A0690EF009F80146A5
:1036F00028460EF00DF938BD704700BF704700BF77
:10370000704700BF024B0A464168186802F04CB887
:10371000348CFF1F10B50C21044605F03FFA2046FB
:1037200010BD00BF10B50C21044605F037FA204645
:1037300010BD00BF10B50C21044605F02FFA20463D
:1037400010BD00BF024B4168186802F091B800BF7D
:10375000348CFF1F024B4168186802F0C9B800BFE3
:10376000348CFF1F024B4168186803F08BBE00BF0A
:10377000348CFF1F024B4168186803F0C3BE00BFC2
:10378000348CFF1FCB060A460DD5910623D5530670
:1037900048BF164B416858BF4FF47A738361144B8E
:1037A000186802F001B88B060AD44B064CBF42F2EF
:1037B0001073012383610E4B4168186801F0F4BF58
:1037C000510648BF0B4B416858BF64238361084BC7
:1037D000186801F0E9BF510648BF074B416858BF60
:1037E0000A238361024B186801F0DEBF80969800BF
:1037F000348CFF1F40420F00A0860100037D23F0A0
:1038000001030375704700BF037D23F002020275B8
:10381000C3F34000704700BF704700BF704700BF50
:10382000094AF0B4094C11682568094E416000232B
:103830004F1C1760C36006600361037505B1C56066
:103840002060F0BC704700BF28DFFF1F2CDFFF1F88
:10385000D8BE01002DE9F04186B01646BDF83070A3
:10386000BDF834E0BDF838C0BDF83C80F1B149681E
:10387000104D2C684CB1A04208D0224601E0904285
:1038800004D01269002AFAD1046128600A4C8360CE
:1038900042682068CDF810808DE88840CDF80CC0D3
:1038A000334602F0C3F906B0BDE8F0814FF0FF31B6
:1038B000DEE700BF30DFFF1F348CFF1F70B584B020
:1038C000BDF82060BDF82450BDF8284002958DE871
:1038D0004800039413460A460021FFF7BBFF04B0DB
:1038E00070BD00BF037D8268C3F3800191420AD09E
:1038F00022B923F0040303750120704743F0040349
:103900000375012070470020704700BF836899420B
:1039100006D0044B81600A464168186802F0D2BAAA
:10392000704700BF348CFF1F70B5094D446828688C
:1039300084B0BDF82060BDF8245000930196134672
:1039400002950A46214602F081F804B070BD00BF1E
:10395000348CFF1F0A49F0B40A4C0A6825680A4EE5
:1039600042600023571C01220F60C36006600361A0
:103970000375C282826105B1C5602060F0BC7047EA
:1039800028DFFF1F2CDFFF1F50BF01002DE9F04F84
:103990008BB01F461646BDF850E0BDF854C0BDF8C8
:1039A0005880BDF86830BDF8709000295FD0496834
:1039B000304D2C684CB1A04208D0224601E0904224
:1039C00004D01269002AFAD104612860C28A9A429E
:1039D00018BFC38219F0100F0AD019F0200F3FD082
:1039E00019F0400F14BF244C4FF47A74846109E03D
:1039F00019F0200F2DD119F0400F14BF42F21074AE
:103A000001248461199D8268D0F804B0DFF874A0A5
:103A100004FB05F59542189A18BF8560CDF82490EF
:103A200004FB02F9179ADAF80000CDF8189004FBAD
:103A300002F405941B9C08945A460795CDF8108013
:103A4000CDF80CC08DE8C04002F0AAFA0BB0BDE87A
:103A5000F08F19F0400F14BF084C64248461D1E743
:103A600019F0400F14BF064C0A248461CAE74FF0D6
:103A7000FF319DE730DFFF1F8096980040420F0026
:103A8000A0860100348CFF1FF0B58BB0BDF840401C
:103A9000BDF84450139FBDF8546002958DE818009E
:103AA000129BBDF858500393064C04971346149A82
:103AB000059206960A46089507940021FFF766FFCF
:103AC0000BB0F0BD34BD010070B5856904460E46EB
:103AD00028460DF015FE31460DF066FE0EF040F85A
:103AE000A368984208D00D4BA06002466168186830
:103AF00001F03EFFA569A368012D18460AD00DF01C
:103B0000FFFD044628460DF0FBFD014620460DF062
:103B1000FFFE70BD0DF0F4FD70BD00BF348CFF1FC3
:103B200070B5094D4468286884B0BDF82060BDF8C0
:103B3000245000930196134602950A46214601F04F
:103B400085FF04B070BD00BF348CFF1F30B4044942
:103B5000044C0A684260551C0D60046030BC70471C
:103B600028DFFF1F34BF0100F0B50D4CD0F804E092
:103B7000276887B00193BDF83060BDF83450BDF8B8
:103B8000384000920023836072460B463846029606
:103B9000039504944FF0FF3102F01CFC07B0F0BD18
:103BA000348CFF1F70B5094D4468286884B0BDF897
:103BB0002060BDF8245000930196134602950A46F2
:103BC000214601F043FF04B070BD00BF348CFF1FDD
:103BD0000A49F0B40A4C0A6825680A4E426000237C
:103BE000571C01220F60C360066003610375C28227
:103BF000826105B1C5602060F0BC704728DFFF1FFF
:103C00002CDFFF1FB4BE01002DE9F04788B0154638
:103C1000BDF84060BDF844C0BDF84880BDF85040D4
:103C2000BDF8589000295CD049682F4FD7F800A004
:103C3000BAF1000F0AD0504509D0524601E0904237
:103C400005D01269002AFAD1C0F810A03860C28AE3
:103C5000A24218BFC48219F0100F0BD019F0200F28
:103C600037D019F0400F14BF204A4FF47A728261A6
:103C700092460AE019F0200F23D119F0400F14BF2B
:103C800042F21072012282619246139F82680AFBFF
:103C900007F7DFF864A0974218BF87604268DAF838
:103CA00000000694159CCDF81C908DE848100594F2
:103CB0000497CDF80C802B4602F0CEFC08B0BDE88E
:103CC000F08719F0400F14BF094A642282619246BE
:103CD000DBE719F0400F14BF064A0A2282619246C0
:103CE000D3E74FF0FF31A0E730DFFF1F8096980049
:103CF00040420F00A0860100348CFF1FF0B589B050
:103D0000BDF83840BDF83C70BDF844600093BDF884
:103D1000485001941346064C109A039202970A46A3
:103D20000496069505940021FFF76EFF09B0F0BDDB
:103D300034BD0100F0B589B0BDF83840BDF83C5045
:103D4000109FBDF8446002958DE81800BDF84C4006
:103D5000039713460A46129905910496069400218A
:103D6000FFF752FF09B0F0BD8269836802FB01F2E0
:103D70009A420AD010B5064B826004461868616802
:103D800001F0F6FDA368184610BD1846704700BF45
:103D9000348CFF1F30B40449044C0A684260551C3F
:103DA0000D60046030BC704728DFFF1F18BF0100A2
:103DB0002DE9F041114C4668256888B00193BDF8A3
:103DC0003880BDF83C70DDF840C0DDF844E0BDF857
:103DD000484000920023836032460B46CDF80880AD
:103DE00028460397CDF810C0CDF814E006944FF0A4
:103DF000FF3102F007FE08B0BDE8F081348CFF1FF0
:103E000010B5064B4468186882B00B4600922146F4
:103E1000012202F085FF02B010BD00BF348CFF1FED
:103E2000024B0A464168186803F018B8348CFF1F2B
:103E3000024B4A684168186803F074B8348CFF1F5D
:103E400070B5094D4468286884B0BDF82060BDF89D
:103E5000245000930196134602950A46214601F02C
:103E6000F5FD04B070BD00BF348CFF1F30B40449B1
:103E7000044C0A684260551C0D60046030BC7047F9
:103E800028DFFF1FFCBE010070B5084C4E6841687A
:103E9000206884B0089DBDF8244000930195134626
:103EA0000294324603F0ACF804B070BD348CFF1FAE
:103EB00010B4044C13460A464168206810BC03F055
:103EC00047BA00BF348CFF1F10B5074B4468186811
:103ED00084B003AB029103920093214602AB01220E
:103EE00003F082F904B010BD348CFF1F30B5074DCC
:103EF0004468286883B0BDF81850009301951346B4
:103F00000A46214603F03EFB03B030BD348CFF1F50
:103F100078B10D4A1368ABB14168586888420DD03A
:103F2000186930B14268914204D0034618690028EC
:103F3000F8D1704702691A61012070471B6913604C
:103F4000012070471846704730DFFF1F38B5044620
:103F5000E0B1134A1368D3B141685D688D4218D04F
:103F6000D86830B14268914209D00346D868002829
:103F7000F8D10C4A136843F00103136038BDC268DE
:103F8000DA602046FFF7C4FF012038BD38BD18466F
:103F900038BDDB681360FFF7BBFF012038BD00BFF1
:103FA0002CDFFF1F34DFFF1F10B5034B03600446F7
:103FB000FFF7CCFF204610BDD8BE010010B5054B61
:103FC00003600446FFF7C2FF2046182104F0E6FD17
:103FD000204610BDD8BE010010B5034B0360044657
:103FE000FFF7B4FF204610BD50BF010010B5054BD0
:103FF00003600446FFF7AAFF20461C2104F0CEFD13
:10400000204610BD50BF010010B5034B03600446AD
:10401000FFF79CFF204610BDB4BE010010B5054B54
:1040200003600446FFF792FF20461C2104F0B6FD12
:10403000204610BDB4BE010010B5044C206820B16C
:10404000FFF766FF20680028FAD110BD30DFFF1FA0
:104050000D4B1B68B3B15A68904209D0DB68002B46
:10406000F9D10A490A6842F0020218460A6070470C
:104070009A6891421A7D18BF996042F001021A7540
:1040800001207047184670472CDFFF1F34DFFF1FE9
:104090000B4B1B6893B15A68904209D0DB68002B28
:1040A000F9D108490A6842F0020218460A607047CE
:1040B0001A7D42F002021A750120704718467047B7
:1040C0002CDFFF1F34DFFF1F30B51368CC5C83B0DB
:1040D0000025202C01EB0300019508D101330B448E
:1040E000581A1060184613F8014B202CF8D014B958
:1040F000204603B030BD14466B4601AA054910F0B6
:1041000009F818B12268009B13442360019803B09A
:1041100030BD00BF6CBF01002DE9F0434B78013B7F
:1041200085B006461546642B00F2E281DFE813F005
:104130007400E001E001D200D700DB009101E00152
:10414000E001E001E001E001E001E001E001E00167
:10415000E001E001E001E001E001E001E001E00157
:10416000E001E001E001E001E001E001E001E00147
:104170009701A501BC01E001E001E001E001E001DF
:10418000E001E001E001E001E001E001E001E00127
:10419000E001E001E001E001E001E001E001E00117
:1041A000E001E001E001E001E001E001E001E00107
:1041B000E001E001E001E001E001E001E001E001F7
:1041C000E001E001E001E001E001E001E001E001E7
:1041D000E001E001E001E001E001E001E001E001D7
:1041E000E001E001E001E001E001E001E001E001C7
:1041F000E001E001E001D401650004AA002342F8D7
:10420000043D2946FFF760FF013802288CBF0020DB
:10421000012005B0BDE8F083FFF70EFF42F2E00396
:1042200042F2D80242F2E401F558B458735844F20D
:104230000E12581B013C0127A042B75480F05A814E
:1042400042F2DC024FF0020EB75803EA0700304496
:104250005A1C80F8D8E0501B8442725040F2B18161
:104260003A4032440233722082F8D8007350581B0F
:1042700006F5035E774606F58248DFF854C30EF173
:104280001C0E243708F11408492100224FF01009B0
:1042900014E0102914D0844240F24181DEF800007D
:1042A00018403044013380F8D810581B3B6001326D
:1042B00092B21CF80210002900F034810229E8D1E2
:1042C000844200F22081D8F8001001310131C8F891
:1042D0000010ECE703685B699847012099E701F05B
:1042E000A1F8012095E7036844F230175B6898470E
:1042F000F45BDFF8E0E20246601C06EB040816FA05
:1043000080F00B4644F232114FF0000C022508F801
:1043100001C0DEF800E0455444F210186519E01CB5
:1043200016FA85F516FA80F01EF8088005F801C027
:10433000043400F801800EF58241A4B2F4530F68F2
:104340003D7875B106F582403030311901F5824172
:104350000134A4B281F83250048017F8015F002DB7
:10436000F3D144F208115EF80170397871B106F5A5
:1043700082403030351905F582450134A4B285F804
:104380003210048017F8011F0029F3D144F2041100
:104390005EF80170397871B106F582403030351918
:1043A00005F582450134A4B285F83210048017F86F
:1043B000011F0029F3D127463821C1F1200E03FA4D
:1043C0000EFE22FA01F5F01945EA0E05A1F1200EC4
:1043D00000F5824023FA0EFE083945EA0E05013742
:1043E00011F1080F80F83250BFB244F23210E4D11C
:1043F00044F20C1504F1080136F805E016FA81F1D3
:1044000004F1090704F10A054FEA2E240C5416FAA8
:1044100087F744F23014ADB206F5824107F800E0A8
:1044200032313553002D00F0C680684F0D44002412
:1044300011F8010B4440E4B2A9423C5DF8D130468A
:10444000009401F01BF844F230130022F2520120D4
:10445000DFE644F20E130022C2540120D9E604AA7A
:10446000002342F8043D2946FFF72EFEFFF710FE19
:1044700044F22C130120F052CBE604AC002344F8A4
:10448000043D29462246FFF71FFE224607462946DD
:104490003046FFF719FE01463846FFF7D9FD44F2D2
:1044A0002C130120F052B4E604AC002344F8043D80
:1044B00029462246FFF708FE22460746294630468F
:1044C000FFF702FE44F22E1301240146F45238464F
:1044D000FFF7BEFD20469CE604AF002447F8044DDC
:1044E00029463A46FFF7F0FD96284DD0204690E643
:1044F00000208EE644F21412B2583A4444F21411E9
:1045000001327250B4E6DEF8000018403044013346
:1045100080F8D890581B84423B603FF6BFAED8F875
:104520000010D3E6844224D942F2DC02591CB2586E
:1045300002EA030030444FF0190E80F8D8E042F24E
:10454000E407481B8442F15131D9981C1140314491
:10455000451B4FF0030EAC4281F8D8E0F0512CD946
:10456000024032440333022182F8D8100120F35173
:104570004FE644F21413F3580133013344F214129A
:104580000133B350012044E63A4629463046FFF74E
:104590009BFD3A46044629463046FFF795FD44F216
:1045A000FC1244F2FA13B052F452012031E644F204
:1045B0001413F358E1E72C4641E744F21413F3587F
:1045C000DCE744F214111346725897E73CDFFF1FF3
:1045D00074BF0100348CFF1FD0B51368CC5C84B06D
:1045E00000260027202C01EB0300CDE9026708D14B
:1045F00001330B44581A1060184613F8014B202C55
:10460000F8D01CB90020002104B0D0BD144601AB85
:1046100002AA06490FF07EFD18B12268019B1344DF
:104620002360DDE9020104B0D0BD00BF94BF0100EA
:104630002DE9F04F0D78022D83B08846044692464E
:1046400000F0DC82B5FA85F56D092368AA4A9B6BF8
:10465000934240F06F820026524641462046FEF7C4
:1046600005FD236806435B6B52464146204698474A
:10467000354355EA0003019303D0019803B0BDE828
:10468000F08F23689D4A9B69934240F0F68242F284
:10469000E00342F2D80242F2E406E558A058A359DA
:1046A00001385A1B824280F04B8242F2DC02591CD4
:1046B000A75803EA070222444FF0020E82F8D8E01E
:1046C0004A1B9042A15140F21483394021440233E5
:1046D000722281F8D820A3515A1B04F5035EF146DB
:1046E00004F5824CDFF818B20EF11C0E09F1240912
:1046F0000CF1140C5526002715E0102E16D0904210
:10470000114640F23682DEF8002001371A40A11827
:10471000BFB281F8D86001331BF80760C9F80030D8
:104720005A1B11468EB1022E1146E6D1904200F27C
:104730001082DCF8006001360137BFB20136CCF8D8
:1047400000601BF80760002EEDD1904240F25A82C3
:1047500042F2DC025E1CA25802EA030121444FF03F
:10476000190E81F8D8E042F2E407711B8842E65145
:1047700040F288821640A1194FF0030E9E1C81F86A
:10478000D8E0711B8842E65140F2BC8203F1030E6F
:1047900016402644C5EB0E014FF0020C814286F80C
:1047A000D8C044F807E080F094821E1D0EEA020E85
:1047B000A644711B81428EF8D8C0E65180F0A782D2
:1047C000324022440533722182F8D810E35198F820
:1047D0000070002F00F0828204F5035CE64604F5C9
:1047E00082490CF11C0C0EF1240E09F1140900266B
:1047F0005A1B4FF0100B15E0102F16D090421146A7
:1048000040F2C881DCF800201A40A11801360133BB
:10481000B6B281F8D870CEF8003018F806705A1B7E
:1048200011468FB1022F1146E6D1904200F2A481C9
:10483000D9F80070013701360137B6B2C9F80070F7
:1048400018F80670002FEDD1904240F2128242F229
:10485000DC025E1CA25802EA030121444FF0190E4B
:1048600081F8D8E042F2E407711B8842E65140F239
:104870002B821640A1194FF0030E9E1C81F8D8E040
:10488000711B8842E65140F24C8203F1030E164040
:104890002644C5EB0E014FF0020C814286F8D8C0C9
:1048A00044F807E080F00B821E1D0EEA020EA644BB
:1048B000711B81428EF8D8C0E65180F02D823240C3
:1048C00022440533722182F8D810E3519AF800701F
:1048D000002F00F0068204F5035CE64604F58248EA
:1048E0000CF11C0C0EF1240E08F1140800265A1BC2
:1048F0004FF010091CE000BF7504000059060000CD
:1049000098B40100102F16D09042114640F2538106
:10491000DCF800201A40A11801360133B6B281F844
:10492000D870CEF800301AF806705A1B11468FB1B5
:10493000022F1146E6D1904200F22F81D8F8007084
:10494000013701360137B6B2C8F800701AF80670A0
:10495000002FEDD1904240F2888142F2DC025E1CD1
:10496000A25802EA03012144192781F8D87042F2C3
:10497000E40E711B884244F80E6040F29B811640A1
:10498000A11903279E1C81F8D870711B884244F836
:104990000E6040F2A981DF1C16402644791B4FF0BF
:1049A000020C814286F8D8C044F80E7080F07D81F8
:1049B0001E1D17402744711B814287F8D8C044F858
:1049C0000E6080F0BF81324022440533722182F8AC
:1049D000D81044F80E30591B884240F2EF8042F262
:1049E000DC07591CE2591A40224442F2E406C5EBA6
:1049F000010E4FF00D0C704582F8D8C0A15140F265
:104A00009F81E259114021449F1C4FF0190E81F8FB
:104A1000D8E0791B8842A75140F2428117402744D1
:104A2000D91C4FF0030E87F8D8E04F1BB842A151B4
:104A300040F281811F1D11402144C5EB070C4FF04E
:104A4000020E844581F8D8E0A75180F024811740F8
:104A50002744591D87F8D8E04F1B8742A15180F0A9
:104A600065810A4022440633722182F8D810A3518E
:104A700004F5035E774604F58248DFF8D4C20EF1F0
:104A80001C0E243708F11408552600215A1B4FF03C
:104A9000100912E0102E12D0904240F2AC80DEF8E5
:104AA000002001311A40224489B282F8D8601CF8F3
:104AB000016001335A1B3B6086B1022EEAD190425D
:104AC00000F28D80D8F800600136013189B20136DC
:104AD000C8F800601CF80160002EEED1904240F250
:104AE000B78042F2DC02591CA25802EA03072744AD
:104AF0004FF0190E87F8D8E042F2E4064F1BB84297
:104B0000A15140F2C4809F1C114021447D1B4FF0F5
:104B1000030EA84281F8D8E0A75140F2EF803A4056
:104B2000224401980333022182F8D810A35103B024
:104B3000BDE8F08F524641462046984706468BE531
:104B400044F214116158013144F214160131A1519B
:104B5000C3E5DEF800201A40224401334FF0100173
:104B600082F8D8105A1B9042C9F8003011463FF61F
:104B7000CAADDCF80060DFE5DCF800201A40224412
:104B8000013382F8D8B05A1B9042CEF8003011465B
:104B90003FF638AED9F800704DE6DCF800201A4038
:104BA0002244013382F8D8905A1B9042CEF800304C
:104BB00011463FF6ADAED8F80070C2E644F21411CB
:104BC00062580132625044F21412A258013201328A
:104BD0000132013244F214110132625048E7DEF82A
:104BE00000201A402244013382F8D8905A1B904288
:104BF0003B603FF654AFD8F8006066E7FFF78CFAE9
:104C0000054622E544F21412A25801320132013263
:104C1000013244F214160132A25198F80070002FAC
:104C20007FF4DAAD013201320132013244F214165E
:104C30000132A2519AF80070002F7FF44CAE01327D
:104C400001320132013244F214160132A251C3E69C
:104C500044F21413E3580133013344F2141201985F
:104C60000133A35003B0BDE8F08F44F21412A258F0
:104C7000E5E744F21412A258D4E7524641462046D2
:104C80009847FAE444F214123346A258BEE744F2BD
:104C90001413E358E0E744F214123B46A25898E795
:104CA00044F214123B46A25891E744F214123B46D8
:104CB000A258C7E744F214123346A258C0E744F2A0
:104CC00014127346A258B0E744F214123346A258A5
:104CD000A9E744F214127346A25899E75A1B1146E9
:104CE000B2E55A1B114635E644F214123346A25877
:104CF000A7E744F214160B46A15925E744F2141312
:104D0000E358AAE744F214123346A2587FE744F26C
:104D100014123346A2587CE744F214123346A258C8
:104D200084E744F214123346A2587DE744F2141289
:104D30000B46A2584EE744F214120B46A25847E71E
:104D40000B4640E744F214123346A2587BE700BFFB
:104D5000ACB4010070B544F2F40244F2F00444F241
:104D6000E805825804594559141B013DA5421BD939
:104D700000F50354283442F2040542F20C0665594A
:104D800015400D2902F101026155A25112D044F2E1
:104D90000E12825C3AB903685B680446984704F5D2
:104DA0008443C3E9000170BD44F218114258013236
:104DB000425070BD44F2F80142580132425070BD79
:104DC00030B442F2E00342F2E40542F2D802445920
:104DD000C3588258E31A013A9A420AD942F2DC03D4
:104DE000621CC3582340034483F8D810425130BC9E
:104DF000704744F2141230BC83580133835070471B
:104E00002DE9F04F44F2F40344F2F004C35804597E
:104E1000A34285B000F0698244F2EC0342F2E80557
:104E2000C3580192234003440F465D5D02910D2D4E
:104E300000F06182202D00F05A8245B300F5814CCC
:104E4000E646E0460D700CF1700C0EF1740E08F1A0
:104E50006C08002511E0D8F8003009EA0303034488
:104E600003F5035328331B780D2B19D0202B60D06A
:104E70006BB1632D07F8013F71D0DCF80060DEF8FC
:104E800000400135A41BA54205EB0609E3D300232E
:104E90004B55002318460B70137005B0BDE8F08F1A
:104EA0004FF0020A029B00275F5544F2F40444F2DB
:104EB000F0030459C358E41AAC4233D944F2EC0667
:104EC0005C1983592340034442F2E8041B5D0D2B17
:104ED00032D000F5814C019EE646E14633700CF17C
:104EE000700C0EF1740E09F16C09B04693460EE099
:104EF000D9F800303340034403F5035328331B78BB
:104F00000D2B19D0632F08F8013F00F05481DCF815
:104F10000040DEF8002001377B19E618141B9C4284
:104F2000E6D85A46019C0023BAF1020FE355B0D1EE
:104F300005E04FF0010AB5E7019A0023D35544F28A
:104F4000F00444F2F8010359425801331D442F4440
:104F5000013A07514250012005B0BDE8F08FD44B13
:104F600003931C6842F2E00242F2E40142F2D803E9
:104F7000A658E5586258013DC6EB020AAA45C0F0A2
:104F80007B8144F21413E358013344F214110133CA
:104F9000635004F5035E774604F58248DFF814C3D6
:104FA0000EF11C0E243708F114084FF05B090023A2
:104FB0004FF0100B16E0B9F1100F16D0554540F226
:104FC000C180DEF800100133114021449BB281F80A
:104FD000D8901CF803900132C6EB020A3A60B9F18E
:104FE000000F12D0B9F1020FE5D1554500F29D80B6
:104FF000D8F80010013101339BB201311CF8039045
:10500000C8F80010B9F1000FECD1554540F2C98045
:1050100042F2DC03571CE35803EA020EA6444FF0A9
:10502000190C8EF8D8C042F2E401C6EB070E7545A4
:10503000675040F2688102F1020E1F402744C6EB20
:105040000E064FF0030CB54287F8D8C044F801E0D3
:1050500040F25D810EEA030323440332022583F804
:10506000D8506250039B42F2E0011B6842F2D80222
:1050700042F2E4065F589D599958EA1B01398A4269
:1050800072D344F214141C59013444F2141601343E
:105090009C51914259D942F2DC0E6C1C53F80E20FF
:1050A0002A401A444FF00D0C82F8D8C042F2E406B0
:1050B000E21B91429C514DD953F80EE00EEA0402D6
:1050C0001A44AC1C4FF0190C82F8D8C0E21B914274
:1050D0009C5140F21481EA1C0EEA04041C44D71BC4
:1050E0004FF0030CB94284F8D8C09A5140F22281A3
:1050F00002EA0E021A440435022182F8D8109D51AA
:1051000044F2F00144F2F40244F2F8030024445063
:105110008450C450029B1C70019B1C7003685B6927
:105120009847204605B0BDE8F08FDEF8001011402A
:1051300001322144C6EB020A554581F8D8B03A60E5
:105140003FF63FAFD8F8001055E744F214115A5813
:1051500001325A5044F214129A580132013244F288
:10516000141101325A50CBE742F2DC04022253F808
:1051700004C005EA0C0E9E446C1C8EF8D820E21B7D
:1051800091429C5140F2CC800CEA04021A44023550
:10519000722482F8D8409D51EA1B7AE74D453FF6CC
:1051A00037AF44F21413E3580133013344F21412BD
:1051B0000133A35056E73E4B03931C6842F2E002D2
:1051C00042F2E40142F2D803A658E5586258013D84
:1051D000C6EB0209A94571D242F2DC034FF0020C82
:1051E00054F803E0531C02EA0E072744C6EB0309F8
:1051F0004D4587F8D8C0635040F28D800EEA030316
:1052000023440232722783F8D8706250C6EB020939
:1052100004F5035E774604F5824CDFF89CA00EF19E
:105220001C0E24370CF1140C4FF05B0800234FF0D8
:10523000100B15E0B8F1100F15D04D4552D9DEF81E
:10524000001011402144013281F8D880C6EB0209D8
:105250003A6001339BB21AF80380B8F1000F9DD079
:10526000B8F1020FE6D14D4531D8DCF8001001311C
:105270000131CCF80010ECE742F2DC034FF0020CF5
:1052800054F803E0531C02EA0E072744C6EB030A56
:10529000554587F8D8C0635047D90EEA0303234425
:1052A0000232722783F8D870C6EB020A625070E6A9
:1052B000348CFF1F9CBF0100D4BF010044F21413C3
:1052C000E358013344F2141101336350A0E7DEF8D0
:1052D000001011402144013281F8D8B0C6EB020918
:1052E0003A60AAE7DCF80010C2E70025CFE5002508
:1052F0004FF0010AD6E500254FF0020AD2E544F24C
:1053000014129A582AE744F21413E3584DE744F272
:105310001413E3584AE744F214111A466358D1E7CC
:1053200044F2141625469C59AFE644F214111A466D
:1053300063582AE644F214129A5810E744F20E1306
:105340002DE9F041C55C044635B32368344A1B6936
:1053500093423ED144F20E15665D012E40D044F2D8
:10536000F80354F80380B8F1000F12D004F5814718
:105370007837261D04F168052A4631462046FFF796
:105380003FFD2A4631462046FFF752F93B68002B85
:10539000F2D14046BDE8F08103685B68984704F5A8
:1053A00084431E46D3E900230836D6E90067801AF5
:1053B00061EB03018F4208BF8642C6D244F2F0027D
:1053C00044F2F403A550E5502368154A1B69934243
:1053D000C0D044F20E1520469847665D012EBED11E
:1053E00044F2F80354F80380B8F1000FBED12368EB
:1053F00020465B68984744F20C13D4F8D420E15A55
:105400004FF47A73801A03FB01F39842A7D944F250
:105410002812A358002BA2D10223A65063559EE761
:105420006D040000F8B505210646FFF7C9FC06F536
:10543000824300251F683C7844B911E00135ADB2C4
:1054400021463046FFF7BCFC7C5D4CB1022C4FF08E
:105450001001304601D08C42F0D1FFF7B1FCEDE7EE
:1054600030461921FFF7ACFC30460321FFF7A8FCBA
:1054700030460221BDE8F840FFF7A2BC2DE9F04F0D
:1054800083B004460621164698469DF83090804F1A
:10549000FFF796FC20460021FFF792FC20461021E2
:1054A000FFF78EFC20460221FFF78AFC3A6844F29F
:1054B00010132046D55C0021FFF782FC022D00F07E
:1054C000D380102D00F0D08029462046FFF778FCCD
:1054D0003B6803F582434FF0000BD3F800A09AF825
:1054E00000505DB914E00BF1010B1FFA8BFB29464C
:1054F0002046FFF765FC1AF80B504DB1022D4FF016
:105500001001204601D08D42EDD1FFF759FCEAE7AA
:1055100019212046FFF754FC3A6844F2081352F868
:1055200003A09AF80050BDB14FF0000B0AE00BF158
:10553000010B1FFA8BFB29462046FFF741FC1AF8A6
:105540000B504DB1022D4FF01001204601D08D427D
:10555000EDD1FFF735FCEAE719212046FFF730FCD3
:105560003A6844F2041352F803A09AF80050BDB10F
:105570004FF0000B0AE00BF1010B1FFA8BFB2946E1
:105580002046FFF71DFC1AF80B504DB1022D4FF0CD
:105590001001204601D08D42EDD1FFF711FCEAE762
:1055A00019212046FFF70CFC4FEA18434FEA186513
:1055B0004FEA1821320E8DF807608DF80130330C58
:1055C000360A8DF803808DF806608DF800508DF84E
:1055D00002108DF804208DF805306E460DF1070895
:1055E00007E029462046FFF7EBFBB04510D016F840
:1055F000015F022D20464FF0100101D08D42F0D105
:10560000FFF7DEFB29462046FFF7DAFBB045EED177
:1056100044F20C133A68D55A2B12022BEDB2DEB2CB
:1056200031D0102E2FD031462046FFF7C9FB022D76
:1056300024D0102D22D029462046FFF7C1FB00219F
:105640002046FFF7BDFBB9F1020F12D0B9F1100FE0
:105650000FD049462046FFF7B3FB2046042103B094
:10566000BDE8F04FFFF7ACBB10212046FFF7A8FBC9
:105670002AE710212046FFF7A3FBEAE71021204686
:10568000FFF79EFBD7E710212046FFF799FBCAE7FB
:10569000348CFF1F10B544F2281244F20E1100237F
:1056A0004354044683500221FFF78AFB2046112110
:1056B000FFF786FB20460321FFF782FB20460221ED
:1056C000BDE81040FFF77CBBF8B50E46044602214A
:1056D0001546FFF775FB20465021FFF771FB33128B
:1056E000022BF6B2DFB22AD0102F28D0394620463E
:1056F000FFF766FB022E2CD0102E2AD03146204612
:10570000FFF75EFB2B12022BEDB2DEB22BD0102E78
:1057100029D031462046FFF753FB022D1ED0102D15
:105720001CD029462046FFF74BFB20460321FFF7FC
:1057300047FB20460221BDE8F840FFF741BB10219E
:105740002046FFF73DFB39462046FFF739FB022E86
:10575000D2D110212046FFF733FBCFE7102120469E
:10576000FFF72EFBDDE710212046FFF729FBD0E7EE
:1057700010B502210446FFF723FB20460421FFF762
:105780001FFB20460321FFF71BFB20460221FFF7EA
:1057900017FB236820465B68984744F2FC0301220C
:1057A000E254C4F8D40010BD2DE9F0410E4682B099
:1057B000054602211746340EFFF702FB28466C21EE
:1057C000FFF7FEFA320C330A022C8DF807608DF8D1
:1057D00004408DF805208DF8063001AE0DF1070864
:1057E00028464FF010010ED08C420CD0214628469E
:1057F000FFF7E6FA46450ED016F8014F022C284670
:105800004FF01001F0D1FFF7DBFA21462846FFF7F1
:10581000D7FA4645F0D13B12022BFCB2DEB218D0CB
:10582000102E16D031462846FFF7CAFA022C1AD09D
:10583000102C18D021462846FFF7C2FA284603212B
:10584000FFF7BEFA2846022102B0BDE8F041FFF79B
:10585000B7BA10212846FFF7B3FA31462846FFF7BA
:10586000AFFA022CE4D110212846FFF7A9FAE1E7AC
:10587000F0B50E4683B005460221FFF7A1FA340EBB
:1058800028466421FFF79CFA320C330A022C8DF86B
:1058900007608DF804408DF805208DF8063001AEC4
:1058A0000DF1070728464FF010010ED08C420CD0A6
:1058B00021462846FFF784FABE420ED016F8014F63
:1058C000022C28464FF01001F0D1FFF779FA21465B
:1058D0002846FFF775FABE42F0D128460321FFF7AC
:1058E0006FFA2846022103B0BDE8F040FFF768BA1E
:1058F000F0B50E4683B005460221FFF761FA340E7B
:1059000028466521FFF75CFA320C330A022C8DF829
:1059100007608DF804408DF805208DF8063001AE43
:105920000DF1070728464FF010010ED08C420CD025
:1059300021462846FFF744FABE420ED016F8014F22
:10594000022C28464FF01001F0D1FFF739FA21461A
:105950002846FFF735FABE42F0D128460321FFF76B
:105960002FFA2846022103B0BDE8F040FFF728BA1D
:105970002DE9F0410E4682B0044602219046350ED4
:10598000FFF71EFA20466A21FFF71AFA320C330A93
:10599000022D8DF807608DF804508DF805208DF8E4
:1059A000063001AE0DF1070720464FF010010ED072
:1059B0008D420CD029462046FFF702FABE420ED097
:1059C00016F8015F022D20464FF01001F0D1FFF7CD
:1059D000F7F929462046FFF7F3F9BE42F0D14FEA26
:1059E00018654FEA28424FEA2823022D8DF80780D8
:1059F00001AE8DF804508DF805208DF80630204654
:105A00004FF010010ED08D420CD029462046FFF7F2
:105A1000D7F9BE420ED016F8015F022D20464FF096
:105A20001001F0D1FFF7CCF929462046FFF7C8F95D
:105A3000BE42F0D120460321FFF7C2F920460221E1
:105A400002B0BDE8F041FFF7BBB900BF2DE9F04F50
:105A500085B00D46044602219946BDF840300193B9
:105A600092462E0EBDF83880BDF83C70FFF7A8F9BD
:105A700020466B21FFF7A4F9290C2A0A022E8DF883
:105A80000F508DF80D108DF80C608DF80E2003ADC1
:105A90000DF10F0B20464FF010010ED08E420CD0AE
:105AA00031462046FFF78CF95D450ED015F8016FA1
:105AB000022E20464FF01001F0D1FFF781F9314658
:105AC0002046FFF77DF95D45F0D14FEA2A23022BEE
:105AD0005FFA8AFADDB271D0102D6FD029462046C8
