:1000000000800020BD010000619F0000199F0000DA
:10001000199F0000199F0000199F0000199F000000
:10002000199F0000199F0000199F0000619F0000A8
:10003000619F0000199F000051B0000055B0000002
:10004000619F0000619F0000619F0000619F0000B0
:10005000619F0000619F0000619F0000619F0000A0
:10006000619F0000619F0000619F0000619F000090
:10007000619F0000619F0000619F0000619F000080
:10008000619F0000619F0000619F0000619F000070
:10009000619F0000619F0000619F0000619F000060
:1000A000619F0000619F0000619F0000619F000050
:1000B000619F0000619F0000619F0000619F000040
:1000C000619F0000619F0000619F0000619F000030
:1000D000619F0000619F0000619F0000619F000020
:1000E000619F0000619F0000619F0000619F000010
:1000F000619F0000619F0000619F00005137000078
:10010000619F0000353A0000619F0000619F000080
:10011000619F0000619F0000619F0000619F0000DF
:10012000619F0000619F0000619F0000619F0000CF
:10013000619F0000619F0000619F0000619F0000BF
:10014000619F0000619F0000619F0000619F0000AF
:10015000619F0000619F0000619F0000619F00009F
:10016000619F00002DA30000619F0000619F0000BF
:10017000619F0000619F0000619F0000619F00007F
:10018000619F0000619F0000619F0000619F00006F
:10019000619F0000619F0000619F0000619F00005F
:1001A000619F0000619F0000619F0000619F00004F
:1001B000619F0000619F0000619F0000564B4CF260
:1001C000205210B51A804DF628121A8000BF00BFC9
:1001D00009F0CAFE514B4FF010621A60504A9A6003
:1001E000504ADA60504A136813F4807304D14F49BF
:1001F0000B604FF4A85313604D4B1A78110703D5C9
:100200001A7842F008021A704A4B4B492A221A7097
:100210004A4A4B4B8B4204D252F8040F43F8040B6A
:10022000F8E7484B484900228B4202D243F8042B9E
:10023000FAE74649464A002352F8230041F82300D2
:1002400001336F2BF8D1434B434A802103F8011B44
:100250009342FBD1414B3D4A1A60414B8A221A70AE
:10026000A3F5805324225A70A0221A709A7992071B
:10027000FCD59A79D406FCD43A4A937903F00C035E
:10028000082B384BF9D103221A7140225A719A79FE
:100290009006FCD5334A9179324B4906FBD5324A58
:1002A000324911600221516020221A709A7902F0BD
:1002B0000C020C2AFAD12E4B2E4A1A602E4B2F4AD2
:1002C0001A6000225A60072243F8042C2C4AC3F813
:1002D0000C2D62B609F000FF144B1B68DA0705D538
:1002E000284809F075FE284B284A1A60284B1B78CD
:1002F0005B0609D5244C254B22689A4204D121483B
:1003000009F066FE0023236009F034FE15F0E8FAD8
:100310000AF0C6FFFEE700BF0E2005403080044013
:10032000823F04000100002B10D0034014D0034092
:1003300002D0074000E007407898FF1F640B0200DE
:10034000308CFF1F7898FF1F582400200082FF1F69
:100350000000000000E400E05FE400E008ED00E0E1
:100360000050064000400640448004400000030165
:1003700004800440C010050014E000E0FF76010096
:10038000000020207513FD621CE00340A5C3945AB1
:1003900000F00740FFFFFFFFFFFFFFFFFFFFFFFF32
:1003A000FFFFFFFFFFFFFFFFFFFFFFFFFFFFFFFF5D
:1003B000FFFFFFFFFFFFFFFFFFFFFFFFFFFFFFFF4D
:1003C000FFFFFFFFFFFFFFFFFFFFFFFFFFFFFFFF3D
:1003D000FFFFFFFFFFFFFFFFFFFFFFFFFFFFFFFF2D
:1003E000FFFFFFFFFFFFFFFFFFFFFFFFFFFFFFFF1D
:1003F000FFFFFFFFFFFFFFFFFFFFFFFFFFFFFFFF0D
:10040000FFFFFFFFFFFFFFFFFFFFFFFFDEF9FFFF23
:1004100010B5054C237833B9044B13B10448AFF33E
:1004200000800123237010BD7898FF1F000000009A
:10043000A4070200084B10B51BB108490848AFF3E8
:1004400000800848036803B910BD074B002BFBD0A0
:10045000BDE81040184700BF000000007C98FF1F57
:10046000A40702007898FF1F00000000704700BF3B
:10047000002070470020704741F27873EC22C35887
:10048000DA70704741F278732C22C358DA707047E3
:1004900041F27873C358D971704700BF41F2787345
:1004A000C358D879704700BF41F27873C3581879A0
:1004B000C0F34010704700BF4368012B10B401D057
:1004C000022B16D04B0803F1376303F5D833B3FB87
:1004D000F1F141F27873C1F34434C2581470C25838
:1004E000C1F347145470C35801F01F01997210BC36
:1004F00070474B0803F1B76303F55843B3FBF1F1C1
:10050000E7E700BF024642F2E8030021C05CD15495
:10051000704700BF00F5CA5300F5035202331A3288
:10052000002123F8021F9342FBD1704744F21023AD
:100530000022C254704700BF704700BF704700BF21
:1005400008B509F059FD00EB4000400108BD00BFAF
:1005500008B509F051FD002108BD00BF10B541F2FA
:10056000987104460AF0A8FE204610BD10B584B06C
:10057000022268460AF02CFE054C009B6846002BC0
:1005800018BF1C460AF08AFD204604B010BD00BF0B
:100590000AE6010010B584B0114668460A220AF046
:1005A00003FE054C009B6846002B18BF1C460AF052
:1005B00075FD204604B010BD0AE6010010B584B0F8
:1005C0000A2268460AF0DCFD054C009B6846002BB9
:1005D00018BF1C460AF062FD204604B010BD00BFE3
:1005E0000AE6010010B584B00A2268460AF0B4FD9C
:1005F000054C009B6846002B18BF1C460AF04EFDB8
:10060000204604B010BD00BF0AE6010010B5044644
:1006100005E00AF091FBC1B2204605F0CDFA0AF0E0
:10062000C7FB0028F5D110BD10B5044B044640F8B7
:10063000D03B04F08BF8204610BD00BFD4DA010097
:1006400010B5064B044640F8D03B04F07FF8204636
:1006500044F218210AF030FE204610BDD4DA010021
:1006600010B50446D0F880010B4A03681B69934219
:100670000AD109F0C1FC00EB400040010123C4F89D
:10068000A00184F89C3110BD98470123C4F8A00153
:1006900084F89C3110BD00BF4105000038B590F8CA
:1006A0009C4114B90024204638BD0546D0F880018D
:1006B0000A4A03681B6993420DD109F09DFC00EBC7
:1006C00040004001D5F8A021D5F8A431801A984205
:1006D000E8D3204638BD9847F4E700BF4105000045
:1006E000F8B542F2E40242F2E0038258C358934262
:1006F000054613D000F503573C463E4620341C37D0
:1007000024363A681A402A44013392F8D80023600C
:100710000AF0FCFB236832689342F2D144F2FC03F6
:10072000EA5C32B144F21021012000226854EA54FC
:10073000F8BDF8BD10B503680C4A1B6A934284B03B
:100740000ED10A2268460AF01BFD094C009B684640
:10075000002B18BF1C460AF0A1FC204604B010BDB7
:1007600098470446204604B010BD00BFBD050000F8
:100770000AE6010010B503680C4ADB69934284B0B5
:100780000ED10A2268460AF0E7FC094C009B684635
:10079000002B18BF1C460AF081FC204604B010BD97
:1007A00098470446204604B010BD00BFE505000090
:1007B0000AE60100F8B55C4E5C4D326841F2887380
:1007C00000F5BC5EC358DEF800E041F284771A43BE
:1007D00041F27873C759326040F21332CEF80020EC
:1007E0004FF45176C2583E6012269670C2580026C9
:1007F0001674C2582C26D670C35841F27C770E224C
:100800009A71C35D03F1604303F5644340221A709B
:10081000C25D53119B0003F1604303F56143012660
:1008200002F01F0206FA02F21A600268C35DD26883
:100830003F4F03F01F0E5B1106FA0EF6BA42044654
:1008400045F823606ED14268012A0B4601D0022A86
:100850005DD05A0802F1376202F5D832B2FBF3F3E9
:1008600041F27872C3F34430A1580870A158C3F321
:1008700047104870A25803F01F03937200210A46E4
:1008800023464FF4AE7E21270EFB01400131102993
:1008900080F880714FF0210680F881214FF000052B
:1008A000C0F88C2183F8382083F888215A63DA67EE
:1008B00003F5AE73E8D104F5B0531E4983F84C61DB
:1008C0001D7183F84D5183F8545122681269C3F8A1
:1008D000585141F2F45741F2F85641F2FC501D6074
:1008E0009D648A424FF01403E551A551255084F8C8
:1008F000303014D109F080FB00EB4000400141F2A0
:10090000707141F2747304226050E254F8BD4A08D9
:1009100002F1B76202F55842B2FBF1F3A0E72046BC
:100920009047ECE79047A9E73480044080E200E07C
:10093000B9040000410500000368AA4A9B6A93427B
:100940002DE9F041044640F08F8041F27873C3589E
:100950001879C0F34010002850D141F27873E35861
:10096000DA78110601D4BDE8F0811A791206FAD5B9
:1009700041F2FC524FF4AE75A2589B4805FB02456C
:1009800095F83820511C85F8381021680E6A2A44E1
:10099000864292F8391040F0F580D971E38A01332C
:1009A000E38295F838206B6B9B1A002BDBDC95F803
:1009B0003930002B40F0E98023688C4A1B69934250
:1009C00040F0F98009F018FB00EB4000400141F2D3
:1009D000707141F2747303226050E2542368844AB8
:1009E000DB69934240F0F08041F278732C22E358A7
:1009F000DA70172384F83030BDE8F08126687D4A2C
:100A0000736A41F2FC519342655840F0D08041F244
:100A10007873E358D879C0B24FF4AE7303FB054343
:100A2000DA6F9918013281F88000DA67218B013181
:100A30002183D3F88C118A421ADA93F98130002B82
:100A400014DB3369694A934240F0BB8009F0D4FA61
:100A500000EB4000400141F2707141F274730222D8
:100A60006050E254BDE8F081984774E7042AE8DD5D
:100A700033695E4A934240F0AA8009F0BDFA00EB68
:100A80004000400141F2747241F2707604214FF44B
:100A9000AE73A05103FB0543A15493F8391093F8AA
:100AA0008020914208D0628C0132628493F88121C7
:100AB00042F0200283F881214FF4AE7101FB05F171
:100AC0006318DF6F012F2BDD1946B7F1020C01F11E
:100AD000800100F08380FF20DFF81C81DFF81CE13B
:100AE000024601EB0C0611F8013B5340B14218F8E5
:100AF000032082EA00021EF80300F4D142EA002239
:100B000012B24FF4AE7303FB05439C441F449CF8A0
:100B1000801097F87F3043EA01231BB293420CD038
:100B2000A28C4FF4AE73013203FB0543A28493F809
:100B3000812142F0400283F881214FF4AE7303FB20
:100B400005F3E21892F8811199B9A18A0131A182C5
:100B500092F98120002A0CDAA28B23440132A2836D
:100B600093F88230052B35D0062B02D1238C01332C
:100B700023844FF4AE7303FB0544242384F88031AF
:100B8000BDE8F0812046B04708E72368174A1B6993
:100B9000934213D109F030FA00EB4000400141F2DA
:100BA000707141F2747301226050E25416E72046DE
:100BB0009847266830E72046984708E72046984738
:100BC000EDE72046984746E72046984711E720463C
:100BD000984757E7E38B0133E383CAE74FF0FF32CF
:100BE0008FE700BFA9040000910400004105000048
:100BF000850400009D04000028E2010028E30100B4
:100C00002DE9F843044688460221174605F00AF804
:100C10002046722105F006F8DFF87C915525002664
:100C200008E00136B6B22946204604F0FBFF19F869
:100C300006504DB1022D4FF01001204601D08D42DB
:100C4000EFD104F0EFFFECE71921204604F0EAFFB2
:100C50000321204604F0E6FF0221204604F0E2FFD3
:100C60000221204604F0DEFF7221204604F0DAFF64
:100C700098F800604EB912E00135ADB23146204619
:100C800004F0D0FF18F805604EB1022E4FF01001AD
:100C9000204601D08E42EFD104F0C4FFECE71921C9
:100CA000204604F0BFFF0321204604F0BBFF0221D1
:100CB000204604F0B7FF0221204604F0B3FF722162
:100CC000204604F0AFFF3D789DB1002607E00136D5
:100CD000B6B22946204604F0A5FFBD5D4DB1022DF8
:100CE0004FF01001204601D08D42F0D104F09AFF60
:100CF000EDE71921204604F095FF0321204604F07A
:100D000091FF0221204604F08DFF0221204604F0CD
:100D100089FF7221204604F085FF0D21204604F052
:100D200081FF1921204604F07DFF0321204604F0B5
:100D300079FF0221204604F075FF0221204604F0CD
:100D400071FF7221204604F06DFF55260025114FDA
:100D500007E00135ADB23146204604F063FF7E5D09
:100D60004EB1022E4FF01001204601D08E42F0D13C
:100D700004F058FFEDE72046192104F053FF204608
:100D8000032104F04FFF20460221BDE8F84304F0A0
:100D900049BF00BF0CDC0100F8DB01002DE9F04386
:100DA0008BB00DF12808152548F8285D89460022EA
:100DB0004146044606AF04A804970AF0A1FD009B33
:100DC000774906932A46049008F0D2FF009B049AC4
:100DD00005930026D6544846724915F085FD80B12A
:100DE0004846714915F080FD0546002800F09D80B9
:100DF0000498B84201D00AF05DFA30460BB0BDE865
:100E0000F08302210546204604F00CFF72212046A3
:100E100004F008FFDFF8A091532608E00135ADB2D9
:100E20003146204604F0FEFE19F805604EB1022E50
:100E30004FF01001204601D08E42EFD104F0F2FEB7
:100E4000ECE71921204604F0EDFE0321204604F0D2
:100E5000E9FE0221204604F0E5FE2368534A5B6860
:100E6000934240F0938009F0C7F82268504B516AD2
:100E7000994240F08F8001460A2240460AF094F9D8
:100E8000009B4C4A4046002B14BF984690460AF0FF
:100E900005F90221204604F0C5FE7221204604F027
:100EA000C1FE98F8005000264DB912E00136B6B2E6
:100EB0002946204604F0B6FE18F806504DB1022D22
:100EC0004FF01001204601D08D42EFD104F0AAFE70
:100ED000ECE71921204604F0A5FE0321204604F08A
:100EE000A1FE0221204604F09DFE0221204604F0CE
:100EF00099FE7221204604F095FE20260025DFF899
:100F0000BC8008E00135ADB23146204604F08AFECF
:100F100018F80560B6B1022E4FF01001204601D03E
:100F20008E42EFD104F07EFEECE7DDF81080022166
:100F3000204604F077FE7221204604F073FE98F8F4
:100F40000060CEB91921204604F06CFE0321204632
:100F500004F068FE2046022104F064FE012647E703
:100F600004F060FE0135ADB23146204604F05AFE71
:100F700018F80560002EE5D0022E4FF01001204633
:100F8000EED08E42EED104F04DFEEBE720469847BE
:100F90000E466AE70246334620468847804678E791
:100FA00044DC01005CDC010080DC01005105000034
:100FB000950500000AE6010068DC010078DC01000C
:100FC0002DE9F04F93B00027884606460EAC084640
:100FD000B1490C940D978DF8387015F085FC0028F8
:100FE00047D0AE49404615F07FFC0546002875D134
:100FF000AB4BDFF8C092D3F800800221404604F0EA
:1010000011FE4046722104F00DFE0D2708E0013567
:10101000ADB23946404604F005FE19F805704FB1EF
:10102000022F4FF01001404601D08F42EFD104F063
:10103000F9FDECE71921404604F0F4FD0321404698
:1010400004F0F0FD4046022104F0ECFD44F21423CC
:1010500042F2DC02F3580C989F5403F503533C33DF
:101060009F54A04236D00AF025F9012013B0BDE804
:10107000F08F8B4BDFF840821F680221054638460F
:1010800004F0D0FD3846722104F0CCFD622608E061
:101090000135ADB23146384604F0C4FD18F805609C
:1010A0004EB1022E4FF01001384601D08E42EFD1E2
:1010B00004F0B8FDECE71921384604F0B3FD032134
:1010C000384604F0AFFD3846022104F0ABFD0C9821
:1010D000A042C8D1012013B0BDE8F08F404671494D
:1010E00015F002FC054608B13846BFE76C4BDFF847
:1010F000CC91D3F800800221404604F093FD404695
:1011000072212F4604F08EFD452508E00137BFB25D
:101110002946404604F086FD19F807504DB1022DCE
:101120004FF01001404601D08D42EFD104F07AFD1E
:10113000ECE74046192104F075FD4046032104F018
:1011400071FD4046022104F06DFD554BD3F800803F
:101150000221404604F066FD4046722104F062FD23
:101160000D2708E039464046013504F05BFDADB27D
:101170004D4B5F5D4FB1022F4FF01001404601D043
:101180008F42EFD104F04EFDECE71921404604F008
:1011900049FD0321404604F045FD4046022104F08C
:1011A00041FD10224149DFF818A10DEB020008F0C3
:1011B000DFFD06F58443143303930297039B384AFB
:1011C0001B681668029A13443046D3F888710221CE
:1011D00004F028FD3046722104F024FD3D784FF0E4
:1011E00000085DB914E008F101081FFA88F82946E3
:1011F000304604F017FD17F808504DB1022D4FF09E
:101200001001304601D08D42EDD104F00BFDEAE72C
:101210003046192104F006FD3046032104F002FD9A
:101220003046022104F0FEFC1D4B1F6802213846A7
:1012300004F0F8FC3846722104F0F4FC0D26002579
:1012400008E031463846013504F0ECFCADB2184BED
:101250005E5D4EB1022E4FF01001384601D08E4235
:10126000EFD104F0DFFCECE71921384604F0DAFC9A
:101270000321384604F0D6FC3846022104F0D2FCA3
:10128000039B029A1B68134403F5E55304330DF1E5
:101290000E091B88019319E0A4E501005CFE010022
:1012A000508CFF1FA8FD010054DD0100E8DB0100A8
:1012B00058DD01008CDC010088DC010094DC0100B9
:1012C0006CDD01000DF11E0399457AD039F8028FCB
:1012D000019B9845F6D85B4B5B4A1E683368DB6917
:1012E000934240F0A98008A80A22414609F034FF41
:1012F000089F564B08A8002F08BF1F4609F0CEFED6
:101300000221304604F08EFC7221304604F08AFC43
:101310003D784FF0000B5DB914E00BF1010B1FFAA3
:101320008BFB2946304604F07DFC17F80B504DB17D
:10133000022D4FF01001304601D08D42EDD104F066
:1013400071FCEAE73046192104F06CFC30460321B9
:1013500004F068FC3046022104F064FC394B1E683E
:101360000221304604F05EFC3046722104F05AFC43
:101370002C27002508E00135ADB23946304604F08F
:1013800051FC1AF805704FB1022F4FF01001304692
:1013900001D08F42EFD104F045FCECE71921304633
:1013A00004F040FC0321304604F03CFC30460221AE
:1013B00004F038FC019BC8EB030B1FFA8BF301937D
:1013C00080E7204B1F680221384604F02BFC38468A
:1013D000722104F027FC0D26002508E0314638462E
:1013E000013504F01FFCADB2194B5E5D4EB1022E0B
:1013F0004FF01001384601D08E42EFD104F012FCBC
:10140000ECE71921384604F00DFC029B03F5035369
:101410001D460321384604F005FC2B463C33384674
:1014200002211D46029304F0FDFB44F2F8139D4295
:101430007FF4C4AE0C9814E6414630469847074600
:101440005EE700BF508CFF1FE50500000AE60100C3
:1014500054DD010084B02DE9F041D8B05FAC4FF409
:10146000AE7684E80E000546214601A8324608F013
:101470007FFC41F2F45741F2F853EC59EB58E31A70
:1014800003F00F030F2B20D006FB0458002321206C
:1014900088F8800188F8883188F88131C8F87C3074
:1014A000C8F88C3101A9324608F1340008F060FC1C
:1014B000013404F00F042223012088F88031EC511C
:1014C00058B0BDE8F04104B07047002058B0BDE806
:1014D000F04104B0704700BF2DE9F047DFF8C88342
:1014E000DFF8C8C3D8F80010DFF8B8E304460823D3
:1014F00000224FF0030990271225481C04F1090629
:101500006360012384F80A902773A573C8F800006C
:10151000227262736372E372D4B0C4F8541130461D
:10152000271D04F10E054FF080098122FF2307E0FB
:1015300010F8011F59404B461CF801201EF801907D
:1015400053408542DBB2F3D143EA09231BB2C3F314
:101550000721D4F860A12374292207F10C09E17353
:10156000C4F85C2149464FF4A872684608F000FCB4
:1015700097E80E005046FFF76DFFD8F80030C4F82A
:1015800054315A1C4FF0210E0023082084F850E1FA
:1015900001214FF0030EC8F80020B02284F8513129
:1015A0002372C4F85C3184F85831E364637360607B
:1015B000A07384F80AE02273DFF8F0A2DFF8E4C237
:1015C0006172E17230464FF0800E8122FF2307E006
:1015D00010F8011F594073461AF801201CF801E069
:1015E00053408542DBB2F3D143EA0E231BB2C3F36F
:1015F0000721D4F860A123741522E173C4F85C219B
:1016000049464FF4A872684608F0B2FB97E80E000E
:101610005046FFF71FFFD8F80030C4F8543121219D
:101620005A1C84F8501100234FF0080E012021733A
:10163000C8F800200321382284F851312372C4F8FD
:101640005C3184F85831E364E3726373C4F804E0F6
:101650006072A273DFF854A2DFF848C2A17230466C
:101660004FF0800E8122FF2307E010F8011F594040
:1016700073461AF801201CF801E053408542DBB2A2
:10168000F3D143EA0E231BB2C3F30721D4F860A1C0
:1016900023747522E173C4F85C2149464FF4A872A3
:1016A000684608F065FB97E80E005046FFF7D2FE4B
:1016B000D8F80030C4F854315A1C2121002384F892
:1016C00050114FF0080E012084F851310321C8F861
:1016D000002023726022C4F85C3184F85831E3643E
:1016E000E37263730B23C4F804E060722273A37384
:1016F000DFF8B8A1DFF8ACC1A17230464FF0800E20
:101700008122FF2307E010F8011F594073461AF8A1
:1017100001201CF801E053408542DBB2F3D143EADB
:101720000E231BB2C3F30721D4F860A123741B223C
:10173000E173C4F85C2149464FF4A872684608F08A
:1017400017FB97E80E005046FFF784FED8F80030EC
:10175000C4F854315A1C2120002384F85001082178
:101760004FF0010E0320C8F80020702284F8513198
:101770002372C4F85C3184F85831E364E372637314
:1017800084F809E0A0722273DFF820A1DFF814C109
:101790006160A17330464FF0800E8122FF2307E085
:1017A00010F8011F594073461AF801201CF801E097
:1017B0005340A842DBB2F3D143EA0E231BB2C3F37A
:1017C0000721D4F860A123741522E173C4F85C21C9
:1017D00049464FF4A872684608F0CAFA97E80E0026
:1017E0005046FFF737FED8F80030C4F854315A1C81
:1017F0002121002384F850114FF0010C032184F8BB
:1018000051314FF0080AC8F800202372C4F85C3147
:1018100084F85831E364E37263731622802384F8FA
:1018200009C0A17223731946DFF880E01D48C4F88F
:1018300004A0A27381234FF0FF0C06E016F8012FDD
:101840005A408C461EF80230815C8CEA0303AE429B
:10185000DBB2F3D143EA01231BB2C3F30721D4F86F
:10186000605123743122E173C4F85C2149464FF47E
:10187000A872684608F07CFA97E80E002846FFF741
:10188000E9FD0023212284F85021237284F851318C
:1018900084F85831C4F85C316360E36454B0BDE847
:1018A000F08700BF28E30100D821002028E20100D2
:1018B0002DE9F0430026ADF2244D1546894640221D
:1018C000314604460DF111001F46BDF840848DF8E5
:1018D000106014F0E3FC31464FF4807216A81596A0
:1018E00014F0DCFC4A488DF86061D0F800E08DF817
:1018F0000560694221233D0E3A0C8DF85831C9B27A
:101900003B0A4FEA282C8DF859618DF80970412661
:101910000C278DF806500EF101058DF807208DF883
:10192000083005608DF811908DF804108DF80B804B
:101930008DF80AC001AA03978DF81260CDF85CE11A
:101940000DF11200022301E012F8011F00F8011F3F
:1019500001330A2BF8D1FF202E4F2F4E0DF111012C
:1019600002460DF11B0511F8013B5340A942FA5CF8
:1019700082EA0002F05CF6D142EA00231BB2C3F314
:1019800007214FF4AE768DF81C300C2332468DF8CB
:101990001B105AA80DEB0301D4F88051599308F09D
:1019A000E7F95AA93246B1A808F0E2F941F2F45732
:1019B00041F2F85355F80780EB58C3EB080303F0E6
:1019C0000F030F2B1FD006FB08540023212084F89F
:1019D0008001324684F8813184F88831E367C4F8A5
:1019E0008C31B1A904F1340008F0C2F908F1010307
:1019F00003F00F032222012084F88021EB510DF225
:101A0000244DBDE8F08300200DF2244DBDE8F083A5
:101A1000D821002028E2010028E301002DE9F04F41
:101A200083B005460024884617464460047201913D
:101A30004022214609301E4614F030FC2146EC6459
:101A40004FF4807205F1500014F028FC4FF0FF3283
:101A5000C5F85421E34BE448C5F888710F224FF0D4
:101A6000210E0527C5F86821502285F850E1DF498D
:101A7000C5F86C7103FB06F34FF0010E4FF4FA57F3
:101A8000C5F87001A5F87421322005F5D47285F8E7
:101A9000514185F85841C5F8904185F89441C5F801
:101AA000984185F89C41C5F8AC81C5F8787185F8F6
:101AB0007C012960C5F86021C5F8802121462822D3
:101AC000C5F8846185F864E1C5F8A43105F5D870DE
:101AD00014F0E4FB05F5BC581422274685F8D821FC
:101AE00008F11C0805F5EE744FF000092760277116
:101AF00049464022601D14F0D1FB4FF0210BA76432
:101B000004F14C0049464FF480724FF0FF3A14F054
:101B1000C5FB04F5AE7404F810BC04F8087C44F866
:101B20000CAC04F80F7C4445DED105F5BD54A0464D
:101B300041F2A873083441F29C7141F2A47245F855
:101B40000190601DC8F80090494645F8029045F89C
:101B50000390402284F8049014F0A0FB4FF48072AC
:101B60004946C4F8489004F14C0014F097FB84F8FF
:101B70004CB14846C4F850A184F84D9184F8549172
:101B800049462A462B464FF4AE7C0CFB005E0130E2
:101B900010288EF828B34FF0210A8EF8291303F588
:101BA000AE73CEF8341383F8841083F8D411C3F8DD
:101BB0008010C3F8C8104FF0000EE6D18C4B84F8AB
:101BC0004CA141F60C1041F6081C4FF47A5103FB6E
:101BD00006F901FB06F184F84DE14FF4FA63C4F80D
:101BE00058E145F80C90295041F6101041F61411B7
:101BF00003FB06F32B506B5041F6041041F61C1109
:101C00007C4B2E5005F801E0C5F8A831019B012B53
:101C100000F01F81022B00F0F980002B00F0BF8044
:101C200041F62C1041F6301341F6281705F5C9513D
:101C300055F800E0EB5855F807C00868DFF8C4A174
:101C40006D4FDAF800B04BEA0303CAF8003040F2F7
:101C5000133B4FF4517A1223CCF800B0CEF800A019
:101C600083700B684FF0000A83F810A00B682C20DB
:101C7000D8700B6841F6241E0E20987115F80E30AE
:101C800003F1604303F564434020187015F80E001B
:101C9000D5F8ACC143119B0003F160434FF0010B39
:101CA00003F5614300F01F000BFA00F0186015F80F
:101CB0000E00D1F800E0BCF1020F00F01F034FEA64
:101CC00060100BFA03F30CBFD446DC4647F8203013
:101CD0008EF800C00B680CBF9C20382058700B6831
:101CE0000CBF0821102199724FF4AE7C53464FF07F
:101CF000210E0CFB0A510AF1010ABAF1100F81F80A
:101D000028E34FF0210081F829334FF00007C1F894
:101D1000343302F5AE7282F8843082F8D431C2F8DE
:101D20008030C2F8C830E4D141F2A87341F29C710E
:101D300041F2A47284F84C01277184F84D7184F843
:101D40005471C4F85871EF501423A7646F50C8F849
:101D50000070AF5085F8D83108F04EF941F61811EF
:101D600000EB400005F5CA5341F61C1240016850D3
:101D700042F2DC04042142F2E400A9541E6042F263
:101D8000E80142F2F40242F2F8032F5545F80090C0
:101D900028466F54AF50EF5003B0BDE8F08F41F6C6
:101DA000241305F5C95141F6251E4FF02D0A13489D
:101DB000086005F803A041F628134FF02E0A05F835
:101DC0000EA00F4FDFF840C045F803C041F62C1EAF
:101DD00041F6301A4FF4806345F80E70BE4645F860
:101DE0000A302BE7B0710B00688909004CDB010059
:101DF000A086010018DB010080E200E000A00640A0
:101E000044A004403480044040A0044041F6241E15
:101E100005F5C95141F625174FF0310C1E480860F1
:101E200041F6281305F80EC04FF0320C05F807C034
:101E300041F6301E194FDFF870C045F803C041F677
:101E40002C1A4FF4805345F80A7045F80E30BE4600
:101E5000F4E641F6241305F5C95141F6251E4FF06D
:101E60002F0A0F48086005F803A041F628134FF029
:101E7000300A05F80EA00B4FDFF830C045F803C05C
:101E800041F62C1E41F6301A4FF4006345F80E70EF
:101E9000BE4645F80A30D1E600C006400CC00440FA
:101EA00000B0064010B0044008C004400CB004402C
:101EB0002DE9F04F0446002685B0A24820604FF47B
:101EC000005AC4F8CC6004F1D0000193884617464C
:101ED00002F03AFC52463146C4F8D46004F1D8000E
:101EE00014F0DCF904F5035542F2E40342F2D800A1
:101EF00042F2DC0142F2E002283541F6FF7B44F871
:101F000000A044F801B02846A65031465246E6509B
:101F100014F0C4F905EB0A0042F2080CC0F800A066
:101F200042F2040004F5824345F800B042F20C008E
:101F300045F80C602E5044F2F80C44F2FC0044F2D8
:101F4000041A44F80C60804A265444F208101A60BF
:101F500044F20C1C44F80A207C4A22504FF47A7256
:101F600024F80C2044F2141044F2241C44F22812E9
:101F7000265044F22C1A9E61DE6144F22E1044F881
:101F80000C60DFF8E8E1A65044F2301C44F2FA128B
:101F90001D4644F2FC1324F80A60DEF800102652B5
:101FA00024F80C6044F2101CA65204F58440E6525A
:101FB0004FF0010A4CF250320023C0E9022304F82A
:101FC0000CA0002900F0A48044F210220121604BF3
:101FD000A1546048236009F045F85F4A5F4B1268DE
:101FE000039244F218220399A15044F2142244F2BD
:101FF0001C2144F8028044F22022675004F58446F4
:102000000199DFF86C91A15004F5884B23603436B8
:102010000BF1740B4FF0030A4FF0FF374FF000083D
:10202000D9F800305A1CC9F80020304606E90804E7
:1020300002F0F4FC06F10C0002F004FE06F11800B8
:1020400002F03EFD06F1340002F03AFD06F15000C8
:1020500002F036FD06F16C0002F032FD06F1880058
:1020600002F02EFD06F1A40002F0F2FB06F1C00022
:1020700002F066FE06F1CC0002F062FE06F1D80026
:1020800002F05EFE06F1E40002F05AFE06F1F000F6
:1020900002F056FE06F5907646F8247C46F8207C41
:1020A00046F81C8C46F8147C5E45B9D104F5884688
:1020B00004F58C4770362837304602F067FB06F18E
:1020C000180002F063FB06F1300002F05FFB06F13E
:1020D000500002F0BDFB06F16C0002F0B9FB06F106
:1020E000880002F053FB06F1A00002F04FFB06F15E
:1020F000B800DC3602F04AFBBE42DDD144F20412E5
:102100001749184BA15020462B6005B0BDE8F08F51
:102110001548CBB2082213F0800F02F1FF324FEACC
:10212000430318BF83F0D50312F0FF02DBB2F2D1F4
:102130000131B1F5807F00F8013FEAD10123CEF8EB
:10214000003041E7D4DA010070DD010084DD0100D8
:1021500068DB01005C8CFF1FDC210020ACDB010090
:1021600090DD0100ACDD0100D3200020D020002054
:10217000D42100202DE9F04FAA4BDFF8CCB2AA4AB7
:10218000AA4EDA6089B04FF00008A3F810800093DF
:102190004446C1465F464FF0010A009BDFF884E2E7
:1021A00093F800C0BEE80F0002AD0FC59EE8030023
:1021B0000CF1FF33DBB2F62B85E803000CD88DF869
:1021C00008C00DF1080EBEE80F0007F5B2750FC587
:1021D0009EE8030085E8030042F2FC0303FB08B31A
:1021E000322283F87C21D7F88001C7F89041036838
:1021F0008F4ADB68934240F00281416800F5BB538F
:1022000002299A690CBF0021012111709A6908BF47
:102210009C2103F1180318BF382151701B680CBFB3
:10222000082210229A72D7F88031824A03F5BA50F8
:1022300003F5BB51C5694FF4FA6002FB05F200FBE0
:1022400005F00A60C8603B6887F89CA1DB687A4AA1
:10225000934240F0E280D7F88001784A03681B6916
:10226000934240F0DD8007F0C7FE00EB40004001E4
:1022700042F2FC0303FB08B3C3F8A00187F89CA15A
:102280003B6838469B6898476D4B6E4A1968D6F88C
:1022900084310B436A490B60D6F87C3140F213312C
:1022A0001960D6F880314FF451711960D6F8743145
:1022B00012219970D6F874311C74D6F874312C211F
:1022C000D970D6F874310E21997196F8783103F1EE
:1022D000604303F564434021197096F878114B115F
:1022E0009B0003F1604303F5614301F01F010AFA0B
:1022F00001F1196096F87831591189000A4403F008
:102300001F030AFA03F31360D7F8A8314849DB68C2
:1023100007F5D4758B422A4678D1D7F8AC11D6F898
:10232000743102290CBF002101211970D6F87431D3
:102330000CBF9C2138215970D6F874310CBF08218C
:102340001021997200234FF4AE7E21200EFB032151
:102350000133102B81F8800181F88141C1F88C4153
:1023600085F8384085F888416C63EC674FF02101AF
:1023700005F5AE75EAD102F5B05342F2FC0000FB60
:1023800008B083F84C11142183F84D91C3F858918B
:1023900086F8009086F8509146F8049CC6F8449060
:1023A00046F8109C46F80C9C46F8089C80F8D8111A
:1023B000D7F8A83121491B698B4224D107F01CFEB4
:1023C00000EB4000400142F2FC0303FB08B303F5BD
:1023D000C852042108F10108906106F503561177EF
:1023E000B8F1020F87F894A107F5035706F13C06F0
:1023F00007F13C077FF4D1AE09B0BDE8F08F4FF490
:10240000964198470FE710469847DCE701954FF44F
:10241000964128469847019A94E7384698472FE70F
:10242000984725E7388CFF1FE0E60B0054B0FF1FEC
:10243000B9040000A086010061060000410500000B
:102440003480044080E200E0A898FF1F2DE9F04F9F
:10245000C54DE5B0284603F0A3FE44F21023EB5C23
:1024600003F0FF04002B00F0C682012C00F0148260
:10247000BE4CDFF818B3A4F63C135593D9460BF1C4
:10248000090A0027A04609F503532C331A4658932E
:10249000B74B53F82730136007F0AEFD09F503532F
:1024A00030331A465993B34B00EB400053F82730B2
:1024B0004001C8F80000136007F09EFD42F2FC03E3
:1024C00003FB07B303F5C85400EB400040011C3484
:1024D000C8F80000227809F5D4715791002A40F01D
:1024E000578109F5BC531C3309F5BD541A6856933E
:1024F000236893423DD04FF4AE7101FB03F109EB29
:10250000010595F82803242833D1D21A12F00F02BE
:1025100000F01C8142F2FC065A1C06FB07B606F5C9
:10252000035E02F00F0209F5EE7322604FF0010C1A
:102530004FF02502581885F82823C9F88C018EF829
:1025400028C095F82923DFF844E202F0FF0C002AA6
:1025500000F03681D9F8903109F503510133C9F8FB
:1025600090318A6B01328A6396F87C21362A00F01A
:10257000668499F89431002B00F08C8042F2FC03C1
:1025800003FB07B393F87C21362A00F0BE8193F851
:102590007C31323B032B7DD8DFE813F0F80299033E
:1025A000E9030400D9F80030734A1B68934240F0F5
:1025B0004C8742F2FC0303FB07B303F503530022ED
:1025C00093F8280083F82820002863D0D9F88C419C
:1025D00094F84D30412B00F0418742F2FC0303FB9D
:1025E00007B3322283F87C21D9F88001634A0023A3
:1025F000C9F890310368DB68934241F02780416855
:1026000000F5BB5302299A690CBF0021012111700A
:102610009A6908BF9C2103F1180318BF3821517033
:102620001B680CBF082210229A72D9F88031544AD4
:1026300003F5BA5003F5BB51C4694FF4FA6002FBCD
:1026400004F200FB04F00A60C860D9F800304D4A7B
:10265000012189F89C11DB68934240F0F387D9F897
:102660008001494A03681B69934241F0458007F0A5
:10267000C3FC00EB4000400142F2FC0303FB07B344
:102680000122C3F8A00189F89C21D9F800304846FE
:102690009B68984742F2FC0303FB07B303F5C85459
:1026A0001C342278002A40F0DE8042F2FC0303FB57
:1026B00007F10BEB010202F5C85200231377559B7B
:1026C0001A684FF4AE7303FB02135B4493F82813AC
:1026D000242900F0148193F82833252B00F00F8172
:1026E000569B1B68934212D042F2FC014FF4AE732A
:1026F00001FB07F103FB02125A44244892F82833E5
:10270000232B04D092F82833222B00F06A8342F264
:10271000FC0303FB07B3152283F8D821559B01372F
:1027200003F5035309F5035908F503580AF5035A4D
:102730003C33022F09F13C0908F13C080AF13C0A3C
:1027400055937FF4A0AE65B0BDE8F08F42F2FC0374
:1027500003FB07B342F2E80101205854C3F88C216F
:1027600092F84D31FFDE00BFA0DAFF1F88B9FF1FCE
:102770009898FF1FA098FF1F05050000B9040000EE
:10278000A08601006106000041050000A898FF1F17
:1027900003F5C8531833559A1B685E93166807F003
:1027A0002BFC00EB400040015F902378013B032BA2
:1027B0003FF697AEDFE813F0B20150018F01AF0191
:1027C00009F50356C9F890C1726B0132726395F82E
:1027D0002922032A69D0642A7FF4CBAE90F84E10E8
:1027E00090F84F2009F5DF5342EA01225A8290F80F
:1027F000501090F8512009F5DF5342EA01221A8265
:1028000090F8521090F8532009F5DF5342EA012264
:10281000DA8390F8541090F8552009F5DF5342EA16
:1028200001229A8390F8573090F8561009F5E0523B
:1028300043EA0121118009F5DF5390F858209A806E
:1028400090F8591090F85A2009F5DF5342EA012216
:102850001A8190F85B1090F85C2009F5E55342EA84
:1028600001229A8085E603F5C85318331B686093EC
:1028700007F0C2FB00EB4000400161902378013B70
:10288000032B3FF64BAFDFE813F004000400040015
:102890004F03619B609B41E744F20E13EA5C022AFE
:1028A0007FF4E6AD0022EA54E2E5467A827AC57901
:1028B000007A02EB062200EB052092B280B2002AD9
:1028C0003FF457AE41F27E05024405FB07F500F6E2
:1028D000A24002F6A14228440B440EEB40002A44D9
:1028E00003F14E0102380EEB42024D7811F8023F1F
:1028F00003EB052320F8023F9042F6D139E601327E
:10290000559B02F00F021A60EAE6569B22681B688C
:102910009B1A03F00F03012B3FF7BCAE09F50354DC
:102920001C342178022900F01D85042900F0078558
:1029300000297FF4AFAE8F4899F864E106688DF8FE
:1029400089118DF88A118DF88B118DF88C11751CF9
:1029500089F8081089F80B1089F80C1089F80D1007
:1029600089F80E1089F80F100924C9F85461642100
:10297000FF26814A814B0560C9F8044089F80A1096
:1029800089F809E03446554609F1100115F8010BA4
:102990006040A942145C84EA06041E5CF6D144EA55
:1029A000062242F2FC0312B203FB07B3C2F3072074
:1029B000132489F8112089F810004FF4A872684692
:1029C000C3F85C4107F0D4F909F104030ECB579822
:1029D000FEF740FD0023212289F8502189F80830B4
:1029E00089F8513189F85831C9F85C31C9F8043097
:1029F000C9F84C304EE644F20E13EB5C012B00F0AC
:102A00009F8244F224130022EA5042F2E00342F291
:102A1000E402EB58AA589A4210D0594E341D06F1E0
:102A2000080732681A402A44013392F8D80023601C
:102A300008F06CFA23683A689342F2D144F2FC033E
:102A4000504AE95C00293FF413AD44F21020012400
:102A500000211454D1540BE509F5C8520C325F9B88
:102A60005E9912685B1A93427FF63BAD07F0C4FA99
:102A700042F2FC0202FB07B202F5C85300EB400031
:102A80004001579C986119464FF4AE73042003FB34
:102A900006430877D3F88C11013100F04F85B9F85F
:102AA000D0110131A9F8D01193F8811141F008013A
:102AB00083F88111B9F8D23118210133A9F8D23144
:102AC00082F8D811579A4FF4AE7303FB06222423E1
:102AD00082F8803105E509F5C85210325F9B5E9996
:102AE00012685B1A93427FF6FCACD9F8A831264AEB
:102AF0001B69934240F0958407F07EFA00EB40009A
:102B0000400142F2FC0303FB07B303F5C852042162
:102B100090611177E5E45F9B5E9BE2E409F5C852A2
:102B200008325F9B5E9912685B1A93427FF6D9ACBC
:102B300007F062FA42F2FC0303FB07B303F5C85245
:102B400000EB40004101042091611077B9F8CE21DB
:102B500057994FF4AE7303FB06110132A9F8CE2149
:102B600091F88131242243F0100381F8813181F8FA
:102B70008021B6E4D821002028E2010028E30100EA
:102B80007CFBFF1FA0DAFF1F41050000D9F8800180
:102B900000F5AF531A461832143312681B689B1A9B
:102BA0001A077FF477ADD9F80030D54A1B699342F4
:102BB00040F0A58599F89C31002B3FF46BAD03687C
:102BC000D04A1B69934240F0B08507F015FA00EB3C
:102BD0004000400142F2FC0303FB07B3D9F8A421F3
:102BE000D3F8A031C01A9042FFF454AD0022D9F8B6
:102BF000003089F89C211B68C3498B4240F08685D0
:102C000042F2FC0303FB07B303F5035393F82810C8
:102C100083F82820BD4C99F864612068C9F85401F4
:102C200001302060002106250824FF20B84AB94B56
:102C3000C9F8981189F8081089F80B1089F80C1058
:102C4000C9F8045089F80A4089F8096001465446D9
:102C500009F10D0514F8016B4E40AC42915D81EA1B
:102C60000001985DF6D141EA002342F2FC061BB256
:102C700006FB07B6C3F30721062289F80E3089F850
:102C80000D10C6F85C21D9F8605109F104044FF425
:102C9000A87209F11001684607F06AF894E80E007E
:102CA0002846FEF7D7FB00232121332284F84C115C
:102CB00084F84D31C4F8583189F8083089F8583112
:102CC000C9F80430C9F84C3086F87C21E2E4D9F820
:102CD00000308D4A1B68934240F0BB8342F2FC03F4
:102CE00003FB07B303F50353002293F8280083F88E
:102CF000282000283FF4CEACD9F88C5195F94D30FE
:102D0000002BFFF66AAC2B68002B14DD95F84C10F5
:102D10006A7991427FF461AC0433EC1805F14C02FE
:102D20006B1D06E013F8010F12F8011F88427FF4B3
:102D300054AC9C42F6D195F84D1100297FF44DAC6E
:102D4000D9F89831D9F8682101339342C9F89831FC
:102D5000C0F29D82D9F8003048465B68984742F23D
:102D6000FC0303FB07B3342283F87C2192E4D9F8F7
:102D70000030654A1B68934240F0648342F2FC03D2
:102D800003FB07B303F50353002293F8280083F8ED
:102D9000282030B1D9F88C3193F84D31002B7FF4D5
:102DA0001CACD9F8803103F5AF52134618331432F6
:102DB0001B681268D31A1B077FF46CACB9F8742136
:102DC000D9F8703199F86411009248460122FEF753
:102DD0006FFD42F2FC0303FB07B3352283F87C212D
:102DE00058E401441623232082F8280381F8D831BF
:102DF000D9F8A831434A1B69934240F0208307F079
:102E0000FBF800EB4000400142F2FC0303FB07B378
:102E100003F5C852012190611177D9F8A8313E4AD3
:102E20009B69934240F0088309F5C953EC221B6863
:102E3000DA70B9F8BA310133A9F8BA316EE4D9F8C9
:102E40006C219342FFF695AB322386F87C31D9F89A
:102E50008001324A0023C9F890310368DB6893424D
:102E600040F0E682416800F5BB5302299A690CBF25
:102E70000021012111709A6908BF9C2103F11803F8
:102E800018BF382151701B680CBF082210229A729B
:102E9000D9F88031224A03F5BA5003F5BB51C56910
:102EA0004FF4FA6002FB05F200FB05F00A60C8600F
:102EB000D9F800301B4A012189F89C11DB68934244
:102EC00040F0B382D9F880010E4A03681B6993422F
:102ED00040F0C28207F090F800EB4000400142F25F
:102EE000FC0303FB07B30122C3F8A00189F89C216E
:102EF000D9F8003048469B689847FFF73ABB00BFB7
:102F00009D0600004105000005050000D8210020B5
:102F100028E2010028E3010079040000B904000060
:102F2000A08601006106000009F5C8521432619BB9
:102F3000609912685B1A93427FF6F0ABFFF7B5BB5E
:102F400044F22813EB5883B30221284602F06AFEAC
:102F50007221284602F066FE0D26DFF8D88209E0CD
:102F6000A84F0134A4B23146384602F05BFE18F88F
:102F7000046046B1022E01D0102EF1D11021A148DB
:102F800002F050FEECE71921384602F04BFE032117
:102F9000384602F047FE0221384602F043FE44F272
:102FA0000E13FB5C012B7FF42CAD44F22413954CE3
:102FB000EE58002E40F0428144F2281701222046AC
:102FC000E651E250022102F02DFE2046722102F06D
:102FD00029FE54248C4F07E00136B6B221468948B9
:102FE00002F020FEBC5D44B1022C01D0102CF3D1C4
:102FF0001021844802F016FEEEE719218148834F24
:1030000002F010FE03217F4802F00CFE02217D48F1
:1030100002F008FE02217B4802F004FE722179488A
:10302000264602F0FFFD492407E00136B6B22146EC
:10303000744802F0F7FDBC5D44B1022C01D0102CA5
:10304000F3D110216F4802F0EDFDEEE719216D4834
:103050006F4F02F0E7FD03216A4802F0E3FD022111
:10306000684802F0DFFD0221664802F0DBFD7221B4
:103070006448264602F0D6FD542407E00136B6B275
:103080002146604802F0CEFDBC5D44B1022C01D067
:10309000102CF3D110215B4802F0C4FDEEE719219A
:1030A00058485C4F02F0BEFD0321564802F0BAFDBD
:1030B0000221544802F0B6FD0221524802F0B2FD4E
:1030C00072215048264602F0ADFD612407E001362A
:1030D000B6B221464B4802F0A5FDBC5D44B1022CBE
:1030E00001D0102CF3D11021464802F09BFDEEE7F1
:1030F00019214448DFF8408102F094FD0321414842
:1031000002F090FD02213F4802F08CFD02213D4873
:1031100002F088FD72213B4802F084FD542609E04C
:10312000384F0134A4B23146384602F07BFD18F81E
:10313000046046B1022E01D0102EF1D11021314889
:1031400002F070FDECE71921384602F06BFD032117
:10315000384602F067FD0221384602F063FD44F272
:10316000142944F2202844F21C2641222321384607
:1031700003F0ECF92B244FF0030E57F80830BA593E
:1031800057F809102448CDF800E0019405F094FCAC
:1031900057F8091057F80830BA590194122001F570
:1031A0000351043304323C31009013241B480A2697
:1031B0004FF0140805F080FC57F80910184A194818
:1031C00001238DE8500106F057FC57F80910164A04
:1031D0001648CDF8088001F503513C3110238DE8E5
:1031E000500006F049FC124B44F20E121968BA5C0A
:1031F0005B9144F212215B987852012A7FF405AC6E
:103200001DE000BFA0DAFF1FE0DD010050DE01007D
:10321000F0DE010064DF0100041F0020E01F002039
:103220000CE00100C41C002014E00100E41D00209B
:10323000DC210020B4DD0100A4DF0100B34B1B68DA
:10324000B3495C93B3485C9A0B680078AF4FB24CBB
:1032500044F21826D31A8342AA517FF6D6ABAF4860
:103260000A6006F02BFCAE4805F042FCAD4806F0C3
:1032700025FCAD4805F03CFC3B685D9344F212230D
:103280005D9AE252204603F0B5F9FFF7BEBBA748AE
:1032900099F864510468C9F85441661C89F808100B
:1032A00089F80B1089F80C10082406600621FF200D
:1032B0009F4AA04B89F80950C9F8041089F80A40C0
:1032C0000146544609F10D0514F8016B4E40AC421D
:1032D000915D81EA0001985DF6D141EA002342F256
:1032E000FC021BB202FB07B2C3F30720062189F8D8
:1032F0000E3089F80D00C2F85C11D9F8605109F15F
:1033000004044FF4A87209F11001684606F030FD7C
:1033100094E80E002846FEF79DF80023212284F849
:103320004C2184F84D31C4F8583189F8083089F8B7
:103330005831C9F80430C9F84C30FFF7ABB906F082
:103340005BFE09F503522432D8F80030126800EB16
:103350004000C3EB4013934240F27D810023237071
:10336000FFF798B906F048FE09F503522432D8F861
:103370000030126800EB4000C3EB40139342EDD8DD
:103380006A4C589B2068196899F864618DF88C1113
:10339000451C89F80F10C9F85401256008160C1453
:1033A00009128DF88901092589F80C004FF0000EEB
:1033B0008DF88A41642089F80D405D4A8DF88B11A3
:1033C0005C4B89F80E1089F809601C21FF26C9F8AA
:1033D000045089F80A0089F80B1089F808E0304693
:1033E000554609F1100115F8014B4440A942105D02
:1033F00080EA06001E5DF6D140EA062042F2FC0398
:1034000000B203FB07B3C0F30725132489F81100AA
:1034100089F810504FF4A8726846C3F85C41FFF772
:10342000D1BA57989847FFF76CBB484698475FE575
:103430004FF4964198472BE557989847F9E45798E9
:103440009847E1E448469847A3E448469847FFF781
:10345000BBB8484698474CE4984740E594F84D314E
:10346000002B7FF4BAA8D9F8806194F8510094F841
:103470005010336894F85320DB6894F852500004DD
:1034800040EA01612C481143834241EA052140F0A2
:1034900041817368012B02D0022B00F03E814B0862
:1034A00003F1376303F5D833B3FBF1F106F5BB56EF
:1034B000C1F34432B3691A70B369C1F347125A7049
:1034C000B36901F01F019972D9F8802194F8545022
:1034D00094F8553002F5BA511C3102F5BB50096819
:1034E00043EA052301FB03F3C360D9F8783142F2C4
:1034F000FC0002F5BB5200FB07B001FB03F33621D1
:10350000136080F87C11FFF7C5B800BFDC210020F4
:103510009498FF1F348CFF1FA0DAFF1FC41C0020EB
:10352000041F0020E41D0020E01F0020D8210020FF
:1035300028E2010028E30100B904000093F83910E3
:1035400093F8802091420AD0B9F8CA210132A9F833
:10355000CA2193F8812142F0200283F881215799F2
:103560004FF4AE7303FB06F30A461A44D2F87CE02C
:10357000BEF1010F2BDD0B4403F18004BEF1020309
:103580001946569300F0D480FF256E4A6E4B2846AC
:1035900004EB010C14F8011B4140A445505C80EA87
:1035A00005005D5CF6D140EA052000B2579A4FF461
:1035B000AE7303FB0623569A1A44734492F8802094
:1035C00093F87F3043EA02231BB283420FD0B9F84D
:1035D000CC2157994FF4AE73013203FB0613A9F8BF
:1035E000CC2193F8812142F0400283F88121579A3F
:1035F0004FF4AE7303FB06F3D11891F88121002A32
:103600007FF460AAB9F8BC210132A9F8BC2191F974
:103610008120002ABFF656AAB9F8C4215799013271
:103620000B44A9F8C42193F88230052B00F0838065
:10363000062B7FF447AAB9F8C8310133A9F8C8317D
:10364000FFF740BA48469847FFF71FB84FF4964136
:103650009847FEF7EABF3D4C599B2068196899F8D6
:1036600064618DF88C11451C89F80F10C9F854015C
:10367000256008160C1409128DF88901092589F8AE
:103680000C004FF0000E8DF88A41642089F80D403F
:103690002C4A8DF88B112C4B89F80E1089F8096093
:1036A0001E21FF26C9F8045089F80B1089F808E09C
:1036B00089F80A003446554609F1100115F8010B46
:1036C0006040A942145C84EA06041E5CF6D144EA18
:1036D000062442F2FC0324B203FB07B3C4F3072021
:1036E000132589F8100089F811404FF4A872684634
:1036F000C3F85C51FFF766B99847FEF7BDBF48466F
:10370000984700287FF472AAFEF7C4BF484698473E
:10371000FFF780BA30469847D6E64B0803F1B76307
:1037200003F55843B3FBF1F1C0E69847FFF752BAEF
:103730004FF0FF303AE7B9F8C6310133A9F8C63186
:10374000FFF7C0B928E2010028E30100D8210020DA
:10375000AF4BB0492DE9F041D3F8804123685A6955
:103760008A4214D19B6AAC4A934240F0938041F262
:103770007873E3581879C0F34010002854D141F20F
:103780007873E358DA78110605D4BDE8F081204655
:10379000BDE8F04110471A791206F6D541F2FC5205
:1037A0004FF4AE75A2589D4805FB024595F83820A8
:1037B000511C85F8381021680E6A2A44864292F816
:1037C000391040F00A81D971E38A0133E38295F818
:1037D00038206B6B9B1A002BD7DC95F83930002B07
:1037E00000F0E68023688E4A1B69934240F0058111
:1037F00006F002FC00EB4000400141F2707141F222
:10380000747301226050E2542368864ADB69934254
:1038100040F0ED8041F278732C22E358DA701723E0
:1038200084F83030BDE8F08126687F4A736A41F23F
:10383000FC519342655840F0D38041F27873E358CD
:10384000D879C0B24FF4AE7303FB0543DA6F991811
:10385000013281F88000DA67218B01312183D3F8AE
:103860008C118A421BDA93F98130002B15DB336906
:103870006B4A934240F0B88006F0BEFB00EB40007C
:10388000400141F2707141F2747302226050E254BF
:10389000BDE8F081204698476FE7042AE7DD3369E9
:1038A0005F4A934240F0A68006F0A6FB00EB400082
:1038B000400141F2747241F2707604214FF4AE730C
:1038C000A05103FB0543A15493F8391093F88020CD
:1038D000914208D0628C0132628493F8812142F0D7
:1038E000200283F881214FF4AE7101FB05F16318CA
:1038F000DF6F012F2ADD1946B7F1020C01F18001BB
:1039000068D0FF20DFF82481DFF824E1024601EBD4
:103910000C0611F8013B5340B14218F8032082EA2B
:1039200000021EF80300F4D142EA002212B24FF462
:10393000AE7303FB05439C441F449CF8801097F82A
:103940007F3043EA01231BB293420CD0A28C4FF488
:10395000AE73013203FB0543A28493F8812142F048
:10396000400283F881214FF4AE7303FB05F3E218A4
:1039700092F8811199B9A18A0131A18292F981202D
:10398000002A0CDAA28B23440132A28393F88230FE
:10399000052B38D0062B02D1238C013323844FF41E
:1039A000AE7303FB0544242384F88031BDE8F08125
:1039B00023681B4A1B69934222D106F01DFB00EBD2
:1039C0004000400141F2707141F274730322605073
:1039D000E25419E74FF0FF32A9E72046B047F3E67B
:1039E0002046984726682DE72046984749E7204615
:1039F000984714E7204698475BE720469847FCE63F
:103A000020469847DEE7E38B0133E383C7E700BF37
:103A1000A898FF1F39090000A904000091040000C4
:103A200041050000850400009D04000028E201001B
:103A300028E30100AF4AB04942F27C232DE9F0416E
:103A4000D45823685A698A4214D19B6AAB4A93427C
:103A500040F0938041F27873E3581879C0F3401036
:103A6000002854D141F27873E358DA78110605D46E
:103A7000BDE8F0812046BDE8F04110471A791206F2
:103A8000F6D541F2FC524FF4AE75A2589C4805FBA6
:103A9000024595F83820511C85F8381021680E6AC7
:103AA0002A44864292F8391040F00A81D971E38A9B
:103AB0000133E38295F838206B6B9B1A002BD7DC1F
:103AC00095F83930002B00F0E68023688D4A1B6999
:103AD000934240F0058106F08FFA00EB4000400170
:103AE00041F2707141F2747301226050E254236814
:103AF000854ADB69934240F0ED8041F278732C22D5
:103B0000E358DA70172384F83030BDE8F081266876
:103B10007E4A736A41F2FC519342655840F0D3806B
:103B200041F27873E358D879C0B24FF4AE7303FB17
:103B30000543DA6F9918013281F88000DA67218B2A
:103B400001312183D3F88C118A421BDA93F9813039
:103B5000002B15DB33696B4A934240F0B88006F0C6
:103B60004BFA00EB4000400141F2707141F2747376
:103B700002226050E254BDE8F081204698476FE78A
:103B8000042AE7DD33695F4A934240F0A68006F0DD
:103B900033FA00EB4000400141F2747241F270765A
:103BA00004214FF4AE73A05103FB0543A15493F8D5
:103BB000391093F88020914208D0628C01326284DF
:103BC00093F8812142F0200283F881214FF4AE71F5
:103BD00001FB05F16318DF6F012F2ADD1946B7F1EC
:103BE000020C01F1800168D0FF20DFF82481DFF8AA
:103BF00024E1024601EB0C0611F8013B5340B142AF
:103C000018F8032082EA00021EF80300F4D142EA09
:103C1000002212B24FF4AE7303FB05439C441F44D1
:103C20009CF8801097F87F3043EA01231BB293423F
:103C30000CD0A28C4FF4AE73013203FB0543A28477
:103C400093F8812142F0400283F881214FF4AE7352
:103C500003FB05F3E21892F8811199B9A18A0131A9
:103C6000A18292F98120002A0CDAA28B234401322E
:103C7000A28393F88230052B38D0062B02D1238CF7
:103C8000013323844FF4AE7303FB0544242384F8EB
:103C90008031BDE8F08123681A4A1B69934222D122
:103CA00006F0AAF900EB4000400141F2707141F2C8
:103CB000747303226050E25419E74FF0FF32A9E712
:103CC0002046B047F3E62046984726682DE7204671
:103CD000984749E72046984714E7204698475BE70E
:103CE00020469847FCE620469847DEE7E38B013301
:103CF000E383C7E7A898FF1F39090000A904000063
:103D00009104000041050000850400009D040000AE
:103D100028E2010028E3010070B5114C114A124E4F
:103D2000124D204660230121FDF778FE04F5035073
:103D300060230F4A02213C30FDF770FE32460D49E8
:103D4000002007F0D7FD214628460B4A0B4BFEF713
:103D5000AFF8324628460A49BDE8704007F0CABDB0
:103D6000A898FF1F0CE00100308CFF1FA0DAFF1F96
:103D700014E001003D0500009898FF1FA098FF1F68
:103D8000853D000070B500F5884400F58C4564342D
:103D90001C35354B0360AC42064622D0DC3D05F1B4
:103DA000C40001F05FF805F1AC0001F05BF805F12B
:103DB000940001F057F805F1780001F06BF805F177
:103DC0005C0001F067F805F13C0001F04BF805F1EB
:103DD000240001F047F805F10C0001F043F8AC4273
:103DE000DCD106F584452435A4F5907404F5807083
:103DF00000F006FC04F1F40000F002FC04F1E8001D
:103E000000F0FEFB04F1DC0000F0FAFB04F1D0004E
:103E100000F0F6FB04F1B40001F03CF804F1980066
:103E200001F050F804F17C0001F04CF804F160005E
:103E300001F048F804F1440001F044F804F12800CE
:103E400001F040F804F11C0000F0D8FB04F1100070
:103E500000F0D2FBA542C7D13046044B40F8D03B1E
:103E600000F074FC304670BDACDB0100D4DA010018
:103E700070B500F5884400F58C4564341C35384B2A
:103E80000360AC42064622D0DC3D05F1C40000F0E0
:103E9000E9FF05F1AC0000F0E5FF05F1940000F04A
:103EA000E1FF05F1780000F0F5FF05F15C0000F09E
:103EB000F1FF05F13C0000F0D5FF05F1240000F012
:103EC000D1FF05F10C0000F0CDFFAC42DCD106F5CE
:103ED00084452435A4F5907404F5807000F090FBBF
:103EE00004F1F40000F08CFB04F1E80000F088FB22
:103EF00004F1DC0000F084FB04F1D00000F080FB52
:103F000004F1B40000F0C6FF04F1980000F0DAFFFD
:103F100004F17C0000F0D6FF04F1600000F0D2FF55
:103F200004F1440000F0CEFF04F1280000F0CAFFC5
:103F300004F11C0000F062FB04F1100000F05CFBD7
:103F4000A542C7D13046074B40F8D03B00F0FEFBFE
:103F5000304644F2206107F0AFF9304670BD00BF33
:103F6000ACDB0100D4DA01002DE9F04F99B0002557
:103F70008846044602AE0846C749009601958DF86A
:103F8000085012F0B1FC00BB02210746204601F0A8
:103F900049FE7221204601F045FEDFF804837425B6
:103FA00009E00137BFB22946204601F03BFE18F870
:103FB0000750002D7CD0022D4FF01001204601D07B
:103FC0008D42EED101F02EFEEBE7B44B8DF8275079
:103FD00093E803000DF1380902230F0C0890ADF8A7
:103FE00024101A468DF83A500D93072540F60D23FC
:103FF00006A849460DF1200A8DF826700795ADF800
:104000003830CDF83090CDF818A007F0F7FC0DF15E
:10401000500B0746CDF848B057F8083BBB42054661
:1040200000F0A3821293836814936B6813930023A8
:104030002B722F606B60139A1299684607F0DEFCB2
:104040009649404612F050FC07461298584501D058
:1040500007F030F90C98484501D007F02BF9069885
:10406000504501D007F026F9002F40F0848102214D
:10407000204601F0D7FD7221204601F0D3FDDFF884
:1040800024820D250AE00137BFB22946204601F0FF
:10409000C9FD18F80750002D00F0BF81022D4FF028
:1040A0001001204601D08D42EDD101F0BBFDEAE7C1
:1040B0001921204601F0B6FD0321204601F0B2FD92
:1040C0000221204601F0AEFD44F214122368A158EB
:1040D0001B6A2046984702218046204601F0A2FD37
:1040E0007221204601F09EFD98F80070002F4FD1FC
:1040F0001921204601F096FD0321204601F092FD92
:104100000221204601F08EFD0221204601F08AFDA9
:104110007221204601F086FD0D21204601F082FD2E
:104120001921204601F07EFD0321204601F07AFD91
:104130000221204601F076FD0221204601F072FDA9
:104140007221204601F06EFD72250027DFF85881AC
:1041500008E00137BFB22946204601F063FD18F898
:104160000750FDB1022D4FF01001204601D08D42C5
:10417000EFD101F057FDECE701F054FD0135ADB290
:104180003946204601F04EFD18F80570002FAFD0DB
:10419000022F4FF010012046EED08F42EED101F0F9
:1041A00041FDEBE71921204601F03CFD03212046AB
:1041B00001F038FD0221204601F034FD44F21812CE
:1041C0002368A1581B6A2046984702218046204652
:1041D00001F028FD7221204601F024FD98F80070BE
:1041E000002F4FD11921204601F01CFD032120464C
:1041F00001F018FD0221204601F014FD02212046A5
:1042000001F010FD7221204601F00CFD0D21204629
:1042100001F008FD1921204601F004FD032120468C
:1042200001F000FD0221204601F0FCFC02212046A5
:1042300001F0F8FC7221204601F0F4FC642500270F
:10424000DFF8688008E00137BFB22946204601F058
:10425000E9FC18F807505DB3022D4FF0100120461D
:1042600001D08D42EFD101F0DDFCECE701F0DAFC8A
:104270000135ADB23946204601F0D4FC18F805707E
:10428000002FAFD0022F4FF010012046EED08F420A
:10429000EED101F0C7FCEBE71CE0010070E001008B
:1042A00028E0010078E0010040E0010058E0010052
:1042B0001921204601F0B6FC0321204601F0B2FC92
:1042C0000221204601F0AEFC44F21C122368A158E2
:1042D0001B6A2046984702218046204601F0A2FC36
:1042E0007221204601F09EFC98F80070CFBB20465A
:1042F000192101F097FC2046032101F093FC204690
:10430000022101F08FFC2046022101F08BFC2046A7
:10431000722101F087FC20460D2101F083FC20462C
:10432000192101F07FFC2046032101F07BFC20468F
:10433000022101F077FC01240098B04201D006F080
:10434000B9FF204619B0BDE8F08F01F06BFC0135D4
:10435000ADB23946204601F065FC18F80570002F13
:10436000C5D0022F4FF010012046EED08F42EED183
:1043700001F058FCEBE7834BCDF818A093E8070059
:10438000534603C302211A800A2700230A4640F637
:104390000D250D9106A8494607978DF82A308DF80E
:1043A0003A30ADF83850CDF8309007F027FB07468B
:1043B000CDF848B057F8083BBB42054600F0DB801B
:1043C0001293836814936B68139300232B726B60B2
:1043D0002F60139A1299684607F010FB694940460E
:1043E00012F082FA05461298584501D006F062FF95
:1043F0000C98484501D006F05DFF0698504501D065
:1044000006F058FF002D49D040465F4912F06CFA83
:104410000446002847D000248EE71921204601F0E9
:1044200001FC0321204601F0FDFB0221204601F0A2
:10443000F9FB44F20813022154F80380204601F0EE
:10444000F1FB7221204601F0EDFB98F800704FB9A6
:1044500012E00135ADB23946204601F0E3FB18F811
:1044600005704FB1022F4FF01001204601D08F424E
:10447000EFD101F0D7FBECE72046192101F0D2FB88
:104480002046032101F0CEFB2046022101F0CAFBA9
:1044900020460D2101F0C6FB01244DE7204602F025
:1044A0003BF8012448E7DFF8E4A0DFF8E490DAF80D
:1044B00000800221404601F0B5FB4046722101F028
:1044C000B1FB0D25274608E00137BFB2294640461B
:1044D00001F0A8FB19F807504DB1022D4FF0100163
:1044E000404601D08D42EFD101F09CFBECE7404605
:1044F000192101F097FB4046032101F093FB404650
:10450000022101F08FFBDAF80080DDF800904046D0
:10451000022101F087FB4046722101F083FB99F8EC
:104520000070C7B94046192101F07CFB40460321C9
:1045300001F078FB4046022101F074FBFCE601F03B
:1045400071FB0135ADB23946404601F06BFB19F8FD
:104550000570002FE6D0022F4FF010014046EED03C
:104560008F42EED101F05EFBEBE710223946584650
:1045700005F0FEFB59E510223946584605F0F8FBD8
:1045800021E700BF90E0010080DC0100508CFF1F9C
:104590009CE00100027D034622F0010280681A754A
:1045A000704700BF08B5027D034622F00102806813
:1045B0001A750FF033FC08BD037D826923F00103F7
:1045C000012A03750EBF8068836893FBF2F0704781
:1045D00038B5037D044623F00103806823750FF08E
:1045E0001DFC0546A0690FF019FC014628460FF096
:1045F0001DFD38BD704700BF704700BF704700BF4A
:10460000704700BF024B0A464168186802F00EB8B6
:10461000508CFF1F10B50C21044606F04DFE2046BD
:1046200010BD00BF10B50C21044606F045FE204623
:1046300010BD00BF10B50C21044606F03DFE20461B
:1046400010BD00BF10B50C21044606F035FE204613
:1046500010BD00BF024B4168186802F00BB900BFE3
:10466000508CFF1F024B4168186802F043B900BF2D
:10467000508CFF1F024B4168186802F07BB800BFE6
:10468000508CFF1F024B4168186802F0B3B800BF9E
:10469000508CFF1F024B4168186803F041BF00BFF8
:1046A000508CFF1F024B4168186803F079BF00BFB0
:1046B000508CFF1FCB060A460DD5910623D5530615
:1046C00048BF164B416858BF4FF47A738361144B4F
:1046D000186801F0ABBF8B060AD44B064CBF42F200
:1046E0001073012383610E4B4168186801F09EBF6F
:1046F000510648BF0B4B416858BF64238361084B88
:10470000186801F093BF510648BF074B416858BF76
:104710000A238361024B186801F088BF80969800D5
:10472000508CFF1F40420F00A0860100037D23F044
:1047300001030375704700BF037D23F00202027579
:10474000C3F34000704700BF704700BF704700BF11
:1047500030B40449044C0A684260551C0D60046082
:1047600030BC7047C0200020D8E00100024B4168F7
:10477000186801F0BFBF00BF508CFF1F024B0A46F4
:104780004168186802F054BA508CFF1F094AF0B40F
:10479000094C11682568094E416000234F1C1760C1
:1047A000C36006600361037505B1C5602060F0BC9D
:1047B000704700BFC0200020C4200020F4E00100AA
:1047C0002DE9F04186B01646BDF83070BDF834E0F2
:1047D000BDF838C0BDF83C80F1B14968104D2C6877
:1047E0004CB1A04208D0224601E0904204D01269A8
:1047F000002AFAD1046128600A4C8360426820686C
:10480000CDF810808DE88840CDF80CC0334602F01A
:10481000FBFA06B0BDE8F0814FF0FF31DEE700BFE4
:10482000C8200020508CFF1F037D8268C3F38001E5
:1048300091420AD022B923F0040303750120704786
:1048400043F004030375012070470020704700BF48
:104850000A49F0B40A4C0A6825680A4E42600023EF
:10486000571C01220F60C360066003610375C2829A
:10487000826105B1C5602060F0BC7047C020002097
:10488000C42000206CE101002DE9F04F8BB01F46E1
:104890001646BDF850E0BDF854C0BDF85880BDF8CC
:1048A0006830BDF8709000295FD04968304D2C68A1
:1048B0004CB1A04208D0224601E0904204D01269D7
:1048C000002AFAD104612860C28A9A4218BFC382C2
:1048D00019F0100F0AD019F0200F3FD019F0400F37
:1048E00014BF244C4FF47A74846109E019F0200F4E
:1048F0002DD119F0400F14BF42F2107401248461CD
:10490000199D8268D0F804B0DFF874A004FB05F5A7
:104910009542189A18BF8560CDF8249004FB02F9DF
:10492000179ADAF80000CDF8189004FB02F4059409
:104930001B9C08945A460795CDF81080CDF80CC002
:104940008DE8C04002F0ACFB0BB0BDE8F08F19F071
:10495000400F14BF084C64248461D1E719F0400F64
:1049600014BF064C0A248461CAE74FF0FF319DE76B
:10497000C82000208096980040420F00A0860100C9
:10498000508CFF1FF0B58BB0BDF84040BDF84470AF
:10499000BDF84860139D0094149C01970296159FE2
:1049A000BDF8586003950494BDF85C50044C05971D
:1049B000069608950794FFF767FF0BB0F0BD00BFA0
:1049C000ACE101008269836802FB01F29A420AD0DD
:1049D00010B5064B826004461868616801F0CAFF92
:1049E000A368184610BD1846704700BF508CFF1FC3
:1049F00070B5094D4468286884B0BDF82060BDF8E2
:104A0000245000930196134602950A46214602F06F
:104A10001FF804B070BD00BF508CFF1F30B40449B4
:104A2000044C0A684260551C0D60046030BC70473D
:104A3000C020002050E10100F0B587B004461646C2
:104A4000BDF83070BDF834E0BDF83850BDF83C001A
:104A500071B14968084A049010686268039500259E
:104A60008DE888403346A56002F034FD07B0F0BD04
:104A70004FF0FF31EEE700BF508CFF1F10B4044C25
:104A80000B4600224168206810BC02F039B900BF13
:104A9000508CFF1F70B5094D4468286884B0BDF87C
:104AA0002060BDF8245000930196134602950A46F3
:104AB000214601F0CDFF04B070BD00BF508CFF1F38
:104AC0000A49F0B40A4C0A6825680A4E426000237D
:104AD000571C01220F60C360066003610375C28228
:104AE000826105B1C5602060F0BC7047C020002025
:104AF000C4200020B4E001002DE9F04788B015463D
:104B0000BDF84060BDF844C0BDF84880BDF85040D5
:104B1000BDF8589000295CD049682F4FD7F800A005
:104B2000BAF1000F0AD0504509D0524601E0904238
:104B300005D01269002AFAD1C0F810A03860C28AE4
:104B4000A24218BFC48219F0100F0BD019F0200F29
:104B500037D019F0400F14BF204A4FF47A728261A7
:104B600092460AE019F0200F23D119F0400F14BF2C
:104B700042F21072012282619246139F82680AFB00
:104B800007F7DFF864A0974218BF87604268DAF839
:104B900000000694159CCDF81C908DE848100594F3
:104BA0000497CDF80C802B4602F0D6FD08B0BDE886
:104BB000F08719F0400F14BF094A642282619246BF
:104BC000DBE719F0400F14BF064A0A2282619246C1
:104BD000D3E74FF0FF31A0E7C8200020809698006F
:104BE00040420F00A0860100508CFF1F826983683D
:104BF00002FB01F29A420AD010B5064B82600446CD
:104C00001868616801F0B6FEA368184610BD184622
:104C1000704700BF508CFF1F70B5094D446828686D
:104C200084B0BDF82060BDF824500093019613466F
:104C300002950A46214601F00BFF04B070BD00BF8B
:104C4000508CFF1F30B40449044C0A684260551C64
:104C50000D60046030BC7047C020002034E10100CA
:104C60002DE9F04188B004461646BDF83870BDF80D
:104C70003CE0BDF840C0DDF84480129DBDF84C001A
:104C800099B149680A4A069010686268059500253E
:104C90008DE88840CDF81080CDF80CC03346A56073
:104CA00002F030FF08B0BDE8F0814FF0FF31E9E7D6
:104CB000508CFF1F10B5064B4468186882B00B4635
:104CC00000922146002203F0ABF802B010BD00BFF5
:104CD000508CFF1F10B5064B4468186882B00B4615
:104CE00000922146012203F09BF802B010BD00BFE4
:104CF000508CFF1F024B0A464168186803F02EB91A
:104D0000508CFF1F024B4A684168186803F094B941
:104D1000508CFF1F70B5094D4468286884B0BDF8F9
:104D20002060BDF8245000930196134602950A4670
:104D3000214601F08DFE04B070BD00BF508CFF1FF6
:104D400030B40449044C0A684260551C0D6004608C
:104D500030BC7047C020002018E1010070B5084C3D
:104D60004E684168206884B0089DBDF824400093D7
:104D7000019513460294324603F0CCF904B070BD9D
:104D8000508CFF1F10B4034C4168206810BC03F026
:104D900023BB00BF508CFF1F024B0A4641681868B6
:104DA00003F0ACBA508CFF1F30B5074D446828683B
:104DB00083B0BDF818500093019513460A4621466A
:104DC00003F02EFC03B030BD508CFF1F78B10D4AAC
:104DD0001368ABB14168586888420DD0186930B18A
:104DE0004268914204D0034618690028F8D1704700
:104DF00002691A61012070471B6913600120704726
:104E000018467047C820002038B50446E0B1134A60
:104E10001368D3B141685D688D4218D0D86830B14D
:104E20004268914209D00346D8680028F8D10C4A5C
:104E3000136843F00103136038BDC268DA6020468E
:104E4000FFF7C4FF012038BD38BD184638BDDB6808
:104E50001360FFF7BBFF012038BD00BFC420002056
:104E6000CC20002010B5034B03600446FFF7CCFFB5
:104E7000204610BDF4E0010010B5054B0360044668
:104E8000FFF7C2FF2046182106F016FA204610BD93
:104E9000F4E0010010B5034B03600446FFF7B4FFD4
:104EA000204610BD6CE1010010B5054B03600446BF
:104EB000FFF7AAFF20461C2106F0FEF9204610BD90
:104EC0006CE1010010B5034B03600446FFF79CFF43
:104ED000204610BDB4E0010010B5054B0360044648
:104EE000FFF792FF20461C2106F0E6F9204610BD90
:104EF000B4E0010010B5044C206820B1FFF766FF54
:104F000020680028FAD110BDC82000200D4B1B6876
:104F1000B3B15A68904209D0DB68002BF9D10A4935
:104F20000A6842F0020218460A6070479A68914285
:104F30001A7D18BF996042F001021A75012070476E
:104F400018467047C4200020CC2000200B4B1B6863
:104F500093B15A68904209D0DB68002BF9D1084917
:104F60000A6842F0020218460A6070471A7D42F051
:104F700002021A750120704718467047C4200020AD
:104F8000CC20002030B51368CC5C83B00025202CE9
:104F900001EB0300019508D101330B44581A10604E
:104FA000184613F8014B202CF8D014B9204603B052
:104FB00030BD14466B4601AA054911F013FC18B127
:104FC0002268009B13442360019803B030BD00BFEA
:104FD00088E101002DE9F0434B78013B85B006469E
:104FE0001546642B00F2E281DFE813F07400E00163
:104FF000E001D200D700DB009101E001E001E00117
:10500000E001E001E001E001E001E001E001E00198
:10501000E001E001E001E001E001E001E001E00188
:10502000E001E001E001E001E001E0019701A501FC
:10503000BC01E001E001E001E001E001E001E0018C
:10504000E001E001E001E001E001E001E001E00158
:10505000E001E001E001E001E001E001E001E00148
:10506000E001E001E001E001E001E001E001E00138
:10507000E001E001E001E001E001E001E001E00128
:10508000E001E001E001E001E001E001E001E00118
:10509000E001E001E001E001E001E001E001E00108
:1050A000E001E001E001E001E001E001E001E001F8
:1050B000E001D401650004AA002342F8043D29461A
:1050C000FFF760FF013802288CBF0020012005B0E7
:1050D000BDE8F083FFF70EFF42F2E00342F2D80290
:1050E00042F2E401F558B458735844F20E12581BBA
:1050F000013C0127A042B75480F05A8142F2DC0201
:105100004FF0020EB75803EA070030445A1C80F8EB
:10511000D8E0501B8442725040F2B1813A40324490
:105120000233722082F8D8007350581B06F5035ED4
:10513000774606F58248DFF854C30EF11C0E24377B
:1051400008F11408492100224FF0100914E0102939
:1051500014D0844240F24181DEF80000184030440F
:10516000013380F8D810581B3B60013292B21CF812
:105170000210002900F034810229E8D1844200F2B3
:105180002081D8F8001001310131C8F80010ECE797
:1051900003685B699847012099E701F085F80120D1
:1051A00095E7036844F230175B689847F45BDFF8D3
:1051B000E0E20246601C06EB040816FA80F00B469B
:1051C00044F232114FF0000C022508F801C0DEF85D
:1051D00000E0455444F210186519E01C16FA85F5F4
:1051E00016FA80F01EF8088005F801C0043400F8B3
:1051F00001800EF58241A4B2F4530F683D7875B179
:1052000006F582403030311901F582410134A4B2F3
:1052100081F83250048017F8015F002DF3D144F279
:1052200008115EF80170397871B106F582403030AE
:10523000351905F582450134A4B285F83210048091
:1052400017F8011F0029F3D144F204115EF8017030
:10525000397871B106F582403030351905F582454F
:105260000134A4B285F83210048017F8011F002918
:10527000F3D127463821C1F1200E03FA0EFE22FA9F
:1052800001F5F01945EA0E05A1F1200E00F5824066
:1052900023FA0EFE083945EA0E05013711F1080F11
:1052A00080F83250BFB244F23210E4D144F20C150F
:1052B00004F1080136F805E016FA81F104F1090756
:1052C00004F10A054FEA2E240C5416FA87F744F22B
:1052D0003014ADB206F5824107F800E032313553A3
:1052E000002D00F0C680684F0D44002411F8010B1A
:1052F0004440E4B2A9423C5DF8D13046009400F04D
:10530000FFFF44F230130022F2520120DFE644F2A4
:105310000E130022C2540120D9E604AA002342F849
:10532000043D2946FFF72EFEFFF710FE44F22C1332
:105330000120F052CBE604AC002344F8043D29469A
:105340002246FFF71FFE2246074629463046FFF752
:1053500019FE01463846FFF7D9FD44F22C1301200F
:10536000F052B4E604AC002344F8043D294622463A
:10537000FFF708FE2246074629463046FFF702FEA1
:1053800044F22E1301240146F4523846FFF7BEFDC5
:1053900020469CE604AF002447F8044D29463A46CF
:1053A000FFF7F0FD96284DD0204690E600208EE6CF
:1053B00044F21412B2583A4444F2141101327250B9
:1053C000B4E6DEF8000018403044013380F8D8908D
:1053D000581B84423B603FF6BFAED8F80010D3E6BE
:1053E000844224D942F2DC02591CB25802EA03007A
:1053F00030444FF0190E80F8D8E042F2E407481B21
:105400008442F15131D9981C11403144451B4FF071
:10541000030EAC4281F8D8E0F0512CD9024032445E
:105420000333022182F8D8100120F3514FE644F2F1
:105430001413F3580133013344F214120133B350FF
:10544000012044E63A4629463046FFF79BFD3A469E
:10545000044629463046FFF795FD44F2FC1244F21B
:10546000FA13B052F452012031E644F21413F35807
:10547000E1E72C4641E744F21413F358DCE744F229
:1054800014111346725897E7D420002090E10100D0
:10549000508CFF1F2DE9F04F0D78022D83B0884608
:1054A0000446924600F0DC82B5FA85F56D09236862
:1054B000AA4A9B6B934240F06F82002652464146B7
:1054C0002046FEF751FD236806435B6B524641467A
:1054D00020469847354355EA0003019303D00198CD
:1054E00003B0BDE8F08F23689D4A9B69934240F06A
:1054F000F68242F2E00342F2D80242F2E406E558B4
:10550000A058A35901385A1B824280F04B8242F2C4
:10551000DC02591CA75803EA070222444FF0020E8E
:1055200082F8D8E04A1B9042A15140F214833940DE
:1055300021440233722281F8D820A3515A1B04F56A
:10554000035EF14604F5824CDFF818B20EF11C0E32
:1055500009F124090CF1140C5526002715E0102E32
:1055600016D09042114640F23682DEF80020013714
:105570001A40A118BFB281F8D86001331BF8076048
:10558000C9F800305A1B11468EB1022E1146E6D1E1
:10559000904200F21082DCF8006001360137BFB2A1
:1055A0000136CCF800601BF80760002EEDD1904268
:1055B00040F25A8242F2DC025E1CA25802EA030167
:1055C00021444FF0190E81F8D8E042F2E407711B34
:1055D0008842E65140F288821640A1194FF0030E2E
:1055E0009E1C81F8D8E0711B8842E65140F2BC82D3
:1055F00003F1030E16402644C5EB0E014FF0020CDA
:10560000814286F8D8C044F807E080F094821E1DDD
:105610000EEA020EA644711B81428EF8D8C0E651F4
:1056200080F0A782324022440533722182F8D810DC
:10563000E35198F80070002F00F0828204F5035CBB
:10564000E64604F582490CF11C0C0EF1240E09F11A
:10565000140900265A1B4FF0100B15E0102F16D01E
:105660009042114640F2C881DCF800201A40A1188F
:1056700001360133B6B281F8D870CEF8003018F890
:1056800006705A1B11468FB1022F1146E6D1904287
:1056900000F2A481D9F80070013701360137B6B2A3
:1056A000C9F8007018F80670002FEDD1904240F252
:1056B000128242F2DC025E1CA25802EA030121447B
:1056C0004FF0190E81F8D8E042F2E407711B8842CE
:1056D000E65140F22B821640A1194FF0030E9E1C9A
:1056E00081F8D8E0711B8842E65140F24C8203F108
:1056F000030E16402644C5EB0E014FF0020C81420A
:1057000086F8D8C044F807E080F00B821E1D0EEA30
:10571000020EA644711B81428EF8D8C0E65180F07B
:105720002D82324022440533722182F8D810E35191
:105730009AF80070002F00F0068204F5035CE6463C
:1057400004F582480CF11C0C0EF1240E08F114082B
:1057500000265A1B4FF010091CE000BF7504000022
:10576000010C0000F8DB0100102F16D0904211460A
:1057700040F25381DCF800201A40A11801360133B1
:10578000B6B281F8D870CEF800301AF806705A1BFD
:1057900011468FB1022F1146E6D1904200F22F81BF
:1057A000D8F80070013701360137B6B2C8F800707A
:1057B0001AF80670002FEDD1904240F2888142F233
:1057C000DC025E1CA25802EA03012144192781F879
:1057D000D87042F2E40E711B884244F80E6040F229
:1057E0009B811640A11903279E1C81F8D870711B5C
:1057F000884244F80E6040F2A981DF1C164026441E
:10580000791B4FF0020C814286F8D8C044F80E7024
:1058100080F07D811E1D17402744711B814287F84F
:10582000D8C044F80E6080F0BF8132402244053376
:10583000722182F8D81044F80E30591B884240F289
:10584000EF8042F2DC07591CE2591A40224442F22E
:10585000E406C5EB010E4FF00D0C704582F8D8C080
:10586000A15140F29F81E259114021449F1C4FF009
:10587000190E81F8D8E0791B8842A75140F2428185
:1058800017402744D91C4FF0030E87F8D8E04F1B70
:10589000B842A15140F281811F1D11402144C5EB46
:1058A000070C4FF0020E844581F8D8E0A75180F034
:1058B000248117402744591D87F8D8E04F1B8742A1
:1058C000A15180F065810A4022440633722182F89A
:1058D000D810A35104F5035E774604F58248DFF83B
:1058E000D4C20EF11C0E243708F1140855260021ED
:1058F0005A1B4FF0100912E0102E12D0904240F2C5
:10590000AC80DEF8002001311A40224489B282F8CE
:10591000D8601CF8016001335A1B3B6086B1022E2F
:10592000EAD1904200F28D80D8F800600136013152
:1059300089B20136C8F800601CF80160002EEED173
:10594000904240F2B78042F2DC02591CA25802EAAF
:10595000030727444FF0190E87F8D8E042F2E40617
:105960004F1BB842A15140F2C4809F1C11402144FA
:105970007D1B4FF0030EA84281F8D8E0A75140F2FA
:10598000EF803A40224401980333022182F8D81074
:10599000A35103B0BDE8F08F5246414620469847D8
:1059A00006468BE544F214116158013144F2141695
:1059B0000131A151C3E5DEF800201A402244013331
:1059C0004FF0100182F8D8105A1B9042C9F80030ED
:1059D00011463FF6CAADDCF80060DFE5DCF80020D8
:1059E0001A402244013382F8D8B05A1B9042CEF8B4
:1059F000003011463FF638AED9F800704DE6DCF8BD
:105A000000201A402244013382F8D8905A1B904259
:105A1000CEF8003011463FF6ADAED8F80070C2E6C1
:105A200044F2141162580132625044F21412A25826
:105A3000013201320132013244F21411013262505A
:105A400048E7DEF800201A402244013382F8D8905B
:105A50005A1B90423B603FF654AFD8F8006066E7AF
:105A6000FFF7B8FA054622E544F21412A2580132B3
:105A700001320132013244F214160132A25198F877
:105A80000070002F7FF4DAAD0132013201320132B1
:105A900044F214160132A2519AF80070002F7FF4DC
:105AA0004CAE013201320132013244F2141601329D
:105AB000A251C3E644F21413E3580133013344F214
:105AC000141201980133A35003B0BDE8F08F44F2E3
:105AD0001412A258E5E744F21412A258D4E7524631
