:1000000000800020BD01000071A4000029A40000B0
:1000100029A4000029A4000029A4000029A40000AC
:1000200029A4000029A4000029A4000071A4000054
:1000300071A4000029A4000045B8000049B80000E0
:1000400071A4000071A4000071A4000071A400005C
:1000500071A4000071A4000071A4000071A400004C
:1000600071A4000071A4000071A4000071A400003C
:1000700071A4000071A4000071A4000071A400002C
:1000800071A4000071A4000071A4000071A400001C
:1000900071A4000071A4000071A4000071A400000C
:1000A00071A4000071A4000071A4000071A40000FC
:1000B00071A4000071A4000071A4000071A40000EC
:1000C00071A4000071A4000071A4000071A40000DC
:1000D00071A4000071A4000071A4000071A40000CC
:1000E00071A4000071A4000071A4000071A40000BC
:1000F00071A4000071A4000071A40000F11D0000B3
:1001000071A40000D520000071A4000071A40000BB
:1001100071A4000071A4000071A4000071A400008B
:1001200071A4000071A4000071A4000071A400007B
:1001300071A4000071A4000071A4000071A400006B
:1001400071A4000071A4000071A4000071A400005B
:1001500071A4000071A4000071A4000071A400004B
:1001600071A4000021AB000071A4000071A4000084
:1001700071A4000071A4000071A4000071A400002B
:1001800071A4000071A4000071A4000071A400001B
:1001900071A4000071A4000071A4000071A400000B
:1001A00071A4000071A4000071A4000071A40000FB
:1001B00071A4000071A4000071A40000564B4CF221
:1001C000205210B51A804DF628121A8000BF00BFC9
:1001D0000AF052F9514B4FF010621A60504A9A607F
:1001E000504ADA60504A136813F4807304D14F49BF
:1001F0000B604FF4A85313604D4B1A78110703D5C9
:100200001A7842F008021A704A4B4B492A221A7097
:100210004A4A4B4B8B4204D252F8040F43F8040B6A
:10022000F8E7484B484900228B4202D243F8042B9E
:10023000FAE74649464A002352F8230041F82300D2
:1002400001336F2BF8D1434B434A802103F8011B44
:100250009342FBD1414B3D4A1A60414B8A221A70AE
:10026000A3F5805324225A70A0221A709A7992071B
:10027000FCD59A79D406FCD43A4A937903F00C035E
:10028000082B384BF9D103221A7140225A719A79FE
:100290009006FCD5334A9179324B4906FBD5324A58
:1002A000324911600221516020221A709A7902F0BD
:1002B0000C020C2AFAD12E4B2E4A1A602E4B2F4AD2
:1002C0001A6000225A60072243F8042C2C4AC3F813
:1002D0000C2D62B60AF0FAFA144B1B68DA0705D542
:1002E00028480AF05BF9284B284A1A60284B1B78EB
:1002F0005B0609D5244C254B22689A4204D121483B
:100300000AF04CF9002323600AF0BCF815F098FEBF
:100310000BF0C0FBFEE700BF0E200540308004401C
:10032000823F04000100002B10D0034014D0034092
:1003300002D0074000E007409098FF1FE81002003D
:10034000308CFF1F9098FF1F302500200082FF1F78
:100350000000000000E400E05FE400E008ED00E0E1
:100360000050064000400640448004400000030165
:1003700004800440C010050014E000E0FF76010096
:10038000000020208A0DFD621CE00340A5C3945AA2
:1003900000F00740FFFFFFFFFFFFFFFFFFFFFFFF32
:1003A000FFFFFFFFFFFFFFFFFFFFFFFFFFFFFFFF5D
:1003B000FFFFFFFFFFFFFFFFFFFFFFFFFFFFFFFF4D
:1003C000FFFFFFFFFFFFFFFFFFFFFFFFFFFFFFFF3D
:1003D000FFFFFFFFFFFFFFFFFFFFFFFFFFFFFFFF2D
:1003E000FFFFFFFFFFFFFFFFFFFFFFFFFFFFFFFF1D
:1003F000FFFFFFFFFFFFFFFFFFFFFFFFFFFFFFFF0D
:10040000FFFFFFFFFFFFFFFFFFFFFFFFDEF9FFFF23
:1004100010B5054C237833B9044B13B10448AFF33E
:1004200000800123237010BD9098FF1F0000000082
:10043000280D0200084B10B51BB108490848AFF35E
:1004400000800848036803B910BD074B002BFBD0A0
:10045000BDE81040184700BF000000009498FF1F3F
:10046000280D02009098FF1F00000000704700BF99
:10047000002070470020704741F27873EC22C35887
:10048000DA70704741F278732C22C358DA707047E3
:1004900041F27873C358D971704700BF41F2787345
:1004A000C358D879704700BF41F27873C3581879A0
:1004B000C0F34010704700BF4368012B10B401D057
:1004C000022B16D04B0803F1376303F5D833B3FB87
:1004D000F1F141F27873C1F34434C2581470C25838
:1004E000C1F347145470C35801F01F01997210BC36
:1004F00070474B0803F1B76303F55843B3FBF1F1C1
:10050000E7E700BF024642F2E8030021C05CD15495
:10051000704700BF00F5CA5300F5035202331A3288
:10052000002123F8021F9342FBD1704744F21023AD
:100530000022C254704700BF704700BF704700BF21
:1005400008B50AF053F900EB4000400108BD00BFB8
:1005500008B50AF04BF9002108BD00BF10B584B002
:100560000A2268460BF0F2F9054C009B6846002B06
:1005700018BF1C460BF08CF9204604B010BD00BF1C
:100580008AEB010010B541F2987104460BF08EFA27
:10059000204610BD10B584B0022268460BF012FA56
:1005A000054C009B6846002B18BF1C460BF070F9E9
:1005B000204604B010BD00BF8AEB010010B584B026
:1005C000114668460A220BF0E9F9054C009B684683
:1005D000002B18BF1C460BF05BF9204604B010BD81
:1005E0008AEB010010B584B00A2268460BF0C2F90C
:1005F000054C009B6846002B18BF1C460BF048F9C1
:10060000204604B010BD00BF8AEB010010B50446BF
:1006100005E00AF08BFFC1B2204606F019F90AF096
:10062000C1FF0028F5D110BD10B5044B044640F8B9
:10063000D03B04F091FE204610BD00BF14E2010043
:1006400010B5064B044640F8D03B04F085FE20462A
:1006500044F218210BF02AFA204610BD14E20100E2
:1006600010B50446D0F880010B4A03681B69934219
:100670000AD10AF0BBF800EB400040010123C4F8A6
:10068000A00184F89C3110BD98470123C4F8A00153
:1006900084F89C3110BD00BF4105000038B590F8CA
:1006A0009C4114B90024204638BD0546D0F880018D
:1006B0000A4A03681B6993420DD10AF097F800EBD0
:1006C00040004001D5F8A021D5F8A431801A984205
:1006D000E8D3204638BD9847F4E700BF4105000045
:1006E000F8B542F2E40242F2E0038258C358934262
:1006F000054613D000F503573C463E4620341C37D0
:1007000024363A681A402A44013392F8D80023600C
:100710000AF0F6FF236832689342F2D144F2FC03F8
:10072000EA5C32B144F21021012000226854EA54FC
:10073000F8BDF8BD10B503680C4A1B6A934284B03B
:100740000ED10A2268460BF015F9094C009B684649
:10075000002B18BF1C460BF09BF8204604B010BDC0
:1007600098470446204604B010BD00BFE5050000D0
:100770008AEB010010B503680C4ADB69934284B030
:100780000ED10A2268460BF0E1F8094C009B68463E
:10079000002B18BF1C460BF07BF8204604B010BDA0
:1007A00098470446204604B010BD00BF5D05000018
:1007B0008AEB0100F8B55C4E5C4D326841F28873FB
:1007C00000F5BC5EC358DEF800E041F284771A43BE
:1007D00041F27873C759326040F21332CEF80020EC
:1007E0004FF45176C2583E6012269670C2580026C9
:1007F0001674C2582C26D670C35841F27C770E224C
:100800009A71C35D03F1604303F5644340221A709B
:10081000C25D53119B0003F1604303F56143012660
:1008200002F01F0206FA02F21A600268C35DD26883
:100830003F4F03F01F0E5B1106FA0EF6BA42044654
:1008400045F823606ED14268012A0B4601D0022A86
:100850005DD05A0802F1376202F5D832B2FBF3F3E9
:1008600041F27872C3F34430A1580870A158C3F321
:1008700047104870A25803F01F03937200210A46E4
:1008800023464FF4AE7E21270EFB01400131102993
:1008900080F880714FF0210680F881214FF000052B
:1008A000C0F88C2183F8382083F888215A63DA67EE
:1008B00003F5AE73E8D104F5B0531E4983F84C61DB
:1008C0001D7183F84D5183F8545122681269C3F8A1
:1008D000585141F2F45741F2F85641F2FC501D6074
:1008E0009D648A424FF01403E551A551255084F8C8
:1008F000303014D109F07AFF00EB4000400141F2A2
:10090000707141F2747304226050E254F8BD4A08D9
:1009100002F1B76202F55842B2FBF1F3A0E72046BC
:100920009047ECE79047A9E73480044080E200E07C
:10093000B9040000410500000368AA4A9B6A93427B
:100940002DE9F041044640F08F8041F27873C3589E
:100950001879C0F34010002850D141F27873E35861
:10096000DA78110601D4BDE8F0811A791206FAD5B9
:1009700041F2FC524FF4AE75A2589B4805FB02456C
:1009800095F83820511C85F8381021680E6A2A44E1
:10099000864292F8391040F0F580D971E38A01332C
:1009A000E38295F838206B6B9B1A002BDBDC95F803
:1009B0003930002B40F0E98023688C4A1B69934250
:1009C00040F0F98009F012FF00EB4000400141F2D5
:1009D000707141F2747303226050E2542368844AB8
:1009E000DB69934240F0F08041F278732C22E358A7
:1009F000DA70172384F83030BDE8F08126687D4A2C
:100A0000736A41F2FC519342655840F0D08041F244
:100A10007873E358D879C0B24FF4AE7303FB054343
:100A2000DA6F9918013281F88000DA67218B013181
:100A30002183D3F88C118A421ADA93F98130002B82
:100A400014DB3369694A934240F0BB8009F0CEFE63
:100A500000EB4000400141F2707141F274730222D8
:100A60006050E254BDE8F081984774E7042AE8DD5D
:100A700033695E4A934240F0AA8009F0B7FE00EB6A
:100A80004000400141F2747241F2707604214FF44B
:100A9000AE73A05103FB0543A15493F8391093F8AA
:100AA0008020914208D0628C0132628493F88121C7
:100AB00042F0200283F881214FF4AE7101FB05F171
:100AC0006318DF6F012F2BDD1946B7F1020C01F11E
:100AD000800100F08380FF20DFF81C81DFF81CE13B
:100AE000024601EB0C0611F8013B5340B14218F8E5
:100AF000032082EA00021EF80300F4D142EA002239
:100B000012B24FF4AE7303FB05439C441F449CF8A0
:100B1000801097F87F3043EA01231BB293420CD038
:100B2000A28C4FF4AE73013203FB0543A28493F809
:100B3000812142F0400283F881214FF4AE7303FB20
:100B400005F3E21892F8811199B9A18A0131A182C5
:100B500092F98120002A0CDAA28B23440132A2836D
:100B600093F88230052B35D0062B02D1238C01332C
:100B700023844FF4AE7303FB0544242384F88031AF
:100B8000BDE8F0812046B04708E72368174A1B6993
:100B9000934213D109F02AFE00EB4000400141F2DC
:100BA000707141F2747301226050E25416E72046DE
:100BB0009847266830E72046984708E72046984738
:100BC000EDE72046984746E72046984711E720463C
:100BD000984757E7E38B0133E383CAE74FF0FF32CF
:100BE0008FE700BFA9040000910400004105000048
:100BF000850400009D0400005CE701005CE8010042
:100C00002DE9F843044688460221174605F056FEB2
:100C10002046722105F052FEDFF87C915525002612
:100C200008E00136B6B22946204605F047FE19F81D
:100C300006504DB1022D4FF01001204601D08D42DB
:100C4000EFD105F03BFEECE71921204605F036FE1A
:100C50000321204605F032FE0221204605F02EFE3B
:100C60000221204605F02AFE7221204605F026FECC
:100C700098F800604EB912E00135ADB23146204619
:100C800005F01CFE18F805604EB1022E4FF0100161
:100C9000204601D08E42EFD105F010FEECE719217D
:100CA000204605F00BFE0321204605F007FE022139
:100CB000204605F003FE0221204605F0FFFD7221CB
:100CC000204605F0FBFD3D789DB1002607E001368A
:100CD000B6B22946204605F0F1FDBD5D4DB1022DAD
:100CE0004FF01001204601D08D42F0D105F0E6FD15
:100CF000EDE71921204605F0E1FD0321204605F02E
:100D0000DDFD0221204605F0D9FD0221204605F037
:100D1000D5FD7221204605F0D1FD0D21204605F0BC
:100D2000CDFD1921204605F0C9FD0321204605F01F
:100D3000C5FD0221204605F0C1FD0221204605F037
:100D4000BDFD7221204605F0B9FD55260025114F45
:100D500007E00135ADB23146204605F0AFFD7E5DBE
:100D60004EB1022E4FF01001204601D08E42F0D13C
:100D700005F0A4FDEDE72046192105F09FFD204672
:100D8000032105F09BFD20460221BDE8F84305F054
:100D900095BD00BF3CE3010028E301002DE9F043CD
:100DA0008BB00DF12808152548F8285D89460022EA
:100DB0004146044606AF04A804970BF02BF9009BAC
:100DC000774906932A46049008F0F0FF009B049AA6
:100DD00005930026D6544846724916F035F980B17D
:100DE0004846714916F030F90546002800F09D800C
:100DF0000498B84201D00AF057FE30460BB0BDE867
:100E0000F08302210546204605F058FD7221204658
:100E100005F054FDDFF8A091532608E00135ADB28E
:100E20003146204605F04AFD19F805604EB1022E04
:100E30004FF01001204601D08E42EFD105F03EFD6B
:100E4000ECE71921204605F039FD0321204605F085
:100E500035FD0221204605F031FD2368534A5B68C9
:100E6000934240F0938009F0C1FC2268504B516AD4
:100E7000994240F08F8001460A2240460AF08EFDDA
:100E8000009B4C4A4046002B14BF984690460AF0FF
:100E9000FFFC0221204605F011FD7221204605F0DD
:100EA0000DFD98F8005000264DB912E00136B6B29B
:100EB0002946204605F002FD18F806504DB1022DD6
:100EC0004FF01001204601D08D42EFD105F0F6FC25
:100ED000ECE71921204605F0F1FC0321204605F03E
:100EE000EDFC0221204605F0E9FC0221204605F038
:100EF000E5FC7221204605F0E1FC20260025DFF804
:100F0000BC8008E00135ADB23146204605F0D6FC84
:100F100018F80560B6B1022E4FF01001204601D03E
:100F20008E42EFD105F0CAFCECE7DDF8108002211B
:100F3000204605F0C3FC7221204605F0BFFC98F85E
:100F40000060CEB91921204605F0B8FC03212046E7
:100F500005F0B4FC2046022105F0B0FC012647E76D
:100F600005F0ACFC0135ADB23146204605F0A6FCDB
:100F700018F80560002EE5D0022E4FF01001204633
:100F8000EED08E42EED105F099FCEBE72046984773
:100F90000E466AE70246334620468847804678E791
:100FA00074E301008CE30100B0E30100510500008F
:100FB000BD0500008AEB010098E30100A8E30100F1
:100FC00084B02DE9F041D8B05FAC4FF4AE7684E840
:100FD0000E000546214601A8324608F0E7FE41F220
:100FE000F45741F2F853EC59EB58E31A03F00F03AE
:100FF0000F2B20D006FB04580023212088F8800105
:1010000088F8883188F88131C8F87C30C8F88C318C
:1010100001A9324608F1340008F0C8FE013404F09A
:101020000F042223012088F88031EC5158B0BDE82C
:10103000F04104B07047002058B0BDE8F04104B062
:10104000704700BF2DE9F047DFF8C883DFF8C8C359
:10105000D8F80010DFF8B8E30446082300224FF068
:10106000030990271225481C04F109066360012337
:1010700084F80A902773A573C8F80000227262737F
:101080006372E372D4B0C4F854113046271D04F1E2
:101090000E054FF080098122FF2307E010F8011FA1
:1010A00059404B461CF801201EF8019053408542E0
:1010B000DBB2F3D143EA09231BB2C3F30721D4F80F
:1010C00060A12374292207F10C09E173C4F85C21A3
:1010D00049464FF4A872684608F068FE97E80E008B
:1010E0005046FFF76DFFD8F80030C4F854315A1C51
:1010F0004FF0210E0023082084F850E101214FF029
:10110000030EC8F80020B02284F851312372C4F8CD
:101110005C3184F85831E36463736060A07384F8D1
:101120000AE02273DFF8F0A2DFF8E4C26172E17234
:1011300030464FF0800E8122FF2307E010F8011F98
:10114000594073461AF801201CF801E053408542CB
:10115000DBB2F3D143EA0E231BB2C3F30721D4F869
:1011600060A123741522E173C4F85C2149464FF451
:10117000A872684608F01AFE97E80E005046FFF77E
:101180001FFFD8F80030C4F8543121215A1C84F8CC
:10119000501100234FF0080E01202173C8F80020E1
:1011A0000321382284F851312372C4F85C3184F869
:1011B0005831E364E3726373C4F804E06072A273AD
:1011C000DFF854A2DFF848C2A17230464FF0800E1B
:1011D0008122FF2307E010F8011F594073461AF8D7
:1011E00001201CF801E053408542DBB2F3D143EA11
:1011F0000E231BB2C3F30721D4F860A12374752218
:10120000E173C4F85C2149464FF4A872684608F0BF
:10121000CDFD97E80E005046FFF7D2FED8F800301B
:10122000C4F854315A1C2121002384F850114FF086
:10123000080E012084F851310321C8F800202372E0
:101240006022C4F85C3184F85831E364E37263735C
:101250000B23C4F804E060722273A373DFF8B8A113
:10126000DFF8ACC1A17230464FF0800E8122FF231F
:1012700007E010F8011F594073461AF801201CF8C6
:1012800001E053408542DBB2F3D143EA0E231BB2A7
:10129000C3F30721D4F860A123741B22E173C4F8BF
:1012A0005C2149464FF4A872684608F07FFD97E834
:1012B0000E005046FFF784FED8F80030C4F85431D1
:1012C0005A1C2120002384F8500108214FF0010E00
:1012D0000320C8F80020702284F851312372C4F82A
:1012E0005C3184F85831E364E372637384F809E095
:1012F000A0722273DFF820A1DFF814C16160A1732E
:1013000030464FF0800E8122FF2307E010F8011FC6
:10131000594073461AF801201CF801E05340A842D6
:10132000DBB2F3D143EA0E231BB2C3F30721D4F897
:1013300060A123741522E173C4F85C2149464FF47F
:10134000A872684608F032FD97E80E005046FFF795
:1013500037FED8F80030C4F854315A1C212100233C
:1013600084F850114FF0010C032184F851314FF0F3
:10137000080AC8F800202372C4F85C3184F8583198
:10138000E364E37263731622802384F809C0A172B8
:1013900023731946DFF880E01D48C4F804A0A27347
:1013A00081234FF0FF0C06E016F8012F5A408C46BF
:1013B0001EF80230815C8CEA0303AE42DBB2F3D14B
:1013C00043EA01231BB2C3F30721D4F8605123740D
:1013D0003122E173C4F85C2149464FF4A872684693
:1013E00008F0E4FC97E80E002846FFF7E9FD00232B
:1013F000212284F85021237284F8513184F8583125
:10140000C4F85C316360E36454B0BDE8F08700BFAA
:101410005CE80100A82200205CE701002DE9F04310
:101420000026ADF2244D1546894640223146044639
:101430000DF111001F46BDF840848DF8106015F0C5
:10144000DDFA31464FF4807216A8159615F0D6FADB
:101450004A488DF86061D0F800E08DF80560694277
:1014600021233D0E3A0C8DF85831C9B23B0A4FEAA0
:10147000282C8DF859618DF8097041260C278DF8BC
:1014800006500EF101058DF807208DF80830056033
:101490008DF811908DF804108DF80B808DF80AC02E
:1014A00001AA03978DF81260CDF85CE10DF11200EE
:1014B000022301E012F8011F00F8011F01330A2B7B
:1014C000F8D1FF202E4F2F4E0DF1110102460DF1E4
:1014D0001B0511F8013B5340A942FA5C82EA000265
:1014E000F05CF6D142EA00231BB2C3F307214FF4AC
:1014F000AE768DF81C300C2332468DF81B105AA89E
:101500000DEB0301D4F88051599308F04FFC5AA910
:101510003246B1A808F04AFC41F2F45741F2F853C0
:1015200055F80780EB58C3EB080303F00F030F2BAC
:101530001FD006FB08540023212084F88001324686
:1015400084F8813184F88831E367C4F88C31B1A91B
:1015500004F1340008F02AFC08F1010303F00F0342
:101560002222012084F88021EB510DF2244DBDE8A8
:10157000F08300200DF2244DBDE8F083A822002066
:101580005CE701005CE801002DE9F04F83B00546FF
:101590000024884617464460047201914022214687
:1015A00009301E4615F02AFA2146EC644FF4807289
:1015B00005F1500015F022FA4FF0FF32C5F8542122
:1015C000E34BE448C5F888710F224FF0210E052740
:1015D000C5F86821502285F850E1DF49C5F86C71E3
:1015E00003FB06F34FF0010E4FF4FA57C5F87001F4
:1015F000A5F87421322005F5D47285F8514185F89B
:101600005841C5F8904185F89441C5F8984185F84E
:101610009C41C5F8AC81C5F8787185F87C012960DA
:10162000C5F86021C5F8802121462822C5F88461CB
:1016300085F864E1C5F8A43105F5D87015F0DEF938
:1016400005F5BC581422274685F8D82108F11C0856
:1016500005F5EE744FF000092760277149464022D6
:10166000601D15F0CBF94FF0210BA76404F14C007D
:1016700049464FF480724FF0FF3A15F0BFF904F578
:10168000AE7404F810BC04F8087C44F80CAC04F800
:101690000F7C4445DED105F5BD54A04641F2A87348
:1016A000083441F29C7141F2A47245F80190601D2A
:1016B000C8F80090494645F8029045F8039040224A
:1016C00084F8049015F09AF94FF480724946C4F8F2
:1016D000489004F14C0015F091F984F84CB148465B
:1016E000C4F850A184F84D9184F8549149462A4693
:1016F0002B464FF4AE7C0CFB005E013010288EF8B8
:1017000028B34FF0210A8EF8291303F5AE73CEF8F3
:10171000341383F8841083F8D411C3F88010C3F80D
:10172000C8104FF0000EE6D18C4B84F84CA141F666
:101730000C1041F6081C4FF47A5103FB06F901FB2B
:1017400006F184F84DE14FF4FA63C4F858E145F826
:101750000C90295041F6101041F6141103FB06F3CA
:101760002B506B5041F6041041F61C117C4B2E504F
:1017700005F801E0C5F8A831019B012B00F01F819D
:10178000022B00F0F980002B00F0BF8041F62C10F6
:1017900041F6301341F6281705F5C95155F800E018
:1017A000EB5855F807C00868DFF8C4A16D4FDAF8A8
:1017B00000B04BEA0303CAF8003040F2133B4FF489
:1017C000517A1223CCF800B0CEF800A083700B68D9
:1017D0004FF0000A83F810A00B682C20D8700B681B
:1017E00041F6241E0E20987115F80E3003F1604367
:1017F00003F564434020187015F80E00D5F8ACC10D
:1018000043119B0003F160434FF0010B03F561436B
:1018100000F01F000BFA00F0186015F80E00D1F868
:1018200000E0BCF1020F00F01F034FEA60100BFA5A
:1018300003F30CBFD446DC4647F820308EF800C0D6
:101840000B680CBF9C20382058700B680CBF082117
:10185000102199724FF4AE7C53464FF0210E0CFBD1
:101860000A510AF1010ABAF1100F81F828E34FF08A
:10187000210081F829334FF00007C1F8343302F515
:10188000AE7282F8843082F8D431C2F88030C2F867
:10189000C830E4D141F2A87341F29C7141F2A472C4
:1018A00084F84C01277184F84D7184F85471C4F8A0
:1018B0005871EF501423A7646F50C8F80070AF50F0
:1018C00085F8D83108F092FF41F6181100EB40007E
:1018D00005F5CA5341F61C124001685042F2DC047F
:1018E000042142F2E400A9541E6042F2E80142F2EF
:1018F000F40242F2F8032F5545F8009028466F5441
:10190000AF50EF5003B0BDE8F08F41F6241305F55A
:10191000C95141F6251E4FF02D0A1348086005F8FD
:1019200003A041F628134FF02E0A05F80EA00F4F22
:10193000DFF840C045F803C041F62C1E41F6301ACE
:101940004FF4806345F80E70BE4645F80A302BE729
:10195000B0710B00688909008CE20100A0860100CB
:1019600058E2010080E200E000A0064044A00440EC
:101970003480044040A0044041F6241E05F5C951BE
:1019800041F625174FF0310C1E48086041F6281328
:1019900005F80EC04FF0320C05F807C041F6301EB6
:1019A000194FDFF870C045F803C041F62C1A4FF408
:1019B000805345F80A7045F80E30BE46F4E641F60D
:1019C000241305F5C95141F6251E4FF02F0A0F4883
:1019D000086005F803A041F628134FF0300A05F817
:1019E0000EA00B4FDFF830C045F803C041F62C1EA7
:1019F00041F6301A4FF4006345F80E70BE4645F8C4
:101A00000A30D1E600C006400CC0044000B00640D9
:101A100010B0044008C004400CB004402DE9F04F61
:101A20000C2089B008F0CCFE0C2008F0A5FBBA4BC6
:101A3000BA4ABB4FDA60002292461A829346914618
:101A4000144690463E4642F2FC0303FB09733222E1
:101A500083F87C21D6F88001C6F890410368B14A2A
:101A6000DB68934240F0AD81416800F5BB53022929
:101A70009A690CBF0021012111709A6908BF9C214D
:101A800003F1180318BF382151701B680CBF0822DE
:101A900010229A72D6F88031A34D03F5BA521C3247
:101AA00003F5BB5112684FF4FA6000FB02F005FB2E
:101AB00002F20A60C8604FF00102336886F89C2188
:101AC000DB689A4A934240F08B81D6F88001984AAD
:101AD00003681B69934240F0868108F087FE00EBA3
:101AE0004000400142F2FC0303FB0973C3F8A0016C
:101AF0004FF0010386F89C31336830469B68984765
:101B000006F5C9538B4A196910688B4A0143894805
:101B100006F5C9530160996806F5C95340F21330C0
:101B20000C3308601B680BF5C9504FF451711960F4
:101B30003B58122199703B581C743B582C21D9708A
:101B40003B5806F5C9550E2199712B7903F1604375
:101B500003F564434021197029794B119B0003F16F
:101B6000604303F561434FF0010E01F01F010EFACF
:101B700001F119602B79591189000A4403F01F0300
:101B80000EFA03F31360D6F8A8316649DB6806F550
:101B9000D4758B422A4640F01C81D6F8AC113B58D4
:101BA00002290CBF0021714619703B580CBF9C21C3
:101BB000382159703B580CBF08211021997200231D
:101BC0004FF4AE7E21200EFB03210133102B81F850
:101BD000800181F88141C1F88C4185F8384085F851
:101BE00088416C63EC674FF0210105F5AE75EAD1D1
:101BF00002F5B05306F5BD5E83F84C1106F5BF50F3
:101C000083F84D8106F5C755C3F8588106F5BC53D6
:101C10008EF80C8085F81C80CEF80880C0F8108003
:101C2000C3F81C8042F2FC0303FB09731420CEF8B6
:101C30000080CEF8048083F8D801D6F8A8313C495A
:101C40001B698B4240F0C18008F0D0FD00EB4000E2
:101C5000450142F2FC0303FB097303F5C852374800
:101C600095614FF0040E4FF0010382F81CE0002153
:101C700010F8290086F8943108F0B2FD304B0121AC
:101C800013F8290008F0ACFDDFF88CC0E646BEE88A
:101C90000F0002AD0FC59CF800209EE80300531E04
:101CA000DBB2F62B85E803000CD88DF808200DF187
:101CB000080EBEE80F0006F5B2750FC59EE80300DA
:101CC00085E8030006F503531C77D6F880315D687C
:101CD00005EB85056D00284608F064FB652833D0C8
:101CE000184B1148534403F588424FF4FA611064CD
:101CF000516409F101090BF5035B06F50356B9F1CF
:101D0000020F0BF13C0B06F13C060AF5137A7FF447
:101D10009AAE09B0BDE8F08F408CFF1FE0E60B00E3
:101D2000AC98FF1FB9040000A08601006106000006
:101D3000410500003480044080E200E05C8CFF1F1D
:101D4000348CFF1FD0DAFF1F681C08F02BFB0090BB
:101D5000A81C08F027FB009B03EB0023E81C009362
:101D600008F020FB009B03EB0043281D009308F0C4
:101D700019FB1E4B03EB0A02009B019202F58841FE
:101D800003EB00630B64681D08F00CFB0090A81DBA
:101D900008F008FB009B03EB0023E81D009308F00C
:101DA00001FB009B03EB004305F10800009308F0E2
:101DB000F9FA019A009B02F5884203EB0060506437
:101DC00097E74FF49641984764E6104698470546D2
:101DD0003FE700954FF4964128469847009AEEE673
:101DE0003046984788E698477CE600BFD0DAFF1F68
:101DF000AF4BB0492DE9F041D3F8804123685A69CF
:101E00008A4214D19B6AAC4A934240F0938041F2DB
:101E10007873E3581879C0F34010002854D141F288
:101E20007873E358DA78110605D4BDE8F0812046CE
:101E3000BDE8F04110471A791206F6D541F2FC527E
:101E40004FF4AE75A2589D4805FB024595F8382021
:101E5000511C85F8381021680E6A2A44864292F88F
:101E6000391040F00A81D971E38A0133E38295F891
:101E700038206B6B9B1A002BD7DC95F83930002B80
:101E800000F0E68023688E4A1B69934240F005818A
:101E900008F0ACFC00EB4000400141F2707141F2EF
:101EA000747301226050E2542368864ADB699342CE
:101EB00040F0ED8041F278732C22E358DA7017235A
:101EC00084F83030BDE8F08126687F4A736A41F2B9
:101ED000FC519342655840F0D38041F27873E35847
:101EE000D879C0B24FF4AE7303FB0543DA6F99188B
:101EF000013281F88000DA67218B01312183D3F828
:101F00008C118A421BDA93F98130002B15DB33697F
:101F10006B4A934240F0B88008F068FC00EB400048
:101F2000400141F2707141F2747302226050E25438
:101F3000BDE8F081204698476FE7042AE7DD336962
:101F40005F4A934240F0A68008F050FC00EB40004E
:101F5000400141F2747241F2707604214FF4AE7385
:101F6000A05103FB0543A15493F8391093F8802046
:101F7000914208D0628C0132628493F8812142F050
:101F8000200283F881214FF4AE7101FB05F1631843
:101F9000DF6F012F2ADD1946B7F1020C01F1800134
:101FA00068D0FF20DFF82481DFF824E1024601EB4E
:101FB0000C0611F8013B5340B14218F8032082EAA5
:101FC00000021EF80300F4D142EA002212B24FF4DC
:101FD000AE7303FB05439C441F449CF8801097F8A4
:101FE0007F3043EA01231BB293420CD0A28C4FF402
:101FF000AE73013203FB0543A28493F8812142F0C2
:10200000400283F881214FF4AE7303FB05F3E2181D
:1020100092F8811199B9A18A0131A18292F98120A6
:10202000002A0CDAA28B23440132A28393F8823077
:10203000052B38D0062B02D1238C013323844FF497
:10204000AE7303FB0544242384F88031BDE8F0819E
:1020500023681B4A1B69934222D108F0C7FB00EB9F
:102060004000400141F2707141F2747303226050EC
:10207000E25419E74FF0FF32A9E72046B047F3E6F4
:102080002046984726682DE72046984749E720468E
:10209000984714E7204698475BE720469847FCE6B8
:1020A00020469847DEE7E38B0133E383C7E700BFB1
:1020B000AC98FF1F39090000A9040000910400003A
:1020C00041050000850400009D0400005CE701005C
:1020D0005CE80100AF4AB04942F27C232DE9F041AF
:1020E000D45823685A698A4214D19B6AAB4A9342F6
:1020F00040F0938041F27873E3581879C0F34010B0
:10210000002854D141F27873E358DA78110605D4E7
:10211000BDE8F0812046BDE8F04110471A7912066B
:10212000F6D541F2FC524FF4AE75A2589C4805FB1F
:10213000024595F83820511C85F8381021680E6A40
:102140002A44864292F8391040F00A81D971E38A14
:102150000133E38295F838206B6B9B1A002BD7DC98
:1021600095F83930002B00F0E68023688D4A1B6912
:10217000934240F0058108F039FB00EB400040013C
:1021800041F2707141F2747301226050E25423688D
:10219000854ADB69934240F0ED8041F278732C224E
:1021A000E358DA70172384F83030BDE8F0812668F0
:1021B0007E4A736A41F2FC519342655840F0D380E5
:1021C00041F27873E358D879C0B24FF4AE7303FB91
:1021D0000543DA6F9918013281F88000DA67218BA4
:1021E00001312183D3F88C118A421BDA93F98130B3
:1021F000002B15DB33696B4A934240F0B88008F03E
:10220000F5FA00EB4000400141F2707141F2747345
:1022100002226050E254BDE8F081204698476FE703
:10222000042AE7DD33695F4A934240F0A68008F054
:10223000DDFA00EB4000400141F2747241F2707629
:1022400004214FF4AE73A05103FB0543A15493F84E
:10225000391093F88020914208D0628C0132628458
:1022600093F8812142F0200283F881214FF4AE716E
:1022700001FB05F16318DF6F012F2ADD1946B7F165
:10228000020C01F1800168D0FF20DFF82481DFF823
:1022900024E1024601EB0C0611F8013B5340B14228
:1022A00018F8032082EA00021EF80300F4D142EA83
:1022B000002212B24FF4AE7303FB05439C441F444B
:1022C0009CF8801097F87F3043EA01231BB29342B9
:1022D0000CD0A28C4FF4AE73013203FB0543A284F1
:1022E00093F8812142F0400283F881214FF4AE73CC
:1022F00003FB05F3E21892F8811199B9A18A013123
:10230000A18292F98120002A0CDAA28B23440132A7
:10231000A28393F88230052B38D0062B02D1238C70
:10232000013323844FF4AE7303FB0544242384F864
:102330008031BDE8F08123681A4A1B69934222D19B
:1023400008F054FA00EB4000400141F2707141F294
:10235000747303226050E25419E74FF0FF32A9E78B
:102360002046B047F3E62046984726682DE72046EA
:10237000984749E72046984714E7204698475BE787
:1023800020469847FCE620469847DEE7E38B01337A
:10239000E383C7E7AC98FF1F39090000A9040000D8
:1023A0009104000041050000850400009D04000028
:1023B0005CE701005CE801002DE9F04F83B007F015
:1023C000ABFF6023DC4ADD48DD4CDE4F0121FFF727
:1023D000DBF86023DC4ADD480221FFF7D5F8DC4A50
:1023E000DC490020002509F00FFE4FF40056DA4BBF
:1023F000236004F1D000C4F8CC5002F0ABFF3246A9
:10240000294604F1D800C4F8D45014F0F7FA42F287
:10241000D80242F2DC0142F2E00042F2E40341F66B
:10242000FF78A65044F80180324629462550CB4813
:10243000E55014F0E3FA44F2E80344F2EC00E6500D
:1024400044F2F00344F8008044F2F400E550C44A3A
:10245000255044F2F80644F2FC0344F20410E5541B
:10246000A551C04B2350A2F5847644F20810336086
:10247000BD4B235044F20C134FF47A70E05244F2F7
:10248000141344F21810E55044F21C13255044F282
:102490002410E55044F22813255044F22C10E55046
:1024A00044F22E13255244F23010E55244F2FA134E
:1024B000255244F2FC10E5523968255244F21013BB
:1024C00001204CF250384FF00009E054C2E9008975
:1024D000002900F09F8144F210220121A34BA4485F
:1024E000A15444F21425236044F2182609F0B4F9EB
:1024F0009249615144F21C229E4B9F480191002752
:1025000014252360A554A75103F00CF99B48DFF86C
:102510007882DFF878B2DFF878A2DFF8789200F5F9
:10252000317503F0FFF8A5F52A7003F0FBF8A5F567
:10253000237003F0F7F8A5F51C7003F0F3F8D8F852
:10254000002044F2B42E561CC8F8006044F2B826AD
:1025500044F80E20A5F511700322A251009203F059
:102560008FF8A5F50E7003F0B9F9A5F50B7003F01F
:10257000D9F8A5F5047003F0D5F8A5F5FA7003F0C5
:10258000D1F8A5F5EC7003F0CDF8A5F5DE7003F0F9
:10259000C9F8A5F5D07002F06DFFA5F5C27003F083
:1025A0001BFAA5F5BC7003F017FAA5F5B67003F099
:1025B00013FAA5F5B07003F00FFA44F2C036A5F592
:1025C000AA7003F009FA44F2B830A7514FF0FF3671
:1025D000265044F2C83044F2BC3E2650A5F59A700D
:1025E00044F80E6002F0D0FEA5F58E7002F0CCFE2D
:1025F000A5F5827002F03EFFA5F1E80002F03AFF77
:10260000A5F1CC0003F03CF844F24C4E019944F89B
:102610000E1044F2644044F25041275044F25440BA
:1026200044F801B044F2584144F800A044F25C4040
:10263000534B44F8019044F260412350514860509C
:1026400044F2684113206050A5F1940003F06AF849
:10265000A5F1780003F066F8A5F15C0003F062F8DC
:10266000A5F1400003F05EF8A5F1240003F05AF84C
:10267000D8F80010009A4B1C2846C8F8003044F2E5
:10268000045340F8081BE25002F0FAFF05F1140071
:1026900003F024F905F1200003F044F805F13C00B3
:1026A00003F040F805F1580003F03CF805F1740020
:1026B00003F038F805F1900003F034F805F1AC00B0
:1026C00002F0D8FE05F1C80003F086F905F1D40048
:1026D00003F082F905F1E00003F07EF905F1EC006A
:1026E00003F07AF905F1F80003F076F944F204609A
:1026F00044F2086144F20C6244F21463265005F57A
:102700008C706650A750E65002F03EFE05F59870BA
:1027100002F03AFE05F5A47002F0ACFE05F5B270C9
:1027200002F0A8FE05F5C07002F0AAFF44F29C6317
:1027300044F2A06630E000BFB8E30100AC98FF1F90
:10274000D0DAFF1FA0210020C0E30100A8B9FF1FBD
:10275000308CFF1F3D05000014E20100B8FBFF1F95
:10276000D81C0020C8E30100DCE30100A8E201005E
:10277000748CFF1FECE20100F01C00200C1D0020F7
:10278000B4DAFF1FE8E30100A4220020BCDAFF1F37
:10279000C4DAFF1FA4DAFF1F0BF1040B2A4844F828
:1027A00003B044F2B06E44F2A46144F2A8620AF1AC
:1027B000040A44F2041300F1040844F806A0A5F545
:1027C0008A4009F10409214E44F80E7044F8019042
:1027D00044F8028044F2986744F2AC6544F2B46E67
:1027E000DFF878A0DFF878C0DFF87880E650184A84
:1027F000184944F807A000F582434FF0280944F82F
:1028000005C044F80E90C3F8008003B0BDE8F04F57
:1028100009F0FABB1048CBB2082213F0800F02F186
:10282000FF324FEA430318BF83F0D50312F0FF02D3
:10283000DBB2F2D10131B1F5807F00F8013FEAD17E
:1028400001233B6047E600BFB4DAFF1FF8E3010055
:10285000308CFF1F8D490000A3210020A8B9FF1F65
:10286000F0E3010010E401002DE9F04FE5B0022390
:10287000DFF810B15593002442F2FC0606FB04F683
:102880000BEB06053E4A05F5035352F82420DA62A5
:1028900007F0ACFF05F5C8571C3705F5035300EBEF
:1028A00040003A7806F5D47640010BEB060A186230
:1028B000002A40F0DA8105F5BC561C3605F5BD57F7
:1028C00032683968914240D04FF4AE7303FB01F394
:1028D00005EB030E9EF82803242836D1521A12F075
:1028E0000F0200F0AD8142F2FC0202FB04B20131A2
:1028F00002F5035C01F00F0105F5EE7839604FF049
:1029000001094FF0250108EB03008EF828138CF81D
:102910002890C2F88C019EF82993DFF868C009F06E
:10292000FF01B9F1000F00F0DB8102F50350D2F88E
:102930009031816B92F87CE101310133BEF1360FA9
:102940008163C2F8903100F0E58595F89431002B51
:1029500000F0A48042F2FC0303FB04B898F87C3139
:10296000362B00F00A8398F87C31323B032B00F2BF
:102970009580DFE813F0EA045204AA04090000BFBE
:10298000C4DAFF1FAC98FF1F42F2FC0303FB04F301
:10299000C3495BF8032012688A425B4441F0EE842D
:1029A00003F50353002293F8280083F82820002819
:1029B00074D042F2FC0303FB04B3D3F88C6196F8A5
:1029C0004D20412A01F0E98442F2FC0303FB04B3E9
:1029D00000223221D3F88001C3F8902183F87C11C2
:1029E0000368B04ADB68934241F0B485416800F562
:1029F000BB5302299A690CBF0021012111709A6909
:102A000008BF9C2103F1180318BF382151701B68BF
:102A10000CBF082210229A7242F2FC0202FB04F25E
:102A20000BEB0201A048D1F8803103F5BA5E0EF13C
:102A30001C0E03F5BB56DEF800E04FF4FA6700FB0E
:102A40000EF007FB0EF73060F7605BF80230974A34
:102A5000012081F89C01DB68934241F07785D1F831
:102A60008001934A03681B69934241F0F18507F0A6
:102A7000BDFE00EB4000400142F2FC0303FB04B347
:102A80000122C3F8A00183F89C2142F2FC0303FB5E
:102A900004F328465BF803309B68984742F2FC0336
:102AA00003FB04B303F5C8551C352A78002A40F00F
:102AB0006F8142F2FC0202FB04F10BEB010303F510
:102AC000BD5203F5C85350684FF4AE7202FB0012BA
:102AD0005A440021197792F82833242B00F04282BF
:102AE00092F82833252B00F03D8242F2FC0202FBD3
:102AF00004F20BEB020505F5BC531C336D491B6852
:102B000083420DD04FF4AE7303FB0020084490F8CD
:102B10002833232B04D090F82833222B00F0B884DC
:102B200042F2FC0303FB04B3152283F8D82142F2DE
:102B3000FC0303FB04B3604E93F87C315F4FDFF876
:102B40007881362B1CBF002346F824305C4B13F8E9
:102B5000240007F045FB11F0EBFC5A4911F03CFD55
:102B600011F016FF584B054643F8245057F824003F
:102B700011F0DEFC554911F02FFD8146284611F079
:102B8000D7FC534911F028FD0146484611F01CFCC2
:102B900011F0FEFE56F8243047F82400012B0546BC
:102BA00000F05481022B00F02981002B00F00681F7
:102BB000484F42F2FC0303FB04B303F5DF510B461D
:102BC000103312314FF4137202FB04721B88098810
:102BD00002F58842403243EA01414FF4616303FB4E
:102BE00001F3126893FBF2F340F6AD619D338B4223
:102BF00033DD394B43F82410384B13F8240007F029
:102C0000E1FC559B013B04F1010455937FF434AE84
:102C1000304C204604F010F944F21023BA46FB5C15
:102C200003F0FF02002B00F01A82012A05D144F2C2
:102C30000E13E25C022A00F00D8565B0BDE8F08F4E
:102C400042F2FC0303FB04B442F2E8030121E15425
:102C5000C4F88C2192F84D31FFDE9C2B01F38E8657
:102C60001D4B9D2143F82410C6E705F5C8521832C4
:102C70000AF5AF531268D3F81C805B9207F0B6FDDB
:102C800000EB400040015C903B78013B032B3FF69A
:102C900012AEDFE813F01A025F029D025B0200BF72
:102CA00005050000B9040000A086010061060000CF
:102CB00041050000AC98FF1FB4DAFF1FBCDAFF1F0C
:102CC0005C8CFF1F28AFC140ACDAFF1FEC51783F8E
:102CD0008FC2F53CD0DAFF1FA4DAFF1F348CFF1F30
:102CE00002F50359C2F89011D9F834100131C9F82E
:102CF00034109EF82912032900F0078164297FF41B
:102D000024AE90F84EE090F84F1002F5DF5341EA00
:102D10000E21598290F850E090F8511002F5DF53DF
:102D200041EA0E21198290F852E090F8531002F512
:102D3000DF5341EA0E21D98390F854E090F8551002
:102D400002F5DF5341EA0E21998390F8573090F84D
:102D5000561002F5E05E43EA0121AEF8001002F5DC
:102D6000DF5390F85810998090F859E090F85A1075
:102D700002F5DF5341EA0E21198102F5E55290F880
:102D80005B1090F85C30043243EA01231380DCE5E9
:102D900003F5C85318331B685D9307F027FD00EB5C
:102DA000400040015E902B78013B032B3FF6BFAE05
:102DB000DFE813F0A800A800A8001E0442F2FC02FD
:102DC00002FB04B202F5035140F6D860D54F0B77F1
:102DD000854247F824307FF7EBAE02F5E553043324
:102DE0001B88002B00F01384CF4F42F2FC0303FB3F
:102DF00004B303F5035300221A77DAE6CA4FC94930
:102E00004FF4137202FB047202F58842A0F53B50A6
:102E1000536CC64A203803FB00F382FB0302DB1726
:102E2000C3EB622340F6D762954241F824303FF766
:102E3000C0AE42F2FC0303FB04B303F503530022CC
:102E400048F8242041F824201A77B2E6B64FB74A52
:102E50004FF4137303FB047303F588434433A0F565
:102E60003B501B68203803FB00F382FB0320DB1779
:102E7000C3EB602011F05CFBAD4BAE4A19685A9170
:102E800052F824A057905A98AB4ACAEB0000D2F8E7
:102E9000009011F049FB5690484611F045FB569AB8
:102EA0000146104611F04CFC579B194611F094FB5B
:102EB00011F06EFD9E4B9B4A1B685993599B42F83B
:102EC0002400CAEB030AD14509D242F2FC0303FBFA
:102ED00004B3022203F5035348F824201A7740F67E
:102EE000D7639D423FF765AE42F2FC0303FB04B398
:102EF00003F5035300221A778A4B46F8242043F83F
:102F0000242056E65E9B5D9B11E6827A90F809E0EC
:102F1000C179007A02EB0E2E1FFA8EFE00EB012221
:102F200092B2BEF1000F3FF410AD41F27E0101FB01
:102F300004F1964402F6A2420A440EF6A14E0CEBAE
:102F400042008E44434403F14E0102380CEB4E0C18
:102F50004A7811F8023F03EB022320F8023F604554
:102F6000F6D1F2E442F2FC0303FB04B303F5BD53D4
:102F7000013000F00F005860B7E533683A689B1ADB
:102F800003F00F03012B3FF789AD08F503561C36FC
:102F90003378022B01F08981042B01F07181002B21
:102FA0007FF47CAD654A88F80830116888F80B30EA
:102FB00088F80C3088F80D3088F80E3088F80F301B
:102FC0008DF881318DF882318DF883318DF884311F
:102FD0004B1C98F86401C8F854111360092164224D
:102FE000FF23574E88F80900C8F8041088F80A2013
:102FF00008F10900194608F1100810F8012B4A40A1
:103000005049895C404581EA0301B35CF5D141EA4E
:10301000032342F2FC061BB206FB04B6C3F30721EE
:1030200013274FF4A8723174737405F110016846C8
:10303000C6F85C7106F0BAFE2B1D0ECB5046FDF7AC
:10304000BFFF0023212285F850212B7285F85131D2
:1030500085F85831C5F85C316B60EB641EE544F2CD
:103060000E13E35C012B00F0FA8244F22413559A0C
:10307000E25042F2E00342F2E4025AF803305AF816
:103080000220934210D0304D2C1D05F108062A680D
:103090001A405244013392F8D800236008F030FB04
:1030A000236832689342F2D144F2FC031E4A1AF8B4
:1030B000031000293FF4C1AD44F210200124002187
:1030C0001454D15465B0BDE8F08F42F2FC0606FB03
:1030D00004B606F5C85208325C9B5B9912685B1A0D
:1030E00093427FF6E8AB07F081FB06F5C85100EB91
:1030F00040000B4640018861B6F8CE2104211977C3
:103100004FF4AE7303FB08A80132A6F8CE2198F85D
:103110008131242243F0100388F8813188F880211E
:10312000FFF7C9BBC4DAFF1FD0DAFF1FD34D62100F
:10313000B422002088210020588CFF1FA8220020E4
:103140005CE801005CE70100ACFBFF1F5C9B5B9B44
:10315000FFF7B1BB42F2FC0606FB04B606F5C85207
:103160000C325C9B5B9912685B1A93427FF6A3ABAF
:1031700007F03CFB06F5C85300EB400041019961A4
:103180001A464FF4AE73042103FB08A31177D3F85A
:103190008C21013201F05881B6F8D0210132A6F815
:1031A000D02193F8812142F0080283F88121B6F8FA
:1031B000D23118220133A6F8D23186F8D8214FF443
:1031C000AE7303FB08A8242388F88031FFF773BB94
:1031D00042F2FC0303FB04B303F5C85110315C9ABF
:1031E0005B980968121A8A427FF665ABD3F8A8315A
:1031F000C14A1B69934241F0AC8007F0F7FA00EB3B
:103200004000400142F2FC0303FB04B303F5C85243
:10321000042190611177FFF74EBB42F2FC0303FBE0
:1032200004F3B6495BF8032012688A425B4441F01C
:10323000AD8003F50353002293F8280083F828207B
:1032400000283FF42BAC42F2FC0303FB04B3D3F899
:103250008C7197F94D30002BFFF6B6AB3B68002B15
:1032600014DD97F84C107A7991427FF4ADAB0433BA
:10327000FE1807F14C027B1D06E013F8010F12F84F
:10328000011F88427FF4A0AB9E42F6D197F84D21F2
:10329000002A7FF499AB42F2FC0606FB04F60BEB26
:1032A0000607D7F89811D7F8680101318142C7F8AD
:1032B0009811C0F297875BF806202846526890471D
:1032C000342287F87C21FFF7E9BB42F2FC0303FBC1
:1032D00004F38A495BF8032012688A425B4441F098
:1032E000518003F50353002293F8280083F8282027
:1032F00050B142F2FC0303FB04B3D3F88C2192F8E3
:103300004D21002A7FF464AB42F2FC0606FB04B6B2
:10331000D6F8803103F5AF521346183314321B68C8
:103320001268D31A1B077FF4B9ABB6F87421D6F82C
:10333000703196F86411009228460122FEF76EF86B
:10334000352386F87C31FFF7A9BB42F2FC0303FB6F
:1033500004F30BEB0306D6F8800100F5AF521146DB
:103360001831143209681268521A12077FF496ABAA
:103370005BF80330624A1B69934241F0948196F8EE
:103380009C31002B3FF48AAB03685B4A1B69934274
:1033900041F0E78207F02AFA00EB4000400142F2D8
:1033A000FC0303FB04B3D3F8A021D3F8A431801AA3
:1033B0009842FFF473AB42F2FC0202FB04F20BEB07
:1033C000020300215BF8022083F89C114B4812682D
:1033D000824241F0648103F5035393F8282083F877
:1033E00028104849484E0A6842F2FC0303FB04B324
:1033F000501C0860C3F8542193F8640158720022ED
:1034000008210625FF279972C3F898211A72DA72EB
:103410001A735D6003F109013A460D3311F8010B8F
:1034200050403A4A125C994282EA0702375CF5D171
:1034300042F2FC0505FB04B542EA07231BB24FF03C
:10344000060ED5F86071AB73C3F307232E1D05F18B
:1034500010014FF4A8726B73C5F85CE1684606F082
:10346000A5FC96E80E003846FDF7AAFD00232121B1
:10347000332286F84C11337186F84D3186F8543179
:10348000C6F858316B60B36485F87C21FFF706BB42
:10349000232380F828331622D5F8A83185F8D821BF
:1034A0001B69154A934240F0658707F09FF900EBCE
:1034B0004000400142F2FC0303FB04B303F5C85192
:1034C0000A468861D3F8A831012111779B69104A17
:1034D000934240F04B870AF5BB531833EC221B682C
:1034E000DA7042F2FC0303FB04B3B3F8BA210132F1
:1034F000A3F8BA21FFF71BBB41050000050500003A
:103500009D060000A82200205CE801005CE70100A5
:1035100079040000D2F86C118B42FFF616AA002342
:10352000D2F88001C2F89031322182F87C11036810
:10353000BE4ADB68934240F01487416800F5BB53F4
:1035400002299A690CBF0021012111709A6908BFF4
:103550009C2103F1180318BF382151701B680CBF60
:10356000082210229A7242F2FC0202FB04F20BEBD8
:10357000020CAF49DCF8803103F5BA5808F11C0899
:1035800003F5BB50D8F800804FF4FA6E01FB08F148
:103590000EFB08FE0160C0F80CE05BF80230A54AA3
:1035A00001218CF89C11DB68934240F0D686DCF850
:1035B0008001A14A03681B69934240F0EB8607F043
:1035C00015F900EB4000400142F2FC0303FB04B399
:1035D0000122C3F8A00183F89C2142F2FC0303FB03
:1035E00004F328465BF803309B689847FFF7ADB9B2
:1035F00042F2FC0303FB04B303F5C8535E9A5D98E3
:103600005969131A8B427FF692AAFFF752BA92F8C1
:103610007C31362B7FF4E8AB884B1B6803F5824383
:103620000E331B78012B01F05D81854F854B864A57
:103630001B68589342F2FC0303FB04B3589942F809
:10364000241003F5035302210122197746F82420A0
:10365000FFF7AFBA9DF85421E254FFF7EEBA44F2F7
:103660002412A158002950D144F22815559E6651C4
:103670002046A350022103F021F92046722135464D
:1036800003F01CF93424714E09E00135ADB2214636
:103690006B4803F013F9745D002C00F0AE80022C2F
:1036A00001D0102CF1D11021654803F007F9ECE7A7
:1036B000634D1921284603F001F92846032103F040
:1036C000FDF82846022103F0F9F844F214235AF8D1
:1036D0000330D3F880315B6803EB83035C00204642
:1036E00006F060FE652800F0438744F2404244F251
:1036F00044434F49A9504FF4FA62EA5044F20E1382
:103700001AF80330012B7FF4B4AC4E494C4D0B68D2
:10371000609344F2182244F21C20609B5AF8024045
:103720001AF800001B1B83427FF6A3AC0B685F9363
:103730005F9B4748AB5006F0DFF944F250434548E1
:10374000EB58196802F09EF844F258434248EB588F
:10375000196802F097F8414801F0F4FD002841F0A3
:10376000388044F2544344F25C455AF803303C48F4
:103770001968334C02F086F85AF805303948196850
:1037800002F080F8384801F061FE002840F07587AB
:1037900036482B4D06F0B0F944F29C6334485AF891
:1037A0000330196802F06EF844F2A46331485AF805
:1037B0000330196802F066F82F4801F0C3FD0028B5
:1037C00040F0808744F2A06344F2A8655AF80330C1
:1037D0002A4819681A4C02F055F85AF8053028485A
:1037E000196802F04FF8274801F030FE002840F039
:1037F0003287134803F04AFD3BE419211048224E5A
:1038000003F05CF803210E4803F058F802210C483D
:1038100003F054F802210A4803F050F872210848D6
:10382000254603F04BF8202438E000BFB90400001F
:10383000A086010061060000410500003C8CFF1FCE
:10384000D0DAFF1FB42200208821002018E40100F4
:103850007C1D00200C1D0020281D00209C1E002027
:10386000441D0020601D0020B41E0020C81F002041
:10387000581F0020741F0020E8200020901F002007
:10388000AC1F0020002100206CE401000135ADB226
:1038900021461E4803F012F8745D44B1022C01D099
:1038A000102CF3D11021194803F008F8EEE7192184
:1038B0001648174F03F002F80321144802F0FEFFE8
:1038C0000221124802F0FAFF412223210F4803F09F
:1038D00089FC02210D4802F0F1FF72210B482646B7
:1038E00002F0ECFF452408E0084D0136B6B221464F
:1038F000284602F0E3FFBC5D64B1022C01D0102C1D
:10390000F2D11021014802F0D9FFEDE7D0DAFF1F14
:10391000ACE401002846192102F0D0FF284603211B
:1039200044F2684902F0CAFF2846022102F0C6FFAD
:1039300044F2644844F2604244F24C4135F80900D4
:1039400035F80830AA5869580090142002900A20CF
:103950000190B34806F0AEF855F80820B14935F8A3
:103960000930B148049101260F2742F2040B1032AE
:1039700092B203968DE8C000AC490294CDF814B021
:1039800001F066FF55F80820A94935F80930A94823
:10399000039612328DE8C00092B20491CDF814B0B3
:1039A000A549029401F054FF55F80820A04935F8C4
:1039B0000930A2480491143203968DE8C00092B2F7
:1039C0009F49CDF814B0029401F042FF55F8082049
:1039D000974935F809309B480491163203968DE8D3
:1039E000C00092B29849CDF814B0029401F030FFB3
:1039F00044F2404155F8082035F8093006966958D8
:103A000004911A32914905968DE8C00092B2039153
:103A10008F489049029401F0E7FD44F2444155F883
:103A2000082035F809300696695804911C324FF683
:103A3000FF7105968DE8C00092B2039186488749D0
:103A4000029401F0D1FD55F8083035F809200092B4
:103A5000052202921E3302229BB2019280498148C4
:103A60004FF0FF3201F0DEFC55F8092055F8083020
:103A70007D48063292B2052100921E330222029145
:103A80009BB201927949224601F0CCFC44F2B06825
:103A900044F2B46944F2AC6244F29861142035F8FF
:103AA00009E035F80830AA58695802900A20CDF884
:103AB00000E001906E4805F0FDFF55F808205949D7
:103AC00035F809306B480491103203968DE8C00038
:103AD00092B25649CDF814B0029401F0B9FE55F8EF
:103AE0000820534935F8093063480491123203968F
:103AF0008DE8C00092B25049CDF814B0029401F0A4
:103B0000A7FE55F808204A4935F809305B4804916A
:103B1000143203968DE8C00092B24949CDF814B032
:103B2000029401F095FE55F80820414935F8093016
:103B300053480491163203968DE8C00092B2424970
:103B4000CDF814B0029401F083FE55F8082035F842
:103B50000930069644F28C613C48695804911A3247
:103B6000059603908DE8C00092B23A494548029408
:103B700001F03AFD55F8082035F80930069644F270
:103B800090614FF6FF70695804911C3205960390BE
:103B90008DE8C00092B231493B48029401F024FD07
:103BA00055F8083035F809200092052102911E339E
:103BB000022101919BB24FF0FF322949334801F0B5
:103BC00031FC55F8092055F808303148063292B2D8
:103BD000052100921E3302229BB2029101922349D9
:103BE000224601F01FFC0A2006F0DCFB0A220146F7
:103BF00060A807F0ABFE274B609E60A8002E08BFB0
:103C00001E4607F045FE2846022102F057FE2846D0
:103C1000722102F053FE3578002D45D14DE000BFF2
:103C20007C1D0020E0E401000C1D0020D0E4010018
:103C3000E0E60100281D0020E8E40100441D00200A
:103C4000F8E40100601D002008E501003057050080
:103C5000E81E002018E50100CC1E002028E5010028
:103C600038E501009C1E0020B41E002044E5010040
:103C7000C81F0020581F0020741F0020901F002024
:103C8000AC1F00203421002018210020E820002053
:103C9000002100208AEB01000134A4B22946A94882
:103CA00002F00CFE355D45B1022D01D0102DF3D18F
:103CB0001021A44802F002FEEEE71921A14802F00B
:103CC000FDFD03219F4802F0F9FD02219D4802F00D
:103CD000F5FD02219B4802F0F1FD7221994802F0A6
:103CE000EDFD0D21974802F0E9FD1921954802F0FC
:103CF000E5FD0321934802F0E1FD0221914802F025
:103D0000DDFD0B2006F04EFB0A22014660A807F0FD
:103D10001DFE8D4B609D60A8002D08BF1D4607F05D
:103D2000B7FD0221874802F0C9FD7221854802F0E3
:103D3000C5FD2C78002644B910E00136B6B2214604
:103D4000804802F0BBFDAC5D44B1022C01D0102CC8
:103D5000F3D110217B4802F0B1FDEEE7192179483B
:103D600002F0ACFD0321774802F0A8FD022175485E
:103D700002F0A4FD0221734802F0A0FD72217148F7
:103D800002F09CFD0D216F4802F098FD19216D484D
:103D900002F094FD03216B4802F090FD0221694876
:103DA00002F08CFD0C2006F0FDFA0A22014660A804
:103DB00007F0CCFD644B609D60A8002D08BF1D4638
:103DC00007F066FD02215F4802F078FD72215D4830
:103DD00002F074FD2C78002644B910E00136B6B22A
:103DE0002146584802F06AFDAC5D44B1022C01D076
:103DF000102CF3D11021534802F060FDEEE7192199
:103E0000504802F05BFD03214E4802F057FD0221AD
:103E10004C4802F053FD02214A4802F04FFD722146
:103E2000484802F04BFD0D21464802F047FD19219C
:103E3000444802F043FD0321424802F03FFD0221C5
:103E4000404802F03BFD0D2006F0ACFA0A22014684
:103E500060A807F07BFD3C4B609D60A8002D08BF6B
:103E60001D4607F015FD0221364802F027FD72219C
:103E7000344802F023FD2C78002644B910E00136C6
:103E8000B6B221462F4802F019FDAC5D44B1022CB8
:103E900001D0102CF3D110212A4802F00FFDEEE7DB
:103EA0001921284802F00AFD0321264802F006FDE8
:103EB0000221244802F002FD0221224802F0FEFC09
:103EC0007221204802F0FAFC0D211E4802F0F6FC97
:103ED00019211C4802F0F2FC03211A4802F0EEFC02
:103EE0000221184802F0EAFC0E2006F05BFA0A22D2
:103EF000014660A807F02AFD134B609D60A8002DC5
:103F000008BF1D4607F0C4FC02210E4802F0D6FC93
:103F100072210C4802F0D2FC2C78002644B915E03E
:103F20000136B6B22146074802F0C8FCAC5D6CB160
:103F3000022C01D0102CF3D11021024802F0BEFC5B
:103F4000EEE700BFD0DAFF1F8AEB01001921A3487A
:103F500002F0B4FC0321A14802F0B0FC02219F480A
:103F600002F0ACFC02219D4802F0A8FC72219B48A3
:103F700002F0A4FC0D21994802F0A0FC19219748F9
:103F800002F09CFC0321954802F098FC0221934822
:103F900002F094FC0F2006F005FA0A22014660A800
:103FA00007F0D4FC8E4B609D60A8002D08BF1D4615
:103FB00007F06EFC0221894802F080FC72218748DC
:103FC00002F07CFC2C78002644B910E00136B6B231
:103FD0002146824802F072FCAC5D44B1022C01D053
:103FE000102CF3D110217D4802F068FCEEE7192176
:103FF0007A4802F063FC0321784802F05FFC02215A
:10400000764802F05BFC0221744802F057FC7221F2
:10401000724802F053FC0D21704802F04FFC192148
:104020006E4802F04BFC03216C4802F047FC022171
:104030006A4802F043FC102006F0B4F90A22014657
:1040400060A807F083FC664B609D60A8002D08BF48
:104050001D4607F01DFC0221604802F02FFC722172
:104060005E4802F02BFC2C78002644B910E00136A3
:10407000B6B22146594802F021FCAC5D44B1022C95
:1040800001D0102CF3D11021544802F017FCEEE7B8
:104090001921524802F012FC0321504802F00EFC94
:1040A00002214E4802F00AFC02214C4802F006FCB4
:1040B00072214A4802F002FC0D21484802F0FEFB42
:1040C0001921464802F0FAFB0321444802F0F6FBAE
:1040D0000221424802F0F2FB112006F063F90A22A5
:1040E000014660A807F032FC3D4B609D60A8002DA2
:1040F00008BF1D4607F0CCFB0221384802F0DEFB6A
:104100007221364802F0DAFB2C78002644B910E020
:104110000136B6B22146314802F0D0FBAC5D44B165
:10412000022C01D0102CF3D110212C4802F0C6FB38
:10413000EEE71921294802F0C1FB0321274802F0CC
:10414000BDFB0221254802F0B9FB0221234802F001
:10415000B5FB7221214802F0B1FB0D211F4802F08E
:10416000ADFB19211D4802F0A9FB03211B4802F0F9
:10417000A5FB0221194802F0A1FB122006F012F95A
:104180000A22014660A807F0E1FB154B609D60A87C
:10419000002D08BF1D4607F07BFB02210F4802F0EF
:1041A0008DFB72210D4802F089FB2C7800265CB94A
:1041B000FFF77EBA0136B6B22146084802F07EFB10
:1041C000AC5D002C3FF474AA022C01D0102CF1D16C
:1041D0001021024802F072FBECE700BFD0DAFF1FAB
:1041E0008AEB0100DE493A720868FA723A73421C9F
:1041F0000A6097F86451C7F8540108220620FF218D
:10420000D84E7860BA727D720A4607F1090007F14C
:104210000D0310F8015B5540D34A525D984282EA83
:104220000102715DF5D142F2FC0505FB04B542EADD
:1042300001231BB24FF0060ED5F86071AB73C3F3C8
:1042400007232E1D05F110014FF4A8726B73C5F8FA
:104250005CE1684605F0AAFD96E80E003846FCF7DA
:10426000AFFE0023212286F84C21337186F84D31B0
:1042700086F85431C6F858316B60B364FEF70EBC53
:1042800006F0B4FA08F50353203308F5035224323C
:104290001B68126800EB4000C3EB4013934240F2EE
:1042A000968100233370FEF7F9BB06F09FFA08F5FC
:1042B0000353203308F5035224321B68126800EBC5
:1042C0004000C3EB40139342EBD808F503532C3363
:1042D000A34A1B68116898F8646188F80F301816B3
:1042E00088F80C0001F1010E8DF884318DF8810100
:1042F00018141B1288F80D0088F80E300927C8F82A
:10430000541188F809608DF882018DF883310020FE
:10431000C2F800E064211C22FF23924E88F80800B6
:1043200088F80B20C8F8047088F80A1008EB07001A
:104330001A4608F1100810F8011B51408A4A525CD5
:10434000404582EA0302735CF5D142EA0323FEF79B
:1043500060BE50469847FEF755BF28469847FFF77E
:104360003CB94FF496419847FFF7FDB8504698473F
:10437000FFF7B7B850469847FFF79CB828469047D4
:10438000FEF715BB28469047FEF7B2BF2846904778
:10439000FEF756BF9847FFF717B996F84D21002A48
:1043A0007EF412ABD3F8800196F85130026896F88B
:1043B000501096F85350D2686C4F1B0443EA0163C7
:1043C00096F852102B43BA4243EA012140F088820A
:1043D0004368012B02D0022B00F06C814B0803F1E3
:1043E000376303F5D833B3FBF1F100F5BB50C1F3EC
:1043F000443283691A708369C1F347125A70836922
:1044000001F01F01997242F2FC0000FB04B096F823
:104410005470D0F8803196F8552003F5BA511C310C
:1044200003F5BB55096842EA072201FB02F2EA6084
:10443000D0F8782103F5BB5301FB02F13622196055
:1044400080F87C21FEF72ABB93F8391093F880207E
:1044500091420AD0B6F8CA210132A6F8CA2193F8CF
:10446000812142F0200283F881214FF4AE7303FBD7
:1044700008F30AEB0302D06F012827DD871E02F143
:10448000800100F078824FF0FF0E364E724601EB4D
:10449000070C11F8013B5340334AD25C8C458EEA3D
:1044A000020216F803E0F4D142EA0E231BB24FF4E5
:1044B000AE7202FB08A21744104497F8801090F8DF
:1044C0007F2042EA012212B29A4212D042F2FC024A
:1044D00002FB04B24FF4AE73B2F8CC1103FB08A395
:1044E0000131A2F8CC1193F8812142F0400283F807
:1044F00081214FF4AE7202FB08F20AEB020090F841
:104500008131002B7EF45BAE42F2FC0303FB04B36B
:10451000B3F8BC110131A3F8BC1190F98110002946
:10452000BEF64DAEB3F8C4110131A3F8C41190F832
:104530008220052A00F01882062A7EF440AEB3F8E5
:10454000C8210132A3F8C821FEF739BE2846984792
:10455000FEF79BBA4FF496419847FEF75DBA00BF4D
:10456000A82200205CE801005CE70100B90400001B
:10457000601C05F017FF0646A01C05F013FF06EBB4
:104580000026E01C05F00EFF06EB0046201D05F09E
:1045900009FF44F2404306EB0066EE50601D05F053
:1045A00001FF0646A01D05F0FDFE06EB0026E01DFE
:1045B00005F0F8FE06EB004604F1080005F0F2FEF7
:1045C00044F2444306EB0060E850FFF797B808F563
:1045D00003533033D34A1B68116898F864618DF82F
:1045E000843118164F1C88F80F308DF8810188F837
:1045F0000C0018141B1217608DF8820188F80D004A
:104600008DF88331092088F80E30C8F854111E2324
:104610000021642288F80960FF27C34EC8F804000F
:1046200088F8081088F80B3088F80A20394640448A
:1046300008F1100310F8012B4A40BC49895C834201
:1046400081EA0701B75CF5D141EA0723FEF7E1BC37
:104650009847FEF711BAB64800F06EFE44F2386390
:10466000E358002B40F0728144F2986242F2DC037E
:10467000A2580221D154FFF7BCB8AE4800F05CFE4E
:1046800044F2EC33E358002B40F0418144F24C42B9
:1046900042F2DC03A2580221D154FFF779B8284630
:1046A0009047FEF79EBE2846984700287EF483AECA
:1046B000FEF7F4B94B0803F1B76303F55843B3FBB6
:1046C000F1F192E644F298636521EB58D3F880311A
:1046D0005C6804EB84046400204605F07DFE964887
:1046E00000F070FD631CC1B21846559305F074FECE
:1046F000914800F067FD04F1020BC0F30721584612
:1047000005F06AFE8C4800F05DFDE21CC0F3074135
:104710001046569205F060FE874800F053FD04F104
:104720000409010E484605F057FE844800F04AFD92
:1047300004F10508C1B2404605F04EFE7F4800F086
:1047400041FDA71DC0F30721384605F045FE7B4813
:1047500000F038FDE61DC0F30741304605F03CFE91
:10476000764800F02FFD0834010E204605F034FE97
:10477000559B184605F016FE5590584605F012FE5A
:10478000559B569A03EB002B104605F00BFE0BEBE6
:10479000004B484605F006FE44F28C620BEB0063CA
:1047A000AB50404605F0FEFD8046384605F0FAFD68
:1047B00008EB0027304605F0F5FD07EB00462046E4
:1047C00005F0F0FD44F2906306EB0060E850FEF760
:1047D000F9BF44F24C436521EB58D3F880315C6853
:1047E00004EB84046400204605F0F6FD544800F014
:1047F000E9FC631CC1B21846559305F0EDFD504825
:1048000000F0E0FC04F1020BC0F30721584605F06C
:10481000E3FD4B4800F0D6FCE21CC0F30741104614
:10482000569205F0D9FD464800F0CCFC04F104098D
:10483000010E484605F0D0FD424800F0C3FC04F1EB
:104840000508C1B2404605F0C7FD3E4800F0BAFC7D
:10485000A71DC0F30721384605F0BEFD394800F01A
:10486000B1FCE61DC0F30741304605F0B5FD354803
:1048700000F0A8FC0834010E204605F0ADFD559B64
:10488000184605F08FFD5590584605F08BFD559B59
:10489000569A03EB002B104605F084FD0BEB004B02
:1048A000484605F07FFD44F240420BEB0063AB50FD
:1048B000404605F077FD8046384605F073FD08EB6D
:1048C0000027304605F06EFD07EB0046204605F058
:1048D00069FD44F2444306EB0060E850FEF741BF37
:1048E000904790E5184F4FF4137505FB04F57819C0
:1048F00000F58740643000F01FFD7B1903F5874306
:104900006C331B68002B7EF470AAFEF78FBE44F256
:104910004C436259E05842F2DC01002343541360D7
:10492000FEF736BFA82200205CE801005CE701002A
:1049300000210020B41E0020342100201821002076
:10494000E81E0020CC1E0020D0DAFF1F44F298633E
:104950006259E05842F2DC01002343541360FEF731
:1049600048BF9847FEF71BBDB3F8C6210132A3F834
:10497000C621FEF724BC4FF0FF3398E5024A1946E2
:1049800042F82430FEF738B9A4DAFF1F70B500F5FD
:10499000844500F58D4420353834364B0360A542FC
:1049A00006465ED0A4F5137404F5057000F02AFCE9
:1049B00004F5FC7001F0BAF804F5EE7001F0B6F8F9
:1049C00004F5E27001F09AF804F5D67001F096F85B
:1049D00004F5C67000F01AFC04F5C07000F016FC77
:1049E00004F5BA7000F012FC04F5B47000F00EFC8F
:1049F00004F5AE7000F00AFC04F5A07001F096F822
:104A000004F5927001F0AAF804F5847001F0A6F89C
:104A100004F1EC0001F0A2F804F1D00001F09EF8DE
:104A200004F1B40001F09AF804F1A80000F0ECFBE6
:104A300004F19C0000F0E6FB04F1700001F08EF838
:104A400004F1540001F08AF804F1380001F086F80E
:104A500004F11C0001F082F8204601F07FF8A54225
:104A6000A0D13046044B40F8D03B00F075FC3046F6
:104A700070BD00BFECE2010014E2010070B500F56A
:104A8000844500F58D4420353834384B0360A54209
:104A900006465ED0A4F5137404F5057000F0B2FB71
:104AA00004F5FC7001F042F804F5EE7001F03EF8F8
:104AB00004F5E27001F022F804F5D67001F01EF85A
:104AC00004F5C67000F0A2FB04F5C07000F09EFB78
:104AD00004F5BA7000F09AFB04F5B47000F096FB90
:104AE00004F5AE7000F092FB04F5A07001F01EF822
:104AF00004F5927001F032F804F5847001F02EF89C
:104B000004F1EC0001F02AF804F1D00001F026F8DD
:104B100004F1B40001F022F804F1A80000F074FBE5
:104B200004F19C0000F06EFB04F1700001F016F837
:104B300004F1540001F012F804F1380001F00EF80D
:104B400004F11C0001F00AF8204601F007F8A54224
:104B5000A0D13046064B40F8D03B00F0FDFB30467C
:104B600044F2B86106F0A2FF304670BDECE20100ED
:104B700014E201002DE9F04F99B000258846044663
:104B800002AE0846C749009601958DF8085012F00C
:104B90005BFA00BB02210746204601F08FFE72211E
:104BA000204601F08BFEDFF80483742509E001370D
:104BB000BFB22946204601F081FE18F80750002DAB
:104BC0007CD0022D4FF01001204601D08D42EED155
:104BD00001F074FEEBE7B44B8DF8275093E8030027
:104BE0000DF1380902230F0C0890ADF824101A4675
:104BF0008DF83A500D93072540F60D2306A8494637
:104C00000DF1200A8DF826700795ADF83830CDF8F3
:104C10003090CDF818A007F07BFA0DF1500B074645
:104C2000CDF848B057F8083BBB42054600F0A382D8
:104C30001293836814936B68139300232B722F6075
:104C40006B60139A1299684607F062FA96494046DB
:104C500012F0FAF907461298584501D006F024FFE1
:104C60000C98484501D006F01FFF0698504501D02A
:104C700006F01AFF002F40F084810221204601F047
:104C80001DFE7221204601F019FEDFF824820D2559
:104C90000AE00137BFB22946204601F00FFE18F89E
:104CA0000750002D00F0BF81022D4FF0100120466B
:104CB00001D08D42EDD101F001FEEAE71921204635
:104CC00001F0FCFD0321204601F0F8FD0221204601
:104CD00001F0F4FD44F214122368A1581B6A204627
:104CE000984702218046204601F0E8FD72212046C7
:104CF00001F0E4FD98F80070002F4FD119212046F3
:104D000001F0DCFD0321204601F0D8FD0221204600
:104D100001F0D4FD0221204601F0D0FD7221204691
:104D200001F0CCFD0D21204601F0C8FD19212046DF
:104D300001F0C4FD0321204601F0C0FD0221204600
:104D400001F0BCFD0221204601F0B8FD7221204691
:104D500001F0B4FD72250027DFF8588108E0013723
:104D6000BFB22946204601F0A9FD18F80750FDB151
:104D7000022D4FF01001204601D08D42EFD101F0FD
:104D80009DFDECE701F09AFD0135ADB239462046B4
:104D900001F094FD18F80570002FAFD0022F4FF0EE
:104DA00010012046EED08F42EED101F087FDEBE7F7
:104DB0001921204601F082FD0321204601F07EFDED
:104DC0000221204601F07AFD44F218122368A1580E
:104DD0001B6A2046984702218046204601F06EFD5E
:104DE0007221204601F06AFD98F80070002F4FD123
:104DF0001921204601F062FD0321204601F05EFDED
:104E00000221204601F05AFD0221204601F056FD04
:104E10007221204601F052FD0D21204601F04EFD89
:104E20001921204601F04AFD0321204601F046FDEC
:104E30000221204601F042FD0221204601F03EFD04
:104E40007221204601F03AFD64250027DFF86880D2
:104E500008E00137BFB22946204601F02FFD18F8BF
:104E600007505DB3022D4FF01001204601D08D4256
:104E7000EFD101F023FDECE701F020FD0135ADB2EB
:104E80003946204601F01AFD18F80570002FAFD002
:104E9000022F4FF010012046EED08F42EED101F0EC
:104EA0000DFDEBE750E50100A4E501005CE5010024
:104EB000ACE5010074E501008CE5010019212046F4
:104EC00001F0FCFC0321204601F0F8FC0221204601
:104ED00001F0F4FC44F21C122368A1581B6A20461E
:104EE000984702218046204601F0E8FC72212046C6
:104EF00001F0E4FC98F80070CFBB2046192101F0C6
:104F0000DDFC2046032101F0D9FC2046022101F0FE
:104F1000D5FC2046022101F0D1FC2046722101F08F
:104F2000CDFC20460D2101F0C9FC2046192101F0DD
:104F3000C5FC2046032101F0C1FC2046022101F0FE
:104F4000BDFC01240098B04201D006F0ADFD204622
:104F500019B0BDE8F08F01F0B1FC0135ADB23946B2
:104F6000204601F0ABFC18F80570002FC5D0022FC9
:104F70004FF010012046EED08F42EED101F09EFCA2
:104F8000EBE7834BCDF818A093E80700534603C323
:104F900002211A800A2700230A4640F60D250D91AA
:104FA00006A8494607978DF82A308DF83A30ADF8B3
:104FB0003850CDF8309007F0ABF80746CDF848B040
:104FC00057F8083BBB42054600F0DB80129383682C
:104FD00014936B68139300232B726B602F60139AEA
:104FE0001299684607F094F86949404612F02CF887
:104FF00005461298584501D006F056FD0C984845D4
:1050000001D006F051FD0698504501D006F04CFD48
:10501000002D49D040465F4912F016F8044600289A
:1050200047D000248EE71921204601F047FC0321D8
:10503000204601F043FC0221204601F03FFC44F2EF
:105040000813022154F80380204601F037FC722136
:10505000204601F033FC98F800704FB912E001359A
:10506000ADB23946204601F029FC18F805704FB161
:10507000022F4FF01001204601D08F42EFD101F0F6
:105080001DFCECE72046192101F018FC2046032105
:1050900001F014FC2046022101F010FC20460D21F5
:1050A00001F00CFC01244DE7204602F081F80124B8
:1050B00048E7DFF8E4A0DFF8E490DAF800800221A6
:1050C000404601F0FBFB4046722101F0F7FB0D2545
:1050D000274608E00137BFB22946404601F0EEFB03
:1050E00019F807504DB1022D4FF01001404601D084
:1050F0008D42EFD101F0E2FBECE74046192101F0CF
:10510000DDFB4046032101F0D9FB4046022101F0BE
:10511000D5FBDAF80080DDF800904046022101F06E
:10512000CDFB4046722101F0C9FB99F80070C7B968
:105130004046192101F0C2FB4046032101F0BEFBAD
:105140004046022101F0BAFBFCE601F0B7FB013555
:10515000ADB23946404601F0B1FB19F80570002F99
:10516000E6D0022F4FF010014046EED08F42EED134
:1051700001F0A4FBEBE710223946584604F016FE76
:1051800059E510223946584604F010FE21E700BFC9
:10519000C4E50100B0E301003C8CFF1FD0E5010035
:1051A000027D034622F0010280681A75704700BF35
:1051B00008B5027D034622F0010280681A750FF0DF
:1051C000B7F908BD037D826923F00103012A037545
:1051D0000EBF8068836893FBF2F0704738B5037D9B
:1051E000044623F00103806823750FF0A1F90546FA
:1051F000A0690FF09DF9014628460FF0A1FA38BDCD
:10520000704700BF704700BF704700BF704700BFC6
:10521000024B0A464168186802F054B83C8CFF1FE4
:1052200010B50C21044606F041FC204610BD00BF1D
:1052300010B50C21044606F039FC204610BD00BF15
:1052400010B50C21044606F031FC204610BD00BF0D
:1052500010B50C21044606F029FC204610BD00BF05
:10526000024B4168186802F051B900BF3C8CFF1F27
:10527000024B4168186802F089B900BF3C8CFF1FDF
:10528000024B4168186802F0C1B800BF3C8CFF1F98
:10529000024B4168186802F0F9B800BF3C8CFF1F50
:1052A000024B4168186803F01FBF00BF3C8CFF1F12
:1052B000024B4168186803F057BF00BF3C8CFF1FCA
:1052C000CB060A460DD5910623D5530648BF164B8B
:1052D000416858BF4FF47A738361144B186801F02A
:1052E000F1BF8B060AD44B064CBF42F21073012368
:1052F00083610E4B4168186801F0E4BF510648BF56
:105300000B4B416858BF64238361084B186801F058
:10531000D9BF510648BF074B416858BF0A23836174
:10532000024B186801F0CEBF809698003C8CFF1F9E
:1053300040420F00A0860100037D23F001030375A6
:10534000704700BF037D23F002020275C3F34000E3
:10535000704700BF704700BF704700BF30B40449BA
:10536000044C0A684260551C0D60046030BC7047F4
:10537000902100200CE60100024B4168186802F001
:1053800005B800BF3C8CFF1F094AF0B4094C1168F6
:105390002568094E416000234F1C1760C3600660FA
:1053A0000361037505B1C5602060F0BC704700BFA4
:1053B000902100209421002028E601002DE9F041F1
:1053C00086B01646BDF83070BDF834E0BDF838C080
:1053D000BDF83C80F1B14968104D2C684CB1A04239
:1053E00008D0224601E0904204D01269002AFAD186
:1053F000046128600A4C836042682068CDF8108000
:105400008DE88840CDF80CC0334602F0E1FA06B0D2
:10541000BDE8F0814FF0FF31DEE700BF98210020AA
:105420003C8CFF1F70B584B0BDF82060BDF82450DF
:10543000BDF8284002958DE84800039413460A46BB
:105440000021FFF7BBFF04B070BD00BF037D826881
:10545000C3F3800191420AD022B923F004030375FB
:105460000120704743F004030375012070470020BA
:10547000704700BF0A49F0B40A4C0A6825680A4E12
:1054800042600023571C01220F60C3600660036165
:105490000375C282826105B1C5602060F0BC7047AF
:1054A0009021002094210020A0E601002DE9F04F7A
:1054B0008BB01F461646BDF850E0BDF854C0BDF88D
:1054C0005880BDF86830BDF8709000295FD04968F9
:1054D000304D2C684CB1A04208D0224601E09042E9
:1054E00004D01269002AFAD104612860C28A9A4263
:1054F00018BFC38219F0100F0AD019F0200F3FD047
:1055000019F0400F14BF244C4FF47A74846109E001
:1055100019F0200F2DD119F0400F14BF42F2107472
:1055200001248461199D8268D0F804B0DFF874A06A
:1055300004FB05F59542189A18BF8560CDF82490B4
:1055400004FB02F9179ADAF80000CDF8189004FB72
:1055500002F405941B9C08945A460795CDF81080D8
:10556000CDF80CC08DE8C04002F07EFB0BB0BDE86A
:10557000F08F19F0400F14BF084C64248461D1E708
:1055800019F0400F14BF064C0A248461CAE74FF09B
:10559000FF319DE7982100208096980040420F003F
:1055A000A08601003C8CFF1FF0B58BB0BDF84040D9
:1055B000BDF84470BDF84860139D0094149C019799
:1055C0000296159FBDF8586003950494BDF85C5091
:1055D000044C0597069608950794FFF767FF0BB0F4
:1055E000F0BD00BFE0E60100F0B58BB0BDF8404073
:1055F000BDF84450139FBDF8546002958DE8180023
:10560000129BBDF858500393064C04971346149A06
:10561000059206960A46089507940021FFF746FF73
:105620000BB0F0BDE0E601008269836802FB01F285
:105630009A420AD010B5064B826004461868616829
:1056400001F0E4FFA368184610BD1846704700BF7C
:105650003C8CFF1F70B5094D4468286884B0BDF8C4
:105660002060BDF8245000930196134602950A4627
:10567000214602F039F804B070BD00BF3C8CFF1F1A
:1056800030B40449044C0A684260551C0D60046043
:1056900030BC70479021002084E60100F0B587B04F
:1056A00004461646BDF83070BDF834E0BDF83850F9
:1056B000BDF83C0071B14968084A049010686268FE
:1056C000039500258DE888403346A56002F0E6FC8E
:1056D00007B0F0BD4FF0FF31EEE700BF3C8CFF1F7D
:1056E00010B4044C0B4600224168206810BC02F044
:1056F000EBB800BF3C8CFF1F70B5094D44682868AB
:1057000084B0BDF82060BDF8245000930196134684
:1057100002950A46214601F0E7FF04B070BD00BFC4
:105720003C8CFF1F0A49F0B40A4C0A6825680A4EEF
:1057300042600023571C01220F60C36006600361B2
:105740000375C282826105B1C5602060F0BC7047FC
:105750009021002094210020E8E501002DE9F04788
:1057600088B01546BDF84060BDF844C0BDF848801B
:10577000BDF85040BDF8589000295CD049682F4FC3
:10578000D7F800A0BAF1000F0AD0504509D0524610
:1057900001E0904205D01269002AFAD1C0F810A0A9
:1057A0003860C28AA24218BFC48219F0100F0BD011
:1057B00019F0200F37D019F0400F14BF204A4FF4D2
:1057C0007A72826192460AE019F0200F23D119F013
:1057D000400F14BF42F21072012282619246139F61
:1057E00082680AFB07F7DFF864A0974218BF87605A
:1057F0004268DAF800000694159CCDF81C908DE8FC
:10580000481005940497CDF80C802B4602F088FDD3
:1058100008B0BDE8F08719F0400F14BF094A6422B0
:1058200082619246DBE719F0400F14BF064A0A2254
:1058300082619246D3E74FF0FF31A0E79821002024
:105840008096980040420F00A08601003C8CFF1F0C
:10585000F0B589B0BDF83840BDF83C50109FBDF898
:10586000446002958DE81800BDF84C40039713463C
:105870000A4612990591049606940021FFF76EFFDF
:1058800009B0F0BD8269836802FB01F29A420AD036
:1058900010B5064B826004461868616801F0B6FED8
:1058A000A368184610BD1846704700BF3C8CFF1F08
:1058B00070B5094D4468286884B0BDF82060BDF813
:1058C000245000930196134602950A46214601F0A2
:1058D0000BFF04B070BD00BF3C8CFF1F30B4044907
:1058E000044C0A684260551C0D60046030BC70476F
:1058F0009021002068E601002DE9F04188B00446BF
:105900001646BDF83870BDF83CE0BDF840C0DDF883
:105910004480129DBDF84C0099B149680A4A06902E
:1059200010686268059500258DE88840CDF81080E4
:10593000CDF80CC03346A56002F0C8FE08B0BDE843
:10594000F0814FF0FF31E9E73C8CFF1F10B5064BAB
:105950004468186882B00B4600922146002203F08A
:1059600043F802B010BD00BF3C8CFF1F10B5064BC2
:105970004468186882B00B4600922146012203F069
:1059800033F802B010BD00BF3C8CFF1F024B0A462B
:105990004168186803F0C6B83C8CFF1F024B4A6888
:1059A0004168186803F02CB93C8CFF1F70B5094D95
:1059B0004468286884B0BDF82060BDF82450009386
:1059C0000196134602950A46214601F08DFE04B069
:1059D00070BD00BF3C8CFF1F30B40449044C0A6802
:1059E0004260551C0D60046030BC7047902100205F
:1059F0004CE6010070B5084C4E684168206884B0E0
:105A0000089DBDF824400093019513460294324648
:105A100003F064F904B070BD3C8CFF1F10B4034C5C
:105A20004168206810BC03F0BBBA00BF3C8CFF1F6C
:105A3000024B0A464168186803F044BA3C8CFF1FC9
:105A400030B5074D4468286883B0BDF818500093FE
:105A5000019513460A46214603F0C6FB03B030BD4C
:105A60003C8CFF1F78B10D4A1368ABB14168586890
:105A700088420DD0186930B14268914204D0034683
:105A800018690028F8D1704702691A61012070472F
:105A90001B69136001207047184670479821002049
:105AA00038B50446E0B1134A1368D3B141685D6864
:105AB0008D4218D0D86830B14268914209D003466F
:105AC000D8680028F8D10C4A136843F0010313602A
:105AD00038BDC268DA602046FFF7C4FF012038BD38
