:1000000000800020BD010000B1A8000069A8000028
:1000100069A8000069A8000069A8000069A800009C
:1000200069A8000069A8000069A80000B1A8000044
:10003000B1A8000069A80000A1B90000A5B900009E
:10004000B1A80000B1A80000B1A80000B1A800004C
:10005000B1A80000B1A80000B1A80000B1A800003C
:10006000B1A80000B1A80000B1A80000B1A800002C
:10007000B1A80000B1A80000B1A80000B1A800001C
:10008000B1A80000B1A80000B1A80000B1A800000C
:10009000B1A80000B1A80000B1A80000B1A80000FC
:1000A000B1A80000B1A80000B1A80000B1A80000EC
:1000B000B1A80000B1A80000B1A80000B1A80000DC
:1000C000B1A80000B1A80000B1A80000B1A80000CC
:1000D000B1A80000B1A80000B1A80000B1A80000BC
:1000E000B1A80000B1A80000B1A80000B1A80000AC
:1000F000B1A80000B1A80000B1A80000312700009D
:10010000B1A80000B1A80000B1A80000B1A800008B
:10011000B1A80000B1A80000B1A80000B1A800007B
:10012000B1A80000B1A80000B1A80000B1A800006B
:10013000B1A80000B1A80000B1A80000B1A800005B
:10014000B1A80000B1A80000B1A80000B1A800004B
:10015000B1A80000B1A80000B1A80000B1A800003B
:10016000B1A800007DAC0000B1A80000B1A800005B
:10017000B1A80000B1A80000B1A80000B1A800001B
:10018000B1A80000B1A80000B1A80000B1A800000B
:10019000B1A80000B1A80000B1A80000B1A80000FB
:1001A000B1A80000B1A80000B1A80000B1A80000EB
:1001B000B1A80000B1A80000B1A80000564B4CF255
:1001C000205210B51A804DF628121A8000BF00BFC9
:1001D0000AF072FB514B4FF010621A60504A9A605D
:1001E000504ADA60504A136813F4807304D14F49BF
:1001F0000B604FF4A85313604D4B1A78110703D5C9
:100200001A7842F008021A704A4B4B492A221A7097
:100210004A4A4B4B8B4204D252F8040F43F8040B6A
:10022000F8E7484B484900228B4202D243F8042B9E
:10023000FAE74649464A002352F8230041F82300D2
:1002400001336F2BF8D1434B434A802103F8011B44
:100250009342FBD1414B3D4A1A60414B8A221A70AE
:10026000A3F5805324225A70A0221A709A7992071B
:10027000FCD59A79D406FCD43A4A937903F00C035E
:10028000082B384BF9D103221A7140225A719A79FE
:100290009006FCD5334A9179324B4906FBD5324A58
:1002A000324911600221516020221A709A7902F0BD
:1002B0000C020C2AFAD12E4B2E4A1A602E4B2F4AD2
:1002C0001A6000225A60072243F8042C2C4AC3F813
:1002D0000C2D62B60AF0A8FB144B1B68DA0705D593
:1002E00028480AF01DFB284B284A1A60284B1B7827
:1002F0005B0609D5244C254B22689A4204D121483B
:100300000AF00EFB002323600AF0DCFA15F0B6FFBA
:100310000BF06EFCFEE700BF0E200540308004406D
:10032000823F04000100002B10D0034014D0034092
:1003300002D0074000E007407098FF1F1C1C02001D
:10034000308CFF1F7098FF1F800300200082FF1F6A
:100350000000000000E400E05FE400E008ED00E0E1
:100360000050064000400640448004400000030165
:1003700004800440C010050014E000E0FF76010096
:1003800000002020E513FD621CE00340A5C3945A41
:1003900000F00740FFFFFFFFFFFFFFFFFFFFFFFF32
:1003A000FFFFFFFFFFFFFFFFFFFFFFFFFFFFFFFF5D
:1003B000FFFFFFFFFFFFFFFFFFFFFFFFFFFFFFFF4D
:1003C000FFFFFFFFFFFFFFFFFFFFFFFFFFFFFFFF3D
:1003D000FFFFFFFFFFFFFFFFFFFFFFFFFFFFFFFF2D
:1003E000FFFFFFFFFFFFFFFFFFFFFFFFFFFFFFFF1D
:1003F000FFFFFFFFFFFFFFFFFFFFFFFFFFFFFFFF0D
:10040000FFFFFFFFFFFFFFFFFFFFFFFFDEF9FFFF23
:1004100010B5054C237833B9044B13B10448AFF33E
:1004200000800123237010BD7098FF1F00000000A2
:100430005C180200084B10B51BB108490848AFF31F
:1004400000800848036803B910BD074B002BFBD0A0
:10045000BDE81040184700BF000000007498FF1F5F
:100460005C1802007098FF1F00000000704700BF7A
:10047000002070470020704741F27873EC22C35887
:10048000DA70704741F278732C22C358DA707047E3
:1004900041F27873C358D971704700BF41F2787345
:1004A000C358D879704700BF41F27873C3581879A0
:1004B000C0F34010704700BF4368012B10B401D057
:1004C000022B16D04B0803F1376303F5D833B3FB87
:1004D000F1F141F27873C1F34434C2581470C25838
:1004E000C1F347145470C35801F01F01997210BC36
:1004F00070474B0803F1B76303F55843B3FBF1F1C1
:10050000E7E700BF024642F2E8030021C05CD15495
:10051000704700BF00F5CA5300F5035202331A3288
:10052000002123F8021F9342FBD1704744F21023AD
:100530000022C254704700BF704700BF704700BF21
:1005400008B50AF001FA00EB4000400108BD00BF09
:1005500008B50AF0F9F9002108BD00BF10B541F255
:10056000987104460BF050FB204610BD10B584B0C6
:10057000022268460BF0D4FA054C009B6846002B1B
:1005800018BF1C460BF032FA204604B010BD00BF65
:10059000CAF6010010B584B0114668460A220BF075
:1005A000ABFA054C009B6846002B18BF1C460BF0AD
:1005B0001DFA204604B010BDCAF6010010B584B083
:1005C0000A2268460BF084FA054C009B6846002B13
:1005D00018BF1C460BF00AFA204604B010BD00BF3D
:1005E000CAF6010010B584B00A2268460BF05CFA26
:1005F000054C009B6846002B18BF1C460BF0F6F913
:10060000204604B010BD00BFCAF6010010B5044674
:1006100005E00BF039F8C1B2204606F003F90BF003
:100620006FF80028F5D110BD10B5044B044640F812
:10063000D03B04F09DFE204610BD00BF54E40100F5
:1006400010B5064B044640F8D03B04F091FE20461E
:1006500044F218210BF0D8FA204610BD54E40100F2
:1006600010B50446D0F880010B4A03681B69934219
:100670000AD10AF069F900EB400040010123C4F8F7
:10068000A00184F89C3110BD98470123C4F8A00153
:1006900084F89C3110BD00BF4105000038B590F8CA
:1006A0009C4114B90024204638BD0546D0F880018D
:1006B0000A4A03681B6993420DD10AF045F900EB21
:1006C00040004001D5F8A021D5F8A431801A984205
:1006D000E8D3204638BD9847F4E700BF4105000045
:1006E000F8B542F2E40242F2E0038258C358934262
:1006F000054613D000F503573C463E4620341C37D0
:1007000024363A681A402A44013392F8D80023600C
:100710000BF0A4F8236832689342F2D144F2FC0350
:10072000EA5C32B144F21021012000226854EA54FC
:10073000F8BDF8BD10B503680C4A1B6A934284B03B
:100740000ED10A2268460BF0C3F9094C009B68469B
:10075000002B18BF1C460BF049F9204604B010BD11
:1007600098470446204604B010BD00BFBD050000F8
:10077000CAF6010010B503680C4ADB69934284B0E5
:100780000ED10A2268460BF08FF9094C009B68468F
:10079000002B18BF1C460BF029F9204604B010BDF1
:1007A00098470446204604B010BD00BFE505000090
:1007B000CAF60100F8B55C4E5C4D326841F28873B0
:1007C00000F5BC5EC358DEF800E041F284771A43BE
:1007D00041F27873C759326040F21332CEF80020EC
:1007E0004FF45176C2583E6012269670C2580026C9
:1007F0001674C2582C26D670C35841F27C770E224C
:100800009A71C35D03F1604303F5644340221A709B
:10081000C25D53119B0003F1604303F56143012660
:1008200002F01F0206FA02F21A600268C35DD26883
:100830003F4F03F01F0E5B1106FA0EF6BA42044654
:1008400045F823606ED14268012A0B4601D0022A86
:100850005DD05A0802F1376202F5D832B2FBF3F3E9
:1008600041F27872C3F34430A1580870A158C3F321
:1008700047104870A25803F01F03937200210A46E4
:1008800023464FF4AE7E21270EFB01400131102993
:1008900080F880714FF0210680F881214FF000052B
:1008A000C0F88C2183F8382083F888215A63DA67EE
:1008B00003F5AE73E8D104F5B0531E4983F84C61DB
:1008C0001D7183F84D5183F8545122681269C3F8A1
:1008D000585141F2F45741F2F85641F2FC501D6074
:1008E0009D648A424FF01403E551A551255084F8C8
:1008F000303014D10AF028F800EB4000400141F2FA
:10090000707141F2747304226050E254F8BD4A08D9
:1009100002F1B76202F55842B2FBF1F3A0E72046BC
:100920009047ECE79047A9E73480044080E200E07C
:10093000B9040000410500000368AA4A9B6A93427B
:100940002DE9F041044640F08F8041F27873C3589E
:100950001879C0F34010002850D141F27873E35861
:10096000DA78110601D4BDE8F0811A791206FAD5B9
:1009700041F2FC524FF4AE75A2589B4805FB02456C
:1009800095F83820511C85F8381021680E6A2A44E1
:10099000864292F8391040F0F580D971E38A01332C
:1009A000E38295F838206B6B9B1A002BDBDC95F803
:1009B0003930002B40F0E98023688C4A1B69934250
:1009C00040F0F98009F0C0FF00EB4000400141F227
:1009D000707141F2747303226050E2542368844AB8
:1009E000DB69934240F0F08041F278732C22E358A7
:1009F000DA70172384F83030BDE8F08126687D4A2C
:100A0000736A41F2FC519342655840F0D08041F244
:100A10007873E358D879C0B24FF4AE7303FB054343
:100A2000DA6F9918013281F88000DA67218B013181
:100A30002183D3F88C118A421ADA93F98130002B82
:100A400014DB3369694A934240F0BB8009F07CFFB4
:100A500000EB4000400141F2707141F274730222D8
:100A60006050E254BDE8F081984774E7042AE8DD5D
:100A700033695E4A934240F0AA8009F065FF00EBBB
:100A80004000400141F2747241F2707604214FF44B
:100A9000AE73A05103FB0543A15493F8391093F8AA
:100AA0008020914208D0628C0132628493F88121C7
:100AB00042F0200283F881214FF4AE7101FB05F171
:100AC0006318DF6F012F2BDD1946B7F1020C01F11E
:100AD000800100F08380FF20DFF81C81DFF81CE13B
:100AE000024601EB0C0611F8013B5340B14218F8E5
:100AF000032082EA00021EF80300F4D142EA002239
:100B000012B24FF4AE7303FB05439C441F449CF8A0
:100B1000801097F87F3043EA01231BB293420CD038
:100B2000A28C4FF4AE73013203FB0543A28493F809
:100B3000812142F0400283F881214FF4AE7303FB20
:100B400005F3E21892F8811199B9A18A0131A182C5
:100B500092F98120002A0CDAA28B23440132A2836D
:100B600093F88230052B35D0062B02D1238C01332C
:100B700023844FF4AE7303FB0544242384F88031AF
:100B8000BDE8F0812046B04708E72368174A1B6993
:100B9000934213D109F0D8FE00EB4000400141F22E
:100BA000707141F2747301226050E25416E72046DE
:100BB0009847266830E72046984708E72046984738
:100BC000EDE72046984746E72046984711E720463C
:100BD000984757E7E38B0133E383CAE74FF0FF32CF
:100BE0008FE700BFA9040000910400004105000048
:100BF000850400009D0400002CEB01002CEC01009A
:100C00002DE9F843044688460221174605F040FEC8
:100C10002046722105F03CFEDFF87C915525002628
:100C200008E00136B6B22946204605F031FE19F833
:100C300006504DB1022D4FF01001204601D08D42DB
:100C4000EFD105F025FEECE71921204605F020FE46
:100C50000321204605F01CFE0221204605F018FE67
:100C60000221204605F014FE7221204605F010FEF8
:100C700098F800604EB912E00135ADB23146204619
:100C800005F006FE18F805604EB1022E4FF0100177
:100C9000204601D08E42EFD105F0FAFDECE7192194
:100CA000204605F0F5FD0321204605F0F1FD022167
:100CB000204605F0EDFD0221204605F0E9FD7221F8
:100CC000204605F0E5FD3D789DB1002607E00136A0
:100CD000B6B22946204605F0DBFDBD5D4DB1022DC3
:100CE0004FF01001204601D08D42F0D105F0D0FD2B
:100CF000EDE71921204605F0CBFD0321204605F044
:100D0000C7FD0221204605F0C3FD0221204605F063
:100D1000BFFD7221204605F0BBFD0D21204605F0E8
:100D2000B7FD1921204605F0B3FD0321204605F04B
:100D3000AFFD0221204605F0ABFD0221204605F063
:100D4000A7FD7221204605F0A3FD55260025114F71
:100D500007E00135ADB23146204605F099FD7E5DD4
:100D60004EB1022E4FF01001204601D08E42F0D13C
:100D700005F08EFDEDE72046192105F089FD20469E
:100D8000032105F085FD20460221BDE8F84305F06A
:100D90007FBD00BF8CE5010078E501002DE9F0433F
:100DA0008BB00DF12808152548F8285D89460022EA
:100DB0004146044606AF04A804970BF049FA009B8D
:100DC000774906932A46049009F07AFC009B049A1E
:100DD00005930026D6544846724916F055FA80B15C
:100DE0004846714916F050FA0546002800F09D80EB
:100DF0000498B84201D00AF005FF30460BB0BDE8B8
:100E0000F08302210546204605F042FD722120466E
:100E100005F03EFDDFF8A091532608E00135ADB2A4
:100E20003146204605F034FD19F805604EB1022E1A
:100E30004FF01001204601D08E42EFD105F028FD81
:100E4000ECE71921204605F023FD0321204605F09B
:100E50001FFD0221204605F01BFD2368534A5B68F5
:100E6000934240F0938009F06FFD2268504B516A25
:100E7000994240F08F8001460A2240460AF03CFE2B
:100E8000009B4C4A4046002B14BF984690460AF0FF
:100E9000ADFD0221204605F0FBFC7221204605F045
:100EA000F7FC98F8005000264DB912E00136B6B2B2
:100EB0002946204605F0ECFC18F806504DB1022DED
:100EC0004FF01001204601D08D42EFD105F0E0FC3B
:100ED000ECE71921204605F0DBFC0321204605F054
:100EE000D7FC0221204605F0D3FC0221204605F064
:100EF000CFFC7221204605F0CBFC20260025DFF830
:100F0000BC8008E00135ADB23146204605F0C0FC9A
:100F100018F80560B6B1022E4FF01001204601D03E
:100F20008E42EFD105F0B4FCECE7DDF81080022131
:100F3000204605F0ADFC7221204605F0A9FC98F88A
:100F40000060CEB91921204605F0A2FC03212046FD
:100F500005F09EFC2046022105F09AFC012647E799
:100F600005F096FC0135ADB23146204605F090FC07
:100F700018F80560002EE5D0022E4FF01001204633
:100F8000EED08E42EED105F083FCEBE72046984789
:100F90000E466AE70246334620468847804678E791
:100FA000C4E50100DCE5010000E601005105000098
:100FB00095050000CAF60100E8E50100F8E501002A
:100FC00084B02DE9F041D8B05FAC4FF4AE7684E840
:100FD0000E000546214601A8324609F071FB41F298
:100FE000F45741F2F853EC59EB58E31A03F00F03AE
:100FF0000F2B20D006FB04580023212088F8800105
:1010000088F8883188F88131C8F87C30C8F88C318C
:1010100001A9324608F1340009F052FB013404F012
:101020000F042223012088F88031EC5158B0BDE82C
:10103000F04104B07047002058B0BDE8F04104B062
:10104000704700BF2DE9F04F0E46DFB00446BF49A0
:101050003046174616F018F908B3BD49304616F069
:1010600013F90546002871D0BA49304616F00CF93C
:101070000546002841D0B849304616F005F9054626
:10108000002800F0E7843046B44916F0FDF8064623
:10109000002800F0998200205FB0BDE8F08F0221A7
:1010A0000546204605F0F4FB7221204605F0F0FBD2
:1010B000AB4F0D2607E00135ADB23146204605F0B5
:1010C000E7FB7E5D4EB1022E4FF01001204601D0AD
:1010D0008E42F0D105F0DCFBEDE72046192105F04A
:1010E000D7FB2046032105F0D3FB2046022105F063
:1010F000CFFB01205FB0BDE8F08F5EAA394642F811
:10110000200D204604F074FD02210646204605F01D
:10111000BFFB7221204605F0BBFBDFF854820D2790
:101120000AE00135ADB23946204605F0B1FB18F8AA
:101130000570002F00F0D483022F4FF010012046DD
:1011400001D08F42EDD105F0A3FBEAE70221204652
:1011500005F09EFB7221204605F09AFB814F0D267B
:1011600007E00135ADB23146204605F091FB7E5DCA
:101170004EB1022E4FF01001204601D08E42F0D128
:1011800005F086FBEDE71921204605F081FB0321E0
:10119000204605F07DFB0221204605F079FB2368FF
:1011A000714EDB6944F21422B342A15841F6E43295
:1011B000895C40F0D1845AAD0A2228460AF074FCBA
:1011C0005A9B6A4A2846002B14BF984690460AF05C
:1011D0000DFC0221204605F05BFB7221204605F044
:1011E00057FB98F8005000274DB912E00137BFB205
:1011F0002946204605F04CFB18F807504DB1022D4A
:101200004FF01001204601D08D42EFD105F040FB98
:10121000ECE71921204605F03BFB0321204605F0B1
:1012200037FB0221204605F033FB0221204605F062
:101230002FFB7221204605F02BFB0D270025DFF840
:10124000348108E00135ADB23946204605F020FB77
:1012500018F805704FB1022F4FF01001204601D051
:101260008F42EFD105F014FBECE71921204605F081
:101270000FFB0321204605F00BFB0221204605F061
:1012800007FB236844F21422DB69A15841F6F032CF
:10129000B342895840F071845AAD0A2228460AF0B8
:1012A00003FC5A9B314A2846002B14BF98469046AF
:1012B0000AF09CFB0221204605F0EAFA7221204642
:1012C00005F0E6FA98F8005000274DB912E0013712
:1012D000BFB22946204605F0DBFA18F807504DB199
:1012E000022D4FF01001204601D08D42EFD105F0C4
:1012F000CFFAECE71921204605F0CAFA032120466F
:1013000005F0C6FA0221204605F0C2FA0221204665
:1013100005F0BEFA7221204605F0BAFA0D27002525
:10132000DFF8548008E00135ADB23946204605F0BB
:10133000AFFA18F805700FB3022F4FF010012046D6
:1013400001D08F42EFD105F0A3FAECE708E60100E7
:1013500018E6010080E60100A0E60100640E02002C
:1013600010E6010024E60100E5050000CAF60100D0
:101370008CE601003CE6010050E601001921204600
:1013800005F086FA0321204605F082FA0221204664
:1013900005F07EFA236844F21422DB69A15841F675
:1013A000FC32B342895840F0E4835AAD0A22284601
:1013B0000AF07AFB5A9BC54A2846002B14BF984670
:1013C00090460AF013FB0221204605F061FA7221D3
:1013D000204605F05DFA98F8005000274DB912E05C
:1013E0000137BFB22946204605F052FA18F80750D7
:1013F0004DB1022D4FF01001204601D08D42EFD1AA
:1014000005F046FAECE71921204605F041FA0321E0
:10141000204605F03DFA0221204605F039FA022166
:10142000204605F035FA7221204605F031FA0D27E5
:101430000025DFF8A08208E00135ADB2394620462C
:1014400005F026FA18F805704FB1022F4FF0100181
:10145000204601D08F42EFD105F01AFAECE71921AE
:10146000204605F015FA0321204605F011FA022165
:10147000204605F00DFA44F214232268E358D2699D
:1014800003F5E053B242198840F06F835AAD0A2247
:1014900028460AF009FB5A9B8C4A2846002B14BFA9
:1014A000984690460AF0A2FA0221204605F0F0F98B
:1014B0007221204605F0ECF998F8005000274DB94C
:1014C00012E00137BFB22946204605F0E1F918F8CD
:1014D00007504DB1022D4FF01001204601D08D4232
:1014E000EFD105F0D5F9ECE71921204605F0D0F948
:1014F0000321204605F0CCF90221204605F0C8F969
:101500000221204605F0C4F97221204605F0C0F9F9
:101510000D270025DFF8C08108E00135ADB239465E
:10152000204605F0B5F918F805704FB1022F4FF0BD
:101530001001204601D08F42EFD105F0A9F9ECE768
:101540001921204605F0A4F90321204605F0A0F951
:101550000221204605F09CF9236844F21422DB693D
:10156000A15841F6E832B342895A40F0FA825AADA6
:1015700028460A220AF098FA5A9F544B2846002F10
:1015800008BF1F460AF032FA0221204605F080F912
:101590007221204605F07CF93D78002655B99CE57E
:1015A0000136B6B22946204605F072F9BD5D002D20
:1015B0003FF493AD022D4FF01001204601D08D4233
:1015C000EED105F065F9EBE7414BDFF810811F68BC
:1015D0000221384605F05CF93846722105F058F9C9
:1015E000452508E00136B6B22946384605F050F9DF
:1015F00018F806504DB1022D4FF01001384601D0B9
:101600008D42EFD105F044F9ECE73846192105F099
:101610003FF93846032105F03BF93846022105F031
:1016200037F92B4BDFF8B8A01F680221384605F0C8
:101630002FF93846722105F02BF90D2608E0013507
:10164000ADB23146384605F023F91AF805604EB1BF
:10165000022E4FF01001384601D08E42EFD105F036
:1016600017F9ECE73846192105F012F9384603213D
:1016700005F00EF93846022105F00AF9144A44F241
:1016800014231568E3582846D3F88871022105F021
:10169000FFF82846722105F0FBF83B7813B3B846F3
:1016A0001F4608E00136B6B23946284605F0F0F884
:1016B00018F80670B7B1022F4FF01001284601D07C
:1016C0008F42EFD105F0E4F8ECE700BFCAF6010065
:1016D000348CFF1F60E6010070E60100B4E60100F3
:1016E00074E701002846192105F0D2F828460321A5
:1016F00005F0CEF82846022105F0CAF8CC4BDFF8F9
:1017000048831F680221384605F0C2F83846722126
:1017100005F0BEF80D26002508E00135ADB23146D2
:10172000384605F0B5F818F805604EB1022E4FF0B6
:101730001001384601D08E42EFD105F0A9F8ECE750
:101740001921384605F0A4F80321384605F0A0F821
:101750003846022105F09CF844F2142241F6A443D5
:10176000A258B449D35A5593102256A8DFF8DC92F8
:1017700008F0A6FF0DF5AB7803E00DF5B373434514
:101780007ED038F8027F559B9F42F6D8A84BAA4AD4
:101790001D682B68DB69934240F0D9815AAC204622
:1017A0000A2239460AF080F95A9EA44B2046002EA0
:1017B00008BF1E460AF01AF90221284605F068F80B
:1017C0007221284605F064F834784FF0000B5CB9BC
:1017D00014E00BF1010B1FFA8BFB2146284605F0A4
:1017E00057F816F80B404CB1022C4FF01001284668
:1017F00001D08C42EDD105F04BF8EAE728461921DB
:1018000005F046F82846032105F042F82846022153
:1018100005F03EF8864B1D680221284605F038F891
:101820002846722105F034F82C26002408E0013403
:10183000A4B23146284605F02BF819F804604EB1E1
:10184000022E4FF01001284601D08E42EFD105F054
:101850001FF8ECE71921284605F01AF8032128465D
:1018600005F016F82846022105F012F8559BC7EB43
:10187000030B1FFA8BF355930DF5B373434580D1DA
:101880006B4B1E680221304605F002F8304672218B
:1018900004F0FEFF0D25002408E00134A4B229461F
:1018A000304604F0F5FF1AF804504DB1022D4FF008
:1018B0001001304601D08D42EFD104F0E9FFECE792
:1018C0003046192104F0E4FF3046032104F0E0FF24
:1018D0003046022104F0DCFF01205FB0BDE8F08F4C
:1018E0001921204604F0D4FF0321204604F0D0FF44
:1018F0000221204604F0CCFF23684F4ADB69934263
:10190000B1B240F03F815AAD0A2228460AF0CCF825
:101910005A9B4A4A2846002B14BF984690460AF024
:1019200065F80221204604F0B3FF7221204604F03E
:10193000AFFF98F8005000274DB912E00137BFB251
:101940002946204604F0A4FF18F807504DB1022D97
:101950004FF01001204601D08D42EFD104F098FFE6
:10196000ECE72046192104F093FF2046032104F000
:101970008FFF2046022104F08BFF314ADFF8D0E0D0
:101980001368304F44F21420591C245811604FEA58
:10199000262C0825012006218B22C4F8543100236F
:1019A000A67384F80DC065606072A1722273251D54
:1019B0002372E37204F1090104F10E0C80208122EC
:1019C000FF2606E011F8012F534006461EF80320BB
:1019D000F85C86EA02036145DBB2F3D143EA0023F7
:1019E0001BB2C3F30721D4F8606123740822E173AA
:1019F000C4F85C2105F10C014FF4A872684608F0A8
:101A00005FFE95E80E003046FFF7DAFA0023212248
:101A1000012084F85021237284F8513184F8583120
:101A2000C4F85C316360E3645FB0BDE8F08F00BF71
:101A3000348CFF1F68E50100E5050000CAF60100CF
:101A4000000100202CEC010078E701008CE7010088
:101A50002CEB01005EAA394642F8200D204604F026
:101A6000C7F844F254630221E050204604F010FF0E
:101A70007221204604F00CFF464F0D2607E0013589
:101A8000ADB23146204604F003FF7E5D4EB1022E1A
:101A90004FF01001204601D08E42F0D104F0F8FE44
:101AA000EDE71921204604F0F3FE0321204604F05F
:101AB000EFFE0221204604F0EBFE2368364ADB6984
:101AC00044F254619342615860D15AAD28460A22CB
:101AD00009F0EAFF5A9F314B2846002F08BF1F46E6
:101AE00009F084FF0221204604F0D2FE7221204634
:101AF00004F0CEFE3D78002645B911E00136B6B2BD
:101B00002946204604F0C4FEBD5D4DB1022D4FF0C4
:101B10001001204601D08D42F0D104F0B9FEEDE76E
:101B20002046192104F0B4FE2046032104F0B0FE43
:101B30002046022104F0ACFE44F2142242F2DC03FF
:101B4000A25802210120D1545FB0BDE8F08F394680
:101B50002846984706462FE6204698478046FFF7D6
:101B600038BB2046984707460EE5204690478046FA
:101B70009AE420469847804625E4204698478046C8
:101B8000FFF798BB204698478046CAE6204698470C
:101B90000746A7E7A4E60100E5050000CAF6010034
:101BA0002DE9F047DFF8C883DFF8C8C3D8F8001084
:101BB000DFF8B8E30446082300224FF0030990271A
:101BC0001225481C04F109066360012384F80A9079
:101BD0002773A573C8F80000227262736372E37200
:101BE000D4B0C4F854113046271D04F10E054FF04F
:101BF00080098122FF2307E010F8011F59404B465E
:101C00001CF801201EF8019053408542DBB2F3D14D
:101C100043EA09231BB2C3F30721D4F860A123745C
:101C2000292207F10C09E173C4F85C2149464FF4FD
:101C3000A872684608F044FD97E80E005046FFF78A
:101C4000BFF9D8F80030C4F854315A1C4FF0210EB7
:101C50000023082084F850E101214FF0030EC8F85A
:101C60000020B02284F851312372C4F85C3184F82A
:101C70005831E36463736060A07384F80AE02273F0
:101C8000DFF8F0A2DFF8E4C26172E17230464FF093
:101C9000800E8122FF2307E010F8011F5940734690
:101CA0001AF801201CF801E053408542DBB2F3D161
:101CB00043EA0E231BB2C3F30721D4F860A12374B7
:101CC0001522E173C4F85C2149464FF4A8726846B6
:101CD00008F0F6FC97E80E005046FFF771F9D8F8C7
:101CE0000030C4F8543121215A1C84F850110023CB
:101CF0004FF0080E01202173C8F80020032138227C
:101D000084F851312372C4F85C3184F85831E364AB
:101D1000E3726373C4F804E06072A273DFF854A244
:101D2000DFF848C2A17230464FF0800E8122FF23B7
:101D300007E010F8011F594073461AF801201CF8FB
:101D400001E053408542DBB2F3D143EA0E231BB2DC
:101D5000C3F30721D4F860A123747522E173C4F89A
:101D60005C2149464FF4A872684608F0A9FC97E840
:101D70000E005046FFF724F9D8F80030C4F854316B
:101D80005A1C2121002384F850114FF0080E012025
:101D900084F851310321C8F8002023726022C4F86E
:101DA0005C3184F85831E364E37263730B23C4F845
:101DB00004E060722273A373DFF8B8A1DFF8ACC14E
:101DC000A17230464FF0800E8122FF2307E010F809
:101DD000011F594073461AF801201CF801E05340D6
:101DE0008542DBB2F3D143EA0E231BB2C3F30721D2
:101DF000D4F860A123741B22E173C4F85C21494626
:101E00004FF4A872684608F05BFC97E80E00504655
:101E1000FFF7D6F8D8F80030C4F854315A1C212006
:101E2000002384F8500108214FF0010E0320C8F868
:101E30000020702284F851312372C4F85C3184F898
:101E40005831E364E372637384F809E0A07222738B
:101E5000DFF820A1DFF814C16160A17330464FF0B4
:101E6000800E8122FF2307E010F8011F59407346BE
:101E70001AF801201CF801E05340A842DBB2F3D16C
:101E800043EA0E231BB2C3F30721D4F860A12374E5
:101E90001522E173C4F85C2149464FF4A8726846E4
:101EA00008F00EFC97E80E005046FFF789F8D8F8C6
:101EB0000030C4F854315A1C2121002384F85011F9
:101EC0004FF0010C032184F851314FF0080AC8F893
:101ED00000202372C4F85C3184F85831E364E37263
:101EE00063731622802384F809C0A17223731946F4
:101EF000DFF880E01D48C4F804A0A27381234FF0EE
:101F0000FF0C06E016F8012F5A408C461EF80230EE
:101F1000815C8CEA0303AE42DBB2F3D143EA0123D6
:101F20001BB2C3F30721D4F8605123743122E1734B
:101F3000C4F85C2149464FF4A872684608F0C0FB1B
:101F400097E80E002846FFF73BF80023212284F88B
:101F50005021237284F8513184F85831C4F85C312F
:101F60006360E36454B0BDE8F08700BF2CEC01006F
:101F7000000100202CEB01002DE9F0430026ADF21A
:101F8000244D154689464022314604460DF1110084
:101F90001F46BDF840848DF8106014F04FFE3146A6
:101FA0004FF4807216A8159614F048FE4A488DF832
:101FB0006061D0F800E08DF80560694221233D0E94
:101FC0003A0C8DF85831C9B23B0A4FEA282C8DF8EB
:101FD00059618DF8097041260C278DF806500EF1D5
:101FE00001058DF807208DF8083005608DF81190F7
:101FF0008DF804108DF80B808DF80AC001AA0397A4
:102000008DF81260CDF85CE10DF11200022301E0C1
:1020100012F8011F00F8011F01330A2BF8D1FF202D
:102020002E4F2F4E0DF1110102460DF11B0511F837
:10203000013B5340A942FA5C82EA0002F05CF6D10F
:1020400042EA00231BB2C3F307214FF4AE768DF8AA
:102050001C300C2332468DF81B105AA80DEB0301DF
:10206000D4F88051599308F02BFB5AA93246B1A8F5
:1020700008F026FB41F2F45741F2F85355F8078077
:10208000EB58C3EB080303F00F030F2B1FD006FB25
:1020900008540023212084F88001324684F88131DD
:1020A00084F88831E367C4F88C31B1A904F13400B5
:1020B00008F006FB08F1010303F00F0322220120C0
:1020C00084F88021EB510DF2244DBDE8F08300200F
:1020D0000DF2244DBDE8F083000100202CEB01003F
:1020E0002CEC01002DE9F04FE64B0360054600277C
:1020F0004FF4005883B0C0F8CC70D0300C4603F0D9
:1021000035F942463946C5F8D47005F1D80014F0C7
:1021100095FD05F5035642F2E40342F2D80042F27F
:10212000DC0142F2E002283641F6FF7945F80080F2
:1021300045F801903046AF5039464246EF5014F012
:102140007DFD06EB080042F2080CC0F8008042F268
:10215000040005F5824346F8009042F20C0046F870
:102160000C70375044F2F80C44F2FC0044F20418AE
:1021700045F80C70C44A2F5444F208101A6044F217
:102180000C1C45F80820C14A2A504FF47A7225F8F1
:102190000C2044F2141044F2241C44F228122F5054
:1021A00044F22C189F61DF6144F22E1045F80C7048
:1021B000DFF8F4E2AF5044F2301C44F2FA121E464B
:1021C00044F2FC1325F80870DEF800102F5225F8B1
:1021D0000C7044F2101CAF5205F58440EF524FF0E2
:1021E00001084CF250320023C0E9022305F80C80AC
:1021F000002900F02C8144F210224FF0010ADFF890
:10220000ACB2A34B05F802A0A2482B6009F0D2FBA8
:1022100044F22C2CDBF800309F4A2A6003EB0A01C1
:1022200045F80C3044F2142205F5844744F220238B
:1022300044F2182E243744F21C20AC504FF0000812
:10224000EC500323142445F80E802C54FB6007F156
:10225000100000930192CBF8001003F0F9F907F198
:102260001C0003F025FB07F1280003F043FA07F1F7
:10227000440003F03FFA07F1600003F03BFA07F176
:102280007C0003F037FA07F1980003F033FA07F106
:10229000B40003F0F7F807F1D00003F087FB05F571
:1022A000864003F083FB07F1E80003F07FFB07F1B2
:1022B000F40005F5844403F079FB4FF0FF3907F58E
:1022C000807003F073FBC7F81481C7F80C91C7F84E
:1022D0001091C7F81C9104F5A27003F067FB04F598
:1022E000A87003F0CFF804F5B67003F0B1F904F567
:1022F000BC7003F0FFF904F5CA7003F03BF805F574
:10230000874084F8A0A184F8A1A1243003F058F8F4
:1023100005F587403C3003F053F8019A44F2D4317C
:1023200005F58747AA586A503C4607F158006434BF
:1023300003F03CFB44F2EC31DBF80020009B6A50D8
:1023400004F110005244E360CBF8002003F080F960
:1023500005F5884003F0ACFA04F1280003F0CAF94F
:1023600004F1440003F0C6F904F1600003F0C2F97F
:1023700004F17C0003F0BEF904F1980003F0BAF90F
:1023800004F1B40003F07EF804F1D00003F00EFB7A
:1023900004F1DC0003F00AFB04F1E80003F006FBA3
:1023A00004F1F40003F002FB04F5807003F0FEFA80
:1023B000C4F80C91C4F81091C4F81481C4F81C91AD
:1023C00007F5C27003F044F907F5C87002F0D2FFB8
:1023D00005F58A434FF440421C4603F1940087F808
:1023E0009CA1C3F8888083F88E8083F88F80A3F83F
:1023F0008C2003F047F804F1B00003F029F904F150
:10240000BC0003F077F904F1D80003F073F904F18C
:10241000F40003F06FF904F5887002F0D1FF04F5C1
:10242000947002F0CDFF44F2586444F2546E44F2CA
:1024300004121A491A4B87F8D0A2284645F80E8094
:1024400045F80480A950336003B0BDE8F08F15480B
:10245000CBB2082213F0800F02F1FF324FEA4303A0
:1024600018BF83F0D50312F0FF02DBB2F2D10131C5
:10247000B1F5807F00F8013FEAD10123CEF80030AA
:10248000B9E600BF54E4010090E70100A4E70100B1
:10249000E8E40100588CFF1F2CE50100B0E70100C3
:1024A000BCE70100FBFFFF1FF8FFFF1FFC0000203F
:1024B0002DE9F041944C954AD4F880010368DB681B
:1024C00032250021934286B084F87C51C4F89011E3
:1024D00040F01481426841F27873022AC25818BF52
:1024E00001211170C2580CBF9C2138215170C35872
:1024F0000CBF082210229A72D4F88001844B026823
:10250000844E156941F25C714FF4FA62415841F210
:102510006C7702FB01F203FB01F300F5BB51C251E2
:10252000B5424FF001020B6084F89C2140F0EA8034
:1025300008F00AFA00EB40004001774BC4F8A00114
:10254000012203F5F36084F89C21002123F8021F87
:1025500083424FF00002F9D1704D714BD5F800E085
:102560001E68704841F6301141F628176158E75946
:102570004EEA010141F62C1E296054F80E5040F23B
:10258000133139604FF4517712212F60B1701968FF
:102590000A741A682C21D1701A6841F624160E218B
:1025A0009171A25D02F1604202F564424021117016
:1025B000A15DD4F8AC714A11920002F1604202F5BB
:1025C0006142012501F01F0105FA01F11160A25DD0
:1025D0001968022F02F01F064FEA621205FA06F58B
:1025E0000CBF0026012640F822500E701A680CBF5E
:1025F0009C21382151701A680CBF0821102100203D
:102600009172A3F5587C0246A3F5C9534FF4AE7EF0
:1026100021270EFB004103F5AE7381F8287381F882
:102620002923C1F8342383F8842083F8D421C3F804
:102630008020C3F8C8209C45334D00F101004FF0C5
:1026400021014FF00006E4D141F6F40041F6F50215
:1026500005F5C853295441F6FC0CAE5441F2A87E4E
:1026600005F5BD5141F2A47241F2AC7841F2F07728
:1026700041F29C701E60142305F8086005F80C6098
:1026800045F80E60EE510E60AE502E5085F8D831F0
:1026900008F05AF9DFF894E0234BCEF80C30774677
:1026A00000EB400C0FCFAEF810606E460FC69EF8E0
:1026B00000E097E8030041F618180EF1FF334FEAE7
:1026C0004C1241F61C17DBB245F80820F62B4FF0F0
:1026D000040286E80300EA550AD88DF800E06E4649
:1026E0000FCE05F5B2750FC596E8030085E8030027
:1026F000012384F8943106B0BDE8F0814FF496418F
:102700009847F9E6A84718E78C98FF1FB90400001E
:10271000A086010041050000CEB1FF1F34800440B7
:10272000ACB1FF1F80E200E080DE0F00388CFF1F9D
:10273000AF4BB0492DE9F041D3F8804123685A6985
:102740008A4214D19B6AAC4A934240F0938041F292
:102750007873E3581879C0F34010002854D141F23F
:102760007873E358DA78110605D4BDE8F081204685
:10277000BDE8F04110471A791206F6D541F2FC5235
:102780004FF4AE75A2589D4805FB024595F83820D8
:10279000511C85F8381021680E6A2A44864292F846
:1027A000391040F00A81D971E38A0133E38295F848
:1027B00038206B6B9B1A002BD7DC95F83930002B37
:1027C00000F0E68023688E4A1B69934240F0058141
:1027D00008F0BAF800EB4000400141F2707141F29C
:1027E000747301226050E2542368864ADB69934285
:1027F00040F0ED8041F278732C22E358DA70172311
:1028000084F83030BDE8F08126687F4A736A41F26F
:10281000FC519342655840F0D38041F27873E358FD
:10282000D879C0B24FF4AE7303FB0543DA6F991841
:10283000013281F88000DA67218B01312183D3F8DE
:102840008C118A421BDA93F98130002B15DB336936
:102850006B4A934240F0B88008F076F800EB4000F5
:10286000400141F2707141F2747302226050E254EF
:10287000BDE8F081204698476FE7042AE7DD336919
:102880005F4A934240F0A68008F05EF800EB4000FB
:10289000400141F2747241F2707604214FF4AE733C
:1028A000A05103FB0543A15493F8391093F88020FD
:1028B000914208D0628C0132628493F8812142F007
:1028C000200283F881214FF4AE7101FB05F16318FA
:1028D000DF6F012F2ADD1946B7F1020C01F18001EB
:1028E00068D0FF20DFF82481DFF824E1024601EB05
:1028F0000C0611F8013B5340B14218F8032082EA5C
:1029000000021EF80300F4D142EA002212B24FF492
:10291000AE7303FB05439C441F449CF8801097F85A
:102920007F3043EA01231BB293420CD0A28C4FF4B8
:10293000AE73013203FB0543A28493F8812142F078
:10294000400283F881214FF4AE7303FB05F3E218D4
:1029500092F8811199B9A18A0131A18292F981205D
:10296000002A0CDAA28B23440132A28393F882302E
:10297000052B38D0062B02D1238C013323844FF44E
:10298000AE7303FB0544242384F88031BDE8F08155
:1029900023681B4A1B69934222D107F0D5FF00EB45
:1029A0004000400141F2707141F2747303226050A3
:1029B000E25419E74FF0FF32A9E72046B047F3E6AB
:1029C0002046984726682DE72046984749E7204645
:1029D000984714E7204698475BE720469847FCE66F
:1029E00020469847DEE7E38B0133E383C7E700BF68
:1029F0008C98FF1F39090000A90400009104000011
:102A000041050000850400009D0400002CEB01003E
:102A10002CEC01002DE9F84FE24CE34DDFF8C0A3A8
:102A200000273946402204F109006760277214F03C
:102A300005F939464FF4807204F15000E76414F050
:102A4000FDF8212384F850314FF0FF3250230F213D
:102A50000520C4F85421C4F870514FF4FA52D34DF4
:102A6000A4F87431D24BC4F86811C4F86C01322157
:102A70006020C4F87821C4F88851CE4AC4F8A43143
:102A800004F5D475012384F85171C4F8840184F8E5
:102A90007C112260C4F86051C4F8805184F864311C
:102AA000C4F8AC3184F85871C4F8907184F894710A
:102AB000C4F8987184F89C71394604F5D8702822BE
:102AC00014F0BCF8142384F8D83104F5EE75002610
:102AD00031464022681D2F602F7114F0AFF84FF07F
:102AE000210805F14C00AF644FF0FF3931464FF437
:102AF000807214F0A3F805F5AE7505F8108C05F892
:102B0000087C45F80C9C05F80F7CAA45DFD141F202
:102B1000AC733146E6544022A74814F08FF8314692
:102B20004FF48072A54814F089F841F6F40541F697
:102B3000F5019C4B04F8058041F6F80041F6FC02D3
:102B400066543146A65444F800901F461C4603F5CF
:102B5000AE568E464FF4AE7C0CFB014207F5AE77C5
:102B600082F8288382F829E3C2F834E387F884E006
:102B700087F8D4E1C7F880E0C7F8C8E0BE42894DC5
:102B800001F101014FF021004FF00002E4D105F501
:102B9000C85141F6241741F6F40C41F6F50E41F602
:102BA0001C194FF02F0805F80C0005F8078005F8F0
:102BB0000E20DFF830A20A6005F809205FFA88FCD1
:102BC000DAF800807E49DFF82092D5F8AC71DFF8A2
:102BD0001CB205F5C95E48F40068CEF80010CAF8CA
:102BE000008040F21338C9F8008041F62818022FFF
:102BF00045F80890734F41F62C194FF45178C7F8F7
:102C0000008045F809704FF012074FF02C098F70C3
:102C10000CF01F080A744FF0010781F803904FF081
:102C20000E0981F8069007FA08F74FF0400141F6C7
:102C300004188BF8001041F608194FF0600145F8B0
:102C4000081041F60C11DFF8848145F80980DFF89F
:102C5000A09145F8019041F6101841F614195A490F
:102C600045F8081041F6301A45F8091041F62518C4
:102C7000DFF880914FF4006B45F80AB04FF0300157
:102C80004FF4004A05F808104FEA6C1CDEF80010FB
:102C9000DFF86481C9F800A0DFF86091C5F8A89159
:102CA0000CBF1546012548F82C700D70DEF8001099
:102CB0000CBF9C2538254D70DEF800100CBF082590
:102CC00010258D724FF4AE7C11460CFB024503F5C6
:102CD000AE7385F8280385F82913C5F8341383F8F3
:102CE000841083F8D411C3F88010C3F8C8109E4232
:102CF0002C4F02F101024FF0210E4FF00005E4D1FC
:102D000041F6F40041F6F50107F800E041F2AC723B
:102D10007D5407F5C85141F6FC030D60BD5407F51D
:102D2000BD5141F2A47241F2A87641F2F07441F231
:102D30009C70FD541423BD513D510D60BD5087F86A
:102D4000D8313D5007F000FE41F6181600EB400068
:102D500041F61C144001B85107F5CA5304263E55EC
:102D600042F2DC0242F2E40142F2E80060261E6018
:102D700042F2F40442F2F803144EBD547E50144A59
:102D80003D541449FD5038463D5109F05BFA39462F
:102D90001148FFF7A7F90E4A10490F48BDE8F84F50
:102DA00009F050BA8C98FF1F68890900C4E7010038
:102DB00000A24A04CCE4010039B0FF1F80B0FF1F1D
:102DC00000B0064010B0044000EE0200007C92000B
:102DD000308CFF1F3D05000088B9FF1F0D4A000021
:102DE00028B0FF1F348004400CB004402FE400E002
:102DF0000070170004E100E080E200E098E40100C8
:102E00002DE9F04F44F25462BF4CC04FA25842F239
:102E1000EC03E5B0FA5007F097FD42F2E00500EB55
:102E200040004301BA487B5107F060F842F2F003DA
:102E300041F61C16F85007F087FDBB5D00EB400023
:102E400040017851002B40F0DC81B04E41F29C7380
:102E500006F5BD55F9582A688A4236D04FF4AE734C
:102E600003FB02F3F01890F828E3BEF1240F2CD1F5
:102E7000891A11F00F013DD042F2E8014FF0010E26
:102E80004FF0250C80F828C306F801E0724490F852
:102E9000291302F00F0200F5EE7E2A60C6F88CE1DD
:102EA00001F0FF02002940F0C88042F2F40190F8DE
:102EB0002902C6F890217258032802F101027250CB
:102EC00000F0ED84642800F0FF8197F894218F4B87
:102ED000002A69D093F87C21362A00F0238193F8E8
:102EE0007C31323B032B5FD8DFE813F097031D03DF
:102EF0002A04BC0242F2E8030122F254C6F88C1103
:102F000091F84D31FFDE95F84D31002B40F0BA823B
:102F1000D0F8800195F85130026895F8501095F876
:102F20005360D268DFF8ECE11B0443EA016395F8D3
:102F300052103343724543EA012141F091834368C3
:102F4000012B02D0022B01F082834B0803F137637F
:102F500003F5D833B3FBF1F141F27873C1F3443692
:102F6000C2581670C258C1F347165670C35801F0C4
:102F70001F019972D7F8801195F8546095F8553073
:102F8000D7F8780141F25C7243EA06238A5841F28D
:102F90006C7601F5BB5502FB03F302FB00F2362011
:102FA0008B5187F87C012A6041F61C15574E7B5DDA
:102FB000002B40F0718141F2A47341F61C11FB58C3
:102FC0004FF4AE72002002FB0372785492F828137B
:102FD000242900F0348492F82823252A00F02F8435
:102FE00041F29C72494DBA5893420CD04FF4AE72E4
:102FF00002FB035393F82823232A04D093F82823B1
:10300000222A00F0FE83152387F8D8313E4E304641
:1030100003F0FCFE44F21023E35C03F0FF02002BFC
:1030200000F00881012A05D144F20E13F25C022A55
:1030300000F05E8465B0BDE8F08F42F2F801D6F88A
:103040009031725896F87C01013201333628725063
:10305000C6F890317FF439AFD6F86C219342FFF671
:1030600034AFD6F880012B4A0368DB68322186F83A
:103070007C1193424FF00001C6F8901140F0EE87AA
:10308000426841F27873022AC2580CBF0021012124
:103090001170C2580CBF9C2138215170C3580CBF0D
:1030A000082210229A72D7F880011B4B026841F265
:1030B0005C71166941584FF4FA6241F26C7E02FB72
:1030C00001F203FB01F340F80E2000F5BB51134A57
:1030D0000B6096424FF0010387F89C3140F0BB87AC
:1030E00007F032FC00EB400040010D4BC7F8A00197
:1030F000012287F89C2103F5F361002223F8022FB7
:103100009942FBD1E1E600BF88B9FF1F8C98FF1FF1
:10311000ACFEFF1FB9040000A086010041050000BD
:10312000CEB1FF1F41F29C7229689A58521A02F0E0
:103130000F02012A3FF738AF42F2DC029A5C022A02
:1031400000F09187042A00F0A584002A7FF42CAFB8
:10315000BE491A720868DA721A735A739A73DA736C
:103160008DF885218DF886218DF887218DF88821AD
:10317000421C93F864C1C3F854010A600920642218
:103180004FF0FF0EB24EB34D586083F809C09A72EB
:1031900003F109017046103311F8012BDFF8C082EA
:1031A00042409942B05C8EEA000015F802E0F3D18B
:1031B00040EA0E231BB2C3F3072613254FF4A8726F
:1031C00088F81130684688F81060C8F85C5107F03C
:1031D00077FA08F104030ECB08F5D470FDF7F0FE82
:1031E0000023212288F8502188F8083088F85131CE
:1031F00088F85831C8F85C31C8F80430C8F84C3049
:10320000D2E641F6181241F2A473BA5857F8038077
:103210005B9207F099FB00EB400040015C90BB5DC6
:10322000013B032B3FF611AEDFE813F0E700AD00E2
:103230009600930044F20E13F35C012B00F05C83C4
:1032400044F22413F25042F2E00342F2E402E35863
:10325000A258934210D0804E351D06F108073268FF
:103260001A402244013392F8D8002B6008F0F6FA95
:103270002B683A689342F2D144F2FC03774AE15C4E
:1032800000293FF4D7AE44F2102001240021145449
:10329000D15465B0BDE8F08F41F61813F3585D9333
:1032A00007F052FB00EB400040015E90735D013B74
:1032B000032B3FF6ABAEDFE813F00400040004007C
:1032C000CA025E9B5D9BA1E69EF84E109EF84F30B1
:1032D00041F6F23243EA0123B3529EF850109EF8B1
:1032E000513041F6F03243EA0123B3529EF85210B6
:1032F0009EF8533041F6FE3243EA0123B3529EF862
:1033000054109EF8553041F6FC3243EA0123B35283
:103310009EF856109EF8573006F5E05243EA012316
:10332000138041F6E4339EF85820F2529EF859106B
:103330009EF85A3041F6E83243EA0123B3529EF830
:103340005B109EF85C3041F6A44243EA0123B3527D
:10335000BBE55C9B5B9B78E541F610125C9B5B993F
:10336000BA583F4D5B1A93427FF66FAD07F0ECFA07
:1033700041F6181600EB400041F61C1243010421EF
:10338000AB51A95461E541F60C125C9B5B99BA58AC
:10339000334D5B1A93427FF658AD07F0D5FA41F6EC
:1033A000181600EB400041F61C124301AB510421FA
:1033B0004FF4AE73A95403FB0853D3F834230132FE
:1033C00000F0B08693F82903B5F8D011B5F8D221F2
:1033D00040F0080083F82903013101321823A5F8D1
:1033E000D011A5F8D22185F8D8314FF4AE7303FB84
:1033F0000878242388F8283327E541F608125C9BD7
:103400005B99BA58164D5B1A93427FF61EAD07F0D2
:103410009BFA41F6181600EB400041F61C124301DE
:10342000AB5104214FF4AE73A95403FB0858B5F80F
:10343000CE3198F82923242142F01002013388F874
:103440002923A5F8CE3188F82813FEE400010020D6
:103450002CEB01002CEC010064DAFF1F88B9FF1F80
:103460008C98FF1F42F2E8030021FA5CAA48F95445
:10347000002A3FF499ADD0F88C5195F84D30412B8E
:103480003FF441ADD7F88001A44A0368DB683225D8
:103490000021934287F87C51C7F8901141F0CF800A
:1034A000426841F27873022AC2580CBF0021012100
:1034B0001170C2580CBF9C2138215170C3580CBFE9
:1034C000082210229A72D7F88001954B0568954E14
:1034D0002D6941F25C714FF4FA62415841F26C7E01
:1034E00002FB01F203FB01F300F5BB5140F80E2093
:1034F000B5424FF001020B6087F89C2141F0A48097
:1035000007F022FA00EB40004001874BC7F8A0010A
:10351000012287F89C2103F5F361002223F8022F92
:103520008B42FBD140E542F2E8030021FA5C7A4885
:10353000F954002A3FF438ADD0F88C6196F94D303B
:103540008B421ADB33688B4212DD717996F84C207E
:10355000914212D10433F51806F14C02731D05E0B7
:1035600013F8010F12F8011F884206D19D42F7D1CE
:1035700096F84D21002A00F00783D7F88001674AAA
:103580000368DB6832250021934287F87C51C7F835
:10359000901141F02581426841F27873022AC258A5
:1035A00018BF01211170C2580CBF9C2138215170E5
:1035B000C3580CBF082210229A72D7F88001584BCA
:1035C0000568584E2D6941F25C714FF4FA6241581A
:1035D00041F26C7E02FB01F203FB01F300F5BB51EB
:1035E00040F80E20B5424FF001020B6087F89C2195
:1035F00041F0F38007F0A8F900EB400040014A4B8E
:10360000C7F8A001012287F89C2103F5F36100228D
:1036100023F8022F9942FBD1C6E4D7F880013E4936
:1036200041F2F45341F2F852C35882589B1A1A07D8
:103630007FF4BAAC91F89C31002B3FF4B5AC036831
:10364000384A1B69934241F0DA8007F07DF900EBBC
:1036500040004001D7F8A011D7F8A4212E4B401A02
:103660009042FFF4A1AC314D93F864E12A68C3F8AD
:10367000542142F2E800511C0826002229604FF034
:10368000060CFF211D5C83F89C211A54C3F8982175
:103690001A72DA721A739E7283F809E0C3F804C0D2
:1036A00003F109000A460C33214E224D01E010F8C7
:1036B00001EF8EEA020E984216F80E2082EA01020D
:1036C00015F80E10F3D142EA01231BB2C3F307260B
:1036D00006254FF4A8721849BB73C7F85C516846B9
:1036E0007E73D7F8605106F0EBFF144B28460ECBE3
:1036F000FDF766FC21210023332287F850113B722D
:1037000087F8513187F85831C7F85C317B60FB642A
:1037100087F87C2148E400BF8C98FF1FB9040000A3
:10372000A086010041050000CEB1FF1F000100206E
:103730002CEB01002CEC01009C98FF1F9098FF1FC0
:1037400042F2E8030022F95CC44DFA54002900F06B
:103750008980D5F88C3193F84D31002B00F08280B0
:10376000D5F88001BE490368C5F89021DB68322294
:103770008B4285F87C2140F0C287426841F2787321
:10378000022AC2580CBF002101211170C2580CBF7F
:103790009C2138215170C3580CBF082210229A7204
:1037A000D7F88001AF4B0568AF4E2D6941F25C71CF
:1037B0004FF4FA62415841F26C7E02FB01F203FBC6
:1037C00001F300F5BB5140F80E20B5424FF0010265
:1037D0000B6087F89C2140F08F8707F0B5F800EB6D
:1037E00040004001A14BC7F8A001012287F89C21AD
:1037F00003F5F361002223F8022F8B42FBD1FFF780
:10380000D3BB2321162283F8281385F8D82107F08B
:103810009BF805F5C95300EB40001A6841F61817EC
:1038200041F61C164301EC210120EB51A855D17043
:10383000B5F8BA310344A5F8BA31FFF7E7BB013355
:1038400041F2A47203F00F03BB50FFF7C9BB41F66E
:1038500014125E9B5D99BA585B1A93427FF6D6AB01
:10386000FFF7A9BBD7F880217C4D41F2F45341F218
:10387000F851D35852589B1A1B077FF495ABB5F8F3
:103880007421D5F8703195F8641100922846012210
:10389000FEF772FB352385F87C31FFF785BB9EF878
:1038A00009C09EF80A109EF807009EF8082001EB58
:1038B0000C2102EB002289B292B200293FF405AB41
:1038C000114406EB420201F6A141334402F5CA500D
:1038D00006EB4106023003F22A214A7811F8023F32
:1038E00003EB022320F8023F8642F6D1FFF7EDBA40
:1038F0000022F254FFF79EBB44F224103558002DED
:1039000079D144F2281733503C2230461E21F5511C
:1039100003F052FC3046022102F0BAFF3046722119
:1039200002F0B6FF4826DFF8688109E0504F013504
:10393000ADB23146384602F0ABFF18F8056046B12B
:10394000022E01D0102EF1D11021494802F0A0FF23
:10395000ECE71921384602F09BFF0321384602F0BC
:1039600097FF0221884601254FF00409384602F0EE
:103970008FFF1A234FF0FF323E493F488DE8200366
:1039800001F06CFD06234FF0FF328DE808033B4940
:103990003B481A2301F062FD2946374801F008FD33
:1039A000384801F087FC44F2A03A44F2A13336488B
:1039B000FE5407F80A5001F07DFC44F2202B44F23B
:1039C0001C5144F250607D5457F80B2017F80A3010
:1039D0003E5442F2DC012B485654002B71D101F0C9
:1039E00061FC44F20E130121E35C44F2A1328B42EC
:1039F000A1547FF428AC25491D4E0B685A9344F21C
:103A0000182244F21C205A9BA558205C5B1B834261
:103A10007FF619AC0B685993599B1748B35001F0C6
:103A20009DFC002840F0A1851548114D01F096FC41
:103A3000002840F0198444F2A133E35C002B40F0ED
:103A4000718544F250630A4DE35C002B40F0E6833D
:103A5000074803F005FCFFF7F6BB00BF8C98FF1F7B
:103A6000B9040000A086010041050000CEB1FF1F8F
:103A700088B9FF1F58E801002CFDFF1F60E8010016
:103A800044FDFF1F1CFDFF1F98FEFF1F04010020C7
:103A9000CCE70100559306F057FF559B42F2E00238
:103AA00042F2E4019A58595800EB4000C2EB401230
:103AB0008A4240F2868542F2DC030022FA54FFF784
:103AC00073BA07F80A6001F063FC0C2157F80B2069
:103AD0000291C34900951620232303900193A1F579
:103AE000B870C04B06F092F8BF49C04B0093192242
:103AF0000192BF4BBF4A01F5827001F065FF46F2AB
:103B0000A811BD4801F07EFFC8230093FF22642363
:103B10006921B94801F07EFFB74801F0DBFB4FF4A3
:103B20007A710691AE49079513274FF496720F23C9
:103B300004920293A1F14400059603960195009723
:103B40000823AE4A01F038FDA549AD4A05920A2383
:103B50000293A1F11C000097CDF8189004950396EC
:103B6000CDF804800523A74A01F0E0FD9C490097A9
:103B7000092202920396CDF804802B46A24AA1F1B5
:103B8000280001F073FD2CE7D7F89811D7F86801E9
:103B90009E4B01318142C7F89811C0F20D82DFF8C7
:103BA00080921A72D9F800605A73012506F1010A51
:103BB0004FF008084FF0030C4FF0900E1222C3F89C
:103BC000546103F10906C3F804805D72DD7283F865
:103BD0000AC083F80CE09A738D488E49C9F800A09A
:103BE00003F10E05B6464FF0800C4FF08108FF221E
:103BF00007E01EF8012F5340624610F8038011F8C9
:103C000003C088EA02037545DBB2F2D143EA0C2314
:103C1000DFF81082D7F860A11BB24FF0290E3B7479
:103C2000C3F30723C7F85CE108F10C014FF4A87255
:103C3000FB73684606F044FD98E80E005046FDF719
:103C4000BFF9D9F80030C7F854315A1C4FF0080AB0
:103C50000023012021214FF0030BC9F80020B022DE
:103C600087F85011C7F804A087F8513187F80EA0E3
:103C70007872F8723A73DFF898C1DFF898E13B7216
:103C8000C7F85C3187F85831FB647B7308F1050194
:103C900087F80AB080204FF0810AFF2207E011F870
:103CA000012F534002461CF803A01EF803008AEAC5
:103CB00002038D42DBB2F2D143EA00231BB24FF084
:103CC000150ED7F860A13B74C3F30723C7F85CE176
:103CD0005149FB734FF4A872684606F0F1FC98E86E
:103CE0000E005046FDF76CF9D9F80030C7F8543192
:103CF00021205A1C002387F850014FF0080A87F84A
:103D000051313873C9F80020012003223B72C7F8F3
:103D10005C3187F85831FB64FB727B733823C7F83A
:103D200004A07872BA723D49DFF8E4C0DFF8E4E03D
:103D3000BB7380204FF0810AFF2207E011F8012FAA
:103D4000534002461CF803A01EF803008AEA02034F
:103D50008D42DBB2F2D143EA00231BB24FF0750E65
:103D6000D7F860A13B74C3F30723C7F85CE12A4985
:103D7000FB734FF4A872684606F0A2FC98E80E00A8
:103D80005046FDF71DF9D9F80030C7F854315A1CD8
:103D90002120002387F850014FF0080A012087F8FE
:103DA0005131C9F800203B720322C7F85C3187F813
:103DB0005831FB64FB727B734FF0600B0B23C7F829
:103DC00004A07872BA721549DFF844C0DFF844E005
:103DD00087F80CB0BB7380204FF0810AFF222BE0E4
:103DE0001CFDFF1F6CE80100C8FBFF1F8CE80100F1
:103DF00078E8010080E80100CCFCFF1F9CE801008E
:103E0000B4E80100A8E80100BCE801008C98FF1F9D
:103E10002CEB01002CEC01009C98FF1F9598FF1FD4
:103E2000000100209098FF1F11F8012F5340024617
:103E30001CF803A01EF803008AEA0203A942DBB2C1
:103E4000F2D143EA00231BB24FF01B0ED7F860A15A
:103E50003B74C3F30723C7F85CE1AB49FB734FF432
:103E6000A872684606F02CFC98E80E005046FDF754
:103E7000A7F8D9F80030C7F854315A1C4FF0210A7E
:103E80000023082087F850A1C9F800204FF0010A4C
:103E9000032287F851313B72C7F85C3187F85831FB
:103EA000FB64FB727B7370237860B87387F809A09A
:103EB000BA729649DFF860C2DFF854E23B738020A3
:103EC00081224FF0FF0A07E011F8012F534082468C
:103ED0001CF803201EF803008AEA02038D42DBB2BD
:103EE000F2D143EA00231BB24FF0150ED7F860A1C0
:103EF0003B74C3F30723C7F85CE18349FB734FF4BA
:103F0000A872684606F0DCFB98E80E005046FDF704
:103F100057F8D9F80030C7F854315A1C2121002332
:103F200087F850114FF0010C032187F851314FF001
:103F3000080AC9F800203B721622C7F85C3187F8DE
:103F40005831FB64FB727B73802387F809C0B97218
:103F5000BA73DFF8C4E16E48C7F804A03B73194692
:103F600081224FF0FF0C06E016F8012F53408C46DB
:103F70001EF80320C15C8CEA0203AE42DBB2F3D12F
:103F800043EA01231BB2D7F860513B743126C3F3D7
:103F900007235D49FB734FF4A8726846C7F85C615C
:103FA00006F08EFB98E80E002846FDF709F821215F
:103FB00000233422FFF7A1BB564993F864E1086857
:103FC0001A7200F10108DA721A73C3F854014FF043
:103FD000060C0820FF229872C1F8008083F809E0DF
:103FE000C3F804C003F109004B4E494D11460C3390
:103FF00001E010F801EF81EA0E0E834216F80E1070
:1040000081EA020115F80E20F3D141EA02231BB226
:10401000C3F3072606254FF4A8723B49BB73C7F8C4
:104020005C5168467E73D7F8605106F049FB3B4B04
:1040300028460ECBFCF7C4FF0023212287F850212D
:104040003B7287F8513187F85831C7F85C317B6093
:10405000FB64FEF7A9BFB047FFF747B84FF496419E
:104060009847FFF720B8559306F06EFC559B42F237
:10407000E00242F2E4019A58595800EB4000C2EBCA
:1040800040128A423FF617AD42F2EC02214D9A5897
:10409000296893F864E1DA731016187301F10108C6
:1040A0008DF888218DF885011014121258739A73B7
:1040B0004FF0090CC3F8541183F809E064218DF81E
:1040C00086018DF8872100201C22C5F800804FF062
:1040D000FF0E114E0E4D9972DA72C3F804C01872B9
:1040E00003EB0C017246103311F8010BDFF830803E
:1040F00050409942325C8EEA020215F800E0F3D19A
:1041000042EA0E23FFF756B89C98FF1F9598FF1FB1
:104110002CEC0100000100202CEB01009098FF1F07
:104120008C98FF1F93F8E11193F8282291420AD04E
:10413000B5F8CA1193F82923013142F02002A5F8FD
:10414000CA1183F829234FF4AE7303FB08F3FA185E
:10415000CC49D2F82402012829DD0B44B0F1020E2B
:1041600003F50A7100F048834FF0FF0CC64EC74DAF
:10417000624601EB0E0911F8013B53408945F25CA0
:104180008CEA020215F803C0F5D142EA0C231BB2F7
:104190004FF4AE7202FB0872964410449EF8281247
:1041A00090F8272242EA012212B29A420ED04FF42E
:1041B000AE7303FB0873B7F8CC2193F829130132CF
:1041C00041F0400183F82913A7F8CC214FF4AE72D7
:1041D00002FB0872AB4B92F8291300297FF405A962
:1041E000B3F8BC1192F9290201310028A3F8BC11DF
:1041F000BFF6FBA8B3F8C4110131A3F8C41192F8BB
:104200002A22052A00F0F182062A7FF4EEA8B3F8EC
:10421000C8210132A3F8C821FFF7E7B89C4806F08F
:1042200083F99C4B9C4A186844F2D43103686F5858
:104230005B6841F6F03644F22051BE596E5093420D
:1042400040F0C78206F080FB00250646904805F046
:104250004BFE324600902B46904801F0C9FB904837
:1042600005F0E8FCFFF7F4BB8E4801F023F844F2B8
:104270001C5344F2A132EB5C8B480026AE54002B59
:1042800040F0F18101F00EF844F2D433DFF81C92D3
:10429000E758D9F8003044F25060012242F2DC06BF
:1042A00022544FF0040E1525102039467A72002250
:1042B00007F806E085267D60B872C7F854310C20F7
:1042C000062501333E733A72FA727A73BD73C9F8E8
:1042D000003001F80F0F8DF87D6188238DF8800183
:1042E0004FF0C80E381D132655908DF884218DF897
:1042F00086218DF887218DF888218DF889218DF808
:104300008A218DF88B218DF88E218DF88F218DF8E3
:104310007C218DF87E218DF87F518DF885E18DF817
:104320008C6161A88DF88D31072301E010F8012F11
:1043300001F8012F0133132BF8D107F10908FF20F1
:10434000514E524D4146034607F11C0E11F8012B08
:104350005A408E45B35C83EA0003A85CF6D15599B8
:10436000D7F860A143EA00231BB2C3F3072201F18F
:104370000C004FF0080B014656907B773A77C7F850
:104380005CB14FF4A872684606F09AF95599504608
:104390000EC9FCF715FED9F80020C7F854210121F9
:1043A00021204FF0060EBA46002387F850010A4438
:1043B000952087F80AE04FF0FF0E87F851313B72E5
:1043C000C7F85C3187F85831FB64FB727B737972F4
:1043D0003873C7F804B0C9F800200AF80E1F80200F
:1043E00041468122734608E011F801CF83EA0C0CA4
:1043F000034616F80C2015F80C0053408A45DBB232
:10440000F2D143EA00231AB2C2F307214FF0080B9E
:10441000D7F860313A74F9734FF4A8725699C7F817
:104420005CB16846579306F04BF9579B1846559B6D
:104430000ECBFCF7C5FDD9F80010C7F854112120A8
:1044400087F8500104200023012201F1010C4FF0F4
:10445000060E7873812087F851313B72C7F85C31C2
:1044600087F85831FB64FB72BB737A723A73C7F8F2
:1044700004B0C9F800C087F80AE08021FF22034693
:104480001FE000BF8C98FF1F2CEB01002CEC0100FB
:10449000ACFEFF1F348CFF1F5105000060FDFF1FA5
:1044A0006CFDFF1F1CFDFF1F98FEFF1F0001002079
:1044B00018F801EF83EA0E0E0A4616F80E3015F8CA
:1044C0000E105340D045DBB2F2D143EA01231BB2B8
:1044D000C3F3072108223B74F973C7F85C2156998E
:1044E000D7F860514FF4A872684606F0E9F8559B7A
:1044F00028460ECBFCF764FD0021212387F85031BC
:10450000397287F8511187F85811C7F85C11796032
:10451000F964BE4800F04CFF0121BD4800F048FF9F
:10452000FFF789BABB4805F085FBBB4BBB4A18684F
:1045300003685B68934240F0658106F005FA002548
:104540000646B74800F050FE324600902B46B5486C
:1045500001F04EFA44F2202241F6F033A258B2485C
:10456000D15801F079F9FFF76CBA44F2142342F202
:10457000DC07F358AD484FF0000803F8078000F05F
:1045800099FE44F2202544F2506244F2A03306F82A
:1045900002807159F25CA64801F80780002A40F0B9
:1045A000B38000F07FFE44F2A13201231946974800
:1045B000A35400F0FDFE0021954800F0F9FEFFF73E
:1045C00033BA42F2F0029B4D9A58296893F864E19D
:1045D000DA731016187301F101088DF888218DF82F
:1045E00085011014121258739A734FF0090CC3F816
:1045F000541183F809E064218DF886018DF8872134
:104600000020C5F800801E224FF0FF0E8A4E8B4D11
:1046100018729972C3F804C0DA7203EB0C01704689
:10462000103311F8012BDFF84C8242409942B05C04
:104630008EEA000015F802E0F3D1FEF7B9BD4FF4A1
:1046400096419847FEF73FBFA847FEF75EBF4B086D
:1046500003F1B76303F55843B3FBF1F1FEF77CBCFC
:104660009047FEF787BC00F093FE754A4FF01308A1
:10467000101DA2F11001CDF80080052305F046FFC2
:1046800044F2D4320C21AA580291162367490393AD
:10469000012723230193A1F596700097694B05F03C
:1046A000B5FA05F588411922674B01920093674AD4
:1046B000674BA1F1280001F087F946F2A81165487F
:1046C00001F0A0F9C8230093FF2264236921614807
:1046D00001F0A0F95F4800F0FDFD0A210291534965
:1046E000CDF80080022201923B4603965A4AA1F17E
:1046F0000C0000F0BBFFC7E5A847FFF773B84FF405
:1047000096419847FFF74CB806F8038000F040FE4A
:10471000474972594B4B4FF0160E012523260C27A3
:104720008DE8E040A1F5B87005F070FA4B494C4BAC
:10473000009319220192464B4A4A01F5827001F01A
:1047400043F946F2A811374801F05CF9C8230093F9
:10475000FF2264236921334801F05CF9314800F0FD
:10476000B9FD4FF47A7106913149079513264FF43C
:1047700096720F2304920293A1F144000195CDF8A3
:104780001480CDF80C8000960823374A00F014FFFF
:104790000421069126492C4A059202270A230293F6
:1047A000A1F11C0004950096CDF80C80019705231B
:1047B0002E4A00F0BBFF1E49CDF80C800922029260
:1047C0008DE8C0002B462A4AA1F1280000F04EFFD8
:1047D000E9E6984706460D4638E5A847FEF70FBFBD
:1047E0004FF496419847FEF7E8BEB3F8C621013270
:1047F000A3F8C621FEF7F9BD4FF0FF33C8E4984790
:10480000FEF728BF984706460D469AE62CFDFF1F87
:1048100044FDFF1FACFBFF1F348CFF1F5105000040
:10482000D8FCFF1FCCFCFF1F00FDFF1F98FEFF1FE1
:104830001CFDFF1F000100202CEB01002CEC0100EF
:10484000A8FEFF1F6CE80100B4E80100E0E80100E9
:1048500078E8010060FDFF1FF0E80100C8FBFF1FC2
:104860008CE8010080E801009CE80100A8E8010054
:10487000BCE801008C98FF1F70B5624B036000F527
:104880008A44054604F5947001F022F904F5887015
:1048900001F01EF904F1F40001F04AF904F1D80026
:1048A00001F046F904F1BC0001F042F904F1B00056
:1048B00005F5874600F0B8FC04F1940001F020F9FA
:1048C00006F5C87000F0AEFC06F5C27000F0ACFC56
:1048D00006F5B27000F0ACFC06F5AC7000F0A8FC78
:1048E00006F5A67000F0A4FC06F5A07000F0A0FC90
:1048F00006F59A7000F09CFC06F58C7001F000F94A
:1049000006F1FC0001F014F906F1E00001F010F9E5
:1049100006F1C40001F00CF906F1A80001F008F955
:1049200006F18C0001F004F905F5884000F07EFCEA
:1049300006F1740000F078FC06F1580000F078FCF5
:1049400005F587403C3001F0C3F805F5874005F5D3
:104950008446243001F0BCF806F5CA7000F062FC11
:1049600006F5BC7001F0E4F806F5B67000F05CFCEA
:1049700006F5A870344601F0C3F806F5A27000F001
:1049800057FC04F5927000F053FC04F58C7000F0B5
:104990004FFC04F5867000F04BFC05F5864000F0F6
:1049A00047FC04F1F40000F043FC04F1D80001F0EE
:1049B000A7F804F1BC0001F0BBF804F1A00001F07D
:1049C000B7F804F1840001F0B3F804F1680001F0D5
:1049D000AFF804F14C0001F0ABF804F1400000F036
:1049E00025FC04F1340000F01FFC2846064B40F87B
:1049F000D03B00F0BDFC284644F2606107F004F9AA
:104A0000284670BD2CE5010054E4010070B5604BF0
:104A1000036000F58A44054604F5947001F058F8E7
:104A200004F5887001F054F804F1F40001F080F806
:104A300004F1D80001F07CF804F1BC0001F078F832
:104A400004F1B00005F5874600F0EEFB04F1940098
:104A500001F056F806F5C87000F0E4FB06F5C270E8
:104A600000F0E2FB06F5B27000F0E2FB06F5AC7078
:104A700000F0DEFB06F5A67000F0DAFB06F5A0708C
:104A800000F0D6FB06F59A7000F0D2FB06F58C70AC
:104A900001F036F806F1FC0001F04AF806F1E000FA
:104AA00001F046F806F1C40001F042F806F1A80052
:104AB00001F03EF806F18C0001F03AF805F5884067
:104AC00000F0B4FB06F1740000F0AEFB06F15800F4
:104AD00000F0AEFB05F587403C3000F0F9FF05F52E
:104AE000874005F58446243000F0F2FF06F5CA70D1
:104AF00000F098FB06F5BC7001F01AF806F5B670E8
:104B000000F092FB06F5A870344600F0F9FF06F5B8
:104B1000A27000F08DFB04F5927000F089FB04F5A3
:104B20008C7000F085FB04F5867000F081FB05F5C4
:104B3000864000F07DFB04F1F40000F079FB04F105
:104B4000D80000F0DDFF04F1BC0000F0F1FF04F13B
:104B5000A00000F0EDFF04F1840000F0E9FF04F193
:104B6000680000F0E5FF04F14C0000F0E1FF04F103
:104B7000400000F05BFB04F1340000F055FB2846D8
:104B8000044B40F8D03B00F0F3FB284670BD00BF5B
:104B90002CE5010054E401002DE9F04F99B0002507
:104BA0008846044602AE0846C749009601958DF82E
:104BB000085012F069FB00BB02210746204601F0B5
:104BC00067FE7221204601F063FEDFF8048374253E
:104BD00009E00137BFB22946204601F059FE18F816
:104BE0000750002D7CD0022D4FF01001204601D03F
:104BF0008D42EED101F04CFEEBE7B44B8DF827501F
:104C000093E803000DF1380902230F0C0890ADF86A
:104C100024101A468DF83A500D93072540F60D23BF
:104C200006A849460DF1200A8DF826700795ADF8C3
:104C30003830CDF83090CDF818A007F087FB0DF193
:104C4000500B0746CDF848B057F8083BBB42054625
:104C500000F0A3821293836814936B68139300236C
:104C60002B722F606B60139A1299684607F06EFBE7
:104C70009649404612F008FB07461298584501D065
:104C800006F0C0FF0C98484501D006F0BBFF06981F
:104C9000504501D006F0B6FF002F40F0848102217C
:104CA000204601F0F5FD7221204601F0F1FDDFF80C
:104CB00024820D250AE00137BFB22946204601F0C3
:104CC000E7FD18F80750002D00F0BF81022D4FF0CE
:104CD0001001204601D08D42EDD101F0D9FDEAE767
:104CE0001921204601F0D4FD0321204601F0D0FD1A
:104CF0000221204601F0CCFD44F214122368A15891
:104D00001B6A2046984702218046204601F0C0FDDC
:104D10007221204601F0BCFD98F80070002F4FD1A1
:104D20001921204601F0B4FD0321204601F0B0FD19
:104D30000221204601F0ACFD0221204601F0A8FD31
:104D40007221204601F0A4FD0D21204601F0A0FDB6
:104D50001921204601F09CFD0321204601F098FD19
:104D60000221204601F094FD0221204601F090FD31
:104D70007221204601F08CFD72250027DFF8588152
:104D800008E00137BFB22946204601F081FD18F83E
:104D90000750FDB1022D4FF01001204601D08D4289
:104DA000EFD101F075FDECE701F072FD0135ADB218
:104DB0003946204601F06CFD18F80570002FAFD081
:104DC000022F4FF010012046EED08F42EED101F0BD
:104DD0005FFDEBE71921204601F05AFD0321204633
:104DE00001F056FD0221204601F052FD44F2181256
:104DF0002368A1581B6A2046984702218046204616
:104E000001F046FD7221204601F042FD98F8007045
:104E1000002F4FD11921204601F03AFD03212046F1
:104E200001F036FD0221204601F032FD022120462C
:104E300001F02EFD7221204601F02AFD0D212046B1
:104E400001F026FD1921204601F022FD0321204614
:104E500001F01EFD0221204601F01AFD022120462C
:104E600001F016FD7221204601F012FD6425002795
:104E7000DFF8688008E00137BFB22946204601F01C
:104E800007FD18F807505DB3022D4FF010012046C2
:104E900001D08D42EFD101F0FBFCECE701F0F8FC12
:104EA0000135ADB23946204601F0F2FC18F8057024
:104EB000002FAFD0022F4FF010012046EED08F42CE
:104EC000EED101F0E5FCEBE720E9010074E9010017
:104ED0002CE901007CE9010044E901005CE90100E2
:104EE0001921204601F0D4FC0321204601F0D0FC1A
:104EF0000221204601F0CCFC44F21C122368A15888
:104F00001B6A2046984702218046204601F0C0FCDB
:104F10007221204601F0BCFC98F80070CFBB2046FF
:104F2000192101F0B5FC2046032101F0B1FC204617
:104F3000022101F0ADFC2046022101F0A9FC20462F
:104F4000722101F0A5FC20460D2101F0A1FC2046B4
:104F5000192101F09DFC2046032101F099FC204617
:104F6000022101F095FC01240098B04201D006F026
:104F700049FE204619B0BDE8F08F01F089FC0135EB
:104F8000ADB23946204601F083FC18F80570002FB9
:104F9000C5D0022F4FF010012046EED08F42EED147
:104FA00001F076FCEBE7834BCDF818A093E80700FF
:104FB000534603C302211A800A2700230A4640F6FB
:104FC0000D250D9106A8494607978DF82A308DF8D2
:104FD0003A30ADF83850CDF8309007F0B7F90746C1
:104FE000CDF848B057F8083BBB42054600F0DB80DF
:104FF0001293836814936B68139300232B726B6076
:105000002F60139A1299684607F0A0F96949404643
:1050100012F03AF905461298584501D006F0F2FD13
:105020000C98484501D006F0EDFD0698504501D09A
:1050300006F0E8FD002D49D040465F4912F024F902
:105040000446002847D000248EE71921204601F0AD
:105050001FFC0321204601F01BFC0221204601F029
:1050600017FC44F20813022154F80380204601F093
:105070000FFC7221204601F00BFC98F800704FB92C
:1050800012E00135ADB23946204601F001FC18F8B6
:1050900005704FB1022F4FF01001204601D08F4212
:1050A000EFD101F0F5FBECE72046192101F0F0FB10
:1050B0002046032101F0ECFB2046022101F0E8FB31
:1050C00020460D2101F0E4FB01244DE7204602F0CB
:1050D00059F8012448E7DFF8E4A0DFF8E490DAF8B3
:1050E00000800221404601F0D3FB4046722101F0CE
:1050F000CFFB0D25274608E00137BFB229464046C1
:1051000001F0C6FB19F807504DB1022D4FF0100108
:10511000404601D08D42EFD101F0BAFBECE74046AA
:10512000192101F0B5FB4046032101F0B1FB4046D7
:10513000022101F0ADFBDAF80080DDF80090404676
:10514000022101F0A5FB4046722101F0A1FB99F874
:105150000070C7B94046192101F09AFB404603216F
:1051600001F096FB4046022101F092FBFCE601F0C3
:105170008FFB0135ADB23946404601F089FB19F885
:105180000570002FE6D0022F4FF010014046EED000
:105190008F42EED101F07CFBEBE7102239465846F6
:1051A00005F08EFA59E510223946584605F088FA7E
:1051B00021E700BF94E9010000E60100348CFF1FE5
:1051C000A0E90100027D034622F0010280681A7501
:1051D000704700BF08B5027D034622F001028068D7
:1051E0001A750FF0C3FA08BD037D826923F001032D
:1051F000012A03750EBF8068836893FBF2F0704745
:1052000038B5037D044623F00103806823750FF051
:10521000ADFA0546A0690FF0A9FA014628460FF03D
:10522000ADFB38BD704700BF704700BF704700BF7F
:10523000704700BF024B0A464168186802F02CB85C
:10524000348CFF1F10B50C21044606F0DDFC20460F
:1052500010BD00BF10B50C21044606F0D5FC204659
:1052600010BD00BF10B50C21044606F0CDFC204651
:1052700010BD00BF10B50C21044606F0C5FC204649
:1052800010BD00BF024B4168186802F029B900BF89
:10529000348CFF1F024B4168186802F061B900BFEF
:1052A000348CFF1F024B4168186802F099B800BFA8
:1052B000348CFF1F024B4168186802F0D1B800BF60
:1052C000348CFF1F024B4168186803F0BBBF00BF5E
:1052D000348CFF1F024B4168186803F0F3BF00BF16
:1052E000348CFF1FCB060A460DD5910623D55306F5
:1052F00048BF164B416858BF4FF47A738361144B13
:10530000186801F0C9BF8B060AD44B064CBF42F2A5
:105310001073012383610E4B4168186801F0BCBF14
:10532000510648BF0B4B416858BF64238361084B4B
:10533000186801F0B1BF510648BF074B416858BF1C
:105340000A238361024B186801F0A6BF809698007B
:10535000348CFF1F40420F00A0860100037D23F024
:1053600002020275C3F34000704700BF704700BFE0
:10537000704700BF30B40449044C0A684260551CB1
:105380000D60046030BC7047E8FFFF1FDCE90100DE
:10539000024B4168186801F0E3BF00BF348CFF1F67
:1053A000024B0A464168186802F01AB9348CFF1F94
:1053B000024B0A464168186802F0CCBA348CFF1FD1
:1053C000094AF0B4094C11682568094E4160002370
:1053D0004F1C1760C36006600361037505B1C560AB
:1053E0002060F0BC704700BFE8FFFF1FECFFFF1F0D
:1053F000F8E901002DE9F04186B01646BDF830709D
:10540000BDF834E0BDF838C0BDF83C80F1B1496862
:10541000104D2C684CB1A04208D0224601E09042C9
:1054200004D01269002AFAD1046128600A4C836012
:1054300042682068CDF810808DE88840CDF80CC017
:10544000334602F073FB06B0BDE8F0814FF0FF3148
:10545000DEE700BFF0FFFF1F348CFF1F70B584B084
:10546000BDF82060BDF82450BDF8284002958DE8B5
:105470004800039413460A460021FFF7BBFF04B01F
:1054800070BD00BF0A49F0B40A4C0A6825680A4E8C
:1054900042600023571C01220F60C3600660036155
:1054A0000375C282826105B1C5602060F0BC70479F
:1054B000E8FFFF1FECFFFF1F70EA01002DE9F04F2E
:1054C0008BB01F461646BDF850E0BDF854C0BDF87D
:1054D0005880BDF86830BDF8709000295FD04968E9
:1054E000304D2C684CB1A04208D0224601E09042D9
:1054F00004D01269002AFAD104612860C28A9A4253
:1055000018BFC38219F0100F0AD019F0200F3FD036
:1055100019F0400F14BF244C4FF47A74846109E0F1
:1055200019F0200F2DD119F0400F14BF42F2107462
:1055300001248461199D8268D0F804B0DFF874A05A
:1055400004FB05F59542189A18BF8560CDF82490A4
:1055500004FB02F9179ADAF80000CDF8189004FB62
:1055600002F405941B9C08945A460795CDF81080C8
:10557000CDF80CC08DE8C04002F024FC0BB0BDE8B3
:10558000F08F19F0400F14BF084C64248461D1E7F8
:1055900019F0400F14BF064C0A248461CAE74FF08B
:1055A000FF319DE7F0FFFF1F8096980040420F00FB
:1055B000A0860100348CFF1FF0B58BB0BDF84040D1
:1055C000BDF84470BDF84860139D0094149C019789
:1055D0000296159FBDF8586003950494BDF85C5081
:1055E000044C0597069608950794FFF767FF0BB0E4
:1055F000F0BD00BFB0EA01008269836802FB01F2DE
:105600009A420AD010B5064B826004461868616859
:1056100002F042F8A368184610BD1846704700BF54
:10562000348CFF1F70B5094D4468286884B0BDF8FC
:105630002060BDF8245000930196134602950A4657
:10564000214602F097F804B070BD00BF348CFF1FF4
:1056500030B40449044C0A684260551C0D60046073
:1056600030BC7047E8FFFF1F54EA0100F0B587B077
:1056700004461646BDF83070BDF834E0BDF8385029
:10568000BDF83C0071B14968084A0490106862682E
:10569000039500258DE888403346A56002F0ACFDF7
:1056A00007B0F0BD4FF0FF31EEE700BF348CFF1FB5
:1056B00010B4044C0B4600224168206810BC02F074
:1056C000B1B900BF348CFF1F70B5094D446828681C
:1056D00084B0BDF82060BDF82450009301961346B5
:1056E00002950A46214602F045F804B070BD00BF9D
:1056F000348CFF1F0A49F0B40A4C0A6825680A4E28
:1057000042600023571C01220F60C36006600361E2
:105710000375C282826105B1C5602060F0BC70472C
:10572000E8FFFF1FECFFFF1FB8E901002DE9F0477C
:1057300088B01546BDF84060BDF844C0BDF848804B
:10574000BDF85040BDF8589000295CD049682F4FF3
:10575000D7F800A0BAF1000F0AD0504509D0524640
:1057600001E0904205D01269002AFAD1C0F810A0D9
:105770003860C28AA24218BFC48219F0100F0BD041
:1057800019F0200F37D019F0400F14BF204A4FF402
:105790007A72826192460AE019F0200F23D119F043
:1057A000400F14BF42F21072012282619246139F91
:1057B00082680AFB07F7DFF864A0974218BF87608A
:1057C0004268DAF800000694159CCDF81C908DE82C
:1057D000481005940497CDF80C802B4602F04EFE3D
:1057E00008B0BDE8F08719F0400F14BF094A6422E1
:1057F00082619246DBE719F0400F14BF064A0A2285
:1058000082619246D3E74FF0FF31A0E7F0FFFF1F20
:105810008096980040420F00A0860100348CFF1F44
:10582000F0B589B0BDF83860BDF83C50BDF84040D7
:10583000119F00960195BDF84860BDF84C50029448
:10584000044C0397049606950594FFF76FFF09B083
:10585000F0BD00BFB0EA01008269836802FB01F27B
:105860009A420AD010B5064B8260044618686168F7
:1058700001F012FFA368184610BD1846704700BF1C
:10588000348CFF1F70B5094D4468286884B0BDF89A
:105890002060BDF8245000930196134602950A46F5
:1058A000214601F067FF04B070BD00BF348CFF1FBC
:1058B00030B40449044C0A684260551C0D60046011
:1058C00030BC7047E8FFFF1F38EA01002DE9F041C6
:1058D00088B004461646BDF83870BDF83CE0BDF807
:1058E00040C0DDF84480129DBDF84C0099B1496874
:1058F0000A4A069010686268059500258DE8884080
:10590000CDF81080CDF80CC03346A56002F08CFFB6
:1059100008B0BDE8F0814FF0FF31E9E7348CFF1F9C
:1059200010B5064B4468186882B00B4600922146B9
:10593000002203F007F902B010BD00BF348CFF1F36
:1059400010B5064B4468186882B00B460092214699
:10595000012203F0F7F802B010BD00BF348CFF1F26
:10596000024B0A464168186803F08AB9348CFF1F5D
:10597000024B4A684168186803F0F0B9348CFF1F85
:1059800070B5094D4468286884B0BDF82060BDF842
:10599000245000930196134602950A46214601F0D1
:1059A000E9FE04B070BD00BF348CFF1F30B4044961
:1059B000044C0A684260551C0D60046030BC70479E
:1059C000E8FFFF1F1CEA010070B5084C4E684168F3
:1059D000206884B0089DBDF82440009301951346CB
:1059E0000294324603F028FA04B070BD348CFF1FD5
:1059F00010B4034C4168206810BC03F07FBB00BFAB
:105A0000348CFF1F024B0A464168186803F008BB3C
:105A1000348CFF1F30B5074D4468286883B0BDF84B
:105A200018500093019513460A46214603F08AFC5C
:105A300003B030BD348CFF1F78B10D4A1368ABB191
:105A40004168586888420DD0186930B14268914267
:105A500004D0034618690028F8D1704702691A611A
:105A6000012070471B69136001207047184670477A
:105A7000F0FFFF1F38B50446E0B1134A1368D3B1F5
:105A800041685D688D4218D0D86830B14268914253
:105A900009D00346D8680028F8D10C4A136843F0AF
:105AA0000103136038BDC268DA602046FFF7C4FF07
:105AB000012038BD38BD184638BDDB681360FFF7DC
:105AC000BBFF012038BD00BFECFFFF1FF4FFFF1F2D
:105AD00010B5034B03600446FFF7CCFF204610BD12
