:1000000000800020BD010000519F0000099F0000FA
:10001000099F0000099F0000099F0000099F000040
:10002000099F0000099F0000099F0000519F0000E8
:10003000519F0000099F000041B0000045B0000042
:10004000519F0000519F0000519F0000519F0000F0
:10005000519F0000519F0000519F0000519F0000E0
:10006000519F0000519F0000519F0000519F0000D0
:10007000519F0000519F0000519F0000519F0000C0
:10008000519F0000519F0000519F0000519F0000B0
:10009000519F0000519F0000519F0000519F0000A0
:1000A000519F0000519F0000519F0000519F000090
:1000B000519F0000519F0000519F0000519F000080
:1000C000519F0000519F0000519F0000519F000070
:1000D000519F0000519F0000519F0000519F000060
:1000E000519F0000519F0000519F0000519F000050
:1000F000519F000049340000519F00002D3700003F
:10010000519F0000113A0000519F0000519F0000D4
:10011000519F0000519F0000519F0000519F00001F
:10012000519F0000519F0000519F0000519F00000F
:10013000519F0000519F0000519F0000519F0000FF
:10014000519F0000519F0000519F0000519F0000EF
:10015000519F0000519F0000519F0000519F0000DF
:10016000519F00001DA30000519F0000519F0000FF
:10017000519F0000519F0000519F0000519F0000BF
:10018000519F0000519F0000519F0000519F0000AF
:10019000519F0000519F0000519F0000519F00009F
:1001A000519F0000519F0000519F0000519F00008F
:1001B000519F0000519F0000519F0000564B4CF290
:1001C000205210B51A804DF628121A8000BF00BFC9
:1001D00009F0C2FE514B4FF010621A60504A9A600B
:1001E000504ADA60504A136813F4807304D14F49BF
:1001F0000B604FF4A85313604D4B1A78110703D5C9
:100200001A7842F008021A704A4B4B492A221A7097
:100210004A4A4B4B8B4204D252F8040F43F8040B6A
:10022000F8E7484B484900228B4202D243F8042B9E
:10023000FAE74649464A002352F8230041F82300D2
:1002400001336F2BF8D1434B434A802103F8011B44
:100250009342FBD1414B3D4A1A60414B8A221A70AE
:10026000A3F5805324225A70A0221A709A7992071B
:10027000FCD59A79D406FCD43A4A937903F00C035E
:10028000082B384BF9D103221A7140225A719A79FE
:100290009006FCD5334A9179324B4906FBD5324A58
:1002A000324911600221516020221A709A7902F0BD
:1002B0000C020C2AFAD12E4B2E4A1A602E4B2F4AD2
:1002C0001A6000225A60072243F8042C2C4AC3F813
:1002D0000C2D62B609F0F8FE144B1B68DA0705D541
:1002E000284809F06DFE284B284A1A60284B1B78D5
:1002F0005B0609D5244C254B22689A4204D121483B
:1003000009F05EFE0023236009F02CFE15F0E0FAF0
:100310000AF0BEFFFEE700BF0E200540308004401B
:10032000823F04000100002B10D0034014D0034092
:1003300002D0074000E007407898FF1F4C0A0200F7
:10034000308CFF1F7898FF1F584700200082FF1F46
:100350000000000000E400E05FE400E008ED00E0E1
:100360000050064000400640448004400000030165
:1003700004800440C010050014E000E0FF76010096
:10038000000020202713FD621CE00340A5C3945AFF
:1003900000F00740FFFFFFFFFFFFFFFFFFFFFFFF32
:1003A000FFFFFFFFFFFFFFFFFFFFFFFFFFFFFFFF5D
:1003B000FFFFFFFFFFFFFFFFFFFFFFFFFFFFFFFF4D
:1003C000FFFFFFFFFFFFFFFFFFFFFFFFFFFFFFFF3D
:1003D000FFFFFFFFFFFFFFFFFFFFFFFFFFFFFFFF2D
:1003E000FFFFFFFFFFFFFFFFFFFFFFFFFFFFFFFF1D
:1003F000FFFFFFFFFFFFFFFFFFFFFFFFFFFFFFFF0D
:10040000FFFFFFFFFFFFFFFFFFFFFFFFDEF9FFFF23
:1004100010B5054C237833B9044B13B10448AFF33E
:1004200000800123237010BD7898FF1F000000009A
:100430008C060200084B10B51BB108490848AFF301
:1004400000800848036803B910BD074B002BFBD0A0
:10045000BDE81040184700BF000000007C98FF1F57
:100460008C0602007898FF1F00000000704700BF54
:10047000002070470020704741F27873EC22C35887
:10048000DA70704741F278732C22C358DA707047E3
:1004900041F27873C358D971704700BF41F2787345
:1004A000C358D879704700BF41F27873C3581879A0
:1004B000C0F34010704700BF4368012B10B401D057
:1004C000022B16D04B0803F1376303F5D833B3FB87
:1004D000F1F141F27873C1F34434C2581470C25838
:1004E000C1F347145470C35801F01F01997210BC36
:1004F00070474B0803F1B76303F55843B3FBF1F1C1
:10050000E7E700BF024642F2E8030021C05CD15495
:10051000704700BF00F5CA5300F5035202331A3288
:10052000002123F8021F9342FBD1704744F21023AD
:100530000022C254704700BF704700BF704700BF21
:1005400008B509F051FD00EB4000400108BD00BFB7
:1005500008B509F049FD002108BD00BF10B541F202
:10056000987104460AF0A0FE204610BD10B584B074
:10057000022268460AF024FE054C009B6846002BC8
:1005800018BF1C460AF082FD204604B010BD00BF13
:10059000F2E4010010B584B0114668460A220AF060
:1005A000FBFD054C009B6846002B18BF1C460AF05B
:1005B0006DFD204604B010BDF2E4010010B584B01A
:1005C0000A2268460AF0D4FD054C009B6846002BC1
:1005D00018BF1C460AF05AFD204604B010BD00BFEB
:1005E000F2E4010010B584B00A2268460AF0ACFDBE
:1005F000054C009B6846002B18BF1C460AF046FDC0
:10060000204604B010BD00BFF2E4010010B504465E
:1006100005E00AF089FBC1B2204605F0C5FA0AF0F0
:10062000BFFB0028F5D110BD10B5044B044640F8BF
:10063000D03B04F083F8204610BD00BF94DA0100DF
:1006400010B5064B044640F8D03B04F077F820463E
:1006500044F218210AF028FE204610BD94DA010069
:1006600010B50446D0F880010B4A03681B69934219
:100670000AD109F0B9FC00EB400040010123C4F8A5
:10068000A00184F89C3110BD98470123C4F8A00153
:1006900084F89C3110BD00BF4105000038B590F8CA
:1006A0009C4114B90024204638BD0546D0F880018D
:1006B0000A4A03681B6993420DD109F095FC00EBCF
:1006C00040004001D5F8A021D5F8A431801A984205
:1006D000E8D3204638BD9847F4E700BF4105000045
:1006E000F8B542F2E40242F2E0038258C358934262
:1006F000054613D000F503573C463E4620341C37D0
:1007000024363A681A402A44013392F8D80023600C
:100710000AF0F4FB236832689342F2D144F2FC03FE
:10072000EA5C32B144F21021012000226854EA54FC
:10073000F8BDF8BD10B503680C4ADB69934284B07C
:100740000ED10A2268460AF0FFFC094C009B68465D
:10075000002B18BF1C460AF099FC204604B010BDBF
:1007600098470446204604B010BD00BFE5050000D0
:10077000F2E4010010B503680C4A1B6A934284B08E
:100780000ED10A2268460AF0F3FC094C009B684629
:10079000002B18BF1C460AF079FC204604B010BD9F
:1007A00098470446204604B010BD00BFBD050000B8
:1007B000F2E40100F8B55C4E5C4D326841F288739A
:1007C00000F5BC5EC358DEF800E041F284771A43BE
:1007D00041F27873C759326040F21332CEF80020EC
:1007E0004FF45176C2583E6012269670C2580026C9
:1007F0001674C2582C26D670C35841F27C770E224C
:100800009A71C35D03F1604303F5644340221A709B
:10081000C25D53119B0003F1604303F56143012660
:1008200002F01F0206FA02F21A600268C35DD26883
:100830003F4F03F01F0E5B1106FA0EF6BA42044654
:1008400045F823606ED14268012A0B4601D0022A86
:100850005DD05A0802F1376202F5D832B2FBF3F3E9
:1008600041F27872C3F34430A1580870A158C3F321
:1008700047104870A25803F01F03937200210A46E4
:1008800023464FF4AE7E21270EFB01400131102993
:1008900080F880714FF0210680F881214FF000052B
:1008A000C0F88C2183F8382083F888215A63DA67EE
:1008B00003F5AE73E8D104F5B0531E4983F84C61DB
:1008C0001D7183F84D5183F8545122681269C3F8A1
:1008D000585141F2F45741F2F85641F2FC501D6074
:1008E0009D648A424FF01403E551A551255084F8C8
:1008F000303014D109F078FB00EB4000400141F2A8
:10090000707141F2747304226050E254F8BD4A08D9
:1009100002F1B76202F55842B2FBF1F3A0E72046BC
:100920009047ECE79047A9E73480044080E200E07C
:10093000B9040000410500000368AA4A9B6A93427B
:100940002DE9F041044640F08F8041F27873C3589E
:100950001879C0F34010002850D141F27873E35861
:10096000DA78110601D4BDE8F0811A791206FAD5B9
:1009700041F2FC524FF4AE75A2589B4805FB02456C
:1009800095F83820511C85F8381021680E6A2A44E1
:10099000864292F8391040F0F580D971E38A01332C
:1009A000E38295F838206B6B9B1A002BDBDC95F803
:1009B0003930002B40F0E98023688C4A1B69934250
:1009C00040F0F98009F010FB00EB4000400141F2DB
:1009D000707141F2747303226050E2542368844AB8
:1009E000DB69934240F0F08041F278732C22E358A7
:1009F000DA70172384F83030BDE8F08126687D4A2C
:100A0000736A41F2FC519342655840F0D08041F244
:100A10007873E358D879C0B24FF4AE7303FB054343
:100A2000DA6F9918013281F88000DA67218B013181
:100A30002183D3F88C118A421ADA93F98130002B82
:100A400014DB3369694A934240F0BB8009F0CCFA69
:100A500000EB4000400141F2707141F274730222D8
:100A60006050E254BDE8F081984774E7042AE8DD5D
:100A700033695E4A934240F0AA8009F0B5FA00EB70
:100A80004000400141F2747241F2707604214FF44B
:100A9000AE73A05103FB0543A15493F8391093F8AA
:100AA0008020914208D0628C0132628493F88121C7
:100AB00042F0200283F881214FF4AE7101FB05F171
:100AC0006318DF6F012F2BDD1946B7F1020C01F11E
:100AD000800100F08380FF20DFF81C81DFF81CE13B
:100AE000024601EB0C0611F8013B5340B14218F8E5
:100AF000032082EA00021EF80300F4D142EA002239
:100B000012B24FF4AE7303FB05439C441F449CF8A0
:100B1000801097F87F3043EA01231BB293420CD038
:100B2000A28C4FF4AE73013203FB0543A28493F809
:100B3000812142F0400283F881214FF4AE7303FB20
:100B400005F3E21892F8811199B9A18A0131A182C5
:100B500092F98120002A0CDAA28B23440132A2836D
:100B600093F88230052B35D0062B02D1238C01332C
:100B700023844FF4AE7303FB0544242384F88031AF
:100B8000BDE8F0812046B04708E72368174A1B6993
:100B9000934213D109F028FA00EB4000400141F2E2
:100BA000707141F2747301226050E25416E72046DE
:100BB0009847266830E72046984708E72046984738
:100BC000EDE72046984746E72046984711E720463C
:100BD000984757E7E38B0133E383CAE74FF0FF32CF
:100BE0008FE700BFA9040000910400004105000048
:100BF000850400009D04000010E1010010E20100E6
:100C00002DE9F843044688460221174605F002F80C
:100C10002046722104F0FEFFDFF87C915525002666
:100C200008E00136B6B22946204604F0F3FF19F871
:100C300006504DB1022D4FF01001204601D08D42DB
:100C4000EFD104F0E7FFECE71921204604F0E2FFC2
:100C50000321204604F0DEFF0221204604F0DAFFE3
:100C60000221204604F0D6FF7221204604F0D2FF74
:100C700098F800604EB912E00135ADB23146204619
:100C800004F0C8FF18F805604EB1022E4FF01001B5
:100C9000204601D08E42EFD104F0BCFFECE71921D1
:100CA000204604F0B7FF0321204604F0B3FF0221E1
:100CB000204604F0AFFF0221204604F0ABFF722172
:100CC000204604F0A7FF3D789DB1002607E00136DD
:100CD000B6B22946204604F09DFFBD5D4DB1022D00
:100CE0004FF01001204601D08D42F0D104F092FF68
:100CF000EDE71921204604F08DFF0321204604F082
:100D000089FF0221204604F085FF0221204604F0DD
:100D100081FF7221204604F07DFF0D21204604F062
:100D200079FF1921204604F075FF0321204604F0C5
:100D300071FF0221204604F06DFF0221204604F0DD
:100D400069FF7221204604F065FF55260025114FEA
:100D500007E00135ADB23146204604F05BFF7E5D11
:100D60004EB1022E4FF01001204601D08E42F0D13C
:100D700004F050FFEDE72046192104F04BFF204618
:100D8000032104F047FF20460221BDE8F84304F0A8
:100D900041BF00BFBCDB0100A8DB01002DE9F0432F
:100DA00087B000258846074602AE084644490096AB
:100DB00001958DF8085015F087FD50B14046414926
:100DC00015F082FD044600283AD0284607B0BDE859
:100DD000F0833D4BDFF8F4801F680221044638465B
:100DE00004F018FF3846722104F014FF622508E071
:100DF0000134A4B22946384604F00CFF18F8045018
:100E00004DB1022D4FF01001384601D08D42EFD187
:100E100004F000FFECE71921384604F0FBFE032143
:100E2000384604F0F7FE3846022104F0F3FE00983D
:100E3000B04243D00AF036FA012007B0BDE8F08393
:100E4000214BDFF88C90D3F800800221404604F05B
:100E5000E1FE4046722104F0DDFE0D2508E001347C
:100E6000A4B22946404604F0D5FE19F804504DB10D
:100E7000022D4FF01001404601D08D42EFD104F019
:100E8000C9FEECE71921404604F0C4FE03214046A8
:100E900004F0C0FE4046022104F0BCFE44F21423DC
:100EA00042F2DC02FB5800989D5403F5035103F510
:100EB00083433C3178338D549D54B9E7012085E755
:100EC0008CE4010048FD0100508CFF1FF4DB0100A1
:100ED000F8DB01002DE9F0438BB00DF12808152552
:100EE00048F8285D894600224146044606AF04A81A
:100EF00004970AF0FDFC009B774906932A4604906C
:100F000008F02EFF009B049A05930026D65448460D
:100F1000724915F0D9FC80B14846714915F0D4FCEE
:100F20000546002800F09D800498B84201D00AF0E0
:100F3000B9F930460BB0BDE8F083022105462046E2
:100F400004F068FE7221204604F064FEDFF8A091F0
:100F5000532608E00135ADB23146204604F05AFE72
:100F600019F805604EB1022E4FF01001204601D055
:100F70008E42EFD104F04EFEECE71921204604F03A
:100F800049FE0321204604F045FE0221204604F0DC
:100F900041FE2368534A5B68934240F0938009F016
:100FA00023F82268504B516A994240F08F800146E5
:100FB0000A2240460AF0F0F8009B4C4A4046002BBB
:100FC00014BF984690460AF061F80221204604F0CA
:100FD00021FE7221204604F01DFE98F800500026E4
:100FE0004DB912E00136B6B22946204604F012FE91
:100FF00018F806504DB1022D4FF01001204601D0D7
:101000008D42EFD104F006FEECE71921204604F0F2
:1010100001FE0321204604F0FDFD0221204604F0DC
:10102000F9FD0221204604F0F5FD7221204604F06E
:10103000F1FD20260025DFF8BC8008E00135ADB2C7
:101040003146204604F0E6FD18F80560B6B1022EE0
:101050004FF01001204601D08E42EFD104F0DAFDAE
:10106000ECE7DDF810800221204604F0D3FD722168
:10107000204604F0CFFD98F80060CEB91921204633
:1010800004F0C8FD0321204604F0C4FD20460221DF
:1010900004F0C0FD012647E704F0BCFD0135ADB208
:1010A0003146204604F0B6FD18F80560002EE5D064
:1010B000022E4FF010012046EED08E42EED104F009
:1010C000A9FDEBE7204698470E466AE702463346FD
:1010D00020468847804678E700DC010018DC0100E4
:1010E0003CDC01005105000095050000F2E4010020
:1010F00024DC010034DC010084B02DE9F041D8B0DB
:101100005FAC4FF4AE7684E80E000546214601A898
:10111000324608F025FE41F2F45741F2F853EC59FB
:10112000EB58E31A03F00F030F2B20D006FB0458F3
:101130000023212088F8800188F8883188F88131DF
:10114000C8F87C30C8F88C3101A9324608F1340067
:1011500008F006FE013404F00F042223012088F871
:101160008031EC5158B0BDE8F04104B07047002028
:1011700058B0BDE8F04104B0704700BF2DE9F0471A
:10118000DFF8C883DFF8C8C3D8F80010DFF8B8E389
:101190000446082300224FF0030990271225481C1B
:1011A00004F109066360012384F80A902773A5738C
:1011B000C8F80000227262736372E372D4B0C4F89C
:1011C00054113046271D04F10E054FF0800981228D
:1011D000FF2307E010F8011F59404B461CF801207F
:1011E0001EF8019053408542DBB2F3D143EA092354
:1011F0001BB2C3F30721D4F860A12374292207F19D
:101200000C09E173C4F85C2149464FF4A8726846A2
:1012100008F0A6FD97E80E005046FFF76DFFD8F8DE
:101220000030C4F854315A1C4FF0210E002308201E
:1012300084F850E101214FF0030EC8F80020B022DD
:1012400084F851312372C4F85C3184F85831E36476
:1012500063736060A07384F80AE02273DFF8F0A281
:10126000DFF8E4C26172E17230464FF0800E8122F5
:10127000FF2307E010F8011F594073461AF80120B8
:101280001CF801E053408542DBB2F3D143EA0E2360
:101290001BB2C3F30721D4F860A123741522E173B4
:1012A000C4F85C2149464FF4A872684608F058FD1E
:1012B00097E80E005046FFF71FFFD8F80030C4F83B
:1012C000543121215A1C84F8501100234FF0080E8C
:1012D00001202173C8F800200321382284F85131FD
:1012E0002372C4F85C3184F85831E364E3726373A9
:1012F000C4F804E06072A273DFF854A2DFF848C2B9
:10130000A17230464FF0800E8122FF2307E010F8D3
:10131000011F594073461AF801201CF801E05340A0
:101320008542DBB2F3D143EA0E231BB2C3F307219C
:10133000D4F860A123747522E173C4F85C21494696
:101340004FF4A872684608F00BFD97E80E0050466F
:10135000FFF7D2FED8F80030C4F854315A1C2121CE
:10136000002384F850114FF0080E012084F8513109
:101370000321C8F8002023726022C4F85C3184F88D
:101380005831E364E37263730B23C4F804E06072C2
:101390002273A373DFF8B8A1DFF8ACC1A1723046A5
:1013A0004FF0800E8122FF2307E010F8011F594003
:1013B00073461AF801201CF801E053408542DBB265
:1013C000F3D143EA0E231BB2C3F30721D4F860A183
:1013D00023741B22E173C4F85C2149464FF4A872C0
:1013E000684608F0BDFC97E80E005046FFF784FE03
:1013F000D8F80030C4F854315A1C2120002384F856
:10140000500108214FF0010E0320C8F8002070227F
:1014100084F851312372C4F85C3184F85831E364A4
:10142000E372637384F809E0A0722273DFF820A1ED
:10143000DFF814C16160A17330464FF0800E812245
:10144000FF2307E010F8011F594073461AF80120E6
:101450001CF801E05340A842DBB2F3D143EA0E236B
:101460001BB2C3F30721D4F860A123741522E173E2
:10147000C4F85C2149464FF4A872684608F070FC35
:1014800097E80E005046FFF737FED8F80030C4F852
:1014900054315A1C2121002384F850114FF0010CC3
:1014A000032184F851314FF0080AC8F80020237254
:1014B000C4F85C3184F85831E364E3726373162234
:1014C000802384F809C0A17223731946DFF880E0F5
:1014D0001D48C4F804A0A27381234FF0FF0C06E05E
:1014E00016F8012F5A408C461EF80230815C8CEAB7
:1014F0000303AE42DBB2F3D143EA01231BB2C3F3D1
:101500000721D4F8605123743122E173C4F85C21BF
:1015100049464FF4A872684608F022FC97E80E008E
:101520002846FFF7E9FD0023212284F85021237289
:1015300084F8513184F85831C4F85C316360E36455
:1015400054B0BDE8F08700BF10E20100D84400208D
:1015500010E101002DE9F0430026ADF2244D1546BF
:1015600089464022314604460DF111001F46BDF860
:1015700040848DF8106014F089FE31464FF480727B
:1015800016A8159614F082FE4A488DF86061D0F8CE
:1015900000E08DF80560694221233D0E3A0C8DF87C
:1015A0005831C9B23B0A4FEA282C8DF859618DF8A1
:1015B000097041260C278DF806500EF101058DF8B3
:1015C00007208DF8083005608DF811908DF8041013
:1015D0008DF80B808DF80AC001AA03978DF8126070
:1015E000CDF85CE10DF11200022301E012F8011FB9
:1015F00000F8011F01330A2BF8D1FF202E4F2F4E88
:101600000DF1110102460DF11B0511F8013B53408C
:10161000A942FA5C82EA0002F05CF6D142EA0023B9
:101620001BB2C3F307214FF4AE768DF81C300C23A8
:1016300032468DF81B105AA80DEB0301D4F88051E7
:10164000599308F08DFB5AA93246B1A808F088FBDF
:1016500041F2F45741F2F85355F80780EB58C3EBC9
:10166000080303F00F030F2B1FD006FB08540023C1
:10167000212084F88001324684F8813184F8883151
:10168000E367C4F88C31B1A904F1340008F068FBB9
:1016900008F1010303F00F032222012084F88021C6
:1016A000EB510DF2244DBDE8F08300200DF2244DE6
:1016B000BDE8F083D844002010E1010010E20100F1
:1016C0002DE9F04F83B00546002488461746446054
:1016D000047201914022214609301E4614F0D6FDC5
:1016E0002146EC644FF4807205F1500014F0CEFDF9
:1016F0004FF0FF32C5F85421E34BE448C5F8887138
:101700000F224FF0210E0527C5F86821502285F8D9
:1017100050E1DF49C5F86C7103FB06F34FF0010E91
:101720004FF4FA57C5F87001A5F87421322005F579
:10173000D47285F8514185F85841C5F8904185F833
:101740009441C5F8984185F89C41C5F8AC81C5F82D
:10175000787185F87C012960C5F86021C5F8802181
:1017600021462822C5F8846185F864E1C5F8A431D2
:1017700005F5D87014F08AFD05F5BC5814222746EB
:1017800085F8D82108F11C0805F5EE744FF0000922
:101790002760277149464022601D14F077FD4FF005
:1017A000210BA76404F14C0049464FF480724FF0BE
:1017B000FF3A14F06BFD04F5AE7404F810BC04F8A5
:1017C000087C44F80CAC04F80F7C4445DED105F5E8
:1017D000BD54A04641F2A873083441F29C7141F215
:1017E000A47245F80190601DC8F80090494645F87C
:1017F000029045F80390402284F8049014F046FDCE
:101800004FF480724946C4F8489004F14C0014F03B
:101810003DFD84F84CB14846C4F850A184F84D9180
:1018200084F8549149462A462B464FF4AE7C0CFB73
:10183000005E013010288EF828B34FF0210A8EF890
:10184000291303F5AE73CEF8341383F8841083F8AC
:10185000D411C3F88010C3F8C8104FF0000EE6D1C1
:101860008C4B84F84CA141F60C1041F6081C4FF447
:101870007A5103FB06F901FB06F184F84DE14FF4C0
:10188000FA63C4F858E145F80C90295041F610105D
:1018900041F6141103FB06F32B506B5041F6041074
:1018A00041F61C117C4B2E5005F801E0C5F8A8311B
:1018B000019B012B00F01F81022B00F0F980002B0F
:1018C00000F0BF8041F62C1041F6301341F6281786
:1018D00005F5C95155F800E0EB5855F807C0086800
:1018E000DFF8C4A16D4FDAF800B04BEA0303CAF881
:1018F000003040F2133B4FF4517A1223CCF800B081
:10190000CEF800A083700B684FF0000A83F810A097
:101910000B682C20D8700B6841F6241E0E2098719D
:1019200015F80E3003F1604303F56443402018704E
:1019300015F80E00D5F8ACC143119B0003F16043CC
:101940004FF0010B03F5614300F01F000BFA00F0AC
:10195000186015F80E00D1F800E0BCF1020F00F09D
:101960001F034FEA60100BFA03F30CBFD446DC46AA
:1019700047F820308EF800C00B680CBF9C20382040
:1019800058700B680CBF0821102199724FF4AE7C7F
:1019900053464FF0210E0CFB0A510AF1010ABAF12D
:1019A000100F81F828E34FF0210081F829334FF020
:1019B0000007C1F8343302F5AE7282F8843082F841
:1019C000D431C2F88030C2F8C830E4D141F2A873F3
:1019D00041F29C7141F2A47284F84C01277184F8A1
:1019E0004D7184F85471C4F85871EF501423A764F2
:1019F0006F50C8F80070AF5085F8D83108F0F4FA8D
:101A000041F6181100EB400005F5CA5341F61C12CF
:101A10004001685042F2DC04042142F2E400A9547F
:101A20001E6042F2E80142F2F40242F2F8032F553E
:101A300045F8009028466F54AF50EF5003B0BDE812
:101A4000F08F41F6241305F5C95141F6251E4FF0DC
:101A50002D0A1348086005F803A041F628134FF03B
:101A60002E0A05F80EA00F4FDFF840C045F803C05E
:101A700041F62C1E41F6301A4FF4806345F80E7083
:101A8000BE4645F80A302BE7B0710B0068890900A3
:101A90000CDB0100A0860100D8DA010080E200E042
:101AA00000A0064044A004403480044040A004400C
:101AB00041F6241E05F5C95141F625174FF0310CAA
:101AC0001E48086041F6281305F80EC04FF0320C8E
:101AD00005F807C041F6301E194FDFF870C045F811
:101AE00003C041F62C1A4FF4805345F80A7045F8AC
:101AF0000E30BE46F4E641F6241305F5C95141F611
:101B0000251E4FF02F0A0F48086005F803A041F684
:101B100028134FF0300A05F80EA00B4FDFF830C045
:101B200045F803C041F62C1E41F6301A4FF400630D
:101B300045F80E70BE4645F80A30D1E600C00640B2
:101B40000CC0044000B0064010B0044008C004407F
:101B50000CB004402DE9F04F0446002685B0A248A1
:101B600020604FF4005AC4F8CC6004F1D000019317
:101B70008846174602F0E0FD52463146C4F8D4606C
:101B800004F1D80014F082FB04F5035542F2E4039B
:101B900042F2D80042F2DC0142F2E002283541F67E
:101BA000FF7B44F800A044F801B02846A650314617
:101BB0005246E65014F06AFB05EB0A0042F2080CAC
:101BC000C0F800A042F2040004F5824345F800B0DA
:101BD00042F20C0045F80C602E5044F2F80C44F22E
:101BE000FC0044F2041A44F80C60804A265444F283
:101BF00008101A6044F20C1C44F80A207C4A225057
:101C00004FF47A7224F80C2044F2141044F2241C8D
:101C100044F22812265044F22C1A9E61DE6144F2EE
:101C20002E1044F80C60DFF8E8E1A65044F2301CB6
:101C300044F2FA121D4644F2FC1324F80A60DEF85E
:101C40000010265224F80C6044F2101CA65204F531
:101C50008440E6524FF0010A4CF250320023C0E9B2
:101C6000022304F80CA0002900F0A48044F2102202
:101C70000121604BA1546048236009F0EBF95F4AF1
:101C80005F4B1268039244F218220399A15044F268
:101C9000142244F21C2144F8028044F220226750AE
:101CA00004F584460199DFF86C91A15004F58B4846
:101CB0002360343608F114084FF0030B4FF0FF3760
:101CC0004FF0000AD9F800305A1CC9F800203046FD
:101CD00006E9080802F09AFE06F10C0002F0AAFFDD
:101CE00006F1180002F0E4FE06F1340002F0E0FE16
:101CF00006F1500002F0DCFE06F16C0002F0D8FEA6
:101D000006F1880002F0D4FE06F1A40002F098FD6E
:101D100006F1C00003F00CF806F1CC0003F008F85F
:101D200006F1D80003F004F806F1E40003F000F82F
:101D300006F1F00002F0FCFF06F5907646F8247CF0
:101D400046F8207C46F81CAC46F8147C4645B9D1D0
:101D500004F58B4604F5904710362437304602F0E0
:101D60000DFD06F1180002F009FD06F1300002F049
:101D700005FD06F1500002F063FD06F16C0002F073
:101D80005FFD06F1880002F0F9FC06F1A00002F008
:101D9000F5FC06F1B800DC3602F0F0FCBE42DDD105
:101DA00044F204121749184BA15020462B6005B08D
:101DB000BDE8F08F1548CBB2082213F0800F02F176
:101DC000FF324FEA430318BF83F0D50312F0FF023E
:101DD000DBB2F2D10131B1F5807F00F8013FEAD1E9
:101DE0000123CEF8003041E794DA010044DC010021
:101DF00058DC010028DB01005C8CFF1FDC44002064
:101E00006CDB010064DC010080DC0100D3430020B6
:101E1000D0430020D44400202DE9F04FAA4BDFF836
:101E2000CCB2AA4AAA4EDA6089B04FF00009A3F8F2
:101E3000109000934C46C8465F464FF0010A009B45
:101E4000DFF884E293F800C0BEE80F0002AD0FC5D2
:101E50009EE803000CF1FF33DBB2F62B85E80300AC
:101E60000CD88DF808C00DF1080EBEE80F0007F57C
:101E7000B2750FC59EE8030085E8030042F2FC033B
:101E800003FB09B3322283F87C21D7F88001C7F81D
:101E9000904103688F4ADB68934240F00F814168AC
:101EA00000F5BB5302299A690CBF00210121117072
:101EB0009A6908BF9C2103F1180318BF382151709B
:101EC0001B680CBF082210229A72D7F88031824A10
:101ED00003F5BA5003F5BB51C5694FF4FA6002FB34
:101EE00005F200FB05F00A60C8603B6887F89CA11A
:101EF000DB687A4A934240F0DE80D7F88001784A66
:101F000003681B69934240F0DD8008F06DF800EB38
:101F10004000400142F2FC0303FB09B3C3F8A001F7
:101F200087F89CA13B6838469B6898476D4B6E4A82
:101F30001968D6F884310B436A490B60D6F87C31B6
:101F400040F213311960D6F880314FF451711960A5
:101F5000D6F8743112219970D6F874311C74D6F801
:101F600074312C21D970D6F874310E21997196F8FC
:101F7000783103F1604303F564434021197096F80A
:101F800078114B119B0003F1604303F5614301F0AD
:101F90001F010AFA01F1196096F878315911890088
:101FA0000A4403F01F030AFA03F31360D7F8A831B9
:101FB0004849DB6807F5D4758B422A4674D1D7F8B7
:101FC000AC11D6F8743102290CBF0021012119701F
:101FD000D6F874310CBF9C2138215970D6F8743171
:101FE0000CBF08211021997200234FF4AE7E2120EE
:101FF0000EFB03210133102B81F8800181F8814110
:10200000C1F88C4185F8384085F888416C63EC67ED
:102010004FF0210105F5AE75EAD102F5B05342F259
:10202000FC0000FB09B083F84C11142183F84D81AA
:10203000C3F8588186F8008086F8508146F8048CF1
:10204000C6F8448046F8108C46F80C8C46F8088C8C
:1020500080F8D811D7F8A83121491B698B4220D1CB
:1020600007F0C2FF00EB4000400142F2FC0303FB1B
:1020700009B303F5C852042109F10109906106F57D
:1020800003561177B9F1030F87F894A107F50357A9
:1020900006F13C0607F13C077FF4D1AE09B0BDE87C
:1020A000F08F10469847E0E701954FF49641284697
:1020B0009847019A98E73846984733E74FF4964196
:1020C000984702E7984725E7388CFF1F20A10700B3
:1020D0005CB0FF1FB9040000A0860100610600008B
:1020E000410500003480044080E200E0B098FF1F0A
:1020F0002DE9F04FA94DE5B0284604F049F844F227
:102100001023EB5C03F0FF04002B00F0EB84012CA8
:1021100000F0E782A24CDFF8A8B2A4F63C13559376
:10212000D9460BF1090A0027A04609F503532C33C1
:102130001A4658939B4B53F82730136007F054FF0F
:1021400009F5035330331A465993974B00EB40007F
:1021500053F827304001C8F80000136007F044FF2F
:1021600042F2FC0303FB07B303F5C85400EB400045
:1021700040011C34C8F80000227809F5D471579149
:10218000002A40F0AD8109F5BC531C3309F5BD545C
:102190001A685693236893420AD04FF4AE7101FB3C
:1021A00003F109EB010595F82803242800F0E480E9
:1021B00099F89431002B00F0838042F2FC0303FB7A
:1021C00007B393F87C21362A00F00F8293F87C3114
:1021D000323B032B74D8DFE813F07C032C031D047F
:1021E0000400D9F80030714A1B68934200F0F5846E
:1021F00048469847002863D0D9F88C4194F84D3070
:10220000412B01F0118042F2FC0303FB07B33222A1
:1022100083F87C21D9F88001654A0023C9F8903100
:102220000368DB68934241F0DD80416800F5BB53F1
:1022300002299A690CBF0021012111709A6908BF17
:102240009C2103F1180318BF382151701B680CBF83
:10225000082210229A72D9F88031564A03F5BA50F2
:1022600003F5BB51C4694FF4FA6002FB04F200FBB2
:1022700004F00A60C860D9F800304F4A012189F89B
:102280009C11DB68934241F0A980D9F880014B4A48
:1022900003681B69934241F0AA8007F0A5FE00EB9A
:1022A0004000400142F2FC0303FB07B30122C3F8E4
:1022B000A00189F89C21D9F8003048469B689847CE
:1022C00042F2FC0303FB07B303F5C8541C34227825
:1022D000002A40F0718142F2FC0303FB07F10BEB93
:1022E000010202F5C85200231377559B1A684FF478
:1022F000AE7303FB02135B4493F82813242900F008
:10230000EA8193F82833252B00F0E581569B1B6862
:10231000934212D042F2FC014FF4AE7301FB07F17D
:1023200003FB02125A44264892F82833232B04D088
:1023300092F82833222B00F0A78342F2FC0303FB20
:1023400007B3152283F8D821559B013703F50353B2
:1023500009F5035908F503580AF5035A3C33032FCE
:1023600009F13C0908F13C080AF13C0A55937FF455
:10237000DCAE65B0BDE8F08FD21A12F00F0221D1A9
:1023800042F2FC0303FB07B342F2E8010120585478
:10239000C3F88C2192F84D31FFDE00BFA8FBFF1F70
:1023A00090B9FF1F9898FF1FA498FF1F0505000014
:1023B000B9040000A086010061060000410500008C
:1023C000B098FF1F42F2FC065A1C06FB07B606F542
:1023D000035E02F00F0209F5EE7322604FF0010C6C
:1023E0004FF02502581885F82823C9F88C018EF87B
:1023F00028C095F82923DFF860E302F0FF0C002ADB
:1024000000F08680D9F8903109F503510133C9F8FD
:1024100090318A6B01328A6396F87C21362A7FF4E8
:10242000C7AED9F86C219342FFF6C2AE322386F8CC
:102430007C31D9F88001C14A0023C9F89031036882
:10244000DB68934240F07186416800F5BB53022976
:102450009A690CBF0021012111709A6908BF9C2163
:1024600003F1180318BF382151701B680CBF0822F4
:1024700010229A72D9F88031B14A03F5BA5003F5A7
:10248000BB51C5694FF4FA6002FB05F200FB05F091
:102490000A60C860D9F80030AA4A012189F89C1165
:1024A000DB68934240F03D86D9F88001A64A036874
:1024B0001B69934240F0488607F096FD00EB400010
:1024C000400142F2FC0303FB07B30122C3F8A00161
:1024D00089F89C21D9F8003048469B68984767E600
:1024E00003F5C8531833559A1B685E93166807F0B6
:1024F0007BFD00EB400040015F902378013B032B04
:102500003FF641AEDFE813F069012A01F900F60059
:1025100009F50356C9F890C1726B0132726395F8E0
:102520002922032A00F02283642A7FF441AE90F826
:102530004E1090F84F2009F5DF5342EA01225A82EB
:1025400090F8501090F8512009F5DF5342EA01222B
:102550001A8290F8521090F8532009F5DF5342EA9E
:102560000122DA8390F8541090F8552009F5DF53D2
:1025700042EA01229A8390F8573090F8561009F5F4
:10258000E05243EA0121118009F5DF5390F8582009
:102590009A8090F8591090F85A2009F5DF5342EAD2
:1025A00001221A8190F85B1090F85C2009F5E55340
:1025B00042EA01229A80FBE503F5C85318331B68F1
:1025C000609307F011FD00EB40004001619023781B
:1025D000013B032B3FF6B8AEDFE813F00400040024
:1025E0000400F302619B609BAEE6569B22681B6869
:1025F0009B1A03F00F03012B3FF762AE09F503545A
:102600001C342178022900F0F582042900F0258588
:1026100000297FF455AE4D4899F864E106688DF8BD
:1026200089118DF88A118DF88B118DF88C11751C1C
:1026300089F8081089F80B1089F80C1089F80D102A
:1026400089F80E1089F80F100924C9F85461642123
:10265000FF263F4A3F4B0560C9F8044089F80A103D
:1026600089F809E03446554609F1100115F8010BC7
:102670006040A942145C84EA06041E5CF6D144EA78
:10268000062242F2FC0312B203FB07B3C2F3072097
:10269000132489F8112089F810004FF4A8726846B5
:1026A000C3F85C4107F05CFB09F104030ECB5798BB
:1026B000FEF722FD0023212289F8502189F80830F5
:1026C00089F8513189F85831C9F85C31C9F80430BA
:1026D000C9F84C30F4E50132559B02F00F021A6044
:1026E00014E644F20E13EA5C022A7FF413AD0022D2
:1026F000EA540FE55F9B5E9B45E509F5C852103231
:102700005F9B5E9912685B1A93427FF63CADD9F8E5
:10271000A8310D4A1B69934240F0FF8407F064FC26
:1027200000EB4000400142F2FC0303FB07B303F55A
:10273000C85204219061117725E500BFB90400005B
:10274000A08601006106000041050000D844002079
:1027500010E1010010E20100B098FF1F09F5C85216
:102760000C325F9B5E9912685B1A93427FF60BAD49
:1027700007F03AFC42F2FC0202FB07B202F5C85332
:1027800000EB40004001579C986119464FF4AE732E
:10279000042003FB06430877D3F88C11013100F0C5
:1027A0009A85B9F8D0110131A9F8D01193F88111A7
:1027B00041F0080183F88111B9F8D23118210133B1
:1027C000A9F8D23182F8D811579A4FF4AE7303FBAF
:1027D0000622242382F88031D5E409F5C852083254
:1027E0005F9B5E9912685B1A93427FF6CCAC07F050
:1027F000FBFB42F2FC0303FB07B303F5C85200EBFB
:1028000040004101042091611077B9F8CE21579919
:102810004FF4AE7303FB06110132A9F8CE2191F8F3
:102820008131242243F0100381F8813181F8802125
:10283000A9E4D9F80030C44A1B68934240F07D8473
:1028400042F2FC0303FB07B303F50353002293F8A2
:10285000280083F8282000283FF432ADD9F88C51A5
:1028600095F94D30002BFFF6CEAC2B68002B14DD14
:1028700095F84C106A7991427FF4C5AC0433EC189A
:1028800005F14C026B1D06E013F8010F12F8011F51
:1028900088427FF4B8AC9C42F6D195F84D110029DE
:1028A0007FF4B1ACD9F89831D9F86821013393425B
:1028B000C9F89831C0F2B481D9F8003048465B6855
:1028C000984742F2FC0303FB07B3342283F87C21D0
:1028D000F6E4D9F8800100F5AF531A4618321433E4
:1028E00012681B689B1A1A077FF4EAACD9F800300B
:1028F000964A1B69934240F0808599F89C31002BE1
:102900003FF4DEAC0368924A1B69934240F088852D
:1029100007F06AFB00EB4000400142F2FC0303FBBE
:1029200007B3D9F8A421D3F8A031C01A9042FFF41C
:10293000C7AC0022D9F8003089F89C211B68824975
:102940008B4240F0698542F2FC0303FB07B303F5B9
:10295000035393F8281083F828207E4C99F864617B
:102960002068C9F8540101302060002106250824A0
:10297000FF20794A794BC9F8981189F8081089F82D
:102980000B1089F80C10C9F8045089F80A4089F82E
:1029900009600146544609F10D0514F8016B4E40DB
:1029A000AC42915D81EA0001985DF6D141EA0023D5
:1029B00042F2FC061BB206FB07B6C3F30721062250
:1029C00089F80E3089F80D10C6F85C21D9F86051ED
:1029D00009F104044FF4A87209F11001684607F0E8
:1029E000BFF994E80E002846FEF786FB002321215C
:1029F000332284F84C1184F84D31C4F8583189F8E9
:102A0000083089F85831C9F80430C9F84C3086F8D4
:102A10007C2155E4D9F800304B4A1B68934240F0C2
:102A2000908342F2FC0303FB07B303F50353002238
:102A300093F8280083F8282030B1D9F88C3193F826
:102A40004D31002B7FF4DFABD9F8803103F5AF5265
:102A50001346183314321B681268D31A1B077FF40D
:102A60002FACB9F87421D9F8703199F8641100923B
:102A700048460122FEF76EFD42F2FC0303FB07B35A
:102A8000352283F87C211BE401441623232082F89D
:102A9000280381F8D831D9F8A8312D4A1B6993420F
:102AA00040F0488307F0A0FA00EB4000400142F2FA
:102AB000FC0303FB07B303F5C852012190611177B2
:102AC000D9F8A831264A9B69934240F0A68009F5BF
:102AD000C953EC221B68DA70B9F8BA310133A9F88E
:102AE000BA3131E444F20E13EB5C012B00F0F080BC
:102AF00044F224130022EA5042F2E00342F2E402DC
:102B0000EB58AA58934210D0164E341D06F1080710
:102B100032681A402A44013392F8D800236008F042
:102B2000EDF923683A689342F2D144F2FC030E4A6D
:102B3000E95C00293FF4EEAA44F2102001240021B0
:102B40001454D154FFF7E6BA050500009D060000B5
:102B500041050000D844002010E1010010E201000E
:102B600079040000841C0020A8FBFF1F467A827AAB
:102B7000C579007A02EB062200EB052092B280B202
:102B8000002A3FF415AB41F27E05024405FB07F530
:102B900000F6A24002F6A14228440B440EEB40008E
:102BA0002A4403F14E0102380EEB42024D7811F82F
:102BB000023F03EB052320F8023F9042F6D1FFF7D6
:102BC000F7BA09F5C8521432619B609912685B1A12
:102BD00093423FF680ABFFF7B7BB42F2FC0303FB27
:102BE00007B303F50353002293F8280083F8282045
:102BF000FFF700BB07F0F8F909F503522432D8F8C3
:102C00000030126800EB4000C3EB4013934240F2E7
:102C10009E8200232370FFF753BB579898475BE7CA
:102C2000B84899F864510468C9F85441661C89F899
:102C3000081089F80B1089F80C100824066006218A
:102C4000FF20B14AB14B89F80950C9F8041089F83E
:102C50000A400146544609F10D0514F8016B4E4037
:102C6000AC42915D81EA0001985DF6D141EA002312
:102C700042F2FC021BB202FB07B2C3F3072006219B
:102C800089F80E3089F80D00C2F85C11D9F860514E
:102C900009F104044FF4A87209F11001684607F025
:102CA0005FF894E80E002846FEF726FA002321225A
:102CB00084F84C2184F84D31C4F8583189F8083033
:102CC00089F85831C9F80430C9F84C30FFF7F8BA20
:102CD00044F22813EB5883B30221284602F09AFFEE
:102CE0007221284602F096FF0D26DFF8488209E09F
:102CF000874F0134A4B23146384602F08BFF18F8F2
:102D0000046046B1022E01D0102EF1D1102180486E
:102D100002F080FFECE71921384602F07BFF032127
:102D2000384602F077FF0221384602F073FF44F282
:102D30000E13FB5C012B7FF4DBAE44F22413744CC6
:102D4000EE5856B3734E336873495C9373485C9A7C
:102D50000B68007844F21824D31A83422A517FF674
:102D6000CBAE6F4F0A600024384606F09FFE04F594
:102D70008B4004302844DC3405F0B2FEB4F5257FE6
:102D800007F590776248EFD133685D9344F21223E0
:102D90005D9AC25203F026FCAEE644F228170122E7
:102DA0002046E651E250022102F034FF2046722113
:102DB00002F030FF54245B4F07E00136B6B22146E3
:102DC000534802F027FFBC5D44B1022C01D0102C07
:102DD000F3D110214E4802F01DFFEEE719214C48B7
:102DE000514F02F017FF0321494802F013FF02215F
:102DF000474802F00FFF0221454802F00BFF722105
:102E00004348264602F006FF492407E00136B6B2E1
:102E100021463F4802F0FEFEBC5D44B1022C01D0C9
:102E2000102CF3D110213A4802F0F4FEEEE71921FC
:102E300037483E4F02F0EEFE0321354802F0EAFE2D
:102E40000221334802F0E6FE0221314802F0E2FEA0
:102E500072212F48264602F0DDFE542407E0013699
:102E6000B6B221462A4802F0D5FEBC5D44B1022C20
:102E700001D0102CF3D11021254802F0CBFEEEE753
:102E8000192123482A4F02F0C5FE0321204802F0F1
:102E9000C1FE02211E4802F0BDFE02211C4802F0C4
:102EA000B9FE72211A48264602F0B4FE612407E0FA
:102EB0000136B6B22146164802F0ACFEBC5D44B104
:102EC000022C01D0102CF3D11021114802F0A2FEE7
:102ED000EEE719210E48DFF8608002F09BFE032127
:102EE0000B4802F097FE0221094802F093FE0221EE
:102EF000074802F08FFE7221054802F08BFE54262F
:102F000026E000BFD844002010E1010010E20100DB
:102F1000A8FBFF1FDC4400209498FF1F348CFF1F88
:102F2000CC3D0020B4DC010030DD0100D0DD01002B
:102F300044DE010088DC010084DE0100AC4F013476
:102F4000A4B23146384602F065FE18F8046046B176
:102F5000022E01D0102EF1D11021A54802F05AFE08
:102F6000ECE71921384602F055FE0321384602F0FD
:102F700051FE44F2142444F2202A44F21C29022176
:102F8000384602F047FE4FF02B0841222D213846EB
:102F9000032603F0D3FA57F80A3057F809203959B5
:102FA00094488DE8400105F07FFD395957F80A3003
:102FB00057F80920CDF80480122001F503513C3167
:102FC0000433043200908C488C4E05F06DFD395965
:102FD00057F80A3057F80920CDF80480202001F571
:102FE00083414FF013084FF00A094FF0140A0833D9
:102FF000083278310090824805F056FD3959814AEF
:10300000814801238DE8000706F02EFD39597F4ADB
:103010007F48CDF808A001F503513C3110238DE81D
:10302000000306F021FD39597A4ACDF808A001F5D0
:10303000834178311E238DE80003774806F014FDA4
:1030400044F20E133268FB5C5B9244F212225B99ED
:10305000B952012B3FF477AE4EE506F0C5FF09F5F6
:1030600003522432D8F80030126800EB4000C3EB62
:10307000401393423FF6CDAD684C599B20681968C8
:1030800099F864618DF88C11451C89F80F10C9F806
:103090005401256008160C1409128DF889010925C0
:1030A00089F80C004FF0000E8DF88A41642089F8F1
:1030B0000D405B4A8DF88B115A4B89F80E1089F838
:1030C00009601E21FF26C9F8045089F80B1089F801
:1030D00008E089F80A003446554609F1100115F850
:1030E000010B6040A942145C84EA06041E5CF6D120
:1030F00044EA062442F2FC0324B203FB07B3C4F300
:103100000720132589F8100089F811404FF4A872A0
:103110006846C3F85C51FFF7C5BA57989847FFF760
:1031200002BB48469847FFF7D5B94FF496419847F8
:10313000FFF7A0B957989847B9E448469847FFF772
:103140008ABB4846984777E49847FFF7BAB9334CAB
:10315000589B2068196899F864618DF88C11451C9A
:1031600089F80F10C9F85401256008160C140912CB
:103170008DF88901092589F80C004FF0000E8DF8B3
:103180008A41642089F80D40254A8DF88B11254B22
:1031900089F80E1089F809601C21FF26C9F804502F
:1031A00089F80A0089F80B1089F808E0304655467E
:1031B00009F1100115F8014B4440A942105D80EA65
:1031C00006001E5DF6D140EA062042F2FC0300B282
:1031D00003FB07B3C0F30725132489F8110089F80E
:1031E00010504FF4A8726846C3F85C41FFF75ABA12
:1031F000A8FBFF1F2C41002008420020DC440020D7
:10320000E4420020ECDE0100CC3D0020F4DE0100B1
:10321000EC3E0020FCDE01000C400020D8440020E1
:1032200010E1010010E2010094F84D31002B7EF412
:10323000EAAFD9F8806194F8510094F850103368DF
:1032400094F85320DB6894F85250000440EA01617E
:103250007A481143834241EA052140F0CB807368EC
:10326000012B02D0022B00F0CF804B0803F1376313
:1032700003F5D833B3FBF1F106F5BB56C1F3443285
:10328000B3691A70B369C1F347125A70B36901F098
:103290001F019972D9F8802194F8545094F8553050
:1032A00002F5BA511C3102F5BB50096843EA052307
:1032B00001FB03F3C360D9F8783142F2FC0002F558
:1032C000BB5200FB07B001FB03F33621136080F80B
:1032D0007C11FEF7F5BF93F8391093F880209142E6
:1032E0000AD0B9F8CA210132A9F8CA2193F881217C
:1032F00042F0200283F8812157994FF4AE7303FB0B
:1033000006F30A461A44D2F87CE0BEF1010F2BDD29
:103310000B4403F18004BEF102031946569300F0FA
:103320008980FF25464A474B284604EB010C14F8D8
:10333000011B4140A445505C80EA05005D5CF6D16C
:1033400040EA052000B2579A4FF4AE7303FB062300
:10335000569A1A44734492F8802093F87F3043EAD7
:1033600002231BB283420FD0B9F8CC2157994FF4F6
:10337000AE73013203FB0613A9F8CC2193F8812127
:1033800042F0400283F88121579A4FF4AE7303FB59
:1033900006F3D11891F88121002A7FF415AAB9F813
:1033A000BC210132A9F8BC2191F98120002ABFF685
:1033B0000BAAB9F8C421579901320B44A9F8C421CA
:1033C00093F88230052B2ED0062B7FF4FDA9B9F897
:1033D000C8310133A9F8C831FFF7F6B94846984714
:1033E000FEF769BF4FF496419847FEF734BF984700
:1033F000FEF758BF304698474CE7484698470028A4
:103400007FF497AAFEF75CBF4B0803F1B76303F59F
:103410005843B3FBF1F12FE748469847FFF79DBAB1
:103420009847FFF77ABAB9F8C6310133A9F8C6311F
:10343000FFF7CAB94FF0FF3085E700BFB9040000BD
:1034400010E1010010E20100AF4BB0492DE9F0415D
:10345000D3F8804123685A698A4214D19B6AAC4AE6
:10346000934240F0938041F27873E3581879C0F3A7
:103470004010002854D141F27873E358DA781106ED
:1034800005D4BDE8F0812046BDE8F04110471A7927
:103490001206F6D541F2FC524FF4AE75A2589D4883
:1034A00005FB024595F83820511C85F83810216835
:1034B0000E6A2A44864292F8391040F00A81D97186
:1034C000E38A0133E38295F838206B6B9B1A002B5B
:1034D000D7DC95F83930002B00F0E68023688E4A5F
:1034E0001B69934240F0058106F07EFD00EB400031
:1034F000400141F2707141F2747301226050E25454
:103500002368864ADB69934240F0ED8041F278738C
:103510002C22E358DA70172384F83030BDE8F081AC
:1035200026687F4A736A41F2FC519342655840F025
:10353000D38041F27873E358D879C0B24FF4AE73B8
:1035400003FB0543DA6F9918013281F88000DA67CE
:10355000218B01312183D3F88C118A421BDA93F934
:103560008130002B15DB33696B4A934240F0B88001
:1035700006F03AFD00EB4000400141F2707141F26B
:10358000747302226050E254BDE8F08120469847EF
:103590006FE7042AE7DD33695F4A934240F0A68073
:1035A00006F022FD00EB4000400141F2747241F24E
:1035B000707604214FF4AE73A05103FB0543A15470
:1035C00093F8391093F88020914208D0628C013230
:1035D000628493F8812142F0200283F881214FF424
:1035E000AE7101FB05F16318DF6F012F2ADD19466B
:1035F000B7F1020C01F1800168D0FF20DFF82481CF
:10360000DFF824E1024601EB0C0611F8013B5340C0
:10361000B14218F8032082EA00021EF80300F4D138
:1036200042EA002212B24FF4AE7303FB05439C44FE
:103630001F449CF8801097F87F3043EA01231BB2A7
:1036400093420CD0A28C4FF4AE73013203FB0543BE
:10365000A28493F8812142F0400283F881214FF443
:10366000AE7303FB05F3E21892F8811199B9A18AB0
:103670000131A18292F98120002A0CDAA28B234425
:103680000132A28393F88230052B38D0062B02D169
:10369000238C013323844FF4AE7303FB05442423AE
:1036A00084F88031BDE8F08123681B4A1B6993428E
:1036B00022D106F099FC00EB4000400141F270710C
:1036C00041F2747303226050E25419E74FF0FF3265
:1036D000A9E72046B047F3E62046984726682DE73D
:1036E0002046984749E72046984714E720469847E0
:1036F0005BE720469847FCE620469847DEE7E38BE9
:103700000133E383C7E700BFB098FF1F390900000A
:10371000A904000091040000410500008504000098
:103720009D04000010E1010010E20100AF4AB04921
:1037300042F27C232DE9F041D45823685A698A4229
:1037400014D19B6AAB4A934240F0938041F2787364
:10375000E3581879C0F34010002854D141F278732F
:10376000E358DA78110605D4BDE8F0812046BDE8BB
:10377000F04110471A791206F6D541F2FC524FF487
:10378000AE75A2589C4805FB024595F83820511C9F
:1037900085F8381021680E6A2A44864292F839105A
:1037A00040F00A81D971E38A0133E38295F8382029
:1037B0006B6B9B1A002BD7DC95F83930002B00F08F
:1037C000E68023688D4A1B69934240F0058106F02C
:1037D0000BFC00EB4000400141F2707141F2747348
:1037E00001226050E2542368854ADB69934240F02D
:1037F000ED8041F278732C22E358DA70172384F8B5
:103800003030BDE8F08126687E4A736A41F2FC518F
:103810009342655840F0D38041F27873E358D879E9
:10382000C0B24FF4AE7303FB0543DA6F991801324F
:1038300081F88000DA67218B01312183D3F88C1164
:103840008A421BDA93F98130002B15DB33696B4A0E
:10385000934240F0B88006F0C7FB00EB4000400107
:1038600041F2707141F2747302226050E254BDE87B
:10387000F081204698476FE7042AE7DD33695F4A05
:10388000934240F0A68006F0AFFB00EB4000400101
:1038900041F2747241F2707604214FF4AE73A0517C
:1038A00003FB0543A15493F8391093F8802091420B
:1038B00008D0628C0132628493F8812142F02002A8
:1038C00083F881214FF4AE7101FB05F16318DF6FBE
:1038D000012F2ADD1946B7F1020C01F1800168D0F1
:1038E000FF20DFF82481DFF824E1024601EB0C061B
:1038F00011F8013B5340B14218F8032082EA00025C
:103900001EF80300F4D142EA002212B24FF4AE7363
:1039100003FB05439C441F449CF8801097F87F30BC
:1039200043EA01231BB293420CD0A28C4FF4AE7336
:10393000013203FB0543A28493F8812142F0400247
:1039400083F881214FF4AE7303FB05F3E21892F87C
:10395000811199B9A18A0131A18292F98120002AAD
:103960000CDAA28B23440132A28393F88230052B18
:1039700038D0062B02D1238C013323844FF4AE734D
:1039800003FB0544242384F88031BDE8F0812368DB
:103990001A4A1B69934222D106F026FB00EB400035
:1039A000400141F2707141F2747303226050E2549D
:1039B00019E74FF0FF32A9E72046B047F3E620466B
:1039C000984726682DE72046984749E720469847BC
:1039D00014E7204698475BE720469847FCE62046D8
:1039E0009847DEE7E38B0133E383C7E7B098FF1F17
:1039F00039090000A90400009104000041050000FD
:103A0000850400009D04000010E1010010E20100A7
:103A1000AF4AB04944F278332DE9F041D4582368D5
:103A20005A698A4214D19B6AAB4A934240F0938010
:103A300041F27873E3581879C0F34010002854D14C
:103A400041F27873E358DA78110605D4BDE8F081C5
:103A50002046BDE8F04110471A791206F6D541F22A
:103A6000FC524FF4AE75A2589C4805FB024595F8F0
:103A70003820511C85F8381021680E6A2A44864285
:103A800092F8391040F00A81D971E38A0133E38258
:103A900095F838206B6B9B1A002BD7DC95F83930E2
:103AA000002B00F0E68023688D4A1B69934240F0AA
:103AB000058106F099FA00EB4000400141F2707177
:103AC00041F2747301226050E2542368854ADB6935
:103AD000934240F0ED8041F278732C22E358DA7083
:103AE000172384F83030BDE8F08126687E4A736A77
:103AF00041F2FC519342655840F0D38041F2787313
:103B0000E358D879C0B24FF4AE7303FB0543DA6FC4
:103B10009918013281F88000DA67218B0131218305
:103B2000D3F88C118A421BDA93F98130002B15DB14
:103B300033696B4A934240F0B88006F055FA00EBC7
:103B40004000400141F2707141F2747302226050F2
:103B5000E254BDE8F081204698476FE7042AE7DD8C
:103B600033695F4A934240F0A68006F03DFA00EBCD
:103B70004000400141F2747241F2707604214FF42A
:103B8000AE73A05103FB0543A15493F8391093F889
:103B90008020914208D0628C0132628493F88121A6
:103BA00042F0200283F881214FF4AE7101FB05F150
:103BB0006318DF6F012F2ADD1946B7F1020C01F1FE
:103BC000800168D0FF20DFF82481DFF824E102467D
:103BD00001EB0C0611F8013B5340B14218F80320E9
:103BE00082EA00021EF80300F4D142EA002212B277
:103BF0004FF4AE7303FB05439C441F449CF88010B4
:103C000097F87F3043EA01231BB293420CD0A28C79
:103C10004FF4AE73013203FB0543A28493F8812174
:103C200042F0400283F881214FF4AE7303FB05F3A9
:103C3000E21892F8811199B9A18A0131A18292F911
:103C40008120002A0CDAA28B23440132A28393F84C
:103C50008230052B38D0062B02D1238C01332384EC
:103C60004FF4AE7303FB0544242384F88031BDE890
:103C7000F08123681A4A1B69934222D106F0B4F9F5
:103C800000EB4000400141F2707141F27473032275
:103C90006050E25419E74FF0FF32A9E72046B047E1
:103CA000F3E62046984726682DE72046984749E7DF
:103CB0002046984714E7204698475BE720469847F8
:103CC000FCE620469847DEE7E38B0133E383C7E752
:103CD000B098FF1F39090000A904000091040000FA
:103CE00041050000850400009D04000010E1010072
:103CF00010E2010070B5154C154A164E164D2046BF
:103D000060230021FDF7DCFC04F503506023134A17
:103D100001213C30FDF7D4FC04F583406023104AB8
:103D200002217830FDF7CCFC32460E49002007F026
:103D3000D9FD214628460C4A0C4BFDF70BFF3246B5
:103D400028460B49BDE8704007F0CCBDB098FF1F76
:103D5000ECDE0100308CFF1FA8FBFF1FF4DE01002A
:103D6000FCDE01003D0500009898FF1FA498FF1F8E
:103D7000753D000070B500F58B4400F590450434A6
:103D80001835354B0360AC42064622D0DC3D05F1C8
:103D9000C40001F05FF805F1AC0001F05BF805F13B
:103DA000940001F057F805F1780001F06BF805F187
:103DB0005C0001F067F805F13C0001F04BF805F1FB
:103DC000240001F047F805F10C0001F043F8AC4283
:103DD000DCD106F584452435A4F5907404F5807093
:103DE00000F006FC04F1F40000F002FC04F1E8002D
:103DF00000F0FEFB04F1DC0000F0FAFB04F1D0005F
:103E000000F0F6FB04F1B40001F03CF804F1980076
:103E100001F050F804F17C0001F04CF804F160006E
:103E200001F048F804F1440001F044F804F12800DE
:103E300001F040F804F11C0000F0D8FB04F1100080
:103E400000F0D2FBA542C7D13046044B40F8D03B2E
:103E500000F074FC304670BD6CDB010094DA0100A8
:103E600070B500F58B4400F5904504341835384B97
:103E70000360AC42064622D0DC3D05F1C40000F0F0
:103E8000E9FF05F1AC0000F0E5FF05F1940000F05A
:103E9000E1FF05F1780000F0F5FF05F15C0000F0AE
:103EA000F1FF05F13C0000F0D5FF05F1240000F022
:103EB000D1FF05F10C0000F0CDFFAC42DCD106F5DE
:103EC00084452435A4F5907404F5807000F090FBCF
:103ED00004F1F40000F08CFB04F1E80000F088FB32
:103EE00004F1DC0000F084FB04F1D00000F080FB62
:103EF00004F1B40000F0C6FF04F1980000F0DAFF0E
:103F000004F17C0000F0D6FF04F1600000F0D2FF65
:103F100004F1440000F0CEFF04F1280000F0CAFFD5
:103F200004F11C0000F062FB04F1100000F05CFBE7
:103F3000A542C7D13046074B40F8D03B00F0FEFB0E
:103F4000304644F6180107F0AFF9304670BD00BFA7
:103F50006CDB010094DA01002DE9F04F99B00025E7
:103F60008846044602AE0846C749009601958DF87A
:103F7000085012F0A9FC00BB02210746204601F0C0
:103F800049FE7221204601F045FEDFF804837425C6
:103F900009E00137BFB22946204601F03BFE18F880
:103FA0000750002D7CD0022D4FF01001204601D08B
:103FB0008D42EED101F02EFEEBE7B44B8DF8275089
:103FC00093E803000DF1380902230F0C0890ADF8B7
:103FD00024101A468DF83A500D93072540F60D230C
:103FE00006A849460DF1200A8DF826700795ADF810
:103FF0003830CDF83090CDF818A007F0F7FC0DF16F
:10400000500B0746CDF848B057F8083BBB42054671
:1040100000F0A3821293836814936B6813930023B8
:104020002B722F606B60139A1299684607F0DEFCC2
:104030009649404612F048FC07461298584501D070
:1040400007F030F90C98484501D007F02BF9069895
:10405000504501D007F026F9002F40F0848102215D
:10406000204601F0D7FD7221204601F0D3FDDFF894
:1040700024820D250AE00137BFB22946204601F00F
:10408000C9FD18F80750002D00F0BF81022D4FF038
:104090001001204601D08D42EDD101F0BBFDEAE7D1
:1040A0001921204601F0B6FD0321204601F0B2FDA2
:1040B0000221204601F0AEFD44F214122368A158FB
:1040C0001B6A2046984702218046204601F0A2FD47
:1040D0007221204601F09EFD98F80070002F4FD10C
:1040E0001921204601F096FD0321204601F092FDA2
:1040F0000221204601F08EFD0221204601F08AFDBA
:104100007221204601F086FD0D21204601F082FD3E
:104110001921204601F07EFD0321204601F07AFDA1
:104120000221204601F076FD0221204601F072FDB9
:104130007221204601F06EFD72250027DFF85881BC
:1041400008E00137BFB22946204601F063FD18F8A8
:104150000750FDB1022D4FF01001204601D08D42D5
:10416000EFD101F057FDECE701F054FD0135ADB2A0
:104170003946204601F04EFD18F80570002FAFD0EB
:10418000022F4FF010012046EED08F42EED101F009
:1041900041FDEBE71921204601F03CFD03212046BB
:1041A00001F038FD0221204601F034FD44F21812DE
:1041B0002368A1581B6A2046984702218046204662
:1041C00001F028FD7221204601F024FD98F80070CE
:1041D000002F4FD11921204601F01CFD032120465C
:1041E00001F018FD0221204601F014FD02212046B5
:1041F00001F010FD7221204601F00CFD0D2120463A
:1042000001F008FD1921204601F004FD032120469C
:1042100001F000FD0221204601F0FCFC02212046B5
:1042200001F0F8FC7221204601F0F4FC642500271F
:10423000DFF8688008E00137BFB22946204601F068
:10424000E9FC18F807505DB3022D4FF0100120462D
:1042500001D08D42EFD101F0DDFCECE701F0DAFC9A
:104260000135ADB23946204601F0D4FC18F805708E
:10427000002FAFD0022F4FF010012046EED08F421A
:10428000EED101F0C7FCEBE704DF010058DF0100CD
:1042900010DF010060DF010028DF010040DF0100C6
:1042A0001921204601F0B6FC0321204601F0B2FCA2
:1042B0000221204601F0AEFC44F21C122368A158F2
:1042C0001B6A2046984702218046204601F0A2FC46
:1042D0007221204601F09EFC98F80070CFBB20466A
:1042E000192101F097FC2046032101F093FC2046A0
:1042F000022101F08FFC2046022101F08BFC2046B8
:10430000722101F087FC20460D2101F083FC20463C
:10431000192101F07FFC2046032101F07BFC20469F
:10432000022101F077FC01240098B04201D006F090
:10433000B9FF204619B0BDE8F08F01F06BFC0135E4
:10434000ADB23946204601F065FC18F80570002F23
:10435000C5D0022F4FF010012046EED08F42EED193
:1043600001F058FCEBE7834BCDF818A093E8070069
:10437000534603C302211A800A2700230A4640F647
:104380000D250D9106A8494607978DF82A308DF81E
:104390003A30ADF83850CDF8309007F027FB07469B
:1043A000CDF848B057F8083BBB42054600F0DB802B
:1043B0001293836814936B68139300232B726B60C2
:1043C0002F60139A1299684607F010FB694940461E
:1043D00012F07AFA05461298584501D006F062FFAD
:1043E0000C98484501D006F05DFF0698504501D075
:1043F00006F058FF002D49D040465F4912F064FA9C
:104400000446002847D000248EE71921204601F0F9
:1044100001FC0321204601F0FDFB0221204601F0B2
:10442000F9FB44F20813022154F80380204601F0FE
:10443000F1FB7221204601F0EDFB98F800704FB9B6
:1044400012E00135ADB23946204601F0E3FB18F821
:1044500005704FB1022F4FF01001204601D08F425E
:10446000EFD101F0D7FBECE72046192101F0D2FB98
:104470002046032101F0CEFB2046022101F0CAFBB9
:1044800020460D2101F0C6FB01244DE7204602F035
:104490003BF8012448E7DFF8E4A0DFF8E490DAF81D
:1044A00000800221404601F0B5FB4046722101F038
:1044B000B1FB0D25274608E00137BFB2294640462B
:1044C00001F0A8FB19F807504DB1022D4FF0100173
:1044D000404601D08D42EFD101F09CFBECE7404615
:1044E000192101F097FB4046032101F093FB404660
:1044F000022101F08FFBDAF80080DDF800904046E1
:10450000022101F087FB4046722101F083FB99F8FC
:104510000070C7B94046192101F07CFB40460321D9
:1045200001F078FB4046022101F074FBFCE601F04B
:1045300071FB0135ADB23946404601F06BFB19F80D
:104540000570002FE6D0022F4FF010014046EED04C
:104550008F42EED101F05EFBEBE710223946584660
:1045600005F0FEFB59E510223946584605F0F8FBE8
:1045700021E700BF78DF01003CDC0100508CFF1F09
:1045800084DF0100027D034622F0010280681A7573
:10459000704700BF08B5027D034622F00102806823
:1045A0001A750FF033FC08BD037D826923F0010307
:1045B000012A03750EBF8068836893FBF2F0704791
:1045C00038B5037D044623F00103806823750FF09E
:1045D0001DFC0546A0690FF019FC014628460FF0A6
:1045E0001DFD38BD704700BF704700BF704700BF5A
:1045F000704700BF024B0A464168186802F00EB8C7
:10460000508CFF1F10B50C21044606F04DFE2046CD
:1046100010BD00BF10B50C21044606F045FE204633
:1046200010BD00BF10B50C21044606F03DFE20462B
:1046300010BD00BF10B50C21044606F035FE204623
:1046400010BD00BF024B4168186802F00BB900BFF3
:10465000508CFF1F024B4168186802F043B900BF3D
:10466000508CFF1F024B4168186802F07BB800BFF6
:10467000508CFF1F024B4168186802F0B3B800BFAE
:10468000508CFF1F024B4168186803F041BF00BF08
:10469000508CFF1F024B4168186803F079BF00BFC0
:1046A000508CFF1FCB060A460DD5910623D5530625
:1046B00048BF164B416858BF4FF47A738361144B5F
:1046C000186801F0ABBF8B060AD44B064CBF42F210
:1046D0001073012383610E4B4168186801F09EBF7F
:1046E000510648BF0B4B416858BF64238361084B98
:1046F000186801F093BF510648BF074B416858BF87
:104700000A238361024B186801F088BF80969800E5
:10471000508CFF1F40420F00A0860100037D23F054
:1047200001030375704700BF037D23F00202027589
:10473000C3F34000704700BF704700BF704700BF21
:1047400030B40449044C0A684260551C0D60046092
:1047500030BC7047C0430020C0DF0100024B4168FD
:10476000186801F0BFBF00BF508CFF1F024B0A4604
:104770004168186802F054BA508CFF1F094AF0B41F
:10478000094C11682568094E416000234F1C1760D1
:10479000C36006600361037505B1C5602060F0BCAD
:1047A000704700BFC0430020C4430020DCDF01008D
:1047B0002DE9F04186B01646BDF83070BDF834E002
:1047C000BDF838C0BDF83C80F1B14968104D2C6887
:1047D0004CB1A04208D0224601E0904204D01269B8
:1047E000002AFAD1046128600A4C8360426820687C
:1047F000CDF810808DE88840CDF80CC0334602F02B
:10480000FBFA06B0BDE8F0814FF0FF31DEE700BFF4
:10481000C8430020508CFF1F037D8268C3F38001D2
:1048200091420AD022B923F0040303750120704796
:1048300043F004030375012070470020704700BF58
:104840000A49F0B40A4C0A6825680A4E42600023FF
:10485000571C01220F60C360066003610375C282AA
:10486000826105B1C5602060F0BC7047C043002084
:10487000C443002054E001002DE9F04F8BB01F46E7
:104880001646BDF850E0BDF854C0BDF85880BDF8DC
:104890006830BDF8709000295FD04968304D2C68B1
:1048A0004CB1A04208D0224601E0904204D01269E7
:1048B000002AFAD104612860C28A9A4218BFC382D2
:1048C00019F0100F0AD019F0200F3FD019F0400F47
:1048D00014BF244C4FF47A74846109E019F0200F5E
:1048E0002DD119F0400F14BF42F2107401248461DD
:1048F000199D8268D0F804B0DFF874A004FB05F5B8
:104900009542189A18BF8560CDF8249004FB02F9EF
:10491000179ADAF80000CDF8189004FB02F4059419
:104920001B9C08945A460795CDF81080CDF80CC012
:104930008DE8C04002F0ACFB0BB0BDE8F08F19F081
:10494000400F14BF084C64248461D1E719F0400F74
:1049500014BF064C0A248461CAE74FF0FF319DE77B
:10496000C84300208096980040420F00A0860100B6
:10497000508CFF1FF0B58BB0BDF84040BDF84470BF
:10498000BDF84860139D0094149C01970296159FF2
:10499000BDF8586003950494BDF85C50044C05972D
:1049A000069608950794FFF767FF0BB0F0BD00BFB0
:1049B00094E001008269836802FB01F29A420AD006
:1049C00010B5064B826004461868616801F0CAFFA2
:1049D000A368184610BD1846704700BF508CFF1FD3
:1049E00070B5094D4468286884B0BDF82060BDF8F2
:1049F000245000930196134602950A46214602F080
:104A00001FF804B070BD00BF508CFF1F30B40449C4
:104A1000044C0A684260551C0D60046030BC70474D
:104A2000C043002038E00100F0B587B004461646C8
:104A3000BDF83070BDF834E0BDF83850BDF83C002A
:104A400071B14968084A04901068626803950025AE
:104A50008DE888403346A56002F034FD07B0F0BD14
:104A60004FF0FF31EEE700BF508CFF1F10B4044C35
:104A70000B4600224168206810BC02F039B900BF23
:104A8000508CFF1F70B5094D4468286884B0BDF88C
:104A90002060BDF8245000930196134602950A4603
:104AA000214601F0CDFF04B070BD00BF508CFF1F48
:104AB0000A49F0B40A4C0A6825680A4E426000238D
:104AC000571C01220F60C360066003610375C28238
:104AD000826105B1C5602060F0BC7047C043002012
:104AE000C44300209CDF01002DE9F04788B0154643
:104AF000BDF84060BDF844C0BDF84880BDF85040E6
:104B0000BDF8589000295CD049682F4FD7F800A015
:104B1000BAF1000F0AD0504509D0524601E0904248
:104B200005D01269002AFAD1C0F810A03860C28AF4
:104B3000A24218BFC48219F0100F0BD019F0200F39
:104B400037D019F0400F14BF204A4FF47A728261B7
:104B500092460AE019F0200F23D119F0400F14BF3C
:104B600042F21072012282619246139F82680AFB10
:104B700007F7DFF864A0974218BF87604268DAF849
:104B800000000694159CCDF81C908DE84810059403
:104B90000497CDF80C802B4602F0D6FD08B0BDE896
:104BA000F08719F0400F14BF094A642282619246CF
:104BB000DBE719F0400F14BF064A0A2282619246D1
:104BC000D3E74FF0FF31A0E7C8430020809698005C
:104BD00040420F00A0860100508CFF1F826983684D
:104BE00002FB01F29A420AD010B5064B82600446DD
:104BF0001868616801F0B6FEA368184610BD184633
:104C0000704700BF508CFF1F70B5094D446828687D
:104C100084B0BDF82060BDF824500093019613467F
:104C200002950A46214601F00BFF04B070BD00BF9B
:104C3000508CFF1F30B40449044C0A684260551C74
:104C40000D60046030BC7047C04300201CE00100D0
:104C50002DE9F04188B004461646BDF83870BDF81D
:104C60003CE0BDF840C0DDF84480129DBDF84C002A
:104C700099B149680A4A069010686268059500254E
:104C80008DE88840CDF81080CDF80CC03346A56083
:104C900002F030FF08B0BDE8F0814FF0FF31E9E7E6
:104CA000508CFF1F10B5064B4468186882B00B4645
:104CB00000922146002203F0ABF802B010BD00BF05
:104CC000508CFF1F10B5064B4468186882B00B4625
:104CD00000922146012203F09BF802B010BD00BFF4
:104CE000508CFF1F024B0A464168186803F02EB92A
:104CF000508CFF1F024B4A684168186803F094B952
:104D0000508CFF1F70B5094D4468286884B0BDF809
:104D10002060BDF8245000930196134602950A4680
:104D2000214601F08DFE04B070BD00BF508CFF1F06
:104D300030B40449044C0A684260551C0D6004609C
:104D400030BC7047C043002000E0010070B5084C43
:104D50004E684168206884B0089DBDF824400093E7
:104D6000019513460294324603F0CCF904B070BDAD
:104D7000508CFF1F10B4034C4168206810BC03F036
:104D800023BB00BF508CFF1F024B0A4641681868C6
:104D900003F0ACBA508CFF1F30B5074D446828684B
:104DA00083B0BDF818500093019513460A4621467A
:104DB00003F02EFC03B030BD508CFF1F78B10D4ABC
:104DC0001368ABB14168586888420DD0186930B19A
:104DD0004268914204D0034618690028F8D1704710
:104DE00002691A61012070471B6913600120704736
:104DF00018467047C843002038B50446E0B1134A4E
:104E00001368D3B141685D688D4218D0D86830B15D
:104E10004268914209D00346D8680028F8D10C4A6C
:104E2000136843F00103136038BDC268DA6020469E
:104E3000FFF7C4FF012038BD38BD184638BDDB6818
:104E40001360FFF7BBFF012038BD00BFC443002043
:104E5000CC43002010B5034B03600446FFF7CCFFA2
:104E6000204610BDDCDF010010B5054B0360044691
:104E7000FFF7C2FF2046182106F016FA204610BDA3
:104E8000DCDF010010B5034B03600446FFF7B4FFFD
:104E9000204610BD54E0010010B5054B03600446E8
:104EA000FFF7AAFF20461C2106F0FEF9204610BDA0
:104EB00054E0010010B5034B03600446FFF79CFF6C
:104EC000204610BD9CDF010010B5054B0360044671
:104ED000FFF792FF20461C2106F0E6F9204610BDA0
:104EE0009CDF010010B5044C206820B1FFF766FF7D
:104EF00020680028FAD110BDC84300200D4B1B6864
:104F0000B3B15A68904209D0DB68002BF9D10A4945
:104F10000A6842F0020218460A6070479A68914295
:104F20001A7D18BF996042F001021A75012070477E
:104F300018467047C4430020CC4300200B4B1B682D
:104F400093B15A68904209D0DB68002BF9D1084927
:104F50000A6842F0020218460A6070471A7D42F061
:104F600002021A750120704718467047C44300209A
:104F7000CC43002030B51368CC5C83B00025202CD6
:104F800001EB0300019508D101330B44581A10605E
:104F9000184613F8014B202CF8D014B9204603B062
:104FA00030BD14466B4601AA054911F013FC18B137
:104FB0002268009B13442360019803B030BD00BFFA
:104FC00070E001002DE9F0434B78013B85B00646C7
:104FD0001546642B00F2E281DFE813F07400E00173
:104FE000E001D200D700DB009101E001E001E00127
:104FF000E001E001E001E001E001E001E001E001A9
:10500000E001E001E001E001E001E001E001E00198
:10501000E001E001E001E001E001E0019701A5010C
:10502000BC01E001E001E001E001E001E001E0019C
:10503000E001E001E001E001E001E001E001E00168
:10504000E001E001E001E001E001E001E001E00158
:10505000E001E001E001E001E001E001E001E00148
:10506000E001E001E001E001E001E001E001E00138
:10507000E001E001E001E001E001E001E001E00128
:10508000E001E001E001E001E001E001E001E00118
:10509000E001E001E001E001E001E001E001E00108
:1050A000E001D401650004AA002342F8043D29462A
:1050B000FFF760FF013802288CBF0020012005B0F7
:1050C000BDE8F083FFF70EFF42F2E00342F2D802A0
:1050D00042F2E401F558B458735844F20E12581BCA
:1050E000013C0127A042B75480F05A8142F2DC0211
:1050F0004FF0020EB75803EA070030445A1C80F8FC
:10510000D8E0501B8442725040F2B1813A403244A0
:105110000233722082F8D8007350581B06F5035EE4
:10512000774606F58248DFF854C30EF11C0E24378B
:1051300008F11408492100224FF0100914E0102949
:1051400014D0844240F24181DEF80000184030441F
:10515000013380F8D810581B3B60013292B21CF822
:105160000210002900F034810229E8D1844200F2C3
:105170002081D8F8001001310131C8F80010ECE7A7
:1051800003685B699847012099E701F085F80120E1
:1051900095E7036844F230175B689847F45BDFF8E3
:1051A000E0E20246601C06EB040816FA80F00B46AB
:1051B00044F232114FF0000C022508F801C0DEF86D
:1051C00000E0455444F210186519E01C16FA85F504
:1051D00016FA80F01EF8088005F801C0043400F8C3
:1051E00001800EF58241A4B2F4530F683D7875B189
:1051F00006F582403030311901F582410134A4B204
:1052000081F83250048017F8015F002DF3D144F289
:1052100008115EF80170397871B106F582403030BE
:10522000351905F582450134A4B285F832100480A1
:1052300017F8011F0029F3D144F204115EF8017040
:10524000397871B106F582403030351905F582455F
:105250000134A4B285F83210048017F8011F002928
:10526000F3D127463821C1F1200E03FA0EFE22FAAF
:1052700001F5F01945EA0E05A1F1200E00F5824076
:1052800023FA0EFE083945EA0E05013711F1080F21
:1052900080F83250BFB244F23210E4D144F20C151F
:1052A00004F1080136F805E016FA81F104F1090766
:1052B00004F10A054FEA2E240C5416FA87F744F23B
:1052C0003014ADB206F5824107F800E032313553B3
:1052D000002D00F0C680684F0D44002411F8010B2A
:1052E0004440E4B2A9423C5DF8D13046009400F05D
:1052F000FFFF44F230130022F2520120DFE644F2B5
:105300000E130022C2540120D9E604AA002342F859
:10531000043D2946FFF72EFEFFF710FE44F22C1342
:105320000120F052CBE604AC002344F8043D2946AA
:105330002246FFF71FFE2246074629463046FFF762
:1053400019FE01463846FFF7D9FD44F22C1301201F
:10535000F052B4E604AC002344F8043D294622464A
:10536000FFF708FE2246074629463046FFF702FEB1
:1053700044F22E1301240146F4523846FFF7BEFDD5
:1053800020469CE604AF002447F8044D29463A46DF
:10539000FFF7F0FD96284DD0204690E600208EE6DF
:1053A00044F21412B2583A4444F2141101327250C9
:1053B000B4E6DEF8000018403044013380F8D8909D
:1053C000581B84423B603FF6BFAED8F80010D3E6CE
:1053D000844224D942F2DC02591CB25802EA03008A
:1053E00030444FF0190E80F8D8E042F2E407481B31
:1053F0008442F15131D9981C11403144451B4FF082
:10540000030EAC4281F8D8E0F0512CD9024032446E
:105410000333022182F8D8100120F3514FE644F201
:105420001413F3580133013344F214120133B3500F
:10543000012044E63A4629463046FFF79BFD3A46AE
:10544000044629463046FFF795FD44F2FC1244F22B
:10545000FA13B052F452012031E644F21413F35817
:10546000E1E72C4641E744F21413F358DCE744F239
:1054700014111346725897E7D443002078E00100D6
:10548000508CFF1F2DE9F04F0D78022D83B0884618
:105490000446924600F0DC82B5FA85F56D09236872
:1054A000AA4A9B6B934240F06F82002652464146C7
:1054B0002046FEF751FD236806435B6B524641468A
:1054C00020469847354355EA0003019303D00198DD
:1054D00003B0BDE8F08F23689D4A9B69934240F07A
:1054E000F68242F2E00342F2D80242F2E406E558C4
:1054F000A058A35901385A1B824280F04B8242F2D5
:10550000DC02591CA75803EA070222444FF0020E9E
:1055100082F8D8E04A1B9042A15140F214833940EE
:1055200021440233722281F8D820A3515A1B04F57A
:10553000035EF14604F5824CDFF818B20EF11C0E42
:1055400009F124090CF1140C5526002715E0102E42
:1055500016D09042114640F23682DEF80020013724
:105560001A40A118BFB281F8D86001331BF8076058
:10557000C9F800305A1B11468EB1022E1146E6D1F1
:10558000904200F21082DCF8006001360137BFB2B1
:105590000136CCF800601BF80760002EEDD1904278
:1055A00040F25A8242F2DC025E1CA25802EA030177
:1055B00021444FF0190E81F8D8E042F2E407711B44
:1055C0008842E65140F288821640A1194FF0030E3E
:1055D0009E1C81F8D8E0711B8842E65140F2BC82E3
:1055E00003F1030E16402644C5EB0E014FF0020CEA
:1055F000814286F8D8C044F807E080F094821E1DEE
:105600000EEA020EA644711B81428EF8D8C0E65104
:1056100080F0A782324022440533722182F8D810EC
:10562000E35198F80070002F00F0828204F5035CCB
:10563000E64604F582490CF11C0C0EF1240E09F12A
:10564000140900265A1B4FF0100B15E0102F16D02E
:105650009042114640F2C881DCF800201A40A1189F
:1056600001360133B6B281F8D870CEF8003018F8A0
:1056700006705A1B11468FB1022F1146E6D1904297
:1056800000F2A481D9F80070013701360137B6B2B3
:10569000C9F8007018F80670002FEDD1904240F262
:1056A000128242F2DC025E1CA25802EA030121448B
:1056B0004FF0190E81F8D8E042F2E407711B8842DE
:1056C000E65140F22B821640A1194FF0030E9E1CAA
:1056D00081F8D8E0711B8842E65140F24C8203F118
:1056E000030E16402644C5EB0E014FF0020C81421A
:1056F00086F8D8C044F807E080F00B821E1D0EEA41
:10570000020EA644711B81428EF8D8C0E65180F08B
:105710002D82324022440533722182F8D810E351A1
:105720009AF80070002F00F0068204F5035CE6464C
:1057300004F582480CF11C0C0EF1240E08F114083B
:1057400000265A1B4FF010091CE000BF7504000032
:10575000010C0000A8DB0100102F16D0904211466A
:1057600040F25381DCF800201A40A11801360133C1
:10577000B6B281F8D870CEF800301AF806705A1B0D
:1057800011468FB1022F1146E6D1904200F22F81CF
:10579000D8F80070013701360137B6B2C8F800708A
:1057A0001AF80670002FEDD1904240F2888142F243
:1057B000DC025E1CA25802EA03012144192781F889
:1057C000D87042F2E40E711B884244F80E6040F239
:1057D0009B811640A11903279E1C81F8D870711B6C
:1057E000884244F80E6040F2A981DF1C164026442E
:1057F000791B4FF0020C814286F8D8C044F80E7035
:1058000080F07D811E1D17402744711B814287F85F
:10581000D8C044F80E6080F0BF8132402244053386
:10582000722182F8D81044F80E30591B884240F299
:10583000EF8042F2DC07591CE2591A40224442F23E
:10584000E406C5EB010E4FF00D0C704582F8D8C090
:10585000A15140F29F81E259114021449F1C4FF019
:10586000190E81F8D8E0791B8842A75140F2428195
:1058700017402744D91C4FF0030E87F8D8E04F1B80
:10588000B842A15140F281811F1D11402144C5EB56
:10589000070C4FF0020E844581F8D8E0A75180F044
:1058A000248117402744591D87F8D8E04F1B8742B1
:1058B000A15180F065810A4022440633722182F8AA
:1058C000D810A35104F5035E774604F58248DFF84B
:1058D000D4C20EF11C0E243708F1140855260021FD
:1058E0005A1B4FF0100912E0102E12D0904240F2D5
:1058F000AC80DEF8002001311A40224489B282F8DF
:10590000D8601CF8016001335A1B3B6086B1022E3F
:10591000EAD1904200F28D80D8F800600136013162
:1059200089B20136C8F800601CF80160002EEED183
:10593000904240F2B78042F2DC02591CA25802EABF
:10594000030727444FF0190E87F8D8E042F2E40627
:105950004F1BB842A15140F2C4809F1C114021440A
:105960007D1B4FF0030EA84281F8D8E0A75140F20A
:10597000EF803A40224401980333022182F8D81084
:10598000A35103B0BDE8F08F5246414620469847E8
:1059900006468BE544F214116158013144F21416A5
:1059A0000131A151C3E5DEF800201A402244013341
:1059B0004FF0100182F8D8105A1B9042C9F80030FD
:1059C00011463FF6CAADDCF80060DFE5DCF80020E8
:1059D0001A402244013382F8D8B05A1B9042CEF8C4
:1059E000003011463FF638AED9F800704DE6DCF8CD
:1059F00000201A402244013382F8D8905A1B90426A
:105A0000CEF8003011463FF6ADAED8F80070C2E6D1
:105A100044F2141162580132625044F21412A25836
:105A2000013201320132013244F21411013262506A
:105A300048E7DEF800201A402244013382F8D8906B
:105A40005A1B90423B603FF654AFD8F8006066E7BF
:105A5000FFF7B8FA054622E544F21412A2580132C3
:105A600001320132013244F214160132A25198F887
:105A70000070002F7FF4DAAD0132013201320132C1
:105A800044F214160132A2519AF80070002F7FF4EC
:105A90004CAE013201320132013244F214160132AD
:105AA000A251C3E644F21413E3580133013344F224
:105AB000141201980133A35003B0BDE8F08F44F2F3
:105AC0001412A258E5E744F21412A258D4E7524641
:105AD000414620469847FAE444F214123346A2584D
